19LOG_ACT2021081900000000000000000000000000000000000000000000000000000000000000000000000000000000000000000000000000000000000000000000000000000000000000000000000000000000000000000000000000000000000000000000000000000000000000000000000000000000000000000
25   543924021548800020210819010826000000257890000000000016014600012313838683601000283903           Kindle Svcs            866-321-8851  WA                                    Estados Unidos                                            Compra54392402150
25   543924021548800020210819011417000000358240000000000016014600012313434445201000283987           AMZN Digital           888-802-3080  WA                                    Estados Unidos                                            Compra54392402150
25   543924021548800020210819011845000000273880000000000016014600012313636162501000284051           Kindle Svcs            866-321-8851  WA                                    Estados Unidos                                            Compra54392402150
25   5439240220706008202108190548110000001080000000000000  4192782pDhKPiUXqFSQ01000285761          TEXAS FINE MTY TC      APODACA NL    MEX                                            México                                            Compra54392402200
25   543924021548800020210819071845000000282880000000000016014600012313030749601000285862           Kindle Svcs            866-321-8851  WA                                    Estados Unidos                                            Compra54392402150
25   5439240220670006202108190741210000001250000000000000  415222421231044120601000286370          STARBUCKS CAR 57 SLP S SN LUIS POTOS MEX                                            México                                            Compra54392402200
25   5439240220670006202108190811270000010756200000000000  410063300040501714801000286673          HOME DEPOT1161 SLP 2   SN LUIS POTOS MEX                                            México                                            Compra54392402200
25   5439240207207004202108190832080000002000000000000000  865256677833148378601000286979          UNITICKET              SANTA CRUZ XO MEX                                            México                                            Compra54392402070
25   5439240207207004202108190909370000001000000000000000  156311352679376537301000287645          CONV SHOP OAX          SANTA CRUZ XO MEX                                            México                                            Compra54392402070
25   5439240225391004202108190920210000004090000000000000  067044851834508629201000287849          ENVIAFLORES COM        MONTERREY NL  MEX                                            México                                            Compra54392402250
25   5439240220706008202108190952490000005940000000000000  799324300000000027801000288574          HOTEL HOTSSON IRAPUATO IRAPUATO GTO  MEX                                            México                                            Compra54392402200
25   5439240205975008202108190953310000016290000000000000000000000        454102000288594          SUC MATAMOROS          MATAMOROS     MEX                                            México                                        Retiro ATM54392402050
25   5439240212636007202108191031190000006000000000000000  7595287CMfbyPWYb6Ko01000289552          SERV PAKMAIL VALLE OTE SAN PEDRO GAR MEX                                            México                                            Compra54392402120
25   543924022417800620210819180746000000184000000000000026995700012311632487201000290536          RAPPI*SAFE MEXICO      Mexico City   MEX                                            México                                            Compra54392402240
25   5439240215488000202108191848570000002765900000000000  4143789 2529509103701000291777          PAYPAL3                MEXICO CITY   MEX                                            México                                            Compra54392402150
25   5439240212636007202108191209100000007600600000000000  841971112912529232001000292421          HEB VALLE ORIENTE      SN PEDRO GARZ MEX                                            México                                            Compra54392402120
25   5439240210846004202108191231240000002980000000000000  110717021231006478801000293109          12748 ZARAPUNTOVALLE   SAN PEDRO GAR MEX                                            México                                            Compra54392402100
25   5439240212636007202108191239510000012160000000000000  167752511007248446101000293392          F AHORRO MTTO LAS TOR  MONTERREY NL  MEX                                            México                                            Compra54392402120
25   5439240222970008202108191310180000000610000000000000  069555100078390284201008000000          SORIANA7 CONTRY        MONTERREY NL  MEX                                            México                                 Tarjeta Bloqueada54392402220
25   5439240222970008202108191310180000000610000000000000  069555100078390284201008000000          SORIANA7 CONTRY        MONTERREY NL  MEX                                            México                                 Tarjeta Bloqueada54392402220
25   5439240222970008202108191310180000000610000000000000  069555100078390284201008000000          SORIANA7 CONTRY        MONTERREY NL  MEX                                            México                                 Tarjeta Bloqueada54392402220
25   5439240222970008202108191310350000000610000000000000  069555100078390283601008000000          SORIANA7 CONTRY        MONTERREY NL  MEX                                            México                                 Tarjeta Bloqueada54392402220
25   5439240222970008202108191310350000000610000000000000  069555100078390283601008000000          SORIANA7 CONTRY        MONTERREY NL  MEX                                            México                                 Tarjeta Bloqueada54392402220
25   5439240222970008202108191310350000000610000000000000  069555100078390283601008000000          SORIANA7 CONTRY        MONTERREY NL  MEX                                            México                                 Tarjeta Bloqueada54392402220
25   5439240223212004202108191315150000003800000000000000  109863512311874798501000294631          MERCADO PAGO 4         CIUDAD DE MEX MEX                                            México                                            Compra54392402230
25   5439240218488007202108191329370000008313400000000000  673910600000008160801000295154          SUPERCENTER SN NICOLAS SN NICOLAS DE MEX                                            México                                            Compra54392402180
25   5439240212636007202108191343360000012300000000000000  832130100000000026701000295680          PIK A BUU              SN PEDRO GARZ MEX                                            México                                            Compra54392402120
25   5439240222970008202108191356100000000255000000000000  069555100070623811401000296122          SORIANA7 CONTRY        MONTERREY NL  MEX                                            México                                            Compra54392402220
25   5439240212636007202108191448510000002400000000000000  736555500000000015401000298128          BETOS EXPRESS          SN PEDRO GARZ MEX                                            México                                            Compra54392402120
25   5439240219618008202108191450440000010280000000000000  827221500000000029901000298202          KRYPTON VAPE STORE     MONTERREY NL  MEX                                            México                                            Compra54392402190
25   5439240218400002202108191456150000000160000000000000  648689800132631354801000298460          OXXO SANTIAGO          MONTERREY NL  MEX                                            México                                            Compra54392402180
25   5439240218400002202108191457400000000100000000000000  648689800132631765601000298508          OXXO SANTIAGO          MONTERREY NL  MEX                                            México                                            Compra54392402180
25   5439240219618008202108191503280000002230000000000000  440038800132633287101000298715          OXXO LA CAPITAL MTY    MONTERREY NL  MEX                                            México                                            Compra54392402190
25   543924022017500620210819150549000000818000000000000000000000050060819349502000298732          SENDERO NORTE             NUEVO LEON MEX                                            México                                        Retiro ATM54392402200
25   5439240220677001202108191553140000008547000000000000  566316652703590735401000300587          REST EL ASADOR         TAMPICO TAMPS MEX                                            México                                            Compra54392402200
25   5439240211289006202108191607180000028700000000000000  631043700029609052901000301088          MERCADO PAGO           CIUDAD DE MEX MEX                                            México                                            Compra54392402110
25   5439240220706008202108191628460000008415000000000000  4147094iw071dDE7nSl01000301850          LINDO SINALOA          IRAPUATO GTO  MEX                                            México                                            Compra54392402200
25   5439240220088001202108191651360000000500000000000000  775090300000000018601000302589          GELOW HELADOS          MONTERREY NL  MEX                                            México                                            Compra54392402200
25   5439240220677001202108191700220000001600000000000000  762893377833166401301000302908          DAYTONA LOMAS          TAMPICO TAMPS MEX                                            México                                            Compra54392402200
25   5439240220706008202108191702510000001920000000000000  115799921231049339601000302981          STARBUCKS IRAPUATO     IRAPUATO GTO  MEX                                            México                                            Compra54392402200
25   5439240220670006202108191726330000014158400000000000  788474000035713076101000303784          GASP SOLEDAD MATEHUALA SOLEDAD DE GR MEX                                            México                                            Compra54392402200
25   5439240220846002202108191725420000000979000000000000  648417400132670648501000303786          OXXO TAME              SAN LUIS POTO MEX                                            México                                            Compra54392402200
25   5439240220670006202108191729040000000480000000000000  411739000132671341301000303898          OXXONUEVA SOLEDAD SLP  SOLEDAD DE GR MEX                                            México                                            Compra54392402200
25   5439240213809009202108191812480000001180000000000000  103632818132308993501000305410          EXTRA K LILAS          MEXICO CITY   MEX                                            México                                            Compra54392402130
25   5439240223185002202108191820470000006916900000000000  756316500000000231201000305722          SUPER CTO COMER ROMA   MONTERREY NL  MEX                                            México                                            Compra54392402230
25   5439240219732007202108191852180000008400400000000000  836302321231016673701000306937          KARZO GASOL ES MORELOS MATAMOROS TAM MEX                                            México                                            Compra54392402190
25   5439240220706008202108191858020000000219000000000000  427282900132697895601000307218          OXXO ALDAMA BJX        IRAPUATO GTO  MEX                                            México                                            Compra54392402200
25   5439240220670006202108191925440000016348000000000000000000000      11240702000308293          BANCO SANTANDER        SAN LUIS POTO MEX                                            México                                        Retiro ATM54392402200
25   5439240220706008202108191931550000002461000000000000  867442300000000014301000308523          GAS SERVIEXPRESS APTO2 SILAO GTO     MEX                                            México                                            Compra54392402200
25   5439240220670006202108191954380000001310000000000000  840095900543804322001000309441          REST SUBWAY HEB        AGUASCALIENTE MEX                                            México                                            Compra54392402200
25   5439240220846002202108192018160000006303000000000000  419515521395789516101000310398          REST FUHAO             SAN LUIS POTO MEX                                            México                                            Compra54392402200
25   5439240215417009202108192021220000009400000000000000  789314900035729498501000310519          IZZI WEB PAGO          CIUDAD DE MEX MEX                                            México                                            Compra54392402150
25   5439240215488000202108200332470000002660000000000000  4143789 2529529584101000310974          PAYPAL3                MEXICO CITY   MEX                                            México                                            Compra54392402150
25   5439240207396005202108192049340000074700000000000000  843462200000000019601000311633          LA BUENA BARRA         CIUDAD DE MEX MEX                                            México                                            Compra54392402070
25   5439240222970008202108192110130000001590000000000000  648005700132740507101000312401          OXXO ALEJANDRO MAGNO   MONTERREY NL  MEX                                            México                                            Compra54392402220
25   5439240222970008202108192113290000001729400000000000  814548167835055458801000312493          D LOCAL*DIDI MOBILITY  MEXICO CITY   MEX                                            México                                            Compra54392402220
25   543924021548800020210819232938000000108060000000000016014600012323434795001000314659           AMZN Digital           888-802-3080  WA                                    Estados Unidos                                            Compra54392402150
9900000057000000000000000000000000000000000000000000000000000000000000000000000000000000000000000000000000000000000000000000000000000000000000000000000000000000000000000000000000000000000000000000000000000000000000000000000000000000000000000000000000
