19LOG_ACT2021080900000000000000000000000000000000000000000000000000000000000000000000000000000000000000000000000000000000000000000000000000000000000000000000000000000000000000000000000000000000000000000000000000000000000000000000000000000000000000000
25   543924021548800020210809014031000000064810000000000016014600012213333088401000945803           Kindle Svcs            866-321-8851  WA                                    Estados Unidos                                            Compra54392402150
25   5439240219756006202108091117180000125320700000000000900220DLH12210949560201000946803          LUFTHANSA              FRANKFURT     DEU                                          Alemania                                            Compra54392402190
25   543924021975600620210809114011000005326720000000000015853236921080918681101000946879          JACK WOLFSKIN STORE    FRANKFURT     DEU                                                                                              Compra54392402190
25   543924021136600220210809151508000002271880000000000015670053600000000861501000948041          RESTAURANTE EL TERMET  VILA-REAL     ESP                                            España                                            Compra54392402110
25   5439240219950005202108090615190000000558600000000000MWU4ZT35U08090075042101000948044          UBER* PENDING          CIUDAD DE MEX MEX                                            México                                            Compra54392402190
25   5439240223681000202108090939110000008500000000000000  827638308090939116801000949577          NETPAY*VIVA AEROBUS    APODACA NL    MEX                                            México                                            Compra54392402230
25   543924020741400620210809111655000000200040000000000018841800012216969285001000950552           SQ *FASHION OUTLETS OF Rosemont      IL                                    Estados Unidos                                            Compra54392402070
25   5439240215417009202108091023590000001990000000000000  518804000029283260801000950713          ITAM MU                MEXICO CITY   MEX                                            México                                            Compra54392402150
25   5439240223681000202108091027040000005380000000000000  4192782yi1nsWcIH1xi01000950790          TEXAS FINE MTY TC      APODACA NL    MEX                                            México                                            Compra54392402230
25   5439240211289006202108091220270000004900000000000000  109863512211775005401000954308          MERCADO PAGO 4         CIUDAD DE MEX MEX                                            México                                            Compra54392402110
25   5439240212636007202108091228010000001806400000000000  841971160660860209001000954583          HEB VALLE ORIENTE      SN PEDRO GARZ MEX                                            México                                            Compra54392402120
25   5439240220846002202108091240560000020970000000000000  843072400000000071801000955003          BIOANALIS Y SERV HEMAT MONTERREY NL  MEX                                            México                                            Compra54392402200
25   5439240220705000202108091244170000005780000000000000  816552917444300026701000955117          EL PARIENTE ALIMENTOS  MONTEMORELOS  MEX                                            México                                            Compra54392402200
25   543924021548800020210809135604000000367870000000000016014600012213333684701000955493           AMZN Digital           888-802-3080  WA                                    Estados Unidos                                            Compra54392402150
25   543924021548800020210809140102000000350060000000000016014600012213232483001000955672           AMZN Digital           888-802-3080  WA                                    Estados Unidos                                            Compra54392402150
25   543924021548800020210809140316000000324660000000000016014600012213939997101000955745           AMZN Digital           888-802-3080  WA                                    Estados Unidos                                            Compra54392402150
25   543924021548800020210809140354000000324860000000000016014600012213434936801000955772           AMZN Digital           888-802-3080  WA                                    Estados Unidos                                            Compra54392402150
25   5439240220870002202108091304440000000500000000000000  423602500000756436301000955804          TELCEL RECARGAS FONY   CIUDAD DE MEX MEX                                            México                                            Compra54392402200
25   543924021548800020210809140734000000216240000000000016014600012214747085901000955915           Kindle Svcs            866-321-8851  WA                                    Estados Unidos                                            Compra54392402150
25   543924021548800020210809141846000000194640000000000016014600012213333186901000956249           Kindle Svcs            866-321-8851  WA                                    Estados Unidos                                            Compra54392402150
25   543924021548800020210809141928000000324660000000000016014600012214444769201000956276           AMZN Digital           888-802-3080  WA                                    Estados Unidos                                            Compra54392402150
25   543924021548800020210809141941000000313860000000000016014600012214343720201000956282           AMZN Digital           888-802-3080  WA                                    Estados Unidos                                            Compra54392402150
25   543924021548800020210809142018000000173030000000000016014600012214747908201000956301           AMZN Digital           888-802-3080  WA                                    Estados Unidos                                            Compra54392402150
25   5439240220846002202108090120350000010329100000000000  402851108090120355701000956311          OXXO GAS VALLE ALTO    MONTERREY NL  MEX                                            México                                            Compra54392402200
25   5439240205975008202108091325240000004990000000000000  417698800070179127001000956483          HOME DEPOT MATAMOROS   MATAMOROS TAM MEX                                            México                                            Compra54392402050
25   5439240207207004202108091330480000001543500000000000  115762900000000004301000956602          AB LA SOLEDAD REFORMA  OAXACA DE JUA MEX                                            México                                            Compra54392402070
25   5439240220629002202108091344150000000400000000000000  593063100130133320901000957171          OXXO BERNAL CENTRO QRF EZEQUIEL MONT MEX                                            México                                            Compra54392402200
25   5439240223681000202108091406040000010348000000000000000000000      69248802000957930          BANCO SANTANDER        EZEQUIEL MONT MEX                                            México                                        Retiro ATM54392402230
25   543924021548800020210809153642000000273650000000000016014600012213333774901000959157           AMZN Digital           888-802-3080  WA                                    Estados Unidos                                            Compra54392402150
25   543924021548800020210809153731000000129620000000000016014600012213838170101000959191           AMZN Digital           888-802-3080  WA                                    Estados Unidos                                            Compra54392402150
25   5439240220705000202108091501140000000420000000000000  450937800130156346801000960115          OXXO ZARAGOZA II       VICTORIA TAMP MEX                                            México                                            Compra54392402200
25   5439240220705000202108091509140000007000100000000000  702292887833286880301000960387          GASOL ECG              CD VICTORIA T MEX                                            México                                            Compra54392402200
25   5439240223681000202108091649160000008760000000000000  773552900000000262501000964136          LA VAKA ANTEA          SANTIAGO DE Q MEX                                            México                                            Compra54392402230
25   5439240220890000202108091716410000001150000000000000  790500300060389375901000965047          HOME DEPOT             CUAUTITLAN IZ MEX                                            México                                            Compra54392402200
25   5439240207396005202108091746180000027197500000000000  849408100000000014301000966081          REST LA BULLA          CIUDAD DE MEX MEX                                            México                                            Compra54392402070
25   5439240220890000202108091756230000001880000000000000  4198566HPyHHWM80N1R01000966486          LA CASA DE TONO PERINO CUAUTITLAN IZ MEX                                            México                                            Compra54392402200
25   5439240220890000202108091803440000000590000000000000  713972900000000042101000966757          HOTEL IBIS MX PERINTE  CUAUTITLAN IZ MEX                                            México                                            Compra54392402200
25   5439240212636007202108091811260000009444500000000000  841971123894121042801000967033          HEB VALLE ORIENTE      SN PEDRO GARZ MEX                                            México                                            Compra54392402120
25   5439240219618008202108091811010000000350000000000000  440038800130210731901000967047          OXXO LA CAPITAL MTY    MONTERREY NL  MEX                                            México                                            Compra54392402190
25   5439240212636007202108091845120000004963700000000000  030004600000000041301000968276          SUPER MODE GM          SN PEDRO GARZ MEX                                            México                                            Compra54392402120
25   5439240212636007202108091901580000001709200000000000  111286500000100180901000968848          CITY MARKET MTY 419    SAN PEDRO GAR MEX                                            México                                            Compra54392402120
25   543924021548800020210809201846000000259650000000000016014600012224848184101000969613           Kindle Svcs            866-321-8851  WA                                    Estados Unidos                                            Compra54392402150
25   5439240218936005202108091919490000002580000000000000  792751780721081315901000969650          CLIP MX*ENTERTAINING I CIUDAD DE MEX MEX                                            México                                            Compra54392402180
25   5439240220677001202108091941150000002540000000000000  4001173mPnesX7U1vDs01000970457          DOMINOS TDA 11101      TAMPICO TAMPS MEX                                            México                                            Compra54392402200
25   5439240219950005202108092055530000000430100000000000  814548193833584043201000973039          D LOCAL*DIDI MOBILITY  MEXICO CITY   MEX                                            México                                            Compra54392402190
25   5439240207207004202108092114240000000640000000000000  166188311007154852701000973644          F AHORRO OXRE REFORMA  OAXACA OAX    MEX                                            México                                            Compra54392402070
25   5439240224178006202108092132210000002585000000000000  794849000206478317501000974183          7 ELEVEN PALESTINA     MONTERREY NL  MEX                                            México                                            Compra54392402240
25   5439240218936005202108092136420000000500000000000000  101529725450011675701000974320          ASUR C CONV SHOP 16    BENITO JUAREZ MEX                                            México                                            Compra54392402180
9900000048000000000000000000000000000000000000000000000000000000000000000000000000000000000000000000000000000000000000000000000000000000000000000000000000000000000000000000000000000000000000000000000000000000000000000000000000000000000000000000000000
