19LOG_ACT2021080400000000000000000000000000000000000000000000000000000000000000000000000000000000000000000000000000000000000000000000000000000000000000000000000000000000000000000000000000000000000000000000000000000000000000000000000000000000000000000
25   5439240215417009202108040130070000005380000000000000  797911293800534128701000780367          AMAZON MX              MEXICO CITY   MEX                                            México                                            Compra54392402150
25   5439240220182002202108040409340000001790000000000000  788982493800540426601008000000          AME*SPOTIFY CR         MEXICO CITY   MEX                                            México                                 Tarjeta Bloqueada54392402200
25   5439240220182002202108040409340000001790000000000000  788982493800540426601008000000          AME*SPOTIFY CR         MEXICO CITY   MEX                                            México                                 Tarjeta Bloqueada54392402200
25   5439240220182002202108040409340000001790000000000000  788982493800540426601008000000          AME*SPOTIFY CR         MEXICO CITY   MEX                                            México                                 Tarjeta Bloqueada54392402200
25   543924021136600220210804120822000000425030000000000003081199600000004831701000781248          FARMACIA               LA VALL D'UIX ESP                                            España                                            Compra54392402110
25   5439240224881005202108040401160000000588900000000000MWU4ZT35U08040088514101000781410          UBER* PENDING          CIUDAD DE MEX MEX                                            México                                            Compra54392402240
25   543924021052200120210804131224000001298710000000000015672491600000000063501000781456          CAMBIO DENTAL,S L      ONDA          ESP                                            España                                            Compra54392402100
25   543924021136600220210804131934000000236130000000000003652246400000000000601000781491          JARQUE BARBER          VALL D'UXO    ESP                                            España                                            Compra54392402110
25   5439240220677001202108040540410000000999100000000000MWU4ZT35U08040010884301051000000          UBER* PENDING          CIUDAD DE MEX MEX                                            México                              Not sufficient funds54392402200
25   5439240220677001202108040540410000000999100000000000MWU4ZT35U08040010884301051000000          UBER* PENDING          CIUDAD DE MEX MEX                                            México                              Not sufficient funds54392402200
25   5439240220677001202108040540410000000999100000000000MWU4ZT35U08040010884301051000000          UBER* PENDING          CIUDAD DE MEX MEX                                            México                              Not sufficient funds54392402200
25   5439240224881005202108040906040000000697400000000000  814548167799843206701000783267          D LOCAL*DIDI MOBILITY  MEXICO CITY   MEX                                            México                                            Compra54392402240
25   543924022007100720210804105735000000000000000000000005992100012164444156001000784388           AIRBNB INC             415-800-5959  CA                                    Estados Unidos                                            Compra54392402200
25   543924021995000520210804100500000000230740000000000000000000000004570131402008000000          BANAMEX                CIUDAD DE MEX MEX                                            México                                 Tarjeta Bloqueada54392402190
25   543924021995000520210804100500000000230740000000000000000000000004570131402008000000          BANAMEX                CIUDAD DE MEX MEX                                            México                                 Tarjeta Bloqueada54392402190
25   543924021995000520210804100500000000230740000000000000000000000004570131402008000000          BANAMEX                CIUDAD DE MEX MEX                                            México                                 Tarjeta Bloqueada54392402190
25   5439240219950005202108041008260000000550000000000000  796506210200711103601008000000          CQC PORTAL SAN ANGEL 2 CIUDAD DE MEX MEX                                            México                                 Tarjeta Bloqueada54392402190
25   5439240219950005202108041008260000000550000000000000  796506210200711103601008000000          CQC PORTAL SAN ANGEL 2 CIUDAD DE MEX MEX                                            México                                 Tarjeta Bloqueada54392402190
25   5439240219950005202108041008260000000550000000000000  796506210200711103601008000000          CQC PORTAL SAN ANGEL 2 CIUDAD DE MEX MEX                                            México                                 Tarjeta Bloqueada54392402190
25   5439240219950005202108041008510000000550000000000000  796506210200711103801000784697          CQC PORTAL SAN ANGEL 2 CIUDAD DE MEX MEX                                            México                                            Compra54392402190
25   5439240207396005202108041150460000008470000000000000  852270000006568331401000787722          FARMACIA VEGA JARDIN   MATAMOROS TAM MEX                                            México                                            Compra54392402070
25   5439240210846004202108041158260000005000000000000000  737855977798842734601000787976          INST DE PEDIATRIA      SN PEDRO GARZ MEX                                            México                                            Compra54392402100
25   543924022007100720210804130212000001522330000000000025883800012164444542101000788090          AIRBNB * HM4PT4ZSQE    554-170-4333  GBR                                       Reino Unido                                            Compra54392402200
25   543924021136600220210804191205000001114530000000000003159197700000002974501000788410          BAZAR CHOLLO 2         VALL D UIXO   ESP                                            España                                            Compra54392402110
25   543924021136600220210804194354000001925870000000000027211065100000000408801000789487          FAMILY CASH LA VALL D' LA VALL D'UIX ESP                                            España                                            Compra54392402110
25   543924021136600220210804194936000000069660000000000027211065100000000942601000789692          FAMILY CASH LA VALL D' LA VALL D'UIX ESP                                            España                                            Compra54392402110
25   5439240219950005202108041409420000000775400000000000  814548151799021347701008000000          D LOCAL*DIDI MOBILITY  MEXICO CITY   MEX                                            México                                 Tarjeta Bloqueada54392402190
25   5439240219950005202108041409420000000775400000000000  814548151799021347701008000000          D LOCAL*DIDI MOBILITY  MEXICO CITY   MEX                                            México                                 Tarjeta Bloqueada54392402190
25   5439240219950005202108041409420000000775400000000000  814548151799021347701008000000          D LOCAL*DIDI MOBILITY  MEXICO CITY   MEX                                            México                                 Tarjeta Bloqueada54392402190
25   5439240219950005202108041409450000000775400000000000  4169659b486ws3o6trq01008000000          OP*DIDIMX              QUERETARO QRO MEX                                            México                                 Tarjeta Bloqueada54392402190
25   5439240219950005202108041409450000000775400000000000  4169659b486ws3o6trq01008000000          OP*DIDIMX              QUERETARO QRO MEX                                            México                                 Tarjeta Bloqueada54392402190
25   5439240219950005202108041409450000000775400000000000  4169659b486ws3o6trq01008000000          OP*DIDIMX              QUERETARO QRO MEX                                            México                                 Tarjeta Bloqueada54392402190
25   543924020739600520210804142623000000721280000000000000000038112161900233801000793418           OYSTER BAR TOO LLC     BROWNSVILLE   TX                                    Estados Unidos                                            Compra54392402070
25   5439240220705000202108041432280000015000000000000000  788493000000000041601000793631          CTRO MED INTEGRAL MGM  SANTA CATARIN MEX                                            México                                            Compra54392402200
25   5439240297320006202108041435190000055192400000000000  485955900000000023901000793731          ASOCIACION DE CONDOMIN SN PEDRO GARZ MEX                                            México                                            Compra54392402970
25   5439240222935001202108041503590000001600000000000000  089076421216091821501000794857          VIPS EJERCITO NACIONAL MEXICO CITY   MEX                                            México                                            Compra54392402220
25   5439240211471000202108041620300000000116000000000000000000000         67900000797482          *SCOTIABANK            CDMX          MEX                                            México                                                  54392402110
25   5439240211471000202108041621320000050348000000000000000000000         68002000797523          *SCOTIABANK            CDMX          MEX                                            México                                        Retiro ATM54392402110
25   5439240212636007202108041624310000045490000000000000  841971159099548746901000797625          HEB VALLE ORIENTE      SN PEDRO GARZ MEX                                            México                                            Compra54392402120
25   543924021136600220210805001204000001183680000000000033592239900000000464001008000000          DGT SANCIONES INTERNET MADRID        ESP                                            España                                 Tarjeta Bloqueada54392402110
25   543924021136600220210805001204000001183680000000000033592239900000000464001008000000          DGT SANCIONES INTERNET MADRID        ESP                                            España                                 Tarjeta Bloqueada54392402110
25   543924021136600220210805001204000001183680000000000033592239900000000464001008000000          DGT SANCIONES INTERNET MADRID        ESP                                            España                                 Tarjeta Bloqueada54392402110
25   5439240212636007202108041728240000007044300000000000  75748097Qamo8XnjGn401000800009          ORSAN DEL NORTE EST 36 MONTERREY NL  MEX                                            México                                            Compra54392402120
25   5439240212582003202108041807210000032387500000000000  800962800000000091301000801367          CLASE AUT MONTE        SN PEDRO GARZ MEX                                            México                                            Compra54392402120
25   5439240212582003202108041807580000085840300000000000  800962800000000091401000801392          CLASE AUT MONTE        SN PEDRO GARZ MEX                                            México                                            Compra54392402120
25   5439240220629002202108041905100000004003000000000000  980903977798860372301000803701          SERVICIOS TAC          MERIDA YUC    MEX                                            México                                            Compra54392402200
25   543924021961800820210804204207000000379000000000000031760300012176161279201000805103           NINTENDO    *AMERICAMX 800-255-3700  WA                                    Estados Unidos                                            Compra54392402190
25   5439240223883002202108042105040000000165000000000000  793640251799079576401000808154          NAYAX  *NAYAX  *IMPULS MEXICO CITY   MEX                                            México                                            Compra54392402230
25   5439240219950005202108042143120000000775400000000000  814548151799084542001000809296          D LOCAL*DIDI MOBILITY  MEXICO CITY   MEX                                            México                                            Compra54392402190
25   5439240219950005202108042201390000000459900000000000  814548193800655217501000809848          D LOCAL*DIDI MOBILITY  MEXICO CITY   MEX                                            México                                            Compra54392402190
25   5439240220071007202108042335180000001520000000000000  665933800129031109801000811738          OXXO CARACAS           MONTERREY NL  MEX                                            México                                            Compra54392402200
9900000051000000000000000000000000000000000000000000000000000000000000000000000000000000000000000000000000000000000000000000000000000000000000000000000000000000000000000000000000000000000000000000000000000000000000000000000000000000000000000000000000
