19LOG_ACT2021081500000000000000000000000000000000000000000000000000000000000000000000000000000000000000000000000000000000000000000000000000000000000000000000000000000000000000000000000000000000000000000000000000000000000000000000000000000000000000000
25   5439240223212004202108150034180000003699000000000000  440039600131548875701000150422          OXXO DEL MAESTRO MTY   MONTERREY NL  MEX                                            México                                            Compra54392402230
25   543924021052200120210815074547000000702940000000000052656700012270510411001000150555          FlixOle                Pozuelo Alarc ESP                                            España                                            Compra54392402100
25   5439240222970008202108150104190000002342800000000000  814548167834353071801000150783          D LOCAL*DIDI MOBILITY  MEXICO CITY   MEX                                            México                                            Compra54392402220
25   543924021913000420210815022908000000100300000000000018192600012276565455901008000000          FACEBK *UG26U6P8P2     fb.me/ads     IRL                                           Irlanda                                 Tarjeta Bloqueada54392402190
25   543924021913000420210815022908000000100300000000000018192600012276565455901008000000          FACEBK *UG26U6P8P2     fb.me/ads     IRL                                           Irlanda                                 Tarjeta Bloqueada54392402190
25   543924021913000420210815022908000000100300000000000018192600012276565455901008000000          FACEBK *UG26U6P8P2     fb.me/ads     IRL                                           Irlanda                                 Tarjeta Bloqueada54392402190
25   5439240218207001202108150934130000020000000000000000  841957843146545065501000154585          HEB SANTA CATARINA I   SANTA CATARIN MEX                                            México                                            Compra54392402180
25   5439240220169009202108151136260000002452000000000000  591164900000000955201000157527          SUPERAMA PUNTA COUNTRY MONTERREY NL  MEX                                            México                                            Compra54392402200
25   5439240222970008202108151428040000001190000000000000  590001400206968799901000163747          7 ELEVEN T2310         MONTERREY NL  MEX                                            México                                            Compra54392402220
25   5439240222970008202108151428480000000590000000000000  590001400206968868301000163778          7 ELEVEN T2310         MONTERREY NL  MEX                                            México                                            Compra54392402220
25   5439240218548008202108151447140000015500000000000000  752565800000000000101000164540          EL GAUCHO DE MTY       MONTERREY NL  MEX                                            México                                            Compra54392402180
25   543924021084600420210815155255000000559050000000000023515800012274949773901000164748           AMZN Mktp US           Amzn.com/bill WA                                    Estados Unidos                                            Compra54392402100
25   5439240220705000202108151534050000003080000000000000  778466608151534058201000166411          NETPAY*POLLO LOCO SATE MONTERREY NL  MEX                                            México                                            Compra54392402200
25   5439240219618008202108151554210000002595000000000000  440038800131675057701000167266          OXXO LA CAPITAL MTY    MONTERREY NL  MEX                                            México                                            Compra54392402190
25   5439240219931005202108151413230000004965100000000000VZXSECQO608150005560801051000000          LATER.COM INSTAGRAM    +18444552837  CAN                                            Canadá                              Not sufficient funds54392402190
25   5439240219931005202108151413230000004965100000000000VZXSECQO608150005560801051000000          LATER.COM INSTAGRAM    +18444552837  CAN                                            Canadá                              Not sufficient funds54392402190
25   5439240219931005202108151413230000004965100000000000VZXSECQO608150005560801051000000          LATER.COM INSTAGRAM    +18444552837  CAN                                            Canadá                              Not sufficient funds54392402190
25   5439240220670006202108150458420000003289500000000000  416391208150458427401000169810          OXXO GASCUMBRES DEL SO MONTERREY NL  MEX                                            México                                            Compra54392402200
25   5439240220870002202108151711570000002455000000000000  647761600131699901501000170373          OXXO ACAPULCO II       GUADALUPE NL  MEX                                            México                                            Compra54392402200
25   5439240224178006202108151723180000004990000000000000  105156721227094893901000170831          2499 STR SAN AGUSTIN   SAN PEDRO GAR MEX                                            México                                            Compra54392402240
25   5439240223212004202108151547390000002698000000000000AGI4WHVTD08150055320101000171809          UBER* EATS PENDING     CIUDAD DE MEX MEX                                            México                                            Compra54392402230
25   5439240213809009202108151756290000003069000000000000  4184017H5UZ0MyZTYHv01000172179          IZAKAYA SUSHI PALMAS   HUIXQUILUCAN  MEX                                            México                                            Compra54392402130
25   5439240219618008202108151816000000001490000000000000  788982493834459678501000172901          AME*SPOTIFY CR         MEXICO CITY   MEX                                            México                                            Compra54392402190
25   543924021084600420210815192420000000175270000000000023515800012273232572501000173201           AMZN Mktp US           Amzn.com/bill WA                                    Estados Unidos                                            Compra54392402100
25   5439240223212004202108151726050000000102000000000000AGI4WHVTD08160051881701000175516          UBER* EATS             CIUDAD DE MEX MEX                                            México                                            Compra54392402230
25   5439240220705000202108151959140000004807600000000000  645854100206997506001000176787          PETROMAX CORTIJO DEL R MONTERREY NL  MEX                                            México                                            Compra54392402200
25   5439240218444000202108152001450000002640000000000000  863654100000014191501000176817          BUFFALO PIZZA NVO SUR  MONTERREY NL  MEX                                            México                                            Compra54392402180
25   5439240224178006202108152003050000000655000000000000  648644300131750740401000176864          OXXO AQUA              MONTERREY NL  MEX                                            México                                            Compra54392402240
25   5439240222970008202108152115410000000491500000000000  821120093834486036201000179370          AME*RAPPI V            CIUDAD DE MEX MEX                                            México                                            Compra54392402220
25   5439240220705000202108152254520000001322500000000000  083537177833048189101000181822          AUTELES KALIONCHIZ     MONCLOVA COAH MEX                                            México                                            Compra54392402200
9900000030000000000000000000000000000000000000000000000000000000000000000000000000000000000000000000000000000000000000000000000000000000000000000000000000000000000000000000000000000000000000000000000000000000000000000000000000000000000000000000000000
