19LOG_ACT2021072600000000000000000000000000000000000000000000000000000000000000000000000000000000000000000000000000000000000000000000000000000000000000000000000000000000000000000000000000000000000000000000000000000000000000000000000000000000000000000
25   543924021995000520210726094134000000034250000000000026995700012070730849201000482217          Delivery Technologies  CMX           MEX                                            México                                            Compra54392402190
25   5439240220670006202107260710090000001080000000000000  407407321207041635001000483092          STARBUCKS MONCLOVA     MONCLOVA COAH MEX                                            México                                            Compra54392402200
25   5439240223883002202107260720500000013000000000000000  719144312071204866501000483175          VOLARIS ECOM MXN       MEXICO CITY   MEX                                            México                                            Compra54392402230
25   543924021147100020210726142751000003795910000000000035001000112072600519601000483310          HAPY BAZAAR - LUXOR      LUXOR       EGY                                            Egipto                                            Compra54392402110
25   5439240220670006202107260839470000000630000000000000  768275600033131983301000484031          KIWIBOP*SIHAY ABARROTE CDMX          MEX                                            México                                            Compra54392402200
25   543924021995000520210726155223000000052740000000000026995700012071329753301000484222          UBER * PENDING         CMX           MEX                                            México                                            Compra54392402190
25   543924022488100520210726112229000000059000000000000018882600012073434851001051000000          GOOGLE *Google Play    g.co/helppay# GBR                                       Reino Unido                              Not sufficient funds54392402240
25   543924022488100520210726112229000000059000000000000018882600012073434851001051000000          GOOGLE *Google Play    g.co/helppay# GBR                                       Reino Unido                              Not sufficient funds54392402240
25   5439240220890000202107261044100000001390000000000000  713972900000000010201000486729          HOTEL IBIS MX PERINTE  CUAUTITLAN IZ MEX                                            México                                            Compra54392402200
25   5439240220629002202107261153310000007000000000000000  957813931481256245301008000000          AEROMEXICO H2H         CIUDAD DE MEX MEX                                            México                                 Tarjeta Bloqueada54392402200
25   5439240220629002202107261153310000007000000000000000  957813931481256245301008000000          AEROMEXICO H2H         CIUDAD DE MEX MEX                                            México                                 Tarjeta Bloqueada54392402200
25   5439240220629002202107261154170000007000000000000000  957813931485807041101008000000          AEROMEXICO H2H         CIUDAD DE MEX MEX                                            México                                 Tarjeta Bloqueada54392402200
25   5439240220629002202107261154170000007000000000000000  957813931485807041101008000000          AEROMEXICO H2H         CIUDAD DE MEX MEX                                            México                                 Tarjeta Bloqueada54392402200
25   5439240220629002202107261101300000014000000000000000  957813931529804899901008000000          AEROMEXICO H2H         CIUDAD DE MEX MEX                                            México                                 Tarjeta Bloqueada54392402200
25   5439240220629002202107261101300000014000000000000000  957813931529804899901008000000          AEROMEXICO H2H         CIUDAD DE MEX MEX                                            México                                 Tarjeta Bloqueada54392402200
25   5439240220629002202107261102030000014000000000000000  957813931532549742901008000000          AEROMEXICO H2H         CIUDAD DE MEX MEX                                            México                                 Tarjeta Bloqueada54392402200
25   5439240220629002202107261102030000014000000000000000  957813931532549742901008000000          AEROMEXICO H2H         CIUDAD DE MEX MEX                                            México                                 Tarjeta Bloqueada54392402200
25   5439240220629002202107261118280000003600000000000000  404368421207043608401000487678          STARBUCKS APTO MTY PB  APODACA NL    MEX                                            México                                            Compra54392402200
25   5439240220890000202107261303150000006061000000000000  727393418031524601001000490904          REST LA POLAR          MEXICO CITY   MEX                                            México                                            Compra54392402200
25   5439240221066006202107261319010000009048000000000000  742862100000000223001000491401          TRAJES HECTOR          MONTERREY NL  MEX                                            México                                            Compra54392402210
25   5439240221066006202107261337530000012000000000000000  851841600008352828501000492061          EQUIPO DE SEGURIDAD IN MONTERREY NL  MEX                                            México                                            Compra54392402210
25   543924021206200620210726135256000002313350000000000044450034207261850339701000492593           TARGET T-2152          BROWNSVILLE   TX                                    Estados Unidos                                            Compra54392402120
25   5439240220705000202107261355360000016357000000000000  4259770HHKrfrsHwv0801000492689          EL TACO DEL SIRLON     MONCLOVA COAH MEX                                            México                                            Compra54392402200
25   5439240211289006202107261402250000003510000000000000  109863512071986835401000492918          MERCADO PAGO 4         CIUDAD DE MEX MEX                                            México                                            Compra54392402110
25   5439240205975008202107261423490000002370000000000000  795525677728018500901000493717          FERRETERIA LUCERO      MATAMOROS TAM MEX                                            México                                            Compra54392402050
25   543924022007100720210726154159000000860450000000000025883800012077777628101000494356          AIRBNB * HMBY5KDKQX    554-170-4333  GBR                                       Reino Unido                                            Compra54392402200
25   543924022016900920210726140500000000049980000000000000098002000005241942101051000000          PAYPAL *UBER BV        35314369001   NLD                                      Países Bajos                              Not sufficient funds54392402200
25   543924022016900920210726140500000000049980000000000000098002000005241942101051000000          PAYPAL *UBER BV        35314369001   NLD                                      Países Bajos                              Not sufficient funds54392402200
25   543924022016900920210726140529000000049950000000000000098002000004511594201051000000          PAYPAL *UBER BV        35314369001   NLD                                      Países Bajos                              Not sufficient funds54392402200
25   543924022016900920210726140529000000049950000000000000098002000004511594201051000000          PAYPAL *UBER BV        35314369001   NLD                                      Países Bajos                              Not sufficient funds54392402200
25   543924021548800020210726172046000000216460000000000016014600012074646486801000497884           Kindle Svcs            866-321-8851  WA                                    Estados Unidos                                            Compra54392402150
25   543924021206200620210726162606000005005950000000000000002149612072101154801000498079           FRANCISCO JAVIER DEL C BROWNSVILLE   TX                                    Estados Unidos                                            Compra54392402120
25   543924021206200620210726162641000005005950000000000000002149612072141593601051000000           FRANCISCO JAVIER DEL C BROWNSVILLE   TX                                    Estados Unidos                              Not sufficient funds54392402120
25   543924021206200620210726162641000005005950000000000000002149612072141593601051000000           FRANCISCO JAVIER DEL C BROWNSVILLE   TX                                    Estados Unidos                              Not sufficient funds54392402120
25   543924021206200620210726163019000005005950000000000000002149612072141906101051000000           FRANCISCO JAVIER DEL C BROWNSVILLE   TX                                    Estados Unidos                              Not sufficient funds54392402120
25   543924021206200620210726163019000005005950000000000000002149612072141906101051000000           FRANCISCO JAVIER DEL C BROWNSVILLE   TX                                    Estados Unidos                              Not sufficient funds54392402120
25   5439240222092001202107261710380000001025000000000000  645601600205232661101051000000          7 ELEVEN TOPO GRANDE   GRAL ESCOBEDO MEX                                            México                              Not sufficient funds54392402220
25   5439240222092001202107261710380000001025000000000000  645601600205232661101051000000          7 ELEVEN TOPO GRANDE   GRAL ESCOBEDO MEX                                            México                              Not sufficient funds54392402220
25   543924020739600520210726173131000000539640000000000000034511200003112097001000500300           PAPPADEAUX SFD 60      SAN ANTONIO   TX                                    Estados Unidos                                            Compra54392402070
25   5439240220890000202107261756220000009000000000000000  790306791728204624201000501100          TAXIS EBSSA MTY V      APODACA NL    MEX                                            México                                            Compra54392402200
25   5439240224178006202107261805130000001750000000000000  815365166728205527901000501388          D LOCAL*CANVA          CIUDAD DE MEX MEX                                            México                                            Compra54392402240
25   5439240212636007202107261827240000036965800000000000  841971142198242345401000502149          HEB VALLE ORIENTE      SN PEDRO GARZ MEX                                            México                                            Compra54392402120
25   5439240220670006202107261859080000000857000000000000  554968800000006361501000503278          WAL MART MONCLOVA      MONCLOVA COAH MEX                                            México                                            Compra54392402200
25   5439240212582003202107262009220000007140000000000000  848813277728031995001000505823          BOUT FLAMINGO          BAHIA DE BAND MEX                                            México                                            Compra54392402120
25   5439240212582003202107262016040000008680000000000000  103279750645762537101000506072          SUBWAY 34281           BAHIA DE BAND MEX                                            México                                            Compra54392402120
25   5439240297320006202107262016210000002450000000000000  4119289ktugmld8yexh01000506078          DOMINO S OLO CR        MEXICO CITY   MEX                                            México                                            Compra54392402970
25   5439240220629002202107262023000000017000000000000000  91050169Yem8oma62t001000506307          PROGRESO BEACH         PROGRESO YUC  MEX                                            México                                            Compra54392402200
25   5439240219950005202107262044100000000406000000000000  814548191728228049501000507036          D LOCAL*DIDI MOBILITY  MEXICO CITY   MEX                                            México                                            Compra54392402190
25   5439240220629002202107262100480000001710000000000000  483741500126731881201000507582          OXXO CARACOL MID       PROGRESO YUC  MEX                                            México                                            Compra54392402200
25   543924022488100520210727052236000000059000000000000052656700012080323451301051000000          GOOGLE  Google Play    London        GBR                                       Reino Unido                              Not sufficient funds54392402240
25   543924022488100520210727052236000000059000000000000052656700012080323451301051000000          GOOGLE  Google Play    London        GBR                                       Reino Unido                              Not sufficient funds54392402240
25   5439240220870002202107262313540000007953000000000000  798654400000000026101000510704          ARBOLITOS ANAHUAC      SN NICOLAS DE MEX                                            México                                            Compra54392402200
25   5439240220705000202107262343240000000605000000000000  417143600143454791401000511074          FAR GUAD 2042          MONCLOVA COAH MEX                                            México                                            Compra54392402200
9900000053000000000000000000000000000000000000000000000000000000000000000000000000000000000000000000000000000000000000000000000000000000000000000000000000000000000000000000000000000000000000000000000000000000000000000000000000000000000000000000000000
