19LOG_ACT2021072000000000000000000000000000000000000000000000000000000000000000000000000000000000000000000000000000000000000000000000000000000000000000000000000000000000000000000000000000000000000000000000000000000000000000000000000000000000000000000
25   543924020521400220210719160530000000008540000000000000044519700009165503801000290025           UBER   *TRIP           SAN FRANCISCO CA                                    Estados Unidos                                            Compra54392402050
25   5439240215488000202107201303170000022124200000000000  4143789 2027398999901000290788          PAYPAL3                MEXICO CITY   MEX                                            México                                            Compra54392402150
25   5439240223681000202107200818360000000300000000000000  4119218KWczf2IRkvUj01000291835          HOTELES ATM            CELAYA GTO    MEX                                            México                                            Compra54392402230
25   5439240223681000202107200906510000000270000000000000  408833100125094141301000292662          OXXOMEGAGAS QRF        CELAYA GTO    MEX                                            México                                            Compra54392402230
25   543924022016900920210720072151000000032740000000000000098002000009841281201051000000          PAYPAL *UBER BV        35314369001   NLD                                      Países Bajos                              Not sufficient funds54392402200
25   543924022016900920210720072151000000032740000000000000098002000009841281201051000000          PAYPAL *UBER BV        35314369001   NLD                                      Países Bajos                              Not sufficient funds54392402200
25   5439240221785001202107201006260000002143600000000000  810914800003014664001008000000          BP*FERRETERIA          GUADALAJARA J MEX                                            México                                 Tarjeta Bloqueada54392402210
25   5439240221785001202107201006260000002143600000000000  810914800003014664001008000000          BP*FERRETERIA          GUADALAJARA J MEX                                            México                                 Tarjeta Bloqueada54392402210
25   5439240221785001202107201006550000002143600000000000  810914800003014665101008000000          BP*FERRETERIA          GUADALAJARA J MEX                                            México                                 Tarjeta Bloqueada54392402210
25   5439240221785001202107201006550000002143600000000000  810914800003014665101008000000          BP*FERRETERIA          GUADALAJARA J MEX                                            México                                 Tarjeta Bloqueada54392402210
25   5439240221785001202107201008280000002143600000000000  810914800001857093901000294033          BP*FERRETERIA          GUADALAJARA J MEX                                            México                                            Compra54392402210
25   5439240221785001202107201019080000003410400000000000  742188230EijhoaFpOD01008000000          FERRE RAFE COLOSIO     SANTA CATARIN MEX                                            México                                 Tarjeta Bloqueada54392402210
25   5439240221785001202107201019080000003410400000000000  742188230EijhoaFpOD01008000000          FERRE RAFE COLOSIO     SANTA CATARIN MEX                                            México                                 Tarjeta Bloqueada54392402210
25   5439240221785001202107201022250000003410400000000000  7421882oNcfu01yhIw401000294388          FERRE RAFE COLOSIO     SANTA CATARIN MEX                                            México                                            Compra54392402210
25   5439240210846004202107201139540000000250000000000000  745269012011602512901000296607          IZETTLE*REFACCI Y ACCC CIUDAD DE MEX MEX                                            México                                            Compra54392402100
25   5439240212636007202107201140580000007000000000000000  106358850096457213101000296637          DR NUTRILASER DIETA Z  SAN PEDRO GAR MEX                                            México                                            Compra54392402120
25   5439240219732007202107201142500000005497900000000000  836302321201010880601000296694          KARZO GASOL ES MORELOS MATAMOROS TAM MEX                                            México                                            Compra54392402190
25   5439240212636007202107201149550000005450000000000000  114328711006948876501000296944          F AHORRO MTGT GLORIETA SAN PEDRO GAR MEX                                            México                                            Compra54392402120
25   5439240212636007202107201215250000003663400000000000  0300046uLKgFgMdT8PS01000297780          SUPER MODE GM          SN PEDRO GARZ MEX                                            México                                            Compra54392402120
25   543924020514800220210720122507000001886100000000000044450375212011217827701000298085           AT *FIELD MUSEUM       CHICAGO       IL                                    Estados Unidos                                            Compra54392402050
25   543924020521400220210720134107000001294060000000000000044519700004422027601000298633           UBER   * PENDING       SAN FRANCISCO CA                                    Estados Unidos                                            Compra54392402050
25   5439240210669000202107201242240000006401500000000000  4057176YWWz0o93wxlL01051000000          TRANSFO EQPOS ELECT BS LA PAZ BCS    MEX                                            México                              Not sufficient funds54392402100
25   5439240210669000202107201242240000006401500000000000  4057176YWWz0o93wxlL01051000000          TRANSFO EQPOS ELECT BS LA PAZ BCS    MEX                                            México                              Not sufficient funds54392402100
25   543924021055900320210720134244000000108000000000000033719200012014343348401000298688           APPLE.COM/BILL         866-712-7753  CA                                    Estados Unidos                                            Compra54392402100
25   543924021079100220210720125705000000681780000000000003291157612011740004301000299215           SQAIKSJBJEYWVS GXNB    MALVERN       AR                                    Estados Unidos                                            Compra54392402100
25   5439240223681000202107201331540000001400000000000000  833893500000000035101000300434          ALIM DEGUSTAM MABE CEL SALVATIERRA G MEX                                            México                                            Compra54392402230
25   5439240223681000202107201336490000000180000000000000  833893500000000072101000300600          ALIM DEGUSTAM MABE CEL SALVATIERRA G MEX                                            México                                            Compra54392402230
25   5439240217752007202107201410520000010290000000000000  5618327EChqMBzsgxxg01000301899          CRUZ AGUILERA RICARDO  ABASOLO GTO   MEX                                            México                                            Compra54392402170
25   5439240220060000202107201528330000001960000000000000  758406651398904645601008000000          NETFLIX CR             CIUDAD DE MEX MEX                                            México                                 Tarjeta Bloqueada54392402200
25   5439240220060000202107201528330000001960000000000000  758406651398904645601008000000          NETFLIX CR             CIUDAD DE MEX MEX                                            México                                 Tarjeta Bloqueada54392402200
25   5439240212582003202107201539360000001130000000000000  341579121201095105901000305412          STARBUCKS APT VALLARTA PUERTO VALLAR MEX                                            México                                            Compra54392402120
25   5439240226235002202107201638490000022425000000000000  899919500000000001301000307644          REST CAPELLINE         REYNOSA TAMPS MEX                                            México                                            Compra54392402260
25   5439240212636007202107201705420000001920000000000000  403664000125210815801000308574          OXXOKALAH MTY          SN PEDRO GARZ MEX                                            México                                            Compra54392402120
25   5439240219618008202107201716030000001930000000000000  440038800125213686201000308940          OXXO LA CAPITAL MTY    MONTERREY NL  MEX                                            México                                            Compra54392402190
25   5439240211289006202107210043000000035358400000000000  300544700000000917601000309902          DIGITAL RIVER          CO CLARE      IRL                                           Irlanda                                            Compra54392402110
25   5439240222092001202107201803030000001080000000000000  572012300204735434501008000000          7 ELEVEN PALMA GORDA   GUADALUPE NL  MEX                                            México                                 Tarjeta Bloqueada54392402220
25   5439240222092001202107201803030000001080000000000000  572012300204735434501008000000          7 ELEVEN PALMA GORDA   GUADALUPE NL  MEX                                            México                                 Tarjeta Bloqueada54392402220
25   5439240222092001202107201803360000001080000000000000  572012300204735486801008000000          7 ELEVEN PALMA GORDA   GUADALUPE NL  MEX                                            México                                 Tarjeta Bloqueada54392402220
25   5439240222092001202107201803360000001080000000000000  572012300204735486801008000000          7 ELEVEN PALMA GORDA   GUADALUPE NL  MEX                                            México                                 Tarjeta Bloqueada54392402220
25   543924020514800220210720181544000003919000000000000000005244112012300368901000311046           UMAI RESTAURANT CLARK  CHICAGO       IL                                    Estados Unidos                                            Compra54392402050
25   5439240219744002202107201825280000000200000000000000  797911266812532673701000311386          AMAZON MX              MEXICO CITY   MEX                                            México                                            Compra54392402190
25   5439240220890000202107201836080000003340000000000000  713972900000000000701000311751          HOTEL IBIS MX PERINTE  CUAUTITLAN IZ MEX                                            México                                            Compra54392402200
25   543924020514800220210720200450000002822400000000000080000044512010003223301000312828           10767 FULTON MARKET    CHICAGO       IL                                    Estados Unidos                                            Compra54392402050
25   5439240219950005202107202035140000002000000000000000  4116671e20oLVK4CHfB01000316239          GASOMAC                MEXICO CITY   MEX                                            México                                            Compra54392402190
25   5439240297320006202107202100170000042852000000000000  5564364SNN9qPrbTiBe01000317173          REST TEN PU            GARZA GARCIA  MEX                                            México                                            Compra54392402970
25   543924020514800220210720222220000000126600000000000072000007212010075089501000317897           DNCSS CHICAGO BB CON   CHICAGO       IL                                    Estados Unidos                                            Compra54392402050
25   5439240223681000202107202127450000012670000000000000  776518000000000008201000318053          REST BURGUES URBAN GRI CELAYA GTO    MEX                                            México                                            Compra54392402230
25   543924020514800220210720222915000000396600000000000072000007212010037779601000318089           DNC SPORT CHICAGOBBR   CHICAGO       IL                                    Estados Unidos                                            Compra54392402050
25   543924020514800220210720223152000000478600000000000072000007212010037890101000318161           DNCSS CHICAGO BB CON   CHICAGO       IL                                    Estados Unidos                                            Compra54392402050
25   5439240223681000202107202145200000000850000000000000  415972700125291247401000318561          OXXOCITY EXPRESS QRF   CELAYA GTO    MEX                                            México                                            Compra54392402230
25   5439240212582003202107202204460000003140000000000000  462968900125295246101000319175          OXXO PALESTINA MTY     MONTERREY NL  MEX                                            México                                            Compra54392402120
25   5439240219744002202107202225240000005235000000000000  797912866812564034201000319555          AMAZON MX MARKETPLACE  MEXICO CITY   MEX                                            México                                            Compra54392402190
25   543924020514800220210720233254000000837400000000000072000007212010078702901000319731           DNC SPORT CHICAGOBBR   CHICAGO       IL                                    Estados Unidos                                            Compra54392402050
25   543924021147100020210721062839000005674180000000000000000000001018898237402000319786          KABALE                 KABALE        UGA                                            Uganda                                        Retiro ATM54392402110
25   5439240207396005202107202245470000041340000000000000  838052900000000080901000319987          SUD 777 RESTO          MEXICO CITY   MEX                                            México                                            Compra54392402070
25   543924020521400220210720134107000000005400000000000000044519700004065548201051000000           UBER   *TRIP           SAN FRANCISCO CA                                    Estados Unidos                              Not sufficient funds54392402050
25   543924020521400220210720134107000000005400000000000000044519700004065548201051000000           UBER   *TRIP           SAN FRANCISCO CA                                    Estados Unidos                              Not sufficient funds54392402050
9900000057000000000000000000000000000000000000000000000000000000000000000000000000000000000000000000000000000000000000000000000000000000000000000000000000000000000000000000000000000000000000000000000000000000000000000000000000000000000000000000000000
