19LOG_ACT2021071200000000000000000000000000000000000000000000000000000000000000000000000000000000000000000000000000000000000000000000000000000000000000000000000000000000000000000000000000000000000000000000000000000000000000000000000000000000000000000
25   5439240220677001202107120002540000006501000000000000  804698600000000091601000018476          GASOL PETROPLUS        TAMPICO TAMPS MEX                                            México                                            Compra54392402200
25   5439240220846002202107120755480000001730000000000000  647105600123072671101008000000          OXXO RAICES            ALLENDE NL    MEX                                            México                                 Tarjeta Bloqueada54392402200
25   5439240220846002202107120755480000001730000000000000  647105600123072671101008000000          OXXO RAICES            ALLENDE NL    MEX                                            México                                 Tarjeta Bloqueada54392402200
25   5439240220705000202107120757250000007214000000000000  405144507120757255901000020864          OXXO GAS RAICES II     ALLENDE NL    MEX                                            México                                            Compra54392402200
25   5439240220670006202107120759590000000980000000000000  647105600123072776301000020892          OXXO RAICES            ALLENDE NL    MEX                                            México                                            Compra54392402200
25   5439240220705000202107120802440000000820000000000000  647105600123073337801000020924          OXXO RAICES            ALLENDE NL    MEX                                            México                                            Compra54392402200
25   5439240218118000202107120935400000017525800000000000  797912891128900568601008000000          AMAZON MX MARKETPLACE  MEXICO CITY   MEX                                            México                                 Tarjeta Bloqueada54392402180
25   5439240218118000202107120935400000017525800000000000  797912891128900568601008000000          AMAZON MX MARKETPLACE  MEXICO CITY   MEX                                            México                                 Tarjeta Bloqueada54392402180
25   5439240206408009202107121019490000005940000000000000  418867200028448847001000023432          INM RECAUDACIONMU      CIUDAD DE MEX MEX                                            México                                            Compra54392402060
25   5439240220705000202107121023040000000120000000000000  450884200123095637701000023512          OXXO ZARAGOZA          VICTORIA TAMP MEX                                            México                                            Compra54392402200
25   5439240220677001202107121036490000003900000000000000  852017987323677673101000023834          CARNITAS ORTA          TAMPICO TAMPS MEX                                            México                                            Compra54392402200
25   543924022209200120210712173922000000359980000000000026995700011931530801401008000000          UBER * PENDING         CMX           MEX                                            México                                 Tarjeta Bloqueada54392402220
25   543924022209200120210712173922000000359980000000000026995700011931530801401008000000          UBER * PENDING         CMX           MEX                                            México                                 Tarjeta Bloqueada54392402220
25   5439240222092001202107120839250000003599800000000000MWU4ZT35U07120053580401008000000          UBER* PENDING          CIUDAD DE MEX MEX                                            México                                 Tarjeta Bloqueada54392402220
25   5439240222092001202107120839250000003599800000000000MWU4ZT35U07120053580401008000000          UBER* PENDING          CIUDAD DE MEX MEX                                            México                                 Tarjeta Bloqueada54392402220
25   5439240222092001202107120839250000003599800000000000MWU4ZT35U07120083455801008000000          UBER* PENDING          CIUDAD DE MEX MEX                                            México                                 Tarjeta Bloqueada54392402220
25   5439240222092001202107120839250000003599800000000000MWU4ZT35U07120083455801008000000          UBER* PENDING          CIUDAD DE MEX MEX                                            México                                 Tarjeta Bloqueada54392402220
25   5439240222092001202107121039280000003599800000000000  856290411931506430801008000000          ST*UBER                CIUDAD DE MEX MEX                                            México                                 Tarjeta Bloqueada54392402220
25   5439240222092001202107121039280000003599800000000000  856290411931506430801008000000          ST*UBER                CIUDAD DE MEX MEX                                            México                                 Tarjeta Bloqueada54392402220
25   543924021052200120210712115152000000471970000000000022140500011936868632301008000000          AMZN Mktp ES           800-279-6620  LUX                                        Luxemburgo                                 Tarjeta Bloqueada54392402100
25   543924021052200120210712115152000000471970000000000022140500011936868632301008000000          AMZN Mktp ES           800-279-6620  LUX                                        Luxemburgo                                 Tarjeta Bloqueada54392402100
25   543924021844400020210712184625000000397400000000000015580827621071210411801008000000          FVAHFY.COM             8665290613    ESP                                            España                                 Tarjeta Bloqueada54392402180
25   543924021844400020210712184625000000397400000000000015580827621071210411801008000000          FVAHFY.COM             8665290613    ESP                                            España                                 Tarjeta Bloqueada54392402180
25   5439240222161004202107121232370000010324000000000000000000000      76931502008000000          BANCO SANTANDER        HEROICA MATAM MEX                                            México                                 Tarjeta Bloqueada54392402220
25   5439240222161004202107121232370000010324000000000000000000000      76931502008000000          BANCO SANTANDER        HEROICA MATAM MEX                                            México                                 Tarjeta Bloqueada54392402220
25   5439240220670006202107121317520000010516500000000000  755755521193079386601000028687          GASOL TRACTO CENTER MA TAMPICO TAMPS MEX                                            México                                            Compra54392402200
25   5439240222161004202107121323020000009324000000000000000000000      90530502008000000          BANCO SANTANDER        MATAMOROS     MEX                                            México                                 Tarjeta Bloqueada54392402220
25   5439240222161004202107121323020000009324000000000000000000000      90530502008000000          BANCO SANTANDER        MATAMOROS     MEX                                            México                                 Tarjeta Bloqueada54392402220
25   543924021961800820210712151324000000900000000000000031760300011936363550001000030673           NINTENDO    *AMERICAMX 800-255-3700  WA                                    Estados Unidos                                            Compra54392402190
25   543924021206200620210712150122000000526820000000000080312857611932001130601000032366           CEVICHE CEVICHE        SOUTH PADRE I TX                                    Estados Unidos                                            Compra54392402120
25   5439240221785001202107120320030000011715200000000000  419148807120320039001000033028          OXXOSANTA 6            SANTA CATARIN MEX                                            México                                            Compra54392402210
25   5439240206408009202107121525030000003080000000000000  418867200028468437301000033201          INM RECAUDACIONMU      CIUDAD DE MEX MEX                                            México                                            Compra54392402060
25   5439240207207004202107121527170000002747500000000000  412523306070829589301000033239          CHEDRAUI 099 OAXACA RE OAXACA DE JUA MEX                                            México                                            Compra54392402070
25   5439240222970008202107121630020000001150000000000000  788982451397740623401008000000          AME*SPOTIFY CR         MEXICO CITY   MEX                                            México                                 Tarjeta Bloqueada54392402220
25   5439240222970008202107121630020000001150000000000000  788982451397740623401008000000          AME*SPOTIFY CR         MEXICO CITY   MEX                                            México                                 Tarjeta Bloqueada54392402220
25   5439240210669000202107121739310000015810000000000000  820521777394774918601051000000          BLUE CORTES            LA PAZ BCS    MEX                                            México                              Not sufficient funds54392402100
25   5439240210669000202107121739310000015810000000000000  820521777394774918601051000000          BLUE CORTES            LA PAZ BCS    MEX                                            México                              Not sufficient funds54392402100
25   5439240220677001202107121741520000000660000000000000  4689956aiW6GgudO1gY01008000000          ZUMBA REST             MADERO TAMPS  MEX                                            México                                 Tarjeta Bloqueada54392402200
25   5439240220677001202107121741520000000660000000000000  4689956aiW6GgudO1gY01008000000          ZUMBA REST             MADERO TAMPS  MEX                                            México                                 Tarjeta Bloqueada54392402200
25   5439240224178006202107121808080000001750000000000000  815365151397753487401000038322          D LOCAL*CANVA          CIUDAD DE MEX MEX                                            México                                            Compra54392402240
25   5439240207396005202107121831380000016560000000000000  794137600000000027801000039152          LA NO 20 ANTARA        MEXICO CITY   MEX                                            México                                            Compra54392402070
25   5439240220670006202107121950580000001848200000000000  182145300000001696601008000000          WAL MART TAMPICO       TAMPICO TAMPS MEX                                            México                                 Tarjeta Bloqueada54392402200
25   5439240220670006202107121950580000001848200000000000  182145300000001696601008000000          WAL MART TAMPICO       TAMPICO TAMPS MEX                                            México                                 Tarjeta Bloqueada54392402200
25   5439240220670006202107121951500000001848200000000000  182145300000001696701000042037          WAL MART TAMPICO       TAMPICO TAMPS MEX                                            México                                            Compra54392402200
25   5439240220670006202107121958120000002290000000000000  816811900002044734401000042265          KFC 681 PIN TAMPICO ZO TAMPICO TAMPS MEX                                            México                                            Compra54392402200
25   5439240207207004202107122110510000000588000000000000  201417300000010204701000044784          SAM S CLUB OAXACA      OAXACA OAX    MEX                                            México                                            Compra54392402070
25   543924022067700120210713043924000000252900000000000026995700011940230765601008000000          UBER * EATS PENDING    CMX           MEX                                            México                                 Tarjeta Bloqueada54392402200
25   543924022067700120210713043924000000252900000000000026995700011940230765601008000000          UBER * EATS PENDING    CMX           MEX                                            México                                 Tarjeta Bloqueada54392402200
25   5439240220677001202107121939270000002529000000000000AGI4WHVTD07130034995501008000000          UBER* EATS PENDING     CIUDAD DE MEX MEX                                            México                                 Tarjeta Bloqueada54392402200
25   5439240220677001202107121939270000002529000000000000AGI4WHVTD07130034995501008000000          UBER* EATS PENDING     CIUDAD DE MEX MEX                                            México                                 Tarjeta Bloqueada54392402200
25   5439240220677001202107121939270000002529000000000000AGI4WHVTD07130034996701008000000          UBER* EATS PENDING     CIUDAD DE MEX MEX                                            México                                 Tarjeta Bloqueada54392402200
25   5439240220677001202107121939270000002529000000000000AGI4WHVTD07130034996701008000000          UBER* EATS PENDING     CIUDAD DE MEX MEX                                            México                                 Tarjeta Bloqueada54392402200
25   5439240220677001202107122139290000002529000000000000  856290311940204996501008000000          ST*UBER EATS           CIUDAD DE MEX MEX                                            México                                 Tarjeta Bloqueada54392402200
25   5439240220677001202107122139290000002529000000000000  856290311940204996501008000000          ST*UBER EATS           CIUDAD DE MEX MEX                                            México                                 Tarjeta Bloqueada54392402200
25   543924022067700120210713044019000000252900000000000026995700011940229360201000045668          UBER * EATS PENDING    CMX           MEX                                            México                                            Compra54392402200
9900000055000000000000000000000000000000000000000000000000000000000000000000000000000000000000000000000000000000000000000000000000000000000000000000000000000000000000000000000000000000000000000000000000000000000000000000000000000000000000000000000000
