19LOG_ACT2021081100000000000000000000000000000000000000000000000000000000000000000000000000000000000000000000000000000000000000000000000000000000000000000000000000000000000000000000000000000000000000000000000000000000000000000000000000000000000000000
25   5439240212235008202108110150380000003142900000000000  797912851833283641901008000000          AMAZON MX MARKETPLACE  MEXICO CITY   MEX                                            México                                 Tarjeta Bloqueada54392402120
25   5439240212235008202108110150380000003142900000000000  797912851833283641901008000000          AMAZON MX MARKETPLACE  MEXICO CITY   MEX                                            México                                 Tarjeta Bloqueada54392402120
25   5439240212235008202108110150380000003142900000000000  797912851833283641901008000000          AMAZON MX MARKETPLACE  MEXICO CITY   MEX                                            México                                 Tarjeta Bloqueada54392402120
25   543924021136600220210811122916000001350020000000000025601020800000008880901000010190          COOP AGRIC SAN ISIDRO  VALL D UIXO   ESP                                            España                                            Compra54392402110
25   543924021136600220210811124859000000945440000000000013318814400000002465501000010261          TODOJUGUETE VALL D UIX VALL DE UIXO  ESP                                            España                                            Compra54392402110
25   543924021136600220210811133816000001060730000000000025601217000000000153701000010474          FRUITES SILVIA I EVA   LA VALL D'UIX ESP                                            España                                            Compra54392402110
25   5439240220670006202108110757090000001160000000000000  131524121223076221901000011050          STARBUCKS TAMPICO HGO  TAMPICO TAMPS MEX                                            México                                            Compra54392402200
25   543924021136600220210811154210000003480680000000000017552332300000000167601000011653          HOSTAL CHISPA SL       PLAYA DE CANE ESP                                            España                                            Compra54392402110
25   5439240220890000202108110903330000001390000000000000  713972900000000038901000012015          HOTEL IBIS MX PERINTE  CUAUTITLAN IZ MEX                                            México                                            Compra54392402200
25   5439240220705000202108110904230000002189000000000000  209144521223052472301000012026          FIESTA INN TAMPICO     TAMPICO TAMPS MEX                                            México                                            Compra54392402200
25   543924022087000220210811160753000000000000000000000026995700012231431620101000012094          DIDI MOBILITY MEXICO   Mexico        MEX                                            México                                            Compra54392402200
25   5439240220677001202108110931350000001510000000000000  131524121223077144701000012565          STARBUCKS TAMPICO HGO  TAMPICO TAMPS MEX                                            México                                            Compra54392402200
25   5439240223287006202108110934400000000425000000000000  427471800206579694201008000000          7 ELEVEN T 1648        MONTERREY NL  MEX                                            México                                 Tarjeta Bloqueada54392402230
25   5439240223287006202108110934400000000425000000000000  427471800206579694201008000000          7 ELEVEN T 1648        MONTERREY NL  MEX                                            México                                 Tarjeta Bloqueada54392402230
25   5439240223287006202108110934400000000425000000000000  427471800206579694201008000000          7 ELEVEN T 1648        MONTERREY NL  MEX                                            México                                 Tarjeta Bloqueada54392402230
25   5439240220705000202108110952530000005336000000000000  904878600030698756201000013042          HOME DEPOT             TAMPICO TAMPS MEX                                            México                                            Compra54392402200
25   5439240220870002202108110954140000001878100000000000  814548167833762229101000013078          D LOCAL*DIDI MOBILITY  MEXICO CITY   MEX                                            México                                            Compra54392402200
25   5439240220705000202108111035530000004751400000000000  618364487833339841501000014088          IMPULSORA IND MTY      ALTAMIRA TAMP MEX                                            México                                            Compra54392402200
25   543924022089000020210811103900000002030740000000000000000000000004270141102000014211          BANAMEX                CIUDAD DE MEX MEX                                            México                                        Retiro ATM54392402200
25   5439240218936005202108111053370000001760000000000000  4115131WIfvKYXqDkAV01000014566          HAAGEN DAZS PTO CANCUN BENITO JUAREZ MEX                                            México                                            Compra54392402180
25   5439240220846002202108111117290000000450000000000000  861116000000000007401000015182          FERRETERIA MIRAMAR     ALTAMIRA TAMP MEX                                            México                                            Compra54392402200
25   5439240220870002202108111147210000000500000000000000  423602500000797117001000016072          TELCEL RECARGAS FONY   CIUDAD DE MEX MEX                                            México                                            Compra54392402200
25   5439240220846002202108111209190000004053900000000000  792751765130360192201000016768          CLIP MX* 29  DELI SAZO CIUDAD DE MEX MEX                                            México                                            Compra54392402200
25   5439240223883002202108111227580000004294600000000000  838325300000000003401000017378          BMW MOTORRAD VALLE     SN PEDRO GARZ MEX                                            México                                            Compra54392402230
25   5439240220670006202108111242180000000380000000000000  644029100130579867901000017845          OXXO DEPORTIVO SUR     ALTAMIRA TAMP MEX                                            México                                            Compra54392402200
25   5439240220670006202108111251200000000600000000000000  863479400034844205201000018140          FERRETERIA SAN LUIS    ALTAMIRA TAMP MEX                                            México                                            Compra54392402200
25   5439240212636007202108111315040000005410000000000000  841963139100090121701000018911          HEB SAN PEDRO          SN PEDRO GARZ MEX                                            México                                            Compra54392402120
25   5439240223681000202108111357010000000155000000000000  415372300130596751901000020222          OXXOPUERTO MEXICO QRF  SN JOSE ITURB MEX                                            México                                            Compra54392402230
25   5439240212636007202108111353040000002620000000000000  956641587833347386301000020284          DIPASA                 SN P GARZA GA MEX                                            México                                            Compra54392402120
25   5439240220890000202108111356340000005800000000000000  720506400000000163701000020429          IPARK                  APODACA NL    MEX                                            México                                            Compra54392402200
25   5439240219931005202108111334380000005026000000000000VZXSECQO608110094003901051000000          LATER.COM INSTAGRAM    +18444552837  CAN                                            Canadá                              Not sufficient funds54392402190
25   5439240219931005202108111334380000005026000000000000VZXSECQO608110094003901051000000          LATER.COM INSTAGRAM    +18444552837  CAN                                            Canadá                              Not sufficient funds54392402190
25   5439240219931005202108111334380000005026000000000000VZXSECQO608110094003901051000000          LATER.COM INSTAGRAM    +18444552837  CAN                                            Canadá                              Not sufficient funds54392402190
25   5439240222935001202108111536490000002300000000000000  089076421223005689401000024151          VIPS EJERCITO NACIONAL MEXICO CITY   MEX                                            México                                            Compra54392402220
25   5439240207207004202108111550170000000460000000000000  678237900130628733201000024611          OXXO ZIPOLITE          SANTA MARIA T MEX                                            México                                            Compra54392402070
25   5439240222935001202108111602430000004600000000000000  778755900000000119501000025033          SERV MOLIERE           MEXICO CITY   MEX                                            México                                            Compra54392402220
25   543924022623500220210811163833000000821040000000000000098424100003061867901000026366           3 MARIAS QUESADILLAS   BROWNSVILLE   TX                                    Estados Unidos                                            Compra54392402260
25   5439240218936005202108111648530000005000000000000000  864986300000000011301000026722          SELINA CAN2 REC MXP SC BENITO JUAREZ MEX                                            México                                            Compra54392402180
25   543924022625300520210812001535000000139960000000000026995700012232232343101000027702          UBER * PENDING         CMX           MEX                                            México                                            Compra54392402260
25   5439240218657007202108111816400000002660000000000000  739389967833827542001051000000          NETFLIX                MEXICO CITY   MEX                                            México                              Not sufficient funds54392402180
25   5439240218657007202108111816400000002660000000000000  739389967833827542001051000000          NETFLIX                MEXICO CITY   MEX                                            México                              Not sufficient funds54392402180
25   5439240218657007202108111816400000002660000000000000  739389967833827542001051000000          NETFLIX                MEXICO CITY   MEX                                            México                              Not sufficient funds54392402180
25   5439240213809009202108111824450000001370000000000000  103582218254113948501000030183          EXTRA K BOSQUE REAL    HUIXQUILUCAN  MEX                                            México                                            Compra54392402130
25   5439240220705000202108111849310000001269000000000000  639642800130675918501000031118          OXXO PTO ALTAMIRA      ALTAMIRA TAMP MEX                                            México                                            Compra54392402200
25   5439240220846002202108111858550000008000000000000000  798549167833833320001000031443          EXELGAS SUC ALTAMIRA   ALTAMIRA TAMP MEX                                            México                                            Compra54392402200
25   5439240220705000202108111930000000002860000000000000  827109600034884331901000032592          CARLS JR HIDALGO       TAMPICO TAMPS MEX                                            México                                            Compra54392402200
25   5439240212701009202108111935170000006358400000000000000000000      00206902000032800          H S B C                SAN PEDRO GAR MEX                                            México                                        Retiro ATM54392402120
25   5439240220705000202108111944550000005525900000000000  755755521223078651601000033126          GASOL TRACTO CENTER MA TAMPICO TAMPS MEX                                            México                                            Compra54392402200
25   5439240212572004202108111947040000035348000000000000000000000        101602000033197          *SCOTIABANK            CULIACAN      MEX                                            México                                        Retiro ATM54392402120
25   5439240220705000202108111951270000000565000000000000  639646900130694905701000033400          OXXO ROSALES           TAMPICO TAMPS MEX                                            México                                            Compra54392402200
25   5439240219618008202108112023330000001615000000000000  440038800130704397201000034535          OXXO LA CAPITAL MTY    MONTERREY NL  MEX                                            México                                            Compra54392402190
25   5439240223681000202108112029470000007980000000000000  798351587833362662601000034712          HOTEL CASA ANDARIA     SN JOSE ITURB MEX                                            México                                            Compra54392402230
25   5439240220677001202108112215110000002250000000000000  856906577832903151901000037958          TAQUERIA 20 DE NOVIEMB CD MADERO TAM MEX                                            México                                            Compra54392402200
25   5439240220677001202108112226130000001035000000000000  639689900130731435701000038239          OXXO TECNOLOGICO       CD MADERO TAM MEX                                            México                                            Compra54392402200
25   543924021839700020210812054109000000746480000000000026995700012240330223701008000000          RAPPI*RAPPI MEXICO     Mexico City   MEX                                            México                                 Tarjeta Bloqueada54392402180
25   543924021839700020210812054109000000746480000000000026995700012240330223701008000000          RAPPI*RAPPI MEXICO     Mexico City   MEX                                            México                                 Tarjeta Bloqueada54392402180
25   543924021839700020210812054109000000746480000000000026995700012240330223701008000000          RAPPI*RAPPI MEXICO     Mexico City   MEX                                            México                                 Tarjeta Bloqueada54392402180
9900000057000000000000000000000000000000000000000000000000000000000000000000000000000000000000000000000000000000000000000000000000000000000000000000000000000000000000000000000000000000000000000000000000000000000000000000000000000000000000000000000000
