19LOG_ACT2021082100000000000000000000000000000000000000000000000000000000000000000000000000000000000000000000000000000000000000000000000000000000000000000000000000000000000000000000000000000000000000000000000000000000000000000000000000000000000000000
25   5439240215417009202108210019250000024254900000000000  753704922832041122701000353137          HOLIDAY INN REYNOSA    REYNOSA TAMPS MEX                                            México                                            Compra54392402150
25   5439240219950005202108210126540000008310000000000000  792751792210458843001008000000          CLIP MX*CENTROS NOCTUR CIUDAD DE MEX MEX                                            México                                 Tarjeta Bloqueada54392402190
25   5439240219950005202108210126540000008310000000000000  792751792210458843001008000000          CLIP MX*CENTROS NOCTUR CIUDAD DE MEX MEX                                            México                                 Tarjeta Bloqueada54392402190
25   5439240219950005202108210126540000008310000000000000  792751792210458843001008000000          CLIP MX*CENTROS NOCTUR CIUDAD DE MEX MEX                                            México                                 Tarjeta Bloqueada54392402190
25   5439240219950005202108210128020000008310000000000000  792751775441009807701000353991          CLIP MX*CENTROS NOCTUR CIUDAD DE MEX MEX                                            México                                            Compra54392402190
25   543924021913000420210821022918000000100300000000000018192600012334343190801008000000          FACEBK *ZVQ8Z6P8P2     fb.me/ads     IRL                                           Irlanda                                 Tarjeta Bloqueada54392402190
25   543924021913000420210821022918000000100300000000000018192600012334343190801008000000          FACEBK *ZVQ8Z6P8P2     fb.me/ads     IRL                                           Irlanda                                 Tarjeta Bloqueada54392402190
25   543924021913000420210821022918000000100300000000000018192600012334343190801008000000          FACEBK *ZVQ8Z6P8P2     fb.me/ads     IRL                                           Irlanda                                 Tarjeta Bloqueada54392402190
25   5439240219950005202108210129210000008310000000000000  792751728327443742201000354008          CLIP MX*CENTROS NOCTUR CIUDAD DE MEX MEX                                            México                                            Compra54392402190
25   5439240224881005202108210044280000002387000000000000MWU4ZT35U08210041737501000354591          UBER* PENDING          CIUDAD DE MEX MEX                                            México                                            Compra54392402240
25   543924020720700420210821011759000000402350000000000080306336512330801798201000354755           GRIFFITH PAY PARKING   LOS ANGELES   CA                                    Estados Unidos                                            Compra54392402070
25   543924021136600220210821104306000001232790000000000025600415100000000139001000354900          CARLOS ESCUDER         VALL DE UXO   ESP                                            España                                            Compra54392402110
25   543924021136600220210821105725000000375250000000000003081199600000004875601000354972          FARMACIA               LA VALL D'UIX ESP                                            España                                            Compra54392402110
25   543924021136600220210821110224000000408190000000000034971007900000001639901000354987          GRANELL ROIG SL        LA VALL D'UIX ESP                                            España                                            Compra54392402110
25   543924021136600220210821143046000003831540000000000032370160700000000252601000355868          DECATHLON ONDA         ONDA          ESP                                            España                                            Compra54392402110
25   5439240224178006202108211004460000002358400000000000000000000      00895502000358261          H S B C                MONTERREY, NU MEX                                            México                                        Retiro ATM54392402240
25   5439240223680002202108211053040000002200000000000000  105209921233042178001000359498          OFFICE DEPOT SERENA    MONTERREY NL  MEX                                            México                                            Compra54392402230
25   543924022417800620210821183129000000170000000000000026995700012331632064601000360675          RAPPI*SAFE MEXICO      Mexico City   MEX                                            México                                            Compra54392402240
25   5439240211471000202108211151300000040313200000000000000000000        458202000361420          LA24 PEDREGAL 2        CDMX          MEX                                            México                                        Retiro ATM54392402110
25   5439240220677001202108211152100000000628000000000000  40840856CWdTx00R10b01000361441          FARMACIAS SIMILARES    TAMPICO TAMPS MEX                                            México                                            Compra54392402200
25   5439240211471000202108211201400000011200000000000000  767523600000000226801000361805          SERV JARDINES DEL PEDR MEXICO CITY   MEX                                            México                                            Compra54392402110
25   5439240220169009202108211004510000000852000000000000AGI4WHVTD08210064027201000361905          UBER* EATS PENDING     CIUDAD DE MEX MEX                                            México                                            Compra54392402200
25   5439240213809009202108211235150000001080000000000000  824220600000000091301000362992          TIERRA ORGANICA Y NATU HUIXQUILUCAN  MEX                                            México                                            Compra54392402130
25   5439240207396005202108211243450000033089000000000000  624395000000001960701000363312          SUPERAMA PQUES POLANCO MEXICO CITY   MEX                                            México                                            Compra54392402070
25   5439240215488000202108212002530000004950700000000000  4143789 1130128776801000364066          PAYPAL3                MEXICO CITY   MEX                                            México                                            Compra54392402150
25   5439240219618008202108211320210000019363300000000000  842000678387173466401000364753          HEB TEC                MONTERREY NL  MEX                                            México                                            Compra54392402190
25   5439240219618008202108211333240000009640000000000000  109011300000001486601000365272          PETCO COUNTRY GARZA SA MONTERREY     MEX                                            México                                            Compra54392402190
25   543924021848800720210821134702000001318000000000000000000000080070821350802000365831          SENDERO NORTE             NUEVO LEON MEX                                            México                                        Retiro ATM54392402180
25   5439240220677001202108211444110000000660000000000000  4084085iZHVNuLsUsNj01000368208          FARMACIAS SIMILARES    TAMPICO TAMPS MEX                                            México                                            Compra54392402200
25   5439240212636007202108211520100000006784200000000000  842073853697527471701000369730          HEB CHIPINQUE          SN PEDRO GARZ MEX                                            México                                            Compra54392402120
25   5439240212636007202108211533410000004850000000000000  189570500000000008101000370661          MC DONALD S GOMEZ MORI SAN P GARZA G MEX                                            México                                            Compra54392402120
25   543924022067000620210821183400000001130740000000000000000000000001170046202000377527          BANAMEX                MONTERREY     MEX                                            México                                        Retiro ATM54392402200
25   5439240224178006202108211901230000001425000000000000  648718500133233332401000378561          OXXO AGUANAVAL         MONTERREY NL  MEX                                            México                                            Compra54392402240
25   5439240222970008202108211904530000002728000000000000  813472477833245964701000378679          THE SUSHI BOYS TEC     MONTERREY NL  MEX                                            México                                            Compra54392402220
25   5439240224249005202108211905240000000480000000000000  793640267835341477901051000000          NAYAX  *NAYAX  *IMPULS MEXICO CITY   MEX                                            México                              Not sufficient funds54392402240
25   5439240224249005202108211905240000000480000000000000  793640267835341477901051000000          NAYAX  *NAYAX  *IMPULS MEXICO CITY   MEX                                            México                              Not sufficient funds54392402240
25   5439240224249005202108211905240000000480000000000000  793640267835341477901051000000          NAYAX  *NAYAX  *IMPULS MEXICO CITY   MEX                                            México                              Not sufficient funds54392402240
25   543924021206200620210821190814000001460580000000000044450045208220000885501000378784           TARGET T-2187          SAN ANTONIO   TX                                    Estados Unidos                                            Compra54392402120
25   543924022417800620210822021631000000476000000000000026995700012340030629101000379120          RAPPI*SAFE MEXICO      Mexico City   MEX                                            México                                            Compra54392402240
25   5439240212701009202108211940300000000280000000000000  4208750RhPKt0pXKmcG01000380031          CASA CULTIVA UMA       SAN PEDRO GAR MEX                                            México                                            Compra54392402120
25   5439240212701009202108211941270000002520000000000000  4208750GzChbf6dc5R201000380068          CASA CULTIVA UMA       SAN PEDRO GAR MEX                                            México                                            Compra54392402120
25   543924021961800820210822030041000000234810000000000026995700012340131511201000380790          RAPPI*SAFE MEXICO      Mexico City   MEX                                            México                                            Compra54392402190
25   5439240224881005202108212003510000008517900000000000  765140900000014706101000380908          SUPERAMA DIV DEL NTE   MEXICO CITY   MEX                                            México                                            Compra54392402240
25   5439240220677001202108212027020000001818000000000000  673937900143928049901000381724          FARM GUADALAJARA 808   TAMPICO TAMPS MEX                                            México                                            Compra54392402200
25   5439240213809009202108212036260000001000000000000000  103582220370414070401000382097          EXTRA K BOSQUE REAL    HUIXQUILUCAN  MEX                                            México                                            Compra54392402130
25   5439240222970008202108212051190000004780000000000000  110402421233018706101000382609          12788 PULLPUNTOVALLE   SAN PEDRO GAR MEX                                            México                                            Compra54392402220
25   5439240218569004202108212127080000000190000000000000  648696300133280199801000383733          OXXO LAGOS DEL BOSQUE  MONTERREY NL  MEX                                            México                                            Compra54392402180
25   5439240224178006202108212309360000001060000000000000  813135100207557268501000386342          7 ELEVEN RIO SALADO    MONTERREY NL  MEX                                            México                                            Compra54392402240
9900000048000000000000000000000000000000000000000000000000000000000000000000000000000000000000000000000000000000000000000000000000000000000000000000000000000000000000000000000000000000000000000000000000000000000000000000000000000000000000000000000000
