19LOG_ACT2021080500000000000000000000000000000000000000000000000000000000000000000000000000000000000000000000000000000000000000000000000000000000000000000000000000000000000000000000000000000000000000000000000000000000000000000000000000000000000000000
25   543924021136600220210805115131000001183680000000000034301919600000000893301008000000          IVR SANCIONES 060 2    MADRID        ESP                                            España                                 Tarjeta Bloqueada54392402110
25   543924021136600220210805115131000001183680000000000034301919600000000893301008000000          IVR SANCIONES 060 2    MADRID        ESP                                            España                                 Tarjeta Bloqueada54392402110
25   543924021136600220210805115131000001183680000000000034301919600000000893301008000000          IVR SANCIONES 060 2    MADRID        ESP                                            España                                 Tarjeta Bloqueada54392402110
25   543924021136600220210805131900000000830950000000000034971007900000001577801000814035          GRANELL ROIG SL        LA VALL D'UIX ESP                                            España                                            Compra54392402110
25   5439240220890000202108050839050000005000000000000000  557367000206061684201000815382          PETROMAX               SANTA CATARIN MEX                                            México                                            Compra54392402200
25   5439240220846002202108050854230000002610000000000000  409847821217025934601000815651          STARBUCK SALAMANCA     SALAMANCA GTO MEX                                            México                                            Compra54392402200
25   543924021136600220210805163603000003288270000000000017553427000000000207101000816503          CATAN                  MONCOFA       ESP                                            España                                            Compra54392402110
25   543924021993100520210805175801000000000000000000000026995700012171531730501000818731          UBR PAGOS MEXICO SOCIE CMX           MEX                                            México                                            Compra54392402190
25   5439240219931005202108050858330000007002000000000000AGI4WHVTD08050033541801000818747          UBER* EATS PENDING     CIUDAD DE MEX MEX                                            México                                            Compra54392402190
25   5439240220846002202108051109530000000018000000000000  195501221217070471301000819103          OFFICE DEPOT CELAYA    CELAYA GTO    MEX                                            México                                            Compra54392402200
25   5439240212582003202108051119360000000720000000000000  370301421217027436001000819388          STARBUCKS GOMEZ MORIN  SAN PEDRO GAR MEX                                            México                                            Compra54392402120
25   5439240210846004202108051155100000003990000000000000  105156721217049573701000820469          2499 STR SAN AGUSTIN   SAN PEDRO GAR MEX                                            México                                            Compra54392402100
25   5439240210846004202108051212190000037410000000000000  499565021217049635301000821036          ZARA PZA FIESTA        MONTERREY NL  MEX                                            México                                            Compra54392402100
25   5439240215488000202108051918520000003179500000000000  4143789 1129059054501000821258          PAYPAL3                MEXICO CITY   MEX                                            México                                            Compra54392402150
25   5439240212636007202108051313100000003320000000000000  805084712171804535201000823307          KK MONTERREY 2         SN PEDRO GARZ MEX                                            México                                            Compra54392402120
25   5439240212636007202108051424430000003461500000000000  0300046LNU0DjYV8rNe01000826203          SUPER MODE GM          SN PEDRO GARZ MEX                                            México                                            Compra54392402120
25   5439240207207004202108051444450000001800000000000000  830272500115607022801000827078          SUSHI MIKU FUSION      OAXACA DE JUA MEX                                            México                                            Compra54392402070
25   5439240219931005202108051504010000013600000000000000  417480905150400724601000827953          SHAKE SHACK REFORMA333 CIUDAD DE MEX MEX                                            México                                            Compra54392402190
25   5439240226235002202108051527200000015076500000000000  827665987799524962701000828890          REST TODOS SOMOS LOPEZ SN PEDRO GARZ MEX                                            México                                            Compra54392402260
25   5439240219950005202108051546070000111182400000000000  423011900029198030601000829631          MONTEPIOLUZ SAVINON MU CIUDAD DE MEX MEX                                            México                                            Compra54392402190
25   5439240220846002202108051607370000005130000000000000  839348300000000004701000830539          EL EMBARCADERO         GUANAJUATO GT MEX                                            México                                            Compra54392402200
25   5439240219618008202108051612520000003515000000000000  440038800129154232101000830771          OXXO LA CAPITAL MTY    MONTERREY NL  MEX                                            México                                            Compra54392402190
25   5439240224178006202108051615070000003384000000000000  413238600129154875901000830863          OXXOGAS EL PORVENIR MD MERIDA YUC    MEX                                            México                                            Compra54392402240
25   5439240220890000202108051707120000014347000000000000  650052400010382903601000832786          HOME DEPOT STACATARINA SANTA CATARIN MEX                                            México                                            Compra54392402200
25   5439240220870002202108051735470000001000000000000000  423602500000698626101000833854          TELCEL RECARGAS FONY   CIUDAD DE MEX MEX                                            México                                            Compra54392402200
25   5439240220071007202108051813230000004070000000000000  758828411fOGkBXM1k401000835262          EL LINDERO             MONTERREY NL  MEX                                            México                                            Compra54392402200
25   5439240211289006202108051827190000025990000000000000  421042700029203242001000835856          MERCADOPAGO 2 MU       CIUDAD DE MEX MEX                                            México                                            Compra54392402110
25   543924021961800820210805234141000000347210000000000010000000012172499014801000836407          OF                     London        GBR                                       Reino Unido                                            Compra54392402190
25   5439240213963004202108051852570000000423300000000000  4025633wsufqgfsbnac01051000000          OP*OPENPAY             SANTIAGO DE Q MEX                                            México                              Not sufficient funds54392402130
25   5439240213963004202108051852570000000423300000000000  4025633wsufqgfsbnac01051000000          OP*OPENPAY             SANTIAGO DE Q MEX                                            México                              Not sufficient funds54392402130
25   5439240213963004202108051852570000000423300000000000  4025633wsufqgfsbnac01051000000          OP*OPENPAY             SANTIAGO DE Q MEX                                            México                              Not sufficient funds54392402130
25   543924022623500220210805202845000000385130000000000054292980312175301240401000838309           DELIA S 1              MCALLEN       TX                                    Estados Unidos                                            Compra54392402260
25   5439240220846002202108050816220000005529900000000000  421507508050816220301000840214          OXXO GAS MEXICO PLAZA  SILAO GTO     MEX                                            México                                            Compra54392402200
25   5439240219618008202108051840310000002465000000000000AGI4WHVTD08060019990701000841185          UBER* EATS PENDING     CIUDAD DE MEX MEX                                            México                                            Compra54392402190
25   5439240220846002202108052138390000006908000000000000  4102097WyyNH63YTl1g01000843258          GUACAMOLE GRILL        SILAO GTO     MEX                                            México                                            Compra54392402200
25   5439240219950005202108052216140000002788000000000000  183194000000009048801000844343          WAL MART MIRAMONTES    MEXICO CITY   MEX                                            México                                            Compra54392402190
25   5439240224178006202108052229450000002006000000000000  810728351799237567801000844678          AME*RAPPI II           CIUDAD DE MEX MEX                                            México                                            Compra54392402240
25   5439240219618008202108052043370000000123300000000000AGI4WHVTD08060062741301000845048          UBER* EATS             CIUDAD DE MEX MEX                                            México                                            Compra54392402190
25   5439240215417009202108052355000000004519100000000000  737696151799248024201000846489          PAGOCON*DISTRIBUIDORA  DISTRITO FEDE MEX                                            México                                            Compra54392402150
9900000039000000000000000000000000000000000000000000000000000000000000000000000000000000000000000000000000000000000000000000000000000000000000000000000000000000000000000000000000000000000000000000000000000000000000000000000000000000000000000000000000
