19LOG_ACT2021081200000000000000000000000000000000000000000000000000000000000000000000000000000000000000000000000000000000000000000000000000000000000000000000000000000000000000000000000000000000000000000000000000000000000000000000000000000000000000000
25   5439240211366002202108121235470000012097200000000000 2072100008120068625001000041602          Zeeman Vall D uixo     Vall D uixo   ESP                                            España                                            Compra54392402110
25   5439240220670006202108120808130000000157200000000000  182145300000004179301000042661          WAL MART TAMPICO       TAMPICO TAMPS MEX                                            México                                            Compra54392402200
25   543924022067000620210812080900000001530740000000000000000000000006330240802000042671          BANAMEX                TAMPICO       MEX                                            México                                        Retiro ATM54392402200
25   5439240218936005202108120811570000002890000000000000  106222227559162558601051000000          STARBUCKS CAFE         ENITO JUAREZ  MEX                                            México                              Not sufficient funds54392402180
25   5439240218936005202108120811570000002890000000000000  106222227559162558601051000000          STARBUCKS CAFE         ENITO JUAREZ  MEX                                            México                              Not sufficient funds54392402180
25   5439240218936005202108120811570000002890000000000000  106222227559162558601051000000          STARBUCKS CAFE         ENITO JUAREZ  MEX                                            México                              Not sufficient funds54392402180
25   5439240220670006202108120815150000001040000000000000  131524121224084744101000042753          STARBUCKS TAMPICO HGO  TAMPICO TAMPS MEX                                            México                                            Compra54392402200
25   5439240218936005202108120822460000001060000000000000  129970052071764641701051000000          ASUR C CONV SHOP 3     BENITO JUAREZ MEX                                            México                              Not sufficient funds54392402180
25   5439240218936005202108120822460000001060000000000000  129970052071764641701051000000          ASUR C CONV SHOP 3     BENITO JUAREZ MEX                                            México                              Not sufficient funds54392402180
25   5439240218936005202108120822460000001060000000000000  129970052071764641701051000000          ASUR C CONV SHOP 3     BENITO JUAREZ MEX                                            México                              Not sufficient funds54392402180
25   5439240205975008202108120903200000016290000000000000000000000        222702000043486          SUC MATAMOROS          MATAMOROS     MEX                                            México                                        Retiro ATM54392402050
25   5439240220677001202108120918520000004700000000000000  855470477832907817001000043794          LA CARNIFICA           TAMPICO TAMPS MEX                                            México                                            Compra54392402200
25   5439240218397000202108120931590000007464800000000000  810728367833902126401008000000          AME*RAPPI II           CIUDAD DE MEX MEX                                            México                                 Tarjeta Bloqueada54392402180
25   5439240218397000202108120931590000007464800000000000  810728367833902126401008000000          AME*RAPPI II           CIUDAD DE MEX MEX                                            México                                 Tarjeta Bloqueada54392402180
25   5439240218397000202108120931590000007464800000000000  810728367833902126401008000000          AME*RAPPI II           CIUDAD DE MEX MEX                                            México                                 Tarjeta Bloqueada54392402180
25   5439240220705000202108121017140000001540000000000000  209144521224055029401000045109          FIESTA INN TAMPICO     TAMPICO TAMPS MEX                                            México                                            Compra54392402200
25   543924021548800020210812111817000000217320000000000016014600012244040807501000045139           AMZN Digital           888-802-3080  WA                                    Estados Unidos                                            Compra54392402150
25   5439240223681000202108121041220000005801600000000000  4168218c9oD2l06TrqL01000045701          SERV ENERGETICOS SAN L SAN JOSE ITUR MEX                                            México                                            Compra54392402230
25   5439240223681000202108121051020000001004000000000000  415372300130775411501000045841          OXXOPUERTO MEXICO QRF  SN JOSE ITURB MEX                                            México                                            Compra54392402230
25   5439240220670006202108121103400000000365400000000000  938601252081419713801000046344          FERRETERIA MORA        TAMPICO TAMPS MEX                                            México                                            Compra54392402200
25   5439240218397000202108121155300000007464800000000000  810728393833933053201008000000          AME*RAPPI II           CIUDAD DE MEX MEX                                            México                                 Tarjeta Bloqueada54392402180
25   5439240218397000202108121155300000007464800000000000  810728393833933053201008000000          AME*RAPPI II           CIUDAD DE MEX MEX                                            México                                 Tarjeta Bloqueada54392402180
25   5439240218397000202108121155300000007464800000000000  810728393833933053201008000000          AME*RAPPI II           CIUDAD DE MEX MEX                                            México                                 Tarjeta Bloqueada54392402180
25   5439240205975008202108121218350000040962200000000000  760628100000000025701000048573          MAD Y FERRETE VERACRUZ MATAMOROS TAM MEX                                            México                                            Compra54392402050
25   5439240223681000202108121340190000002801600000000000  712682300000000005901000051248          REST RINCON DE CUITZEO ABASOLO GTO   MEX                                            México                                            Compra54392402230
25   5439240212582003202108121405570000004417500000000000  462968900130823644201000052324          OXXO PALESTINA MTY     MONTERREY NL  MEX                                            México                                            Compra54392402120
25   5439240223680002202108121416100000000650000000000000  880037787833380848501000052568          VIDRIOS Y ESPEJOS MTZ  SN P GARZA GA MEX                                            México                                            Compra54392402230
25   5439240207207004202108121442090000000890000000000000  165169411007180178201000053591          F AHORRO OXCA CARDENA  OAXACA DE JUA MEX                                            México                                            Compra54392402070
25   5439240223883002202108121457030000004425000000000000  841963162090495566201000054151          HEB SAN PEDRO          SN PEDRO GARZ MEX                                            México                                            Compra54392402230
25   543924022623500220210812150417000000618540000000000052307243012241548091101000054465           OSTIONERIA MOCAMBO     BROWNSVILLE   TX                                    Estados Unidos                                            Compra54392402260
25   543924021548800020210812163014000000203920000000000016014600012243737148801000055385           AMZN Digital           888-802-3080  WA                                    Estados Unidos                                            Compra54392402150
25   543924021084600420210812163202000000408040000000000078495900012244343134901000055455           Amazon.com             Amzn.com/bill WA                                    Estados Unidos                                            Compra54392402100
25   5439240220677001202108121554020000000345000000000000  414515490000155001801000056323          SUBODEGA SUC MONTEALTO ALTAMIRA TAMP MEX                                            México                                            Compra54392402200
25   5439240220705000202108121601400000015125000000000000  5612122o3pvJUEFau5301000056627          REST EL ASADOR I       ALTAMIRA TAMP MEX                                            México                                            Compra54392402200
25   5439240212636007202108121604160000001690000000000000  738910808121604162001000056732          NETPAY *COMET TINTORER SAN PEDRO GAR MEX                                            México                                            Compra54392402120
25   5439240212636007202108121625490000000440000000000000  440536100050870028301000057511          HOME DEPOT GARZA GARCI SN PEDRO GARZ MEX                                            México                                            Compra54392402120
25   5439240212636007202108121716440000001260000000000000  701398000000000029801000059343          LEENEA DE MEXICO       SN PEDRO GARZ MEX                                            México                                            Compra54392402120
25   5439240212636007202108121727130000007253000000000000  9487455Ep8QfvcBO1So01000059744          ORSAN D NTE            SN PEDRO GARZ MEX                                            México                                            Compra54392402120
25   5439240223681000202108121828090000006650100000000000  112757422879288848201000061956          STEREN IRAPUATO PLAZA  IRAPUATO      MEX                                            México                                            Compra54392402230
25   5439240215488000202108130153170000020936000000000000  4143789 2028990466801000062885          PAYPAL3                MEXICO CITY   MEX                                            México                                            Compra54392402150
25   5439240218936005202108121907220000000415000000000000  645817800130905910801000063430          OXXO PUERTA DEL SOL    MEXICO CITY   MEX                                            México                                            Compra54392402180
25   5439240220870002202108121915240000000905000000000000  814548167833978930901000063726          D LOCAL*DIDI MOBILITY  MEXICO CITY   MEX                                            México                                            Compra54392402200
25   5439240212636007202108121928550000007990000000000000  185624439180208121901000064242          COSTCO MONTERREY       SAN P GARZA G MEX                                            México                                            Compra54392402120
25   5439240223681000202108122107100000009800000000000000  4264914SI7xAU1DPPCl01000068065          HOTEL CASA MARQUEZ     ABASOLO GTO   MEX                                            México                                            Compra54392402230
25   5439240220670006202108122108180000001590000000000000  839750787833397271201000068107          SUBWAY HERRADURA       TAMPICO TAMPS MEX                                            México                                            Compra54392402200
25   5439240220670006202108122113180000001210000000000000  843848200000000304601000068291          COPIZZA                TAMPICO TAMPS MEX                                            México                                            Compra54392402200
25   5439240220870002202108120921350000010001500000000000  563356508120921352901000068591          OXXO GAS ACAPULCO      GUADALUPE NL  MEX                                            México                                            Compra54392402200
25   5439240224178006202108122136090000003050000000000000  448064600206723546301000069060          7 ELEVEN T 1892        MONTERREY NL  MEX                                            México                                            Compra54392402240
25   5439240212582003202108122149060000001320000000000000  844871400206724475901000069486          7 ELEVEN CONQUIS       SAN PEDRO GAR MEX                                            México                                            Compra54392402120
25   543924021854800820210813055112000000159000000000000026995700012250330210501008000000          Disney PLUS            CMX           MEX                                            México                                 Tarjeta Bloqueada54392402180
25   543924021854800820210813055112000000159000000000000026995700012250330210501008000000          Disney PLUS            CMX           MEX                                            México                                 Tarjeta Bloqueada54392402180
25   543924021854800820210813055112000000159000000000000026995700012250330210501008000000          Disney PLUS            CMX           MEX                                            México                                 Tarjeta Bloqueada54392402180
25   5439240218548008202108122251140000001590000000000000  845007767834011019001008000000          AME*DISNEY RECURRE     CIUDAD DE MEX MEX                                            México                                 Tarjeta Bloqueada54392402180
25   5439240218548008202108122251140000001590000000000000  845007767834011019001008000000          AME*DISNEY RECURRE     CIUDAD DE MEX MEX                                            México                                 Tarjeta Bloqueada54392402180
25   5439240218548008202108122251140000001590000000000000  845007767834011019001008000000          AME*DISNEY RECURRE     CIUDAD DE MEX MEX                                            México                                 Tarjeta Bloqueada54392402180
25   5439240220677001202108122327090000002460000000000000  792751765803671766901000071752          CLIP MX*ES BUENO PARA  CIUDAD DE MEX MEX                                            México                                            Compra54392402200
9900000056000000000000000000000000000000000000000000000000000000000000000000000000000000000000000000000000000000000000000000000000000000000000000000000000000000000000000000000000000000000000000000000000000000000000000000000000000000000000000000000000
