19LOG_ACT2021073100000000000000000000000000000000000000000000000000000000000000000000000000000000000000000000000000000000000000000000000000000000000000000000000000000000000000000000000000000000000000000000000000000000000000000000000000000000000000000
25   5439240220705000202107310009560000010480000000000000  42593426R0f5opdN0Xt01000641769          EL TACO DEL SIRLON     MONCLOVA COAH MEX                                            México                                            Compra54392402200
25   543924021052200120210731044321000001535130000000000022140500012127070410601000643733          AMZN Mktp ES           800-279-6620  LUX                                        Luxemburgo                                            Compra54392402100
25   5439240219950005202107310553040000002660000000000000  454963000000N1SCNM501000644306          NETFLIX COM 1          MEXICO CITY   MEX                                            México                                            Compra54392402190
25   5439240220677001202107310618430000001099000000000000MWU4ZT35U07310093020801051000000          UBER* TRIP             CIUDAD DE MEX MEX                                            México                              Not sufficient funds54392402200
25   5439240220677001202107310618430000001099000000000000MWU4ZT35U07310093020801051000000          UBER* TRIP             CIUDAD DE MEX MEX                                            México                              Not sufficient funds54392402200
25   543924021052200120210731170608000000413620000000000013332249500000000022001000647880          LEROY MERLIN ESPA A SL ALBORAYA      ESP                                            España                                            Compra54392402100
25   543924021147100020210731191726000001419050000000000082032136212121307501801000650137          HILTON GARDEN INN JKIA NAIROBI       KEN                                             Kenia                                            Compra54392402110
25   5439240212582003202107311144080000001430000000000000  370301421212086108701000651119          STARBUCKS GOMEZ MORIN  SAN PEDRO GAR MEX                                            México                                            Compra54392402120
25   5439240220890000202107311148570000002882000000000000  4090653mg30NLVBAoap01000651294          VIPS APTO S BRAVO      MEXICO CITY   MEX                                            México                                            Compra54392402200
25   5439240220705000202107311152350000004939000000000000  857407916525000086701000651445          GISELLE DE LOS SANTOS  MONCLOVA COAH MEX                                            México                                            Compra54392402200
25   5439240297320006202107311214360000011193600000000000  410209000000002694601000652346          SUPERCENTER PLAYA M    CD MADERO TAM MEX                                            México                                            Compra54392402970
25   5439240219618008202107311224170000004000000000000000  412507507311224172701000652733          OXXO GAS MM DEL LLANO  MONTERREY NL  MEX                                            México                                            Compra54392402190
25   5439240220705000202107311225570000000200000000000000  405726200127815534101000652832          OXXOTORREON LOV        MONCLOVA COAH MEX                                            México                                            Compra54392402200
25   5439240297320006202107311242390000008030000000000000  861153100033693126901000653550          ABTS VELAS MARKET      ALTAMIRA TAMP MEX                                            México                                            Compra54392402970
25   543924021961800820210731134544000000154000000000000031760300012123838586401000653691           NINTENDO    *AMERICAMX 800-255-3700  WA                                    Estados Unidos                                            Compra54392402190
25   5439240211471000202107312105450000004991000000000000  730357112121800710801000654638          DUFRY KENYA LTD 730357 NAIROBI       KEN                                             Kenia                                            Compra54392402110
25   5439240215817000202107311319460000000355000000000000  112883621212043853901051000000          BONJOUR TEMIXCO        TEMIXCO       MEX                                            México                              Not sufficient funds54392402150
25   5439240215817000202107311319460000000355000000000000  112883621212043853901051000000          BONJOUR TEMIXCO        TEMIXCO       MEX                                            México                              Not sufficient funds54392402150
25   5439240215817000202107311320150000000355000000000000  112883621212043860401051000000          BONJOUR TEMIXCO        TEMIXCO       MEX                                            México                              Not sufficient funds54392402150
25   5439240215817000202107311320150000000355000000000000  112883621212043860401051000000          BONJOUR TEMIXCO        TEMIXCO       MEX                                            México                              Not sufficient funds54392402150
25   5439240211471000202107312122130000004959200000000000  733116812121803923901000655416          BEAN PLANT LIMIT733116 NAIROBI       KEN                                             Kenia                                            Compra54392402110
25   5439240226253005202107311339520000033000000000000000  4132100zlbvEMJNWdI701000656186          IMPLANTS SMILES        MEXICO CITY   MEX                                            México                                            Compra54392402260
25   543924022623500220210731145344000000740610000000000092200000112120025629701000656850           MI PUEBLITO RESTAURA   BROWNSVILLE   TX                                    Estados Unidos                                            Compra54392402260
25   5439240219950005202107311442110000009980000000000000  104078221212019055001000659216          7676STRADIVARIUS OASIS CIUDAD DE MEX MEX                                            México                                            Compra54392402190
25   5439240220890000202107311451590000009000000000000000  790304591736680074501000659702          TAXIS EBSSA MTY X      APODACA NL    MEX                                            México                                            Compra54392402200
25   5439240219950005202107311458000000010970000000000000  104314621212019242001000660005          7980 PULL&BEAR OASIS   CIUDAD DE MEX MEX                                            México                                            Compra54392402190
25   5439240218099002202107311524440000014835000000000000  747822712122001026401000661206          GARABATOS ABC 2        MEXICO CITY   MEX                                            México                                            Compra54392402180
25   5439240219618008202107311601280000001904000000000000  821120051736097220201000662890          AME*RAPPI V            CIUDAD DE MEX MEX                                            México                                            Compra54392402190
25   5439240218936005202107311642140000002990000000000000  41908339hfdycenmeuk01051000000          PR ADOBE CR            NAUCALPAN DE  MEX                                            México                              Not sufficient funds54392402180
25   5439240218936005202107311642140000002990000000000000  41908339hfdycenmeuk01051000000          PR ADOBE CR            NAUCALPAN DE  MEX                                            México                              Not sufficient funds54392402180
25   5439240218936005202107311642180000002990000000000000  4190833y3xqwpkiw9in01051000000          PR ADOBE CR            NAUCALPAN DE  MEX                                            México                              Not sufficient funds54392402180
25   5439240218936005202107311642180000002990000000000000  4190833y3xqwpkiw9in01051000000          PR ADOBE CR            NAUCALPAN DE  MEX                                            México                              Not sufficient funds54392402180
25   5439240212636007202107311718080000010602800000000000  757480977735414063601000666370          ORSAN DEL NORTE EST 36 MONTERREY NL  MEX                                            México                                            Compra54392402120
25   5439240213809009202107311739250000011530000000000000  814791800000000019501000667302          JAPONEZ ARTZ           CIUDAD DE MEX MEX                                            México                                            Compra54392402130
25   543924021052200120210801011553000000000000000000000052656700012122315643001000668929          FlixOle                Pozuelo Alarc ESP                                            España                                            Compra54392402100
25   5439240212582003202107311909110000001980000000000000  527996300127970004001000671196          OXXO TAMAZUNCHALE      SAN PEDRO GAR MEX                                            México                                            Compra54392402120
25   5439240220705000202107311958010000000870000000000000  633867700127986859201000673026          OXXO CRUCERO           MONCLOVA COAH MEX                                            México                                            Compra54392402200
25   5439240220705000202107312000320000000700000000000000  417143600143544134101000673376          FAR GUAD 2042          MONCLOVA COAH MEX                                            México                                            Compra54392402200
25   5439240213809009202107312015330000003272600000000000  418504548250954950801000674005          LA EUROPEA BOSQUE REAL HUIXQUILUCAN  MEX                                            México                                            Compra54392402130
25   543924021548800020210731222741000000214530000000000037217639212133542108101000676907           AMZN DIGITAL 888-802-3 SEATTLE       WA                                    Estados Unidos                                            Compra54392402150
25   5439240297320006202107312246060000023220000000000000  858511603460749841001000679341          REST VELAS 10 VELAMAR  ALTAMIRA TAMP MEX                                            México                                            Compra54392402970
25   5439240215488000202107312339020000003190000000000000  790373351736169222001000680550          PAYPAL *FONTELAB       CIUDAD DE MEX MEX                                            México                                            Compra54392402150
25   5439240220705000202107312344310000004884000000000000  4268070ywLWO5xCbPrU01000680662          PANORAMICA             MONCLOVA COAH MEX                                            México                                            Compra54392402200
9900000043000000000000000000000000000000000000000000000000000000000000000000000000000000000000000000000000000000000000000000000000000000000000000000000000000000000000000000000000000000000000000000000000000000000000000000000000000000000000000000000000
