19LOG_ACT2021081000000000000000000000000000000000000000000000000000000000000000000000000000000000000000000000000000000000000000000000000000000000000000000000000000000000000000000000000000000000000000000000000000000000000000000000000000000000000000000
25   5439240220677001202108100015070000004604200000000000  794088021222049314201000977299          GASOL SCALA 1          TAMPICO TAMPS MEX                                            México                                            Compra54392402200
25   5439240220182002202108100409360000001790000000000000  788982451833148769001008000000          AME*SPOTIFY CR         MEXICO CITY   MEX                                            México                                 Tarjeta Bloqueada54392402200
25   5439240220182002202108100409360000001790000000000000  788982451833148769001008000000          AME*SPOTIFY CR         MEXICO CITY   MEX                                            México                                 Tarjeta Bloqueada54392402200
25   5439240220182002202108100409360000001790000000000000  788982451833148769001008000000          AME*SPOTIFY CR         MEXICO CITY   MEX                                            México                                 Tarjeta Bloqueada54392402200
25   543924021136600220210810130250000001693160000000000035344438300000000019801000978831          PESCADERIA EMILIO ALEM MONCOFAR      ESP                                            España                                            Compra54392402110
25   543924021136600220210810075630000000023550000000000024901200012226868653301008000000          GOOGLE *TEMPORARY HOLD g.co/helppay# GBR                                       Reino Unido                                 Tarjeta Bloqueada54392402110
25   543924021136600220210810075630000000023550000000000024901200012226868653301008000000          GOOGLE *TEMPORARY HOLD g.co/helppay# GBR                                       Reino Unido                                 Tarjeta Bloqueada54392402110
25   543924021136600220210810075630000000023550000000000024901200012226868653301008000000          GOOGLE *TEMPORARY HOLD g.co/helppay# GBR                                       Reino Unido                                 Tarjeta Bloqueada54392402110
25   543924021136600220210810075740000000023550000000000024901200012223434608601000979116          GOOGLE *TEMPORARY HOLD g.co/helppay# GBR                                       Reino Unido                                            Compra54392402110
25   543924021975600620210810074428000005017400000000000000000000040390024838102000979455          SUC. INBURSA MIGUEL A.  MEXICO DF ME MEX                                            México                                        Retiro ATM54392402190
25   5439240220670006202108100748580000001080000000000000  131524121222067874601000979502          STARBUCKS TAMPICO HGO  TAMPICO TAMPS MEX                                            México                                            Compra54392402200
25   5439240220705000202108100947180000004650000000000000  700887000000000011101000981561          REST BAR EL LINDERO    TAMPICO TAMPS MEX                                            México                                            Compra54392402200
25   5439240205975008202108101016300000017290000000000000000000000        169302000982272          SUC MATAMOROS          MATAMOROS     MEX                                            México                                        Retiro ATM54392402050
25   5439240219732007202108101120050000007501300000000000  836302321222053337201000984004          KARZO GASOL ES MORELOS MATAMOROS TAM MEX                                            México                                            Compra54392402190
25   5439240218099002202108101128530000004790000000000000  239923662861293377401000984295          SANBORNS PATRIOTISMO   MEXICO CITY   MEX                                            México                                            Compra54392402180
25   5439240212701009202108101154500000034538500000000000  478050800000001602001000985087          AXA SEG MIT2           MEXICO CITY   MEX                                            México                                            Compra54392402120
25   5439240220846002202108101203360000002619300000000000  792751786911022874301000985361          CLIP MX* 29  DELI SAZO CIUDAD DE MEX MEX                                            México                                            Compra54392402200
25   5439240226235002202108101210350000013680000000000000  774162600000000048701000985602          FARMCIAS SAN JUDAS     MATAMOROS TAM MEX                                            México                                            Compra54392402260
25   5439240226235002202108101309120000005110000000000000  502039100582160461201000987530          SORIANA58 LAURO VILLAR MATAMOROS TAM MEX                                            México                                            Compra54392402260
25   543924020640800920210810134859000006915880000000000080236773212221803744701000988952           CITY OF EDINBURG       EDINBURG      TX                                    Estados Unidos                                            Compra54392402060
25   543924021052200120210810134922000000709110000000000001667978901167963640201000988976          UNIDEPORTES SUCURSAL 2 CUCUTA        COL                                          Colombia                                            Compra54392402100
25   543924021052200120210810135553000000303400000000000001426054101167985762201000989203          TIENDA CC VENTURA PLAZ CUCUTA        COL                                          Colombia                                            Compra54392402100
25   5439240220677001202108101410500000003390000000000000  818006300000000017101000989767          EL POLLO LOCO UNIVERSI TAMPICO TAMPS MEX                                            México                                            Compra54392402200
25   5439240212636007202108101455160000004400000000000000  7595287PcvT0RvCk9Ie01000991344          SERV PAKMAIL VALLE OTE SAN PEDRO GAR MEX                                            México                                            Compra54392402120
25   5439240219618008202108101511540000001950000000000000  440038800130394397801000991955          OXXO LA CAPITAL MTY    MONTERREY NL  MEX                                            México                                            Compra54392402190
25   5439240211366002202108101322580000104918000000000000FLGKQH1ZJ08100048220101000992322          KAMPAOH                +34955252440  ESP                                            España                                            Compra54392402110
25   5439240220677001202108101559090000014400000000000000  904878600040875294001000993611          HOME DEPOT             TAMPICO TAMPS MEX                                            México                                            Compra54392402200
25   5439240220677001202108101621440000006806000000000000  904878600060350033701000994477          HOME DEPOT             TAMPICO TAMPS MEX                                            México                                            Compra54392402200
25   5439240220846002202108101648040000000905000000000000  639706100130419884501000995325          OXXO CHARRO            TAMPICO TAMPS MEX                                            México                                            Compra54392402200
25   5439240221785001202108100450300000011552000000000000  419148808100450304901008000000          OXXOSANTA 6            SANTA CATARIN MEX                                            México                                 Tarjeta Bloqueada54392402210
25   5439240221785001202108100450300000011552000000000000  419148808100450304901008000000          OXXOSANTA 6            SANTA CATARIN MEX                                            México                                 Tarjeta Bloqueada54392402210
25   5439240221785001202108100450300000011552000000000000  419148808100450304901008000000          OXXOSANTA 6            SANTA CATARIN MEX                                            México                                 Tarjeta Bloqueada54392402210
25   5439240221785001202108100450560000011552000000000000  419148808100450563101008000000          OXXOSANTA 6            SANTA CATARIN MEX                                            México                                 Tarjeta Bloqueada54392402210
25   5439240221785001202108100450560000011552000000000000  419148808100450563101008000000          OXXOSANTA 6            SANTA CATARIN MEX                                            México                                 Tarjeta Bloqueada54392402210
25   5439240221785001202108100450560000011552000000000000  419148808100450563101008000000          OXXOSANTA 6            SANTA CATARIN MEX                                            México                                 Tarjeta Bloqueada54392402210
25   5439240221785001202108100453130000011552000000000000  419148808100453133801008000000          OXXOSANTA 6            SANTA CATARIN MEX                                            México                                 Tarjeta Bloqueada54392402210
25   5439240221785001202108100453130000011552000000000000  419148808100453133801008000000          OXXOSANTA 6            SANTA CATARIN MEX                                            México                                 Tarjeta Bloqueada54392402210
25   5439240221785001202108100453130000011552000000000000  419148808100453133801008000000          OXXOSANTA 6            SANTA CATARIN MEX                                            México                                 Tarjeta Bloqueada54392402210
25   5439240221785001202108100453500000011552000000000000  419148808100453501401008000000          OXXOSANTA 6            SANTA CATARIN MEX                                            México                                 Tarjeta Bloqueada54392402210
25   5439240221785001202108100453500000011552000000000000  419148808100453501401008000000          OXXOSANTA 6            SANTA CATARIN MEX                                            México                                 Tarjeta Bloqueada54392402210
25   5439240221785001202108100453500000011552000000000000  419148808100453501401008000000          OXXOSANTA 6            SANTA CATARIN MEX                                            México                                 Tarjeta Bloqueada54392402210
25   5439240221785001202108100457370000011552000000000000  419148808100457379901000995628          OXXOSANTA 6            SANTA CATARIN MEX                                            México                                            Compra54392402210
25   5439240223681000202108101705540000001919000000000000  415372300130422780901000995700          OXXOPUERTO MEXICO QRF  SN JOSE ITURB MEX                                            México                                            Compra54392402230
25   5439240220890000202108101718590000000980000000000000  713972900000000036901000996422          HOTEL IBIS MX PERINTE  CUAUTITLAN IZ MEX                                            México                                            Compra54392402200
25   5439240213809009202108101816320000005000000000000000  753857400000000027501000998511          EL JAPONEZ SANTA FE    CIUDAD DE MEX MEX                                            México                                            Compra54392402130
25   543924021548800020210810200809000000216300000000000037218191012237731284001000000482           AMAZON.COM AMZN.COM/BI SEATTLE       WA                                    Estados Unidos                                            Compra54392402150
25   543924021548800020210810200818000000260040000000000023525100012233939341601000000485           AMZN Mktp US           Amzn.com/bill WA                                    Estados Unidos                                            Compra54392402150
25   543924021541700920210810200820000000260040000000000023525100012234545521301000000486           AMZN Mktp US           Amzn.com/bill WA                                    Estados Unidos                                            Compra54392402150
25   543924021961800820210811023910000000322500000000000026995700012230031508201000001574          RAPPI*SAFE MEXICO      Mexico City   MEX                                            México                                            Compra54392402190
25   5439240224881005202108102007020000001790000000000000  788982451833246564001051000000          AME*SPOTIFY CR         MEXICO CITY   MEX                                            México                              Not sufficient funds54392402240
25   5439240224881005202108102007020000001790000000000000  788982451833246564001051000000          AME*SPOTIFY CR         MEXICO CITY   MEX                                            México                              Not sufficient funds54392402240
25   5439240224881005202108102007020000001790000000000000  788982451833246564001051000000          AME*SPOTIFY CR         MEXICO CITY   MEX                                            México                              Not sufficient funds54392402240
25   5439240219732007202108102014410000001358300000000000  842071082448049838001000002943          HEB MATAMOROS LAURO VI CD VICTORIA T MEX                                            México                                            Compra54392402190
25   5439240223681000202108102016180000009710000000000000  798351587833330475401000003004          HOTEL CASA ANDARIA     SN JOSE ITURB MEX                                            México                                            Compra54392402230
25   5439240220705000202108102034030000010930000000000000  733139900000000043001000003646          REST WING DADDY TAMPIC TAMPICO TAMPS MEX                                            México                                            Compra54392402200
25   5439240220890000202108102043510000003400000000000000  713972900000000037101000003993          HOTEL IBIS MX PERINTE  CUAUTITLAN IZ MEX                                            México                                            Compra54392402200
25   5439240220705000202108102044560000000620000000000000  639646900130489542801000004066          OXXO ROSALES           TAMPICO TAMPS MEX                                            México                                            Compra54392402200
25   5439240220846002202108102114330000002325100000000000  904878600060361446501000005011          HOME DEPOT             TAMPICO TAMPS MEX                                            México                                            Compra54392402200
25   5439240212235008202108102150390000000200000000000000  797911293833731318801008000000          AMAZON MX              MEXICO CITY   MEX                                            México                                 Tarjeta Bloqueada54392402120
25   5439240212235008202108102150390000000200000000000000  797911293833731318801008000000          AMAZON MX              MEXICO CITY   MEX                                            México                                 Tarjeta Bloqueada54392402120
25   5439240212235008202108102150390000000200000000000000  797911293833731318801008000000          AMAZON MX              MEXICO CITY   MEX                                            México                                 Tarjeta Bloqueada54392402120
9900000061000000000000000000000000000000000000000000000000000000000000000000000000000000000000000000000000000000000000000000000000000000000000000000000000000000000000000000000000000000000000000000000000000000000000000000000000000000000000000000000000
