19LOG_ACT2021080700000000000000000000000000000000000000000000000000000000000000000000000000000000000000000000000000000000000000000000000000000000000000000000000000000000000000000000000000000000000000000000000000000000000000000000000000000000000000000
25   5439240207207004202108062332440000000470000000000000  158456400334404029301000882933          EXTRA CONSULADO        JUAREZ CHIH   MEX                                            México                                            Compra54392402070
25   5439240218614008202108070043380000000500000000000000  797911267800264697801051000000          AMAZON MX              MEXICO CITY   MEX                                            México                              Not sufficient funds54392402180
25   5439240218614008202108070043380000000500000000000000  797911267800264697801051000000          AMAZON MX              MEXICO CITY   MEX                                            México                              Not sufficient funds54392402180
25   5439240218614008202108070043380000000500000000000000  797911267800264697801051000000          AMAZON MX              MEXICO CITY   MEX                                            México                              Not sufficient funds54392402180
25   5439240220182002202108070409350000001790000000000000  788982433831490101101008000000          AME*SPOTIFY CR         MEXICO CITY   MEX                                            México                                 Tarjeta Bloqueada54392402200
25   5439240220182002202108070409350000001790000000000000  788982433831490101101008000000          AME*SPOTIFY CR         MEXICO CITY   MEX                                            México                                 Tarjeta Bloqueada54392402200
25   5439240220182002202108070409350000001790000000000000  788982433831490101101008000000          AME*SPOTIFY CR         MEXICO CITY   MEX                                            México                                 Tarjeta Bloqueada54392402200
25   543924022625300520210807120603000000000000000000000026995700012191031897501008000000          UBR PAGOS MEXICO SOCIE CMX           MEX                                            México                                 Tarjeta Bloqueada54392402260
25   543924022625300520210807120603000000000000000000000026995700012191031897501008000000          UBR PAGOS MEXICO SOCIE CMX           MEX                                            México                                 Tarjeta Bloqueada54392402260
25   543924022625300520210807120603000000000000000000000026995700012191031897501008000000          UBR PAGOS MEXICO SOCIE CMX           MEX                                            México                                 Tarjeta Bloqueada54392402260
25   5439240226253005202108070506050000000010000000000000  841669733831492515501008000000          AME*UBER I             CIUDAD DE MEX MEX                                            México                                 Tarjeta Bloqueada54392402260
25   5439240226253005202108070506050000000010000000000000  841669733831492515501008000000          AME*UBER I             CIUDAD DE MEX MEX                                            México                                 Tarjeta Bloqueada54392402260
25   5439240226253005202108070506050000000010000000000000  841669733831492515501008000000          AME*UBER I             CIUDAD DE MEX MEX                                            México                                 Tarjeta Bloqueada54392402260
25   543924022625300520210807120650000000000000000000000026995700012191031898101000884691          UBR PAGOS MEXICO SOCIE CMX           MEX                                            México                                            Compra54392402260
25   5439240226253005202108070307460000001099700000000000MWU4ZT35U08070044502101000884694          UBER* PENDING          CIUDAD DE MEX MEX                                            México                                            Compra54392402260
25   5439240218936005202108070615170000000425000000000000  555751700129551036101000884973          OXXO AERODROMO CUN     PLAYA DEL CAR MEX                                            México                                            Compra54392402180
25   543924021052200120210807132337000000447020000000000025601020800000008829401000885010          COOP AGRIC SAN ISIDRO  VALL D UIXO   ESP                                            España                                            Compra54392402100
25   543924021052200120210807142614000000278740000000000025601020800000008831201000885386          COOP AGRIC SAN ISIDRO  VALL D UIXO   ESP                                            España                                            Compra54392402100
25   543924021052200120210807142635000000278740000000000025601020800000008831301000885390          COOP AGRIC SAN ISIDRO  VALL D UIXO   ESP                                            España                                            Compra54392402100
25   5439240218936005202108070929410000000440000000000000  555751700129568547501000886957          OXXO AERODROMO CUN     PLAYA DEL CAR MEX                                            México                                            Compra54392402180
25   5439240219756006202108071805050000016056400000000000   10070621080716140001000889339          TOTAL Service Station  AUGSBURG      DEU                                                                                              Compra54392402190
25   5439240226253005202108070919130000000360600000000000MWU4ZT35U08070075077501000889755          UBER* PENDING          CIUDAD DE MEX MEX                                            México                                            Compra54392402260
25   5439240226253005202108070929510000000373900000000000MWU4ZT35U08070014618901000890124          UBER* TRIP             CIUDAD DE MEX MEX                                            México                                            Compra54392402260
25   5439240226253005202108071134140000060966900000000000  884002700000000250901000890254          MS MILENIUM HOTEL      SAN PEDRO GAR MEX                                            México                                            Compra54392402260
25   5439240205975008202108071203550000007860000000000000  100709503511237105601000891285          SORIANA351 CANALES     MATAMOROS TAM MEX                                            México                                            Compra54392402050
25   5439240207207004202108071116500000000625000000000000  158456412175004031201000891757          EXTRA CONSULADO        JUAREZ CHIH   MEX                                            México                                            Compra54392402070
25   5439240218444000202108071226180000001290000000000000  797910693833239142701051000000          AMAZON MX DIGITAL      MEXICO CITY   MEX                                            México                              Not sufficient funds54392402180
25   5439240218444000202108071226180000001290000000000000  797910693833239142701051000000          AMAZON MX DIGITAL      MEXICO CITY   MEX                                            México                              Not sufficient funds54392402180
25   5439240218444000202108071226180000001290000000000000  797910693833239142701051000000          AMAZON MX DIGITAL      MEXICO CITY   MEX                                            México                              Not sufficient funds54392402180
25   5439240205975008202108071232370000001110000000000000  795525687833214906301000892310          FERRETERIA LUCERO      MATAMOROS TAM MEX                                            México                                            Compra54392402050
25   543924021136600220210807193521000000325710000000000003063743300000000272801000892424          MULTICINES SUCRE VILLA VILA REAL     ESP                                            España                                            Compra54392402110
25   5439240219950005202108071305490000000344100000000000  814548193833244056001000893618          D LOCAL*DIDI MOBILITY  MEXICO CITY   MEX                                            México                                            Compra54392402190
25   543924021084600420210807131400000003030740000000000000000000000002280086202000893986          BANAMEX                SAN PEDRO GAR MEX                                            México                                        Retiro ATM54392402100
25   543924021052200120210807201734000000447730000000000025601269100000001484501000894113          FARMACIA APARICI       LA VALL D'UIX ESP                                            España                                            Compra54392402100
25   5439240219618008202108071405320000007580000000000000  789314900034505443301000895992          IZZI WEB PAGO          CIUDAD DE MEX MEX                                            México                                            Compra54392402190
25   543924021961800820210807214135000000379700000000000026995700012191930743301000897468          UBER * EATS PENDING    CMX           MEX                                            México                                            Compra54392402190
25   543924021975600620210807214236000000734390000000000045563251808072103421401000897563          Italia Restaurant-Eisc Rothenburg ob DEU                                                                                              Compra54392402190
25   5439240224178006202108071457390000003140000000000000  414454530505682865601000898150          PARADOR CHICHEN ITZA   TINUM YUC     MEX                                            México                                            Compra54392402240
25   5439240219618008202108071520200000001680000000000000  440038800129673062901000899115          OXXO LA CAPITAL MTY    MONTERREY NL  MEX                                            México                                            Compra54392402190
25   5439240226253005202108071536060000035000000000000000  436159851865059542401000899831          PREST EXPRESS SAN AGUS SN PEDRO GARZ MEX                                            México                                            Compra54392402260
25   5439240223883002202108071607430000003700000000000000  745278400000000065501000901083          LA CHUNGA              MONTERREY NL  MEX                                            México                                            Compra54392402230
25   543924021961800820210807231420000000037970000000000026995700012192131001801000901398          UBER *EATS HELP.UBER.C CMX           MEX                                            México                                            Compra54392402190
25   543924021136600220210807231526000002897300000000000035075683900000000108901000901430          MARTIN'S COCINA MEDITE LA VALL D UIX ESP                                            España                                            Compra54392402110
25   5439240207207004202108071628160000011940000000000000  9552902000000281I3U01000901995          C & A                  CD JUAREZ CHI MEX                                            México                                            Compra54392402070
25   543924022089000020210807162943000004034800000000000000000000020191600093702000902056          BANCA AFIRME S.A.      SANTA CATARIN MEX                                            México                                        Retiro ATM54392402200
25   5439240215417009202108071642130000013222700000000000  716162500001778567901000902567          VS TELCEL 018001200006 CIUDAD DE MEX MEX                                            México                                            Compra54392402150
25   5439240223681000202108071735560000000590000000000000  663830800206296692901000904727          7 ELEVEN VILLA CORONA  GARCIA NL     MEX                                            México                                            Compra54392402230
25   543924021548800020210807192900000000151030000000000016014600012194747756101000906667           Kindle Svcs            866-321-8851  WA                                    Estados Unidos                                            Compra54392402150
25   543924021973200720210807183509000000620910000000000044451985408072331208401000906914           AUTOZONE #3144         BROWNSVILLE   TX                                    Estados Unidos                                            Compra54392402190
25   5439240207396005202108071840340000021530000000000000  851494600000000022201000907072          LA BUENA BARRA         CIUDAD DE MEX MEX                                            México                                            Compra54392402070
25   543924022417800620210808035325000000264000000000000026995700012200132645501000911848          RAPPI*RAPPI MEXICO     Mexico City   MEX                                            México                                            Compra54392402240
25   543924021541700920210807220406000000299060000000000091788000012203030241701000912206           Audible                Amzn.com/bill NJ                                    Estados Unidos                                            Compra54392402150
25   5439240211289006202108072120490000072426200000000000  421042700029261059601000912771          MERCADOPAGO 2 MU       CIUDAD DE MEX MEX                                            México                                            Compra54392402110
25   543924021995000520210807224800000000179000000000000018882600012206363509301000913545          GOOGLE *YouTubePremium g.co/helppay# GBR                                       Reino Unido                                            Compra54392402190
25   5439240215417009202108072208070000005150700000000000  716753712200350596901000914109          MERCADO PAGO 1         CIUDAD DE MEX MEX                                            México                                            Compra54392402150
25   543924021854800820210808055108000000159000000000000026995700012200330634401008000000          Disney PLUS            CMX           MEX                                            México                                 Tarjeta Bloqueada54392402180
25   543924021854800820210808055108000000159000000000000026995700012200330634401008000000          Disney PLUS            CMX           MEX                                            México                                 Tarjeta Bloqueada54392402180
25   543924021854800820210808055108000000159000000000000026995700012200330634401008000000          Disney PLUS            CMX           MEX                                            México                                 Tarjeta Bloqueada54392402180
25   5439240218548008202108072251090000001590000000000000  845007793833325561401008000000          AME*DISNEY RECURRE     CIUDAD DE MEX MEX                                            México                                 Tarjeta Bloqueada54392402180
25   5439240218548008202108072251090000001590000000000000  845007793833325561401008000000          AME*DISNEY RECURRE     CIUDAD DE MEX MEX                                            México                                 Tarjeta Bloqueada54392402180
25   5439240218548008202108072251090000001590000000000000  845007793833325561401008000000          AME*DISNEY RECURRE     CIUDAD DE MEX MEX                                            México                                 Tarjeta Bloqueada54392402180
9900000061000000000000000000000000000000000000000000000000000000000000000000000000000000000000000000000000000000000000000000000000000000000000000000000000000000000000000000000000000000000000000000000000000000000000000000000000000000000000000000000000
