19LOG_ACT2021081700000000000000000000000000000000000000000000000000000000000000000000000000000000000000000000000000000000000000000000000000000000000000000000000000000000000000000000000000000000000000000000000000000000000000000000000000000000000000000
25   543924021136600220210817125759000000304720000000000003652246400000000002501000218818          JARQUE BARBER          VALL D'UXO    ESP                                            España                                            Compra54392402110
25   543924022067700120210817161953000000000000000000000026995700012291430468901000221104          DIDI MOBILITY MEXICO   Mexico        MEX                                            México                                            Compra54392402200
25   5439240220677001202108170952490000001377000000000000  814548151834222993501000221910          D LOCAL*DIDI MOBILITY  MEXICO CITY   MEX                                            México                                            Compra54392402200
25   5439240215417009202108171003040000005260000000000000  797912851834224097601000222151          AMAZON MX MARKETPLACE  MEXICO CITY   MEX                                            México                                            Compra54392402150
25   5439240212636007202108171015130000006045300000000000  774815367834676735101000222470          CRAMOS HUMBERTO        SN PEDRO GARZ MEX                                            México                                            Compra54392402120
25   5439240212636007202108171041420000001083300000000000  030004600000000142101000223256          SUPER MODE GM          SN PEDRO GARZ MEX                                            México                                            Compra54392402120
25   5439240220677001202108171044340000001326200000000000  814548151834228924001000223343          D LOCAL*DIDI MOBILITY  MEXICO CITY   MEX                                            México                                            Compra54392402200
25   5439240212636007202108171150250000009920100000000000  841971167892038732201000225385          HEB VALLE ORIENTE      SN PEDRO GARZ MEX                                            México                                            Compra54392402120
25   5439240212636007202108171228400000001978700000000000  111286500000100123801000226582          CITY MARKET MTY 419    SAN PEDRO GAR MEX                                            México                                            Compra54392402120
25   5439240219732007202108171254570000002600000000000000  135065100000000049101000227606          MI PUEBLITO REST BAR   MATAMOROS TAM MEX                                            México                                            Compra54392402190
25   5439240223212004202108171134050000003729000000000000AGI4WHVTD08170090290001000229120          UBER* EATS PENDING     CIUDAD DE MEX MEX                                            México                                            Compra54392402230
25   5439240218400002202108171358000000001480000000000000  865790100035500575901000230014          REST TOSTADAS CONTRY 4 MONTERREY NL  MEX                                            México                                            Compra54392402180
25   5439240222970008202108171401100000001050000000000000  865790100035500874601000230134          REST TOSTADAS CONTRY 4 MONTERREY NL  MEX                                            México                                            Compra54392402220
25   543924022623500220210817140256000003581610000000000044450431000000000270401000230214           NEIMAN MARCUS LC 201   SAN MARCOS    TX                                    Estados Unidos                                            Compra54392402260
25   5439240218400002202108171410590000000600000000000000  775090300000000015501000230506          GELOW HELADOS          MONTERREY NL  MEX                                            México                                            Compra54392402180
25   5439240222970008202108171413060000000500000000000000  775090300000000015601000230610          GELOW HELADOS          MONTERREY NL  MEX                                            México                                            Compra54392402220
25   5439240220705000202108171418090000002261300000000000  747656000000000086401000230815          BIOANAL SERV HEMATOL I MONTERREY NL  MEX                                            México                                            Compra54392402200
25   543924022623500220210817141855000004046070000000000000048210600008001539101000230868           LUCKY BRAND #43303     SAN MARCOS    TX                                    Estados Unidos                                            Compra54392402260
25   543924021206200620210817144231000002839370000000000000033461300009585919101000231804           0195 FOREVER 21        SAN ANTONIO   TX                                    Estados Unidos                                            Compra54392402120
25   5439240219950005202108171449350000000790000000000000  797911267834713232001051000000          AMAZON MX              MEXICO CITY   MEX                                            México                              Not sufficient funds54392402190
25   5439240219950005202108171449350000000790000000000000  797911267834713232001051000000          AMAZON MX              MEXICO CITY   MEX                                            México                              Not sufficient funds54392402190
25   5439240219950005202108171449350000000790000000000000  797911267834713232001051000000          AMAZON MX              MEXICO CITY   MEX                                            México                              Not sufficient funds54392402190
25   5439240218954008202108171449370000000790000000000000  797911293834724852201051000000          AMAZON MX              MEXICO CITY   MEX                                            México                              Not sufficient funds54392402180
25   5439240218954008202108171449370000000790000000000000  797911293834724852201051000000          AMAZON MX              MEXICO CITY   MEX                                            México                              Not sufficient funds54392402180
25   5439240218954008202108171449370000000790000000000000  797911293834724852201051000000          AMAZON MX              MEXICO CITY   MEX                                            México                              Not sufficient funds54392402180
25   5439240224881005202108171449390000000790000000000000  797911293834724858101051000000          AMAZON MX              MEXICO CITY   MEX                                            México                              Not sufficient funds54392402240
25   5439240224881005202108171449390000000790000000000000  797911293834724858101051000000          AMAZON MX              MEXICO CITY   MEX                                            México                              Not sufficient funds54392402240
25   5439240224881005202108171449390000000790000000000000  797911293834724858101051000000          AMAZON MX              MEXICO CITY   MEX                                            México                              Not sufficient funds54392402240
25   5439240220705000202108171501420000001670000000000000  107299922921250121001000232571          REST STA BARBARA VILLA MONTERREY     MEX                                            México                                            Compra54392402200
25   543924021136600220210817222911000001502380000000000025601257600000000169301000233643          CHIRINGUITO HNOS SAEZ  MONCOFAR      ESP                                            España                                            Compra54392402110
25   5439240222935001202108171540160000002050000000000000  408371917154000736901000234059          TOKS MIYANA            MEXICO CITY   MEX                                            México                                            Compra54392402220
25   5439240221785001202108170340340000012046600000000000  419148808170340345701000234067          OXXOSANTA 6            SANTA CATARIN MEX                                            México                                            Compra54392402210
25   5439240223212004202108171346250000000071000000000000AGI4WHVTD08170016815501000234281          UBER* EATS             CIUDAD DE MEX MEX                                            México                                            Compra54392402230
25   5439240207396005202108171549360000001080000000000000  128188021229031924901000234405          STARBUCKS PARQUES POL  MEXICO CITY   MEX                                            México                                            Compra54392402070
25   5439240212636007202108171632460000014550000000000000  166575111007231199901000236135          F AHORRO MTSU SUCHIAT  SAN PEDRO GAR MEX                                            México                                            Compra54392402120
25   5439240211471000202108171841390000070348000000000000000000000        454102000240822          *SCOTIABANK            CDMX          MEX                                            México                                        Retiro ATM54392402110
25   5439240213809009202108171843310000004500000000000000  792751713997007701801000240899          CLIP MX*TPM PAQUETERA  CIUDAD DE MEX MEX                                            México                                            Compra54392402130
25   5439240226253005202108171652490000001199000000000000MWU4ZT35U08170046756501000241265          UBER* PENDING          CIUDAD DE MEX MEX                                            México                                            Compra54392402260
25   543924021206200620210817192600000003936690000000000088028000083880280157901000242574           H-E-B #395             SAN ANTONIO   TX                                    Estados Unidos                                            Compra54392402120
25   543924021548800020210817203642000000204230000000000016014600012304747166701000243000           Kindle Svcs            866-321-8851  WA                                    Estados Unidos                                            Compra54392402150
25   543924021548800020210817204140000000258120000000000016014600012304242399201000243194           Kindle Svcs            866-321-8851  WA                                    Estados Unidos                                            Compra54392402150
25   543924021548800020210817204357000000230080000000000016014600012304242471901000243267           Kindle Svcs            866-321-8851  WA                                    Estados Unidos                                            Compra54392402150
25   5439240215417009202108171949320000003990000000000000  109863512300060947401000243486          MERCADO PAGO 4         CIUDAD DE MEX MEX                                            México                                            Compra54392402150
25   5439240212636007202108171959390000026500000000000000  704790687833571130101000243906          FARMACIAS REYES        SN P GARZA GA MEX                                            México                                            Compra54392402120
25   543924021548800020210817212027000000193490000000000016014600012304545097301000244744           Kindle Svcs            866-321-8851  WA                                    Estados Unidos                                            Compra54392402150
25   543924021548800020210817212042000000172020000000000016014600012304343253801000244751           Kindle Svcs            866-321-8851  WA                                    Estados Unidos                                            Compra54392402150
25   543924021548800020210817212211000000172020000000000016014600012304848622801000244807           Kindle Svcs            866-321-8851  WA                                    Estados Unidos                                            Compra54392402150
25   5439240213809009202108172048150000011150000000000000  805288500000000014101000245785          REMEDIO Y MEDIO        HUIXQUILUCAN  MEX                                            México                                            Compra54392402130
25   5439240226253005202108171849010000000899200000000000MWU4ZT35U08180035229801000245814          UBER* PENDING          CIUDAD DE MEX MEX                                            México                                            Compra54392402260
25   5439240213809009202108172049330000000310000000000000  805288500000000014201000245842          REMEDIO Y MEDIO        HUIXQUILUCAN  MEX                                            México                                            Compra54392402130
25   5439240215488000202108180403470000002940400000000000  4143789 2529383283201000246380          PAYPAL3                MEXICO CITY   MEX                                            México                                            Compra54392402150
25   5439240226253005202108171914420000000938500000000000MWU4ZT35U08180099363301000246770          UBER* TRIP             CIUDAD DE MEX MEX                                            México                                            Compra54392402260
25   5439240218400002202108172116410000001159000000000000  648659100132277914001000246874          OXXO PEDREGAL LA SILLA MONTERREY NL  MEX                                            México                                            Compra54392402180
25   5439240215488000202108180419080000005880700000000000  4143789 2029331369301000246930          PAYPAL3                MEXICO CITY   MEX                                            México                                            Compra54392402150
25   5439240207207004202108172203460000001528000000000000  412523306072792974101000248170          CHEDRAUI 099 OAXACA RE OAXACA DE JUA MEX                                            México                                            Compra54392402070
25   5439240222970008202108172248490000001445600000000000  792751741836963115801000249257          CLIP MX*THREE BOX BRGR CIUDAD DE MEX MEX                                            México                                            Compra54392402220
25   5439240222970008202108172354460000000441100000000000  814548193834798554601000250329          D LOCAL*DIDI MOBILITY  MEXICO CITY   MEX                                            México                                            Compra54392402220
9900000057000000000000000000000000000000000000000000000000000000000000000000000000000000000000000000000000000000000000000000000000000000000000000000000000000000000000000000000000000000000000000000000000000000000000000000000000000000000000000000000000
