19LOG_ACT2021082600000000000000000000000000000000000000000000000000000000000000000000000000000000000000000000000000000000000000000000000000000000000000000000000000000000000000000000000000000000000000000000000000000000000000000000000000000000000000000
25   543924021548800020210826031052000000021720000000000016014600012384242034301000515230           AMZN Digital           888-802-3080  WA                                    Estados Unidos                                            Compra54392402150
25   5439240214289003202108260330560000012000000000000000  790373351835512556401000515598          PAYPAL *HOMBREDEMADERA CIUDAD DE MEX MEX                                            México                                            Compra54392402140
25   543924021136600220210826120239000000181430000000000029721542800000000556401000515901          XIRINGUITO ROCA NEGRA  SANT JOAN DE  ESP                                            España                                            Compra54392402110
25   5439240214289003202108261244590000002763700000000000  4143789 2029917380401000516039          PAYPAL3                MEXICO CITY   MEX                                            México                                            Compra54392402140
25   543924021136600220210826152608000002585340000000000033726886600000000170701000517250          RESTAURANT TIMON       PALAMOS-LA FO ESP                                            España                                            Compra54392402110
25   5439240220670006202108260902320000001060000000000000  101522121238004196201000517880          STARBUCKS SN MARCOS    CUAUTITLAN IZ MEX                                            México                                            Compra54392402200
25   5439240220677001202108260914170000000791600000000000  814548167835976204601000518131          D LOCAL*DIDI MOBILITY  MEXICO CITY   MEX                                            México                                            Compra54392402200
25   5439240205975008202108260915090000016290000000000000000000000        701502000518150          SUC MATAMOROS          MATAMOROS     MEX                                            México                                        Retiro ATM54392402050
25   5439240220677001202108260919050000002890300000000000  371225429969544149301000518235          DHL STA CATARINA MTY   SANTA CATARIN MEX                                            México                                            Compra54392402200
25   5439240220705000202108260936270000003520000000000000  418837021238087633701000518625          FIESTA INN CUAUTITLAN  CUAUTITLAN IZ MEX                                            México                                            Compra54392402200
25   5439240220846002202108260958110000004378000000000000  418837021238087686401000519107          FIESTA INN CUAUTITLAN  CUAUTITLAN IZ MEX                                            México                                            Compra54392402200
25   5439240220846002202108261013250000000085000000000000  223110800000003784801000519484          OFFICE MAX SN MARCOS   CUAUTITLAN IZ MEX                                            México                                            Compra54392402200
25   5439240220677001202108261016560000004680400000000000  558728200000003574001000519580          WAL MART LA HUASTECA   STA CATARINA  MEX                                            México                                            Compra54392402200
25   5439240220677001202108261045390000000725800000000000  814548167835985617601000520380          D LOCAL*DIDI MOBILITY  MEXICO CITY   MEX                                            México                                            Compra54392402200
25   543924021084600420210826110702000000534800000000000000000000020381100894802000520985          BANCA AFIRME,S.A.      MONTERREY     MEX                                            México                                        Retiro ATM54392402100
25   5439240212582003202108261119020000000800000000000000  416214821238005696801000521341          STARBUCKS P F AGUSTIN  SN PEDRO GARZ MEX                                            México                                            Compra54392402120
25   5439240214289003202108261820450000021340900000000000  4143789 1130482320201051000000          PAYPAL3                MEXICO CITY   MEX                                            México                              Not sufficient funds54392402140
25   5439240214289003202108261820450000021340900000000000  4143789 1130482320201051000000          PAYPAL3                MEXICO CITY   MEX                                            México                              Not sufficient funds54392402140
25   5439240214289003202108261820450000021340900000000000  4143789 1130482320201051000000          PAYPAL3                MEXICO CITY   MEX                                            México                              Not sufficient funds54392402140
25   5439240214289003202108261120470000021340900000000000  790373393835995126101051000000          PAYPAL *PRINCESMM      CIUDAD DE MEX MEX                                            México                              Not sufficient funds54392402140
25   5439240214289003202108261120470000021340900000000000  790373393835995126101051000000          PAYPAL *PRINCESMM      CIUDAD DE MEX MEX                                            México                              Not sufficient funds54392402140
25   5439240214289003202108261120470000021340900000000000  790373393835995126101051000000          PAYPAL *PRINCESMM      CIUDAD DE MEX MEX                                            México                              Not sufficient funds54392402140
25   5439240214289003202108261821070000021340900000000000  4143789 1530467798901051000000          PAYPAL3                MEXICO CITY   MEX                                            México                              Not sufficient funds54392402140
25   5439240214289003202108261821070000021340900000000000  4143789 1530467798901051000000          PAYPAL3                MEXICO CITY   MEX                                            México                              Not sufficient funds54392402140
25   5439240214289003202108261821070000021340900000000000  4143789 1530467798901051000000          PAYPAL3                MEXICO CITY   MEX                                            México                              Not sufficient funds54392402140
25   5439240214289003202108261121090000021340900000000000  790373367835989802901051000000          PAYPAL *PRINCESMM      CIUDAD DE MEX MEX                                            México                              Not sufficient funds54392402140
25   5439240214289003202108261121090000021340900000000000  790373367835989802901051000000          PAYPAL *PRINCESMM      CIUDAD DE MEX MEX                                            México                              Not sufficient funds54392402140
25   5439240214289003202108261121090000021340900000000000  790373367835989802901051000000          PAYPAL *PRINCESMM      CIUDAD DE MEX MEX                                            México                              Not sufficient funds54392402140
25   5439240214289003202108261145350000007042500000000000  790373393835998343701051000000          PAYPAL *BYPOCHITO      CIUDAD DE MEX MEX                                            México                              Not sufficient funds54392402140
25   5439240214289003202108261145350000007042500000000000  790373393835998343701051000000          PAYPAL *BYPOCHITO      CIUDAD DE MEX MEX                                            México                              Not sufficient funds54392402140
25   5439240214289003202108261145350000007042500000000000  790373393835998343701051000000          PAYPAL *BYPOCHITO      CIUDAD DE MEX MEX                                            México                              Not sufficient funds54392402140
25   5439240214289003202108261845370000007042500000000000  4143789 1130483909701051000000          PAYPAL3                MEXICO CITY   MEX                                            México                              Not sufficient funds54392402140
25   5439240214289003202108261845370000007042500000000000  4143789 1130483909701051000000          PAYPAL3                MEXICO CITY   MEX                                            México                              Not sufficient funds54392402140
25   5439240214289003202108261845370000007042500000000000  4143789 1130483909701051000000          PAYPAL3                MEXICO CITY   MEX                                            México                              Not sufficient funds54392402140
25   5439240219756006202108261223350000027700000000000000  6497010bkdsl58r9jhw01000523284          GDF SRIA DE FINANZA MU MEXICO CITY   MEX                                            México                                            Compra54392402190
25   5439240219950005202108261224490000003861400000000000  765140900000000463101000523315          SUPERAMA DIV DEL NTE   MEXICO CITY   MEX                                            México                                            Compra54392402190
25   5439240218488007202108261240430000007441500000000000  679881300207912605901000523879          PETROMAX GARZA SADA    MONTERREY NL  MEX                                            México                                            Compra54392402180
25   5439240212636007202108261242440000017207000000000000  185624450213708261201000523922          COSTCO MONTERREY       SAN P GARZA G MEX                                            México                                            Compra54392402120
25   5439240225391004202108261301290000000910000000000000  100807312381801104101000524607          SERV AGUA DREN MTY CIB MONTERREY     MEX                                            México                                            Compra54392402250
25   5439240212636007202108261319280000004500000000000000  894155187833851807601000525259          PODOLOGOS GONZALEZ GZA SAN PEDRO GAR MEX                                            México                                            Compra54392402120
25   5439240220846002202108261341130000001890000000000000  4133857MQgxNo18YsW401000526097          SUBWAY CUAUTITLAN      CUAUTITLAN IZ MEX                                            México                                            Compra54392402200
25   5439240218400002202108261349330000002140000000000000  827716400000000043601000526430          MODE SUR               MONTERREY NL  MEX                                            México                                            Compra54392402180
25   543924021136600220210826205115000000577460000000000001598823100000001938901000526503          SUPER PLAYA            PALS          ESP                                            España                                            Compra54392402110
25   5439240224178006202108261433320000000485000000000000  403485600207922989201000528167          7 ELEVEN PEDRO RMZ Y F SAN PEDRO NL  MEX                                            México                                            Compra54392402240
25   5439240220890000202108261439170000005000000000000000  637244500207924616301000528863          PETROMAX AV DOS        SANTA CATARIN MEX                                            México                                            Compra54392402200
25   543924020720700420210826130554000000859620000000000055591432212382020052901000529470           MARNEE THAI INC        SAN FRANCISCO CA                                    Estados Unidos                                            Compra54392402070
25   5439240212582003202108261510080000005950000000000000  803154800000000029001000529627          CHILIS PLAZA AURORA    SN PEDRO GARZ MEX                                            México                                            Compra54392402120
25   5439240218488007202108261520350000002000000000000000  813472477833394828001008000000          THE SUSHI BOYS TEC     MONTERREY NL  MEX                                            México                                 Tarjeta Bloqueada54392402180
25   5439240218488007202108261520350000002000000000000000  813472477833394828001008000000          THE SUSHI BOYS TEC     MONTERREY NL  MEX                                            México                                 Tarjeta Bloqueada54392402180
25   5439240218488007202108261520350000002000000000000000  813472477833394828001008000000          THE SUSHI BOYS TEC     MONTERREY NL  MEX                                            México                                 Tarjeta Bloqueada54392402180
25   5439240218488007202108261522140000002000000000000000  813472477833394904901000530134          THE SUSHI BOYS TEC     MONTERREY NL  MEX                                            México                                            Compra54392402180
25   5439240221785001202108261541470000000400000000000000  713533300000000005601000530885          FERRECAZA              SANTA CATARIN MEX                                            México                                            Compra54392402210
25   5439240211471000202108261621430000040348000000000000000000000        860202000532388          *SCOTIABANK            CDMX          MEX                                            México                                        Retiro ATM54392402110
25   5439240213809009202108261709490000000600000000000000  805288500000000006001000534096          REMEDIO Y MEDIO        HUIXQUILUCAN  MEX                                            México                                            Compra54392402130
25   5439240220846002202108261711360000000600000000000000  409707800134335512901008000000          OXXOMAYELI MEX         CUAUTITLAN IZ MEX                                            México                                 Tarjeta Bloqueada54392402200
25   5439240220846002202108261711360000000600000000000000  409707800134335512901008000000          OXXOMAYELI MEX         CUAUTITLAN IZ MEX                                            México                                 Tarjeta Bloqueada54392402200
25   5439240220846002202108261711360000000600000000000000  409707800134335512901008000000          OXXOMAYELI MEX         CUAUTITLAN IZ MEX                                            México                                 Tarjeta Bloqueada54392402200
25   5439240220846002202108261712470000000600000000000000  409707800134335617301000534209          OXXOMAYELI MEX         CUAUTITLAN IZ MEX                                            México                                            Compra54392402200
25   5439240220705000202108261725060000001056000000000000  222971400000006652101008000000          WAL MART SAN MARCOS    CUAUTITLAN EM MEX                                            México                                 Tarjeta Bloqueada54392402200
25   5439240220705000202108261725060000001056000000000000  222971400000006652101008000000          WAL MART SAN MARCOS    CUAUTITLAN EM MEX                                            México                                 Tarjeta Bloqueada54392402200
25   5439240220705000202108261725060000001056000000000000  222971400000006652101008000000          WAL MART SAN MARCOS    CUAUTITLAN EM MEX                                            México                                 Tarjeta Bloqueada54392402200
25   5439240220705000202108261725420000001056000000000000  222971400000006652201000534699          WAL MART SAN MARCOS    CUAUTITLAN EM MEX                                            México                                            Compra54392402200
25   5439240220670006202108261726260000001190000000000000  222971400000006652301000534728          WAL MART SAN MARCOS    CUAUTITLAN EM MEX                                            México                                            Compra54392402200
25   5439240219618008202108261742380000001920000000000000  794675900207940215201000535353          7 ELEVEN WASHINGTON    MONTERREY NL  MEX                                            México                                            Compra54392402190
25   5439240213809009202108261743130000003500000000000000  745268112382202212401000535375          IZETTLE*REFACCI Y ACCC MEXICO CITY   MEX                                            México                                            Compra54392402130
25   5439240224178006202108261804530000001750000000000000  815365151835597088801000536212          D LOCAL*CANVA          CIUDAD DE MEX MEX                                            México                                            Compra54392402240
25   5439240212636007202108261840250000001556000000000000  030004600000000091601000537600          SUPER MODE GM          SN PEDRO GARZ MEX                                            México                                            Compra54392402120
25   5439240223286008202108261936390000028348000000000000000000000        943502008000000          *SCOTIABANK            NUEVO LEON    MEX                                            México                                 Tarjeta Bloqueada54392402230
25   5439240223286008202108261936390000028348000000000000000000000        943502008000000          *SCOTIABANK            NUEVO LEON    MEX                                            México                                 Tarjeta Bloqueada54392402230
25   5439240223286008202108261936390000028348000000000000000000000        943502008000000          *SCOTIABANK            NUEVO LEON    MEX                                            México                                 Tarjeta Bloqueada54392402230
25   5439240223286008202108261938370000028348000000000000000000000        943602000539971          *SCOTIABANK            NUEVO LEON    MEX                                            México                                        Retiro ATM54392402230
25   5439240220670006202108261954020000000590000000000000  409993400134387141201000540558          OXXOACEQUIA MEX        CUAUTITLAN IZ MEX                                            México                                            Compra54392402200
25   5439240220670006202108261956460000000750000000000000  840125500036354538301000540665          FARM GPO IMP HACIEN 16 CIUDAD DE MEX MEX                                            México                                            Compra54392402200
25   5439240210846004202108262018370000000200000000000000  797911293836068998701000541463          AMAZON MX              MEXICO CITY   MEX                                            México                                            Compra54392402100
25   5439240210846004202108262024300000003462100000000000  797911293836069857801000541721          AMAZON MX              MEXICO CITY   MEX                                            México                                            Compra54392402100
25   5439240218488007202108262043200000001493000000000000  673910600000001422001000542449          SUPERCENTER SN NICOLAS SN NICOLAS DE MEX                                            México                                            Compra54392402180
25   5439240218488007202108262046410000004667100000000000  673910600000008683401000542578          SUPERCENTER SN NICOLAS SN NICOLAS DE MEX                                            México                                            Compra54392402180
25   5439240220846002202108262057200000008228000000000000  418837021238089236301000542940          FIESTA INN CUAUTITLAN  CUAUTITLAN IZ MEX                                            México                                            Compra54392402200
25   5439240219950005202108262104430000006950000000000000  791528000036360967401051000000          IZZI APP PAGO          CIUDAD DE MEX MEX                                            México                              Not sufficient funds54392402190
25   5439240219950005202108262104430000006950000000000000  791528000036360967401051000000          IZZI APP PAGO          CIUDAD DE MEX MEX                                            México                              Not sufficient funds54392402190
25   5439240219950005202108262104430000006950000000000000  791528000036360967401051000000          IZZI APP PAGO          CIUDAD DE MEX MEX                                            México                              Not sufficient funds54392402190
25   5439240218509000202108262120110000001835000000000000  414761900210700129101008000000          FARM GUAD 1901         SN NICOLAS DE MEX                                            México                                 Tarjeta Bloqueada54392402180
25   5439240218509000202108262120110000001835000000000000  414761900210700129101008000000          FARM GUAD 1901         SN NICOLAS DE MEX                                            México                                 Tarjeta Bloqueada54392402180
25   5439240218509000202108262120110000001835000000000000  414761900210700129101008000000          FARM GUAD 1901         SN NICOLAS DE MEX                                            México                                 Tarjeta Bloqueada54392402180
25   5439240220705000202108262208480000002651000000000000  418837021238089397401000545254          FIESTA INN CUAUTITLAN  CUAUTITLAN IZ MEX                                            México                                            Compra54392402200
25   5439240218444000202108262229530000000283000000000000  4025633kyohj2bvtr8g01051000000          OP*OPENPAY             SANTIAGO DE Q MEX                                            México                              Not sufficient funds54392402180
25   5439240218444000202108262229530000000283000000000000  4025633kyohj2bvtr8g01051000000          OP*OPENPAY             SANTIAGO DE Q MEX                                            México                              Not sufficient funds54392402180
25   5439240218444000202108262229530000000283000000000000  4025633kyohj2bvtr8g01051000000          OP*OPENPAY             SANTIAGO DE Q MEX                                            México                              Not sufficient funds54392402180
25   5439240211471000202108262242250000001437500000000000  790723600000000027001000546094          SONORA GRILL INSURGENT CIUDAD DE MEX MEX                                            México                                            Compra54392402110
25   5439240220870002202108262307550000001515000000000000  651774200134432146401008000000          OXXO RUIZ OTE          MONTERREY NL  MEX                                            México                                 Tarjeta Bloqueada54392402200
25   5439240220870002202108262307550000001515000000000000  651774200134432146401008000000          OXXO RUIZ OTE          MONTERREY NL  MEX                                            México                                 Tarjeta Bloqueada54392402200
25   5439240220870002202108262307550000001515000000000000  651774200134432146401008000000          OXXO RUIZ OTE          MONTERREY NL  MEX                                            México                                 Tarjeta Bloqueada54392402200
25   5439240220870002202108262308270000001515000000000000  651774200134432171001008000000          OXXO RUIZ OTE          MONTERREY NL  MEX                                            México                                 Tarjeta Bloqueada54392402200
25   5439240220870002202108262308270000001515000000000000  651774200134432171001008000000          OXXO RUIZ OTE          MONTERREY NL  MEX                                            México                                 Tarjeta Bloqueada54392402200
25   5439240220870002202108262308270000001515000000000000  651774200134432171001008000000          OXXO RUIZ OTE          MONTERREY NL  MEX                                            México                                 Tarjeta Bloqueada54392402200
25   5439240220870002202108262308560000001515000000000000  651774200134432326801000546648          OXXO RUIZ OTE          MONTERREY NL  MEX                                            México                                            Compra54392402200
9900000096000000000000000000000000000000000000000000000000000000000000000000000000000000000000000000000000000000000000000000000000000000000000000000000000000000000000000000000000000000000000000000000000000000000000000000000000000000000000000000000000
