19LOG_ACT2021082700000000000000000000000000000000000000000000000000000000000000000000000000000000000000000000000000000000000000000000000000000000000000000000000000000000000000000000000000000000000000000000000000000000000000000000000000000000000000000
25   5439240210846004202108270018400000002590000000000000  797912851835646123501000547804          AMAZON MX MARKETPLACE  MEXICO CITY   MEX                                            México                                            Compra54392402100
25   5439240220670006202108270713450000001160000000000000  101522121239012148501000550164          STARBUCKS SN MARCOS    CUAUTITLAN IZ MEX                                            México                                            Compra54392402200
25   5439240220705000202108270823370000004125000000000000  418837021239089855401000550925          FIESTA INN CUAUTITLAN  CUAUTITLAN IZ MEX                                            México                                            Compra54392402200
25   5439240220670006202108270842590000000509000000000000  222971400000005135401000551229          WAL MART SAN MARCOS    CUAUTITLAN EM MEX                                            México                                            Compra54392402200
25   5439240205975008202108270919120000000950000000000000  100709503510730385101000551954          SORIANA351 CANALES     MATAMOROS TAM MEX                                            México                                            Compra54392402050
25   5439240205975008202108270951400000002290000000000000000000000        736402000552770          SUC MATAMOROS          MATAMOROS     MEX                                            México                                        Retiro ATM54392402050
25   543924021984200420210827095303000004234220000000000000000000000000000264302008000000          BBVA NO/INFORMADO      QUERETARO     MEX                                            México                                 Tarjeta Bloqueada54392402190
25   543924021984200420210827095303000004234220000000000000000000000000000264302008000000          BBVA NO/INFORMADO      QUERETARO     MEX                                            México                                 Tarjeta Bloqueada54392402190
25   543924021984200420210827095303000004234220000000000000000000000000000264302008000000          BBVA NO/INFORMADO      QUERETARO     MEX                                            México                                 Tarjeta Bloqueada54392402190
25   543924021984200420210827095356000004234220000000000000000000000000000360202008000000          BBVA NO/INFORMADO      QUERETARO     MEX                                            México                                 Tarjeta Bloqueada54392402190
25   543924021984200420210827095356000004234220000000000000000000000000000360202008000000          BBVA NO/INFORMADO      QUERETARO     MEX                                            México                                 Tarjeta Bloqueada54392402190
25   543924021984200420210827095356000004234220000000000000000000000000000360202008000000          BBVA NO/INFORMADO      QUERETARO     MEX                                            México                                 Tarjeta Bloqueada54392402190
25   5439240219950005202108271036150000000932800000000000  814548167836132478401051000000          D LOCAL*DIDI MOBILITY  MEXICO CITY   MEX                                            México                              Not sufficient funds54392402190
25   5439240219950005202108271036150000000932800000000000  814548167836132478401051000000          D LOCAL*DIDI MOBILITY  MEXICO CITY   MEX                                            México                              Not sufficient funds54392402190
25   5439240219950005202108271036150000000932800000000000  814548167836132478401051000000          D LOCAL*DIDI MOBILITY  MEXICO CITY   MEX                                            México                              Not sufficient funds54392402190
25   5439240223212004202108270929510000000999400000000000MWU4ZT35U08270018279901000555652          UBER* PENDING          CIUDAD DE MEX MEX                                            México                                            Compra54392402230
25   543924021548800020210827130458000000219370000000000016014600012393737696301000556862           Kindle Unltd           866-321-8851  WA                                    Estados Unidos                                            Compra54392402150
25   5439240220846002202108271211510000001190000000000000  101522121239015424101000557085          STARBUCKS SN MARCOS    CUAUTITLAN IZ MEX                                            México                                            Compra54392402200
25   5439240210846004202108271213220000003870000000000000  745269012391704059401000557147          IZETTLE*RESTS          CIUDAD DE MEX MEX                                            México                                            Compra54392402100
25   543924021136600220210827201230000000989820000000000033730876100000000173101000559288          BAR RESTAURANT CAMPING PALS          ESP                                            España                                            Compra54392402110
25   5439240218400002202108271319080000002000000000000000  828709300000000095101000559536          SUPER MODE             MONTERREY NL  MEX                                            México                                            Compra54392402180
25   5439240220846002202108271359280000002667500000000000  111301500948100948101000561134          GPDC CONSULADO         CIUDAD DE MEX MEX                                            México                                            Compra54392402200
25   5439240220705000202108271410390000007050000000000000  110909258338863714901000561623          ESPADISIMAS IZCALLI    CUAUTITLAN IZ MEX                                            México                                            Compra54392402200
25   5439240218488007202108271416160000002118900000000000  841965831680740471701000561904          HEB SENDERO            GRAL ESCOBEDO MEX                                            México                                            Compra54392402180
25   543924020720700420210827151738000001773900000000000022222031812390092639001000561960           SFMOMA MUSEUMSTORE     SAN FRANCISCO CA                                    Estados Unidos                                            Compra54392402070
25   5439240218488007202108271445430000000770000000000000  841965867969326878501000563147          HEB SENDERO            GRAL ESCOBEDO MEX                                            México                                            Compra54392402180
25   5439240223212004202108271449320000000755000000000000  648075000134546003201000563320          OXXO LINCOLN II        MONTERREY NL  MEX                                            México                                            Compra54392402230
25   5439240218548008202108271521570000001000000000000000  718471900000000018401008000000          SUSY SPA BIENES        SN PEDRO GARZ MEX                                            México                                 Tarjeta Bloqueada54392402180
25   5439240218548008202108271521570000001000000000000000  718471900000000018401008000000          SUSY SPA BIENES        SN PEDRO GARZ MEX                                            México                                 Tarjeta Bloqueada54392402180
25   5439240218548008202108271521570000001000000000000000  718471900000000018401008000000          SUSY SPA BIENES        SN PEDRO GARZ MEX                                            México                                 Tarjeta Bloqueada54392402180
25   5439240218548008202108271522130000001000000000000000  718471900000000018501008000000          SUSY SPA BIENES        SN PEDRO GARZ MEX                                            México                                 Tarjeta Bloqueada54392402180
25   5439240218548008202108271522130000001000000000000000  718471900000000018501008000000          SUSY SPA BIENES        SN PEDRO GARZ MEX                                            México                                 Tarjeta Bloqueada54392402180
25   5439240218548008202108271522130000001000000000000000  718471900000000018501008000000          SUSY SPA BIENES        SN PEDRO GARZ MEX                                            México                                 Tarjeta Bloqueada54392402180
25   5439240218548008202108271523430000001000000000000000  718471900000000018601000564755          SUSY SPA BIENES        SN PEDRO GARZ MEX                                            México                                            Compra54392402180
25   5439240218488007202108271523440000003228000000000000  841965864639607193901000564757          HEB SENDERO            GRAL ESCOBEDO MEX                                            México                                            Compra54392402180
25   5439240220846002202108271533450000008008000000000000  4087297cS2O11c2O4Vf01000565209          CHILIS SALON EJECT1    MEXICO CITY   MEX                                            México                                            Compra54392402200
25   5439240219618008202108271731260000002569000000000000  440038800134598161201000570294          OXXO LA CAPITAL MTY    MONTERREY NL  MEX                                            México                                            Compra54392402190
25   5439240220846002202108271740390000006500000000000000  790307067836196094401008000000          TAXIS EBSSA MTY VI     APODACA NL    MEX                                            México                                 Tarjeta Bloqueada54392402200
25   5439240220846002202108271740390000006500000000000000  790307067836196094401008000000          TAXIS EBSSA MTY VI     APODACA NL    MEX                                            México                                 Tarjeta Bloqueada54392402200
25   5439240220846002202108271740390000006500000000000000  790307067836196094401008000000          TAXIS EBSSA MTY VI     APODACA NL    MEX                                            México                                 Tarjeta Bloqueada54392402200
25   5439240220846002202108271741370000006500000000000000  790307051835748479801000570724          TAXIS EBSSA MTY VI     APODACA NL    MEX                                            México                                            Compra54392402200
25   543924021548800020210827185601000000131880000000000016014600012393737780201000571384           AMZN Digital           888-802-3080  WA                                    Estados Unidos                                            Compra54392402150
25   543924021548800020210827192647000000218790000000000016014600012394848951801000572720           AMZN Digital           888-802-3080  WA                                    Estados Unidos                                            Compra54392402150
25   5439240211181005202108271859070000002800000000000000  785819387833904171701000574205          EDELMANN BARBER S CLUB SN PEDRO GARZ MEX                                            México                                            Compra54392402110
25   5439240220670006202108271926520000000315000000000000  222971400000000826301000575502          WAL MART SAN MARCOS    CUAUTITLAN EM MEX                                            México                                            Compra54392402200
25   5439240213809009202108271937510000004000000000000000  418504576618598373201000575989          LA EUROPEA BOSQUE REAL HUIXQUILUCAN  MEX                                            México                                            Compra54392402130
25   5439240220705000202108271955360000001450000000000000  101522121239020680201008000000          STARBUCKS SN MARCOS    CUAUTITLAN IZ MEX                                            México                                 Tarjeta Bloqueada54392402200
25   5439240220705000202108271955360000001450000000000000  101522121239020680201008000000          STARBUCKS SN MARCOS    CUAUTITLAN IZ MEX                                            México                                 Tarjeta Bloqueada54392402200
25   5439240220705000202108271955360000001450000000000000  101522121239020680201008000000          STARBUCKS SN MARCOS    CUAUTITLAN IZ MEX                                            México                                 Tarjeta Bloqueada54392402200
25   5439240220705000202108271956370000001450000000000000  101522121239020691301000576869          STARBUCKS SN MARCOS    CUAUTITLAN IZ MEX                                            México                                            Compra54392402200
25   543924022067700120210827200415000001234800000000000000000000020392000959102000577224          BANCA AFIRME,S.A.      SANTA CATARIN MEX                                            México                                        Retiro ATM54392402200
25   5439240207396005202108272043480000048093000000000000  852920200000000016801000578984          NOBU POLANCO           CIUDAD DE MEX MEX                                            México                                            Compra54392402070
25   543924021147100020210827212454000004034220000000000000000000000000000957402000580653          BBVA NO/INFORMADO      CIUDAD DE MEX MEX                                            México                                        Retiro ATM54392402110
25   5439240218444000202108272133510000020000000000000000  799675100000000037701000580987          LA CORRIENTE CEVICHERI SN PEDRO GARZ MEX                                            México                                            Compra54392402180
25   5439240218400002202108272159340000002450000000000000  814651442872696468001000581756          SHOPNET                MONTERREY NL  MEX                                            México                                            Compra54392402180
25   5439240218400002202108272208340000000890000000000000  814651422521680008201000582090          SHOPNET                MONTERREY NL  MEX                                            México                                            Compra54392402180
25   543924021541700920210828052623000000101760000000000033751252900000000088601000582642          EDICIONES EL PAIS, S L MADRID        ESP                                            España                                            Compra54392402150
25   5439240218400002202108272235290000000615000000000000  648659100134702307801000582917          OXXO PEDREGAL LA SILLA MONTERREY NL  MEX                                            México                                            Compra54392402180
25   5439240212582003202108272258490000003990000000000000  197341108272212490701000583370          BENAVIDES S14241 GMZ M SN PEDRO GARZ MEX                                            México                                            Compra54392402120
25   5439240211181005202108272329410000067810000000000000  790365900000000016201000584221          CENACOLO VALLE         SN PEDRO GARZ MEX                                            México                                            Compra54392402110
25   5439240220870002202108272347530000010785600000000000  679881300208074080001000584589          PETROMAX GARZA SADA    MONTERREY NL  MEX                                            México                                            Compra54392402200
9900000061000000000000000000000000000000000000000000000000000000000000000000000000000000000000000000000000000000000000000000000000000000000000000000000000000000000000000000000000000000000000000000000000000000000000000000000000000000000000000000000000
