19LOG_ACT2021082500000000000000000000000000000000000000000000000000000000000000000000000000000000000000000000000000000000000000000000000000000000000000000000000000000000000000000000000000000000000000000000000000000000000000000000000000000000000000000
25   543924021913000420210825022923000000100300000000000018192600012376868808401008000000          FACEBK *4HNVD838P2     fb.me/ads     IRL                                           Irlanda                                 Tarjeta Bloqueada54392402190
25   543924021913000420210825022923000000100300000000000018192600012376868808401008000000          FACEBK *4HNVD838P2     fb.me/ads     IRL                                           Irlanda                                 Tarjeta Bloqueada54392402190
25   543924021913000420210825022923000000100300000000000018192600012376868808401008000000          FACEBK *4HNVD838P2     fb.me/ads     IRL                                           Irlanda                                 Tarjeta Bloqueada54392402190
25   543924021136600220210825105515000000311420000000000001598823100000002777301000481678          SUPER PLAYA            PALS          ESP                                            España                                            Compra54392402110
25   543924021136600220210825152854000003646890000000000035180942100000003884201000483308          UM PALS                BARCELONA     ESP                                            España                                            Compra54392402110
25   5439240220670006202108250841550000001550000000000000  101522121237095364301000483510          STARBUCKS SN MARCOS    CUAUTITLAN IZ MEX                                            México                                            Compra54392402200
25   5439240220705000202108251011130000003135000000000000  418837021237085373301000485496          FIESTA INN CUAUTITLAN  CUAUTITLAN IZ MEX                                            México                                            Compra54392402200
25   5439240220846002202108251052250000002189000000000000  418837021237085469501000486717          FIESTA INN CUAUTITLAN  CUAUTITLAN IZ MEX                                            México                                            Compra54392402200
25   5439240220846002202108251052590000002189000000000000  418837021237085470501000486739          FIESTA INN CUAUTITLAN  CUAUTITLAN IZ MEX                                            México                                            Compra54392402200
25   5439240224178006202108251131390000001700000000000000  821120051835397701501000487947          AME*RAPPI V            CIUDAD DE MEX MEX                                            México                                            Compra54392402240
25   5439240207396005202108251153110000002200000000000000  715720787833815809901000488654          PRESSTO PARQUES        MEXICO CITY   MEX                                            México                                            Compra54392402070
25   5439240206408009202108251002030000004459800000000000MWU4ZT35U08250052958001008000000          UBER* PENDING          CIUDAD DE MEX MEX                                            México                                 Tarjeta Bloqueada54392402060
25   5439240206408009202108251002030000004459800000000000MWU4ZT35U08250052958001008000000          UBER* PENDING          CIUDAD DE MEX MEX                                            México                                 Tarjeta Bloqueada54392402060
25   5439240206408009202108251002030000004459800000000000MWU4ZT35U08250052958001008000000          UBER* PENDING          CIUDAD DE MEX MEX                                            México                                 Tarjeta Bloqueada54392402060
25   5439240206408009202108251002030000004459800000000000MWU4ZT35U08250052960701008000000          UBER* PENDING          CIUDAD DE MEX MEX                                            México                                 Tarjeta Bloqueada54392402060
25   5439240206408009202108251002030000004459800000000000MWU4ZT35U08250052960701008000000          UBER* PENDING          CIUDAD DE MEX MEX                                            México                                 Tarjeta Bloqueada54392402060
25   5439240206408009202108251002030000004459800000000000MWU4ZT35U08250052960701008000000          UBER* PENDING          CIUDAD DE MEX MEX                                            México                                 Tarjeta Bloqueada54392402060
25   5439240206408009202108251202060000004459800000000000  856290412371705893701008000000          ST*UBER                CIUDAD DE MEX MEX                                            México                                 Tarjeta Bloqueada54392402060
25   5439240206408009202108251202060000004459800000000000  856290412371705893701008000000          ST*UBER                CIUDAD DE MEX MEX                                            México                                 Tarjeta Bloqueada54392402060
25   5439240206408009202108251202060000004459800000000000  856290412371705893701008000000          ST*UBER                CIUDAD DE MEX MEX                                            México                                 Tarjeta Bloqueada54392402060
25   5439240206408009202108251003540000004599700000000000MWU4ZT35U08250069984401008000000          UBER* PENDING          CIUDAD DE MEX MEX                                            México                                 Tarjeta Bloqueada54392402060
25   5439240206408009202108251003540000004599700000000000MWU4ZT35U08250069984401008000000          UBER* PENDING          CIUDAD DE MEX MEX                                            México                                 Tarjeta Bloqueada54392402060
25   5439240206408009202108251003540000004599700000000000MWU4ZT35U08250069984401008000000          UBER* PENDING          CIUDAD DE MEX MEX                                            México                                 Tarjeta Bloqueada54392402060
25   5439240206408009202108251003540000004599700000000000MWU4ZT35U08250098024801008000000          UBER* PENDING          CIUDAD DE MEX MEX                                            México                                 Tarjeta Bloqueada54392402060
25   5439240206408009202108251003540000004599700000000000MWU4ZT35U08250098024801008000000          UBER* PENDING          CIUDAD DE MEX MEX                                            México                                 Tarjeta Bloqueada54392402060
25   5439240206408009202108251003540000004599700000000000MWU4ZT35U08250098024801008000000          UBER* PENDING          CIUDAD DE MEX MEX                                            México                                 Tarjeta Bloqueada54392402060
25   5439240206408009202108251203570000004599700000000000  856290412371706962601008000000          ST*UBER                CIUDAD DE MEX MEX                                            México                                 Tarjeta Bloqueada54392402060
25   5439240206408009202108251203570000004599700000000000  856290412371706962601008000000          ST*UBER                CIUDAD DE MEX MEX                                            México                                 Tarjeta Bloqueada54392402060
25   5439240206408009202108251203570000004599700000000000  856290412371706962601008000000          ST*UBER                CIUDAD DE MEX MEX                                            México                                 Tarjeta Bloqueada54392402060
25   5439240206408009202108251006110000004599900000000000MWU4ZT35U08250012597701008000000          UBER* PENDING          CIUDAD DE MEX MEX                                            México                                 Tarjeta Bloqueada54392402060
25   5439240206408009202108251006110000004599900000000000MWU4ZT35U08250012597701008000000          UBER* PENDING          CIUDAD DE MEX MEX                                            México                                 Tarjeta Bloqueada54392402060
25   5439240206408009202108251006110000004599900000000000MWU4ZT35U08250012597701008000000          UBER* PENDING          CIUDAD DE MEX MEX                                            México                                 Tarjeta Bloqueada54392402060
25   5439240206408009202108251006110000004599900000000000MWU4ZT35U08250036464701008000000          UBER* PENDING          CIUDAD DE MEX MEX                                            México                                 Tarjeta Bloqueada54392402060
25   5439240206408009202108251006110000004599900000000000MWU4ZT35U08250036464701008000000          UBER* PENDING          CIUDAD DE MEX MEX                                            México                                 Tarjeta Bloqueada54392402060
25   5439240206408009202108251006110000004599900000000000MWU4ZT35U08250036464701008000000          UBER* PENDING          CIUDAD DE MEX MEX                                            México                                 Tarjeta Bloqueada54392402060
25   5439240206408009202108251206140000004599900000000000  856290412371706905601008000000          ST*UBER                CIUDAD DE MEX MEX                                            México                                 Tarjeta Bloqueada54392402060
25   5439240206408009202108251206140000004599900000000000  856290412371706905601008000000          ST*UBER                CIUDAD DE MEX MEX                                            México                                 Tarjeta Bloqueada54392402060
25   5439240206408009202108251206140000004599900000000000  856290412371706905601008000000          ST*UBER                CIUDAD DE MEX MEX                                            México                                 Tarjeta Bloqueada54392402060
25   5439240220846002202108251248490000000614000000000000  223110800000003773301000490601          OFFICE MAX SN MARCOS   CUAUTITLAN IZ MEX                                            México                                            Compra54392402200
25   5439240206408009202108251318030000085865100000000000  0655944yuuVpPEmOs3L01000491639          AEROPUERTO DEL NORTE 2 APODACA NL    MEX                                            México                                            Compra54392402060
25   543924021428900320210825212850000010195350000000000012002747212370684869201000492036          CRD*SOCIALPANEL24.COM  Vilnius       LTU                                          Lituania                                            Compra54392402140
25   543924021428900320210825212925000010195350000000000012002747212370684872601000492056          CRD*SOCIALPANEL24.COM  Vilnius       LTU                                          Lituania                                            Compra54392402140
25   543924021428900320210825213018000004078140000000000012002747212370684877101000492099          CRD*SOCIALPANEL24.COM  Vilnius       LTU                                          Lituania                                            Compra54392402140
25   5439240206408009202108251409280000003080000000000000  418867200029773751301000493653          INM RECAUDACIONMU      CIUDAD DE MEX MEX                                            México                                            Compra54392402060
25   5439240215417009202108251414250000004775100000000000  797912893835874158001000493854          AMAZON MX MARKETPLACE  MEXICO CITY   MEX                                            México                                            Compra54392402150
25   5439240207396005202108251414390000017577000000000000  624395000000002936301051000000          SUPERAMA PQUES POLANCO MEXICO CITY   MEX                                            México                              Not sufficient funds54392402070
25   5439240207396005202108251414390000017577000000000000  624395000000002936301051000000          SUPERAMA PQUES POLANCO MEXICO CITY   MEX                                            México                              Not sufficient funds54392402070
25   5439240207396005202108251414390000017577000000000000  624395000000002936301051000000          SUPERAMA PQUES POLANCO MEXICO CITY   MEX                                            México                              Not sufficient funds54392402070
25   543924022417800620210825215318000000108950000000000026995700012371931020501000495460          RAPPI*SAFE MEXICO      Mexico City   MEX                                            México                                            Compra54392402240
25   543924022417800620210825215318000000090750000000000026995700012371931020501000496122          RAPPI*SAFE MEXICO      Mexico City   MEX                                            México                                            Compra54392402240
25   5439240220705000202108251518450000006020000000000000  228792862992272528801000496485          SANBORN S SAN MARCOS   CUAUTITLAN IZ MEX                                            México                                            Compra54392402200
25   5439240220846002202108251519010000005480000000000000  228792862992274103701000496499          SANBORN S SAN MARCOS   CUAUTITLAN IZ MEX                                            México                                            Compra54392402200
25   543924021136600220210825223345000002372880000000000033655962000000008852601000497078          VICUS RESTAURANT       PALS          ESP                                            España                                            Compra54392402110
25   5439240212636007202108251538490000014550000000000000  832130100000000003701000497271          PIK A BUU              SN PEDRO GARZ MEX                                            México                                            Compra54392402120
25   5439240219732007202108251544280000013448500000000000  135065100000000160001000497479          MI PUEBLITO REST BAR   MATAMOROS TAM MEX                                            México                                            Compra54392402190
25   5439240214289003202108252311160000021353600000000000  4143789 2529925726401000498472          PAYPAL3                MEXICO CITY   MEX                                            México                                            Compra54392402140
25   5439240214289003202108251612220000021353600000000000  790373351835436454401000498514          PAYPAL *PRINCESMM      CIUDAD DE MEX MEX                                            México                                            Compra54392402140
25   5439240214289003202108252322590000021353600000000000  4143789 1530402585601000498923          PAYPAL3                MEXICO CITY   MEX                                            México                                            Compra54392402140
25   5439240221785001202108250432170000011261300000000000  419148808250432171001008000000          OXXOSANTA 6            SANTA CATARIN MEX                                            México                                 Tarjeta Bloqueada54392402210
25   5439240221785001202108250432170000011261300000000000  419148808250432171001008000000          OXXOSANTA 6            SANTA CATARIN MEX                                            México                                 Tarjeta Bloqueada54392402210
25   5439240221785001202108250432170000011261300000000000  419148808250432171001008000000          OXXOSANTA 6            SANTA CATARIN MEX                                            México                                 Tarjeta Bloqueada54392402210
25   5439240221785001202108250432360000011261300000000000  419148808250432364401008000000          OXXOSANTA 6            SANTA CATARIN MEX                                            México                                 Tarjeta Bloqueada54392402210
25   5439240221785001202108250432360000011261300000000000  419148808250432364401008000000          OXXOSANTA 6            SANTA CATARIN MEX                                            México                                 Tarjeta Bloqueada54392402210
25   5439240221785001202108250432360000011261300000000000  419148808250432364401008000000          OXXOSANTA 6            SANTA CATARIN MEX                                            México                                 Tarjeta Bloqueada54392402210
25   5439240221785001202108250433020000011261300000000000  419148808250433027801000499334          OXXOSANTA 6            SANTA CATARIN MEX                                            México                                            Compra54392402210
25   5439240220890000202108251656230000000254000000000000  648058600134106128901000500220          OXXO FCO BELTRAN       MONTERREY NL  MEX                                            México                                            Compra54392402200
25   5439240214289003202108260005160000021353600000000000  4143789 1130419098701051000000          PAYPAL3                MEXICO CITY   MEX                                            México                              Not sufficient funds54392402140
25   5439240214289003202108260005160000021353600000000000  4143789 1130419098701051000000          PAYPAL3                MEXICO CITY   MEX                                            México                              Not sufficient funds54392402140
25   5439240214289003202108260005160000021353600000000000  4143789 1130419098701051000000          PAYPAL3                MEXICO CITY   MEX                                            México                              Not sufficient funds54392402140
25   5439240214289003202108251705180000021353600000000000  790373393835897764801051000000          PAYPAL *PRINCESMM      CIUDAD DE MEX MEX                                            México                              Not sufficient funds54392402140
25   5439240214289003202108251705180000021353600000000000  790373393835897764801051000000          PAYPAL *PRINCESMM      CIUDAD DE MEX MEX                                            México                              Not sufficient funds54392402140
25   5439240214289003202108251705180000021353600000000000  790373393835897764801051000000          PAYPAL *PRINCESMM      CIUDAD DE MEX MEX                                            México                              Not sufficient funds54392402140
25   5439240214289003202108260005480000021353600000000000  4143789 1530404774401051000000          PAYPAL3                MEXICO CITY   MEX                                            México                              Not sufficient funds54392402140
25   5439240214289003202108260005480000021353600000000000  4143789 1530404774401051000000          PAYPAL3                MEXICO CITY   MEX                                            México                              Not sufficient funds54392402140
25   5439240214289003202108260005480000021353600000000000  4143789 1530404774401051000000          PAYPAL3                MEXICO CITY   MEX                                            México                              Not sufficient funds54392402140
25   5439240214289003202108251705500000021353600000000000  790373393835897846001051000000          PAYPAL *PRINCESMM      CIUDAD DE MEX MEX                                            México                              Not sufficient funds54392402140
25   5439240214289003202108251705500000021353600000000000  790373393835897846001051000000          PAYPAL *PRINCESMM      CIUDAD DE MEX MEX                                            México                              Not sufficient funds54392402140
25   5439240214289003202108251705500000021353600000000000  790373393835897846001051000000          PAYPAL *PRINCESMM      CIUDAD DE MEX MEX                                            México                              Not sufficient funds54392402140
25   543924021084600420210825182414000000460940000000000037218191012373285913301000501205           AMAZON.COM AMZN.COM/BI SEATTLE       WA                                    Estados Unidos                                            Compra54392402100
25   5439240220705000202108251837060000007848000000000000000000000      52460702000503952          BANCO SANTANDER        Cuautitlan Iz MEX                                            México                                        Retiro ATM54392402200
25   5439240220670006202108251908010000001063000000000000  222971400000003589801000505195          WAL MART SAN MARCOS    CUAUTITLAN EM MEX                                            México                                            Compra54392402200
25   543924021961800820210826020839000000482800000000000026995700012380029319201000505215          UBER * EATS PENDING    CMX           MEX                                            México                                            Compra54392402190
25   5439240219732007202108252008370000002911900000000000  100709503511210883801000507556          SORIANA351 CANALES     MATAMOROS TAM MEX                                            México                                            Compra54392402190
25   5439240223212004202108251833080000001967000000000000AGI4WHVTD08260075668201000508530          UBER* EATS PENDING     CIUDAD DE MEX MEX                                            México                                            Compra54392402230
25   5439240219618008202108251837240000000241400000000000AGI4WHVTD08260039190401000508693          UBER* EATS             CIUDAD DE MEX MEX                                            México                                            Compra54392402190
25   5439240220846002202108252037080000000930000000000000  228792862994182893001008000000          SANBORN S SAN MARCOS   CUAUTITLAN IZ MEX                                            México                                 Tarjeta Bloqueada54392402200
25   5439240220846002202108252037080000000930000000000000  228792862994182893001008000000          SANBORN S SAN MARCOS   CUAUTITLAN IZ MEX                                            México                                 Tarjeta Bloqueada54392402200
25   5439240220846002202108252037080000000930000000000000  228792862994182893001008000000          SANBORN S SAN MARCOS   CUAUTITLAN IZ MEX                                            México                                 Tarjeta Bloqueada54392402200
25   5439240220846002202108252038070000000930000000000000  228792862994188750801000508750          SANBORN S SAN MARCOS   CUAUTITLAN IZ MEX                                            México                                            Compra54392402200
25   5439240220670006202108252207450000004620000000000000  418837021237087022701000511541          FIESTA INN CUAUTITLAN  CUAUTITLAN IZ MEX                                            México                                            Compra54392402200
25   5439240223212004202108252017340000000133000000000000AGI4WHVTD08260047169201000511803          UBER* EATS             CIUDAD DE MEX MEX                                            México                                            Compra54392402230
25   543924022488100520210825232219000000059000000000000018882600012383434420001000511916          GOOGLE *Google Play    g.co/helppay# GBR                                       Reino Unido                                            Compra54392402240
25   5439240220870002202108252307040000006150000000000000  647906700134198732101000512942          OXXO PED LINDA VISTA   GUADALUPE NL  MEX                                            México                                            Compra54392402200
25   543924022328600820210825230800000004030740000000000000000000000001190034702008000000          BANAMEX                MONTERREY     MEX                                            México                                 Tarjeta Bloqueada54392402230
25   543924022328600820210825230800000004030740000000000000000000000001190034702008000000          BANAMEX                MONTERREY     MEX                                            México                                 Tarjeta Bloqueada54392402230
25   543924022328600820210825230800000004030740000000000000000000000001190034702008000000          BANAMEX                MONTERREY     MEX                                            México                                 Tarjeta Bloqueada54392402230
25   543924022328600820210825230900000004030740000000000000000000000001200034802000512995          BANAMEX                MONTERREY     MEX                                            México                                        Retiro ATM54392402230
9900000097000000000000000000000000000000000000000000000000000000000000000000000000000000000000000000000000000000000000000000000000000000000000000000000000000000000000000000000000000000000000000000000000000000000000000000000000000000000000000000000000
