19LOG_ACT2021081600000000000000000000000000000000000000000000000000000000000000000000000000000000000000000000000000000000000000000000000000000000000000000000000000000000000000000000000000000000000000000000000000000000000000000000000000000000000000000
25   5439240220182002202108160409350000001790000000000000  788982451834057736501008000000          AME*SPOTIFY CR         MEXICO CITY   MEX                                            México                                 Tarjeta Bloqueada54392402200
25   5439240220182002202108160409350000001790000000000000  788982451834057736501008000000          AME*SPOTIFY CR         MEXICO CITY   MEX                                            México                                 Tarjeta Bloqueada54392402200
25   5439240220182002202108160409350000001790000000000000  788982451834057736501008000000          AME*SPOTIFY CR         MEXICO CITY   MEX                                            México                                 Tarjeta Bloqueada54392402200
25   543924021136600220210816124038000008672500000000000007362918000000000193401000184608          JAVSON OPTICOS SL      VALL DE UXO   ESP                                            España                                            Compra54392402110
25   543924021136600220210816133548000001875130000000000025601020800000003503701000184849          COOP AGRIC SAN ISIDRO  VALL D UIXO   ESP                                            España                                            Compra54392402110
25   5439240299882003202108161400220000003318700000000000  220935616140040519001051000000          Online Payment         London        GBR                                       Reino Unido                              Not sufficient funds54392402990
25   5439240299882003202108161400220000003318700000000000  220935616140040519001051000000          Online Payment         London        GBR                                       Reino Unido                              Not sufficient funds54392402990
25   5439240299882003202108161400220000003318700000000000  220935616140040519001051000000          Online Payment         London        GBR                                       Reino Unido                              Not sufficient funds54392402990
25   5439240218397000202108160754450000007464800000000000  810728367834518364501008000000          AME*RAPPI II           CIUDAD DE MEX MEX                                            México                                 Tarjeta Bloqueada54392402180
25   5439240218397000202108160754450000007464800000000000  810728367834518364501008000000          AME*RAPPI II           CIUDAD DE MEX MEX                                            México                                 Tarjeta Bloqueada54392402180
25   5439240218397000202108160754450000007464800000000000  810728367834518364501008000000          AME*RAPPI II           CIUDAD DE MEX MEX                                            México                                 Tarjeta Bloqueada54392402180
25   543924021084600420210816094758000000701500000000000023515800012284949066501051000000           AMZN Mktp US           Amzn.com/bill WA                                    Estados Unidos                              Not sufficient funds54392402100
25   543924021084600420210816094758000000701500000000000023515800012284949066501051000000           AMZN Mktp US           Amzn.com/bill WA                                    Estados Unidos                              Not sufficient funds54392402100
25   543924021084600420210816094758000000701500000000000023515800012284949066501051000000           AMZN Mktp US           Amzn.com/bill WA                                    Estados Unidos                              Not sufficient funds54392402100
25   5439240219618008202108160901160000001390000000000000  821119667834523367701000186568          AME*RAPPI PRIME        CIUDAD DE MEX MEX                                            México                                            Compra54392402190
25   5439240215488000202108161629410000001690000000000000  4143789 1529756137801000187176          PAYPAL3                MEXICO CITY   MEX                                            México                                            Compra54392402150
25   5439240220670006202108161032320000007061300000000000  747656000000000016501000188863          BIOANAL SERV HEMATOL I MONTERREY NL  MEX                                            México                                            Compra54392402200
25   5439240220677001202108160906390000000599500000000000MWU4ZT35U08160067518001000189874          UBER* PENDING          CIUDAD DE MEX MEX                                            México                                            Compra54392402200
25   5439240219732007202108161110310000001108900000000000  679344200143827598701000190019          FARM GUADALAJARA 844   MATAMOROS TAM MEX                                            México                                            Compra54392402190
25   5439240220677001202108160951060000000599900000000000MWU4ZT35U08160072665601000191263          UBER* PENDING          CIUDAD DE MEX MEX                                            México                                            Compra54392402200
25   5439240220677001202108161220440000000500000000000000  106901611007218029101000192289          F AHORRO TMMA MANTE    TAMPICO       MEX                                            México                                            Compra54392402200
25   5439240220677001202108161025040000000311500000000000MWU4ZT35U08160006694901000192445          UBER* PENDING          CIUDAD DE MEX MEX                                            México                                            Compra54392402200
25   543924020640800920210816143056000000268310000000000000049829700000910251701000194883           GREAT WRAPS            FRIENDSWOOD   TX                                    Estados Unidos                                            Compra54392402060
25   5439240222970008202108161331300000000990000000000000  710671600000000026701000194912          S S SAN CONTRY         MONTERREY NL  MEX                                            México                                            Compra54392402220
25   5439240218400002202108161433170000001200000000000000  737696145107470493901000197288          CONEKTA*SHOPNET        MONTERREY     MEX                                            México                                            Compra54392402180
25   543924020640800920210816144814000005552150000000000080300646212281903521001000197892           SIGNATURE FLIGHT SUPPO HOUSTON       TX                                    Estados Unidos                                            Compra54392402060
25   5439240207396005202108161514400000010350000000000000  792818300000000015101000198976          EL PUNTAL DEL NORTE    MEXICO CITY   MEX                                            México                                            Compra54392402070
25   5439240212636007202108161514340000003450000000000000  189570500000000003401000199208          MC DONALD S GOMEZ MORI SAN P GARZA G MEX                                            México                                            Compra54392402120
25   5439240212636007202108161517500000002910000000000000  189570500000000003501000199317          MC DONALD S GOMEZ MORI SAN P GARZA G MEX                                            México                                            Compra54392402120
25   5439240212636007202108161534350000002910000000000000  47618967UuW8H0p0tID01000199784          DONA TOTA HEB GOMEZ MO SN PEDRO GARZ MEX                                            México                                            Compra54392402120
25   5439240220677001202108161601110000001124000000000000  639526300131932842501000200917          OXXO ALTAMIRA          ALTAMIRA TAMP MEX                                            México                                            Compra54392402200
25   5439240220890000202108160406440000005692000000000000  408438800780001001101000201111          ABARR FASTI IGLESIAS   NAUTLA VER    MEX                                            México                                            Compra54392402200
25   543924022067000620210816160839000001034800000000000000000000020281600573202000201186          BANCA AFIRME,S.A.      GARCIA        MEX                                            México                                        Retiro ATM54392402200
25   543924021084600420210816170939000000701500000000000023515800012284545232301051000000           AMZN Mktp US           Amzn.com/bill WA                                    Estados Unidos                              Not sufficient funds54392402100
25   543924021084600420210816170939000000701500000000000023515800012284545232301051000000           AMZN Mktp US           Amzn.com/bill WA                                    Estados Unidos                              Not sufficient funds54392402100
25   543924021084600420210816170939000000701500000000000023515800012284545232301051000000           AMZN Mktp US           Amzn.com/bill WA                                    Estados Unidos                              Not sufficient funds54392402100
25   5439240220169009202108161615040000000328300000000000  814548151834130375101000201430          D LOCAL*DIDI MOBILITY  MEXICO CITY   MEX                                            México                                            Compra54392402200
25   543924022623500220210816162950000002730390000000000051333104000006691495101000202012           UNIKO                  SAN ANTONIO   TX                                    Estados Unidos                                            Compra54392402260
25   5439240220705000202108161706470000004499000000000000  860789612282201081801000203364          REST LA PATRONA        CASTANOS COAH MEX                                            México                                            Compra54392402200
25   5439240220150009202108161821090000059801600000000000000000000      51268802000206127          BANCO SANTANDER        MONTERREY     MEX                                            México                                        Retiro ATM54392402200
25   5439240207207004202108161822170000005850000000000000  797438277833073837301000206180          LOS PACOS              OAXACA DE JUA MEX                                            México                                            Compra54392402070
25   5439240219618008202108161901120000002210000000000000  440038800131990173901000207892          OXXO LA CAPITAL MTY    MONTERREY NL  MEX                                            México                                            Compra54392402190
25   5439240219618008202108161901530000002210000000000000  440038800131990020801000207916          OXXO LA CAPITAL MTY    MONTERREY NL  MEX                                            México                                            Compra54392402190
25   5439240220705000202108161903460000016648100000000000  083537187833537256101000207952          AUTELES KALIONCHIZ     MONCLOVA COAH MEX                                            México                                            Compra54392402200
25   543924022623500220210816190437000002751840000000000000045201600001242652701000208001           EXPRESS # 0314         SAN ANTONIO   TX                                    Estados Unidos                                            Compra54392402260
25   5439240220169009202108161711170000000399300000000000MWU4ZT35U08170021859901000208238          UBER* PENDING          CIUDAD DE MEX MEX                                            México                                            Compra54392402200
25   5439240218509000202108161918410000004590000000000000  792747968775945953201000208543          CLIP MX*FOREVERS       CIUDAD DE MEX MEX                                            México                                            Compra54392402180
25   5439240220705000202108161930360000004484900000000000  4083679BrPDupSa1hhZ01000209001          PARADERO STA MARIA     CASTANOS COAH MEX                                            México                                            Compra54392402200
25   5439240220705000202108161936210000000500000000000000  745269012290002249001000209246          IZETTLE*RESTS          CIUDAD DE MEX MEX                                            México                                            Compra54392402200
25   5439240220705000202108161941340000000265000000000000  400051000132001519301000209497          OXXO SANTA MARIA LOV   CASTANOS COAH MEX                                            México                                            Compra54392402200
25   5439240220705000202108161942390000000265000000000000  400051000132001884901000209540          OXXO SANTA MARIA LOV   CASTANOS COAH MEX                                            México                                            Compra54392402200
25   5439240218400002202108162007150000003450000000000000  443824803118208162001000210573          CINEPOLIS DULCERIA     MORELIA MICH  MEX                                            México                                            Compra54392402180
25   5439240218509000202108162012330000014116300000000000  489001800091341533401000210773          SORIANA9 LA FE         SAN NICOLAS D MEX                                            México                                            Compra54392402180
25   5439240218400002202108162013320000001600000000000000  443824803118308162001000210832          CINEPOLIS DULCERIA     MORELIA MICH  MEX                                            México                                            Compra54392402180
25   5439240220071007202108162040550000003099000000000000  652664400000000190001000211888          SUPERCENTER CERRO SILL MONTERREY NL  MEX                                            México                                            Compra54392402200
25   543924021961800820210817042208000000475800000000000026995700012290231377101000213399          RAPPI*SAFE MEXICO      Mexico City   MEX                                            México                                            Compra54392402190
25   543924021084600420210816231110000000701500000000000023515800012293939408201051000000           AMZN Mktp US           Amzn.com/bill WA                                    Estados Unidos                              Not sufficient funds54392402100
25   543924021084600420210816231110000000701500000000000023515800012293939408201051000000           AMZN Mktp US           Amzn.com/bill WA                                    Estados Unidos                              Not sufficient funds54392402100
25   543924021084600420210816231110000000701500000000000023515800012293939408201051000000           AMZN Mktp US           Amzn.com/bill WA                                    Estados Unidos                              Not sufficient funds54392402100
25   5439240222970008202108162218110000000530000000000000  412465300132045338301000215069          OXXOGARZA SADA 1892    MONTERREY NL  MEX                                            México                                            Compra54392402220
25   543924022623500220210816233810000000099300000000000000049818700006614801401000215521           LAZ PARKING 620164     AUSTIN        TX                                    Estados Unidos                                            Compra54392402260
25   5439240220870002202108162247510000000601800000000000  816837777833081414201000215736          RED ESTATAL DE AUTOPIS APODACA NL    MEX                                            México                                            Compra54392402200
9900000062000000000000000000000000000000000000000000000000000000000000000000000000000000000000000000000000000000000000000000000000000000000000000000000000000000000000000000000000000000000000000000000000000000000000000000000000000000000000000000000000
