19LOG_ACT2021071900000000000000000000000000000000000000000000000000000000000000000000000000000000000000000000000000000000000000000000000000000000000000000000000000000000000000000000000000000000000000000000000000000000000000000000000000000000000000000
25   5439240207414006202107190010410000032321800000000000 1742902712000011882901051000000           SHEDD AQUARIUM         CHICAGO       IL                                    Estados Unidos                              Not sufficient funds54392402070
25   5439240207414006202107190010410000032321800000000000 1742902712000011882901051000000           SHEDD AQUARIUM         CHICAGO       IL                                    Estados Unidos                              Not sufficient funds54392402070
25   5439240207414006202107190011260000032321800000000000 1742902712000012175701051000000           SHEDD AQUARIUM         CHICAGO       IL                                    Estados Unidos                              Not sufficient funds54392402070
25   5439240207414006202107190011260000032321800000000000 1742902712000012175701051000000           SHEDD AQUARIUM         CHICAGO       IL                                    Estados Unidos                              Not sufficient funds54392402070
25   5439240207414006202107190011440000032321800000000000 1742902712000012296401051000000           SHEDD AQUARIUM         CHICAGO       IL                                    Estados Unidos                              Not sufficient funds54392402070
25   5439240207414006202107190011440000032321800000000000 1742902712000012296401051000000           SHEDD AQUARIUM         CHICAGO       IL                                    Estados Unidos                              Not sufficient funds54392402070
25   543924021052200120210719011238000000696010000000000022140500012007676063101008000000          AMZN Mktp ES           800-279-6620  LUX                                        Luxemburgo                                 Tarjeta Bloqueada54392402100
25   543924021052200120210719011238000000696010000000000022140500012007676063101008000000          AMZN Mktp ES           800-279-6620  LUX                                        Luxemburgo                                 Tarjeta Bloqueada54392402100
25   5439240207414006202107190013160000032321800000000000 1742902712000012766701051000000           SHEDD AQUARIUM         CHICAGO       IL                                    Estados Unidos                              Not sufficient funds54392402070
25   5439240207414006202107190013160000032321800000000000 1742902712000012766701051000000           SHEDD AQUARIUM         CHICAGO       IL                                    Estados Unidos                              Not sufficient funds54392402070
25   543924021052200120210719011512000002581920000000000019465100012007777179601008000000          Amazon.es              amazon.es/ayu LUX                                        Luxemburgo                                 Tarjeta Bloqueada54392402100
25   543924021052200120210719011512000002581920000000000019465100012007777179601008000000          Amazon.es              amazon.es/ayu LUX                                        Luxemburgo                                 Tarjeta Bloqueada54392402100
25   5439240207414006202107190016550000032321800000000000 1742902712000014097501051000000           SHEDD AQUARIUM         CHICAGO       IL                                    Estados Unidos                              Not sufficient funds54392402070
25   5439240207414006202107190016550000032321800000000000 1742902712000014097501051000000           SHEDD AQUARIUM         CHICAGO       IL                                    Estados Unidos                              Not sufficient funds54392402070
25   543924021052200120210719012151000000696010000000000022140500012006060592301006000000          AMZN Mktp ES           800-279-6620  LUX                                        Luxemburgo            Mal Funcionamiento del Sistema Externo54392402100
25   543924021052200120210719012151000000696010000000000022140500012006060592301006000000          AMZN Mktp ES           800-279-6620  LUX                                        Luxemburgo            Mal Funcionamiento del Sistema Externo54392402100
25   543924021052200120210719012209000002581920000000000019465100012007777331001006000000          Amazon.es              amazon.es/ayu LUX                                        Luxemburgo            Mal Funcionamiento del Sistema Externo54392402100
25   543924021052200120210719012209000002581920000000000019465100012007777331001006000000          Amazon.es              amazon.es/ayu LUX                                        Luxemburgo            Mal Funcionamiento del Sistema Externo54392402100
25   543924021052200120210719020051000002581920000000000019465100012006464424001000257471          Amazon.es              amazon.es/ayu LUX                                        Luxemburgo                                            Compra54392402100
25   543924021052200120210719020105000000696010000000000022140500012007878818001000257474          AMZN Mktp ES           800-279-6620  LUX                                        Luxemburgo                                            Compra54392402100
25   543924021052200120210719020334000000372770000000000022140500012006565044901000257498          AMZN Mktp ES           800-279-6620  LUX                                        Luxemburgo                                            Compra54392402100
25   543924021052200120210719020437000002581920000000000037245207412003597780901000257506          AMAZON.ES AMAZON.ES    LUXEMBOURG    LUX                                        Luxemburgo                                            Compra54392402100
25   5439240205148002202107190109080000032321800000000000 1742902712000128654301000257539           SHEDD AQUARIUM         CHICAGO       IL                                    Estados Unidos                                            Compra54392402050
25   543924021136600220210719121319000001461030000000000025601217000000000148901000258465          FRUITES SILVIA I EVA   LA VALL D'UIX ESP                                            España                                            Compra54392402110
25   543924021548800020210719061541000000107410000000000016014600012004040270901000258474           Kindle Svcs            866-321-8851  WA                                    Estados Unidos                                            Compra54392402150
25   543924021052200120210719132307000001126760000000000033393724100000000047801000258722          LAMP  E ILUM  DIAGO    ONDA          ESP                                            España                                            Compra54392402100
25   5439240220677001202107190546380000001099900000000000MWU4ZT35U07190032013201051000000          UBER* PENDING          CIUDAD DE MEX MEX                                            México                              Not sufficient funds54392402200
25   5439240220677001202107190546380000001099900000000000MWU4ZT35U07190032013201051000000          UBER* PENDING          CIUDAD DE MEX MEX                                            México                              Not sufficient funds54392402200
25   5439240220677001202107190546490000001099000000000000MWU4ZT35U07190008846401051000000          UBER* PENDING          CIUDAD DE MEX MEX                                            México                              Not sufficient funds54392402200
25   5439240220677001202107190546490000001099000000000000MWU4ZT35U07190008846401051000000          UBER* PENDING          CIUDAD DE MEX MEX                                            México                              Not sufficient funds54392402200
25   543924022067700120210719151803000000109900000000000026995700012001330787601051000000          UBER *TRIP HELP.UBER.C CMX           MEX                                            México                              Not sufficient funds54392402200
25   543924022067700120210719151803000000109900000000000026995700012001330787601051000000          UBER *TRIP HELP.UBER.C CMX           MEX                                            México                              Not sufficient funds54392402200
25   5439240222092001202107190907030000001486500000000000  197193607190906525001008000000          BENAVIDES S14015 MITRA MONTERREY NL  MEX                                            México                                 Tarjeta Bloqueada54392402220
25   5439240222092001202107190907030000001486500000000000  197193607190906525001008000000          BENAVIDES S14015 MITRA MONTERREY NL  MEX                                            México                                 Tarjeta Bloqueada54392402220
25   5439240222092001202107190907260000001486500000000000  197193607190906525101008000000          BENAVIDES S14015 MITRA MONTERREY NL  MEX                                            México                                 Tarjeta Bloqueada54392402220
25   5439240222092001202107190907260000001486500000000000  197193607190906525101008000000          BENAVIDES S14015 MITRA MONTERREY NL  MEX                                            México                                 Tarjeta Bloqueada54392402220
25   5439240223681000202107191026500000005047200000000000  774207800000000053701000262286          GASOL PALMAS           EL MARQUES QR MEX                                            México                                            Compra54392402230
25   543924020521400220210719113619000000979180000000000000044519700004915521201000262550           UBER   * PENDING       SAN FRANCISCO CA                                    Estados Unidos                                            Compra54392402050
25   5439240223883002202107191050290000002250000000000000  493876762670982942801000262932          SANBORNS               MEXICO CITY   MEX                                            México                                            Compra54392402230
25   543924022388300220210719105323000005017400000000000000000000000100017256702000262992          SANBORNS PLAZA GALERIA SDISTRITO FED MEX                                            México                                        Retiro ATM54392402230
25   5439240223681000202107191110410000000760000000000000  419801821200083720301000263532          STARBUCKS ES LS BRUJ I APASEO EL GRA MEX                                            México                                            Compra54392402230
25   5439240210791002202107191146290000037950000000000000  842073876416415757901000264526          HEB CHIPINQUE          SN PEDRO GARZ MEX                                            México                                            Compra54392402100
25   543924020741400620210719130618000000416930000000000000042117500004571241701000267146           JG SHEDD AQUARIUM PHOT CHICAGO       IL                                    Estados Unidos                                            Compra54392402070
25   543924020521400220210719142856000000351010000000000000044519700006589865001000268001           UBER   * PENDING       SAN FRANCISCO CA                                    Estados Unidos                                            Compra54392402050
25   5439240215417009202107191355290000003230600000000000  797912851398754343901000269011          AMAZON MX MARKETPLACE  MEXICO CITY   MEX                                            México                                            Compra54392402150
25   5439240221066006202107191414490000001520000000000000  4920971feu4njwtophn01008000000          GOB COAH RECAUDAC 8 MU SALTILLO COAH MEX                                            México                                 Tarjeta Bloqueada54392402210
25   5439240221066006202107191414490000001520000000000000  4920971feu4njwtophn01008000000          GOB COAH RECAUDAC 8 MU SALTILLO COAH MEX                                            México                                 Tarjeta Bloqueada54392402210
25   5439240220670006202107191433530000001100000000000000  792272300000000032101000270424          LOS MOLKAJETES VALLE   SANTA CATARIN MEX                                            México                                            Compra54392402200
25   543924021136600220210719215726000003826810000000000035283883300000008413301000271337          HAWAI                  MONCOFA       ESP                                            España                                            Compra54392402110
25   543924022417800620210719130508000000167000000000000050BS2HBLZ07190038510501000271604          RAPPI PEACE  LOVE PLAZ +525563305020 MEX                                            México                                            Compra54392402240
25   543924020521400220210719160530000000651400000000000000044519700003761555701000271623           UBER   * PENDING       SAN FRANCISCO CA                                    Estados Unidos                                            Compra54392402050
25   5439240207396005202107191515220000013280000000000000  796559577395012809801000272009          EL CHANCLAS            MEXICO CITY   MEX                                            México                                            Compra54392402070
25   543924021548800020210719171010000000214620000000000016014600012003636037301000274099           Kindle Svcs            866-321-8851  WA                                    Estados Unidos                                            Compra54392402150
25   543924021548800020210719171120000001059390000000000016014600012004444885601000274143           AMZN Digital           888-802-3080  WA                                    Estados Unidos                                            Compra54392402150
25   5439240215417009202107191613550000018732700000000000  797912866812378359501000274238          AMAZON MX MARKETPLACE  MEXICO CITY   MEX                                            México                                            Compra54392402150
25   5439240215417009202107191627520000002410000000000000  513034900940936065301000274726          SORIANA94 RIBERENA     CD REYNOSA TA MEX                                            México                                            Compra54392402150
25   5439240215417009202107191637090000008580000000000000  797912866812381423201000275062          AMAZON MX MARKETPLACE  MEXICO CITY   MEX                                            México                                            Compra54392402150
25   543924022623500220210719174734000010897100000000000025200000012000063655201000275431           DILLARDS 729 SUNRISE   BROWNSVILLE   TX                                    Estados Unidos                                            Compra54392402260
25   543924021074600620210719175500000000107610000000000085495700073854957551601051000000           MCDONALD'S F17631      NEW YORK      NY                                    Estados Unidos                              Not sufficient funds54392402100
25   543924021074600620210719175500000000107610000000000085495700073854957551601051000000           MCDONALD'S F17631      NEW YORK      NY                                    Estados Unidos                              Not sufficient funds54392402100
25   5439240223883002202107191731350000000611000000000000  023315500000002283801000277014          WAL MART BUENAVISTA    MEXICO CITY   MEX                                            México                                            Compra54392402230
25   5439240215417009202107191747170000004000000000000000  780531400000000022501000277569          ISTANTE                REYNOSA TAMPS MEX                                            México                                            Compra54392402150
25   543924022623500220210719180848000001543230000000000087884301812001869128001000278297           ALL STAR DRY CLEANERS  BROWNSVILLE   TX                                    Estados Unidos                                            Compra54392402260
25   543924020521400220210719190142000000761790000000000000017805300008700863601000280328           UNIQLO SOHO US0030     CHICAGO       IL                                    Estados Unidos                                            Compra54392402050
25   543924021961800820210720020431000000437000000000000026995700012010031642701000280439          RAPPI*SAFE MEXICO      Mexico City   MEX                                            México                                            Compra54392402190
25   5439240220890000202107191930060000001840000000000000  4198566oMxlFiHVDEYd01000281467          LA CASA DE TONO PERINO CUAUTITLAN IZ MEX                                            México                                            Compra54392402200
25   543924020514800220210719201735000002908570000000000044450020407200110003801000283284           NORDSTROM RACK #245    CHICAGO       IL                                    Estados Unidos                                            Compra54392402050
25   543924020521400220210719212624000000491780000000000000044519700006388643501000283605           UBER   * PENDING       SAN FRANCISCO CA                                    Estados Unidos                                            Compra54392402050
25   5439240210791002202107192032130000008968700000000000  797911251398807913201000283812          AMAZON MX              MEXICO CITY   MEX                                            México                                            Compra54392402100
25   5439240223681000202107192105530000009260000000000000  776518000000000007201008000000          REST BURGUES URBAN GRI CELAYA GTO    MEX                                            México                                 Tarjeta Bloqueada54392402230
25   5439240223681000202107192105530000009260000000000000  776518000000000007201008000000          REST BURGUES URBAN GRI CELAYA GTO    MEX                                            México                                 Tarjeta Bloqueada54392402230
25   5439240223681000202107192106440000009260000000000000  776518000000000007301000285084          REST BURGUES URBAN GRI CELAYA GTO    MEX                                            México                                            Compra54392402230
25   5439240215417009202107192112040000010080000000000000  821573700000000041801000285243          RESTAURANT MEDITERRANE REYNOSA TAMPS MEX                                            México                                            Compra54392402150
25   543924022623500220210719211846000000816780000000000000034120600009978806401000285479           GAZPACHOS              BROWNSVILLE   TX                                    Estados Unidos                                            Compra54392402260
25   5439240223681000202107192127030000001230000000000000  415972700125057034101000285761          OXXOCITY EXPRESS QRF   CELAYA GTO    MEX                                            México                                            Compra54392402230
25   543924020521400220210719113619000000017270000000000000044519700000508691601000286033           UBER   *TRIP           SAN FRANCISCO CA                                    Estados Unidos                                            Compra54392402050
9900000076000000000000000000000000000000000000000000000000000000000000000000000000000000000000000000000000000000000000000000000000000000000000000000000000000000000000000000000000000000000000000000000000000000000000000000000000000000000000000000000000
