19LOG_ACT2021083000000000000000000000000000000000000000000000000000000000000000000000000000000000000000000000000000000000000000000000000000000000000000000000000000000000000000000000000000000000000000000000000000000000000000000000000000000000000000000
25   5439240223212004202108300008450000004000000000000000  41084226RZT0g082xiH01000655133          GASOLINERA SOLIDARIDAD MONTERREY NL  MEX                                            México                                            Compra54392402230
25   543924021084600420210830014347000000327710000000000037218191012427643645201000655501           AMAZON.COM AMZN.COM/BI SEATTLE       WA                                    Estados Unidos                                            Compra54392402100
25   543924021084600420210830014352000000437760000000000023525100012423737751201000655506           AMZN Mktp US           Amzn.com/bill WA                                    Estados Unidos                                            Compra54392402100
25   543924021136600220210830121845000002730560000000000032789148700000000627801000656682          LM CASH DOMESTIC SL    VALL D UIXO   ESP                                            España                                            Compra54392402110
25   543924021136600220210830124659000000408530000000000035154465500000000526701000656761          POLLERIA MANOLI        LA VALL DE UX ESP                                            España                                            Compra54392402110
25   543924021136600220210830131141000001220110000000000025500150500000001404301000656839          ESPORT NATURA          LA VALL DE UX ESP                                            España                                            Compra54392402110
25   5439240212582003202108300723360000000480000000000000  784358400208251836101000657297          7 ELEVEN SAN AGUSTIN   SAN NICOLAS D MEX                                            México                                            Compra54392402120
25   5439240220890000202108300803050000000745000000000000  633758800135228703601000657669          OXXO GALAZ             CASTANOS COAH MEX                                            México                                            Compra54392402200
25   5439240220670006202108300805350000001160000000000000  101522121242039362301000657683          STARBUCKS SN MARCOS    CUAUTITLAN IZ MEX                                            México                                            Compra54392402200
25   5439240220846002202108300926280000005000000000000000  834085977833523992001000659153          EST 2425 CALLE 10      ENSENADA BCN  MEX                                            México                                            Compra54392402200
25   5439240218444000202108300936320000005000000000000000  419061500208262111601000659357          PETROMAX 6308 REV      MONTERREY NL  MEX                                            México                                            Compra54392402180
25   5439240220705000202108300948380000002299000000000000  418837021242096830501000659666          FIESTA INN CUAUTITLAN  CUAUTITLAN IZ MEX                                            México                                            Compra54392402200
25   5439240207396005202108300953030000003420000000000000  412118766343601312001000659764          REST HAS TRO HUB       MEXICO CITY   MEX                                            México                                            Compra54392402070
25   5439240212636007202108301038490000006554000000000000  841971115897189858701000660945          HEB VALLE ORIENTE      SN PEDRO GARZ MEX                                            México                                            Compra54392402120
25   5439240212582003202108301103170000001320000000000000  414506921242041089501000661650          STARBUCKS CARR SLT MTY SALTILLO COAH MEX                                            México                                            Compra54392402120
25   5439240212636007202108301113270000003500000000000000  648720100135265461001000661983          OXXO TAMPIQUITO        SAN PEDRO GAR MEX                                            México                                            Compra54392402120
25   5439240212636007202108301120340000007253000000000000  9487455P1TQm8t8sZgK01000662168          ORSAN D NTE            SN PEDRO GARZ MEX                                            México                                            Compra54392402120
25   5439240212636007202108301121000000007253000000000000  9487455aLWNZwnud68H01000662188          ORSAN D NTE            SN PEDRO GARZ MEX                                            México                                            Compra54392402120
25   543924021548800020210830123100000000218680000000000016014600012423030772801000662507           AMZN Digital           888-802-3080  WA                                    Estados Unidos                                            Compra54392402150
25   543924021995000520210830123337000000017000000000000033719500012426060868401051000000           APPLE.COM/BILL         866-712-7753  CA                                    Estados Unidos                              Not sufficient funds54392402190
25   543924021995000520210830123337000000017000000000000033719500012426060868401051000000           APPLE.COM/BILL         866-712-7753  CA                                    Estados Unidos                              Not sufficient funds54392402190
25   543924021995000520210830123337000000017000000000000033719500012426060868401051000000           APPLE.COM/BILL         866-712-7753  CA                                    Estados Unidos                              Not sufficient funds54392402190
25   5439240205664008202108301147510000000900000000000000  760483200000015033401000663019          SECR FIN GOB EDO E COM CD VICTORIA T MEX                                            México                                            Compra54392402050
25   5439240220846002202108301252520000011704500000000000  5012356RHWQU9YvhWqF01000665188          GAS RUDAMETKIN REFORMA ENSENADA BCN  MEX                                            México                                            Compra54392402200
25   5439240212636007202108300137130000003570000000000000  797109600000009867101000666795          OFFICEMAX SAN AGUSTIN  SAN PEDRO GAR MEX                                            México                                            Compra54392402120
25   5439240212636007202108301357010000007670000000000000  554967000000016067601000667513          WAL MART VALLE OTE     MONTERREY NL  MEX                                            México                                            Compra54392402120
25   5439240222970008202108301441310000000624100000000000  814548151836168893401000669252          D LOCAL*DIDI MOBILITY  MEXICO CITY   MEX                                            México                                            Compra54392402220
25   5439240220705000202108301449010000008734000000000000  418837021242097560501000669561          FIESTA INN CUAUTITLAN  CUAUTITLAN IZ MEX                                            México                                            Compra54392402200
25   5439240205664008202108301608190000001000000000000000  827746600000000009601000672586          HELADERIA KINI S       MATAMOROS TAM MEX                                            México                                            Compra54392402050
25   5439240219732007202108301629480000015940000000000000  084221177833540317301000673410          REST LOS PORTALES      CIUDAD DE MEX MEX                                            México                                            Compra54392402190
25   5439240212636007202108301639330000000590000000000000  554967000000007368901000673791          WAL MART VALLE OTE     MONTERREY NL  MEX                                            México                                            Compra54392402120
25   5439240212636007202108301700260000003620000000000000  927718700000000002601000674569          SALA BEETHOVEN         SN P GARZA GA MEX                                            México                                            Compra54392402120
25   5439240219618008202108301711170000004070000000000000  440038800135371619401000675033          OXXO LA CAPITAL MTY    MONTERREY NL  MEX                                            México                                            Compra54392402190
25   543924021548800020210830183059000000087390000000000016014600012424242209301000675740           AMZN Digital           888-802-3080  WA                                    Estados Unidos                                            Compra54392402150
25   5439240212636007202108301748030000021950000000000000  738910808301748038901000676387          NETPAY *COMET TINTORER SAN PEDRO GAR MEX                                            México                                            Compra54392402120
25   5439240224881005202108301802340000004500000000000000  845091693836646739001000676917          MERPAGO*AGREGADOR      CIUDAD DE MEX MEX                                            México                                            Compra54392402240
25   5439240220670006202108301812540000001475000000000000  222971400000005235201000677350          WAL MART SAN MARCOS    CUAUTITLAN EM MEX                                            México                                            Compra54392402200
25   5439240212582003202108301818480000001060000000000000  724194344832082254301000677576          CONCESIONARIA AUT MTY  SANTA CATARIN MEX                                            México                                            Compra54392402120
25   5439240222970008202108301837300000000498000000000000  814548151836203669901000678285          D LOCAL*DIDI MOBILITY  MEXICO CITY   MEX                                            México                                            Compra54392402220
25   5439240219950005202108301838430000000990000000000000  797911251836203835201051000000          AMAZON MX              MEXICO CITY   MEX                                            México                              Not sufficient funds54392402190
25   5439240219950005202108301838430000000990000000000000  797911251836203835201051000000          AMAZON MX              MEXICO CITY   MEX                                            México                              Not sufficient funds54392402190
25   5439240219950005202108301838430000000990000000000000  797911251836203835201051000000          AMAZON MX              MEXICO CITY   MEX                                            México                              Not sufficient funds54392402190
25   5439240218954008202108301838460000000990000000000000  797911267836649361001051000000          AMAZON MX              MEXICO CITY   MEX                                            México                              Not sufficient funds54392402180
25   5439240218954008202108301838460000000990000000000000  797911267836649361001051000000          AMAZON MX              MEXICO CITY   MEX                                            México                              Not sufficient funds54392402180
25   5439240218954008202108301838460000000990000000000000  797911267836649361001051000000          AMAZON MX              MEXICO CITY   MEX                                            México                              Not sufficient funds54392402180
25   5439240224881005202108301838490000000990000000000000  797911267836649367201000678338          AMAZON MX              MEXICO CITY   MEX                                            México                                            Compra54392402240
25   5439240220890000202108301842360000002300000000000000  502812100590576163701000678474          SORIANA59 LA PUERTA    SANTA CATARIN MEX                                            México                                            Compra54392402200
25   543924020720700420210830200537000000315780000000000072000048512420046235001000679364           USS MIDWAY MUSEUM      SAN DIEGO     CA                                    Estados Unidos                                            Compra54392402070
25   5439240212582003202108301907490000066926200000000000  827638308301907493501000679452          NETPAY*VIVA AEROBUS    APODACA NL    MEX                                            México                                            Compra54392402120
25   543924020720700420210830204835000000605870000000000000098402400007106475001000681056           BURGER LOUNGE 1004     SAN DIEGO     CA                                    Estados Unidos                                            Compra54392402070
25   5439240218444000202108302006270000004210000000000000  763638400000000002001000681829          YAMATO                 MONTERREY NL  MEX                                            México                                            Compra54392402180
25   5439240218444000202108302011300000001200000000000000  867753077833549182101000682043          TEO BURGER             MONTERREY NL  MEX                                            México                                            Compra54392402180
25   5439240212701009202108302017130000005720000000000000  841963170269308016801000682288          HEB SAN PEDRO          SN PEDRO GARZ MEX                                            México                                            Compra54392402120
25   5439240218139006202108302020010000008140000000000000  712337600036764583401008000000          PAGO MI TELMEX         MEXICO CITY   MEX                                            México                                 Tarjeta Bloqueada54392402180
25   5439240218139006202108302020010000008140000000000000  712337600036764583401008000000          PAGO MI TELMEX         MEXICO CITY   MEX                                            México                                 Tarjeta Bloqueada54392402180
25   5439240218139006202108302020010000008140000000000000  712337600036764583401008000000          PAGO MI TELMEX         MEXICO CITY   MEX                                            México                                 Tarjeta Bloqueada54392402180
25   543924021995000520210830223232000000017000000000000033719500012437777012001051000000           APPLE.COM/BILL         866-712-7753  CA                                    Estados Unidos                              Not sufficient funds54392402190
25   543924021995000520210830223232000000017000000000000033719500012437777012001051000000           APPLE.COM/BILL         866-712-7753  CA                                    Estados Unidos                              Not sufficient funds54392402190
25   543924021995000520210830223232000000017000000000000033719500012437777012001051000000           APPLE.COM/BILL         866-712-7753  CA                                    Estados Unidos                              Not sufficient funds54392402190
25   5439240211471000202108302208090000040348000000000000000000000      14352802000686168          BANCO SANTANDER        TLALPAN       MEX                                            México                                        Retiro ATM54392402110
9900000060000000000000000000000000000000000000000000000000000000000000000000000000000000000000000000000000000000000000000000000000000000000000000000000000000000000000000000000000000000000000000000000000000000000000000000000000000000000000000000000000
