19LOG_ACT2021071500000000000000000000000000000000000000000000000000000000000000000000000000000000000000000000000000000000000000000000000000000000000000000000000000000000000000000000000000000000000000000000000000000000000000000000000000000000000000000
25   5439240218207001202107150110580000000990000000000000  797911266811687268601051000000          AMAZON MX              MEXICO CITY   MEX                                            México                              Not sufficient funds54392402180
25   5439240218207001202107150110580000000990000000000000  797911266811687268601051000000          AMAZON MX              MEXICO CITY   MEX                                            México                              Not sufficient funds54392402180
25   5439240218936005202107151014050000001190000000000000 2544822500000000575501008000000          WWW.F1.COM             ZZZZZZZZZZZZZ GBR                                       Reino Unido                                 Tarjeta Bloqueada54392402180
25   5439240218936005202107151014050000001190000000000000 2544822500000000575501008000000          WWW.F1.COM             ZZZZZZZZZZZZZ GBR                                       Reino Unido                                 Tarjeta Bloqueada54392402180
25   543924021136600220210715113014000002767880000000000015672491600000000056001000112976          CAMBIO DENTAL,S L      ONDA          ESP                                            España                                            Compra54392402110
25   543924021136600220210715121829000001853060000000000015613329000000000861301000113141          NUBES DE AZUCAR        ONDA          ESP                                            España                                            Compra54392402110
25   543924021136600220210715125121000000296900000000000034869918200000000728801000113271          CA PANETE              ONDA          ESP                                            España                                            Compra54392402110
25   5439240220890000202107150701100000007636400000000000  400219100204225121801000113721          PETROMAX ES12434 HIGU  RAMOS ARIZPE  MEX                                            México                                            Compra54392402200
25   5439240224881005202107150706070000005490000000000000  716162500000865131301000113724          VS TELCEL 018001200006 CIUDAD DE MEX MEX                                            México                                            Compra54392402240
25   5439240220670006202107150712510000001160000000000000  131524121196045563801000113787          STARBUCKS TAMPICO HGO  TAMPICO TAMPS MEX                                            México                                            Compra54392402200
25   543924021975600620210715073325000005017400000000000000000000040390024610302000113987          SUC. INBURSA MIGUEL A.  MEXICO DF ME MEX                                            México                                        Retiro ATM54392402190
25   5439240220846002202107150735040000000450000000000000  209144521196085275501000113998          FIESTA INN TAMPICO     TAMPICO TAMPS MEX                                            México                                            Compra54392402200
25   5439240220846002202107150931230000001420000000000000  792751749653890969201000115889          CLIP MX* 29  DELI SAZO CIUDAD DE MEX MEX                                            México                                            Compra54392402200
25   5439240212582003202107150937550000080416100000000000  162176275NBPGULFN5N01000116059          VIVA AEROBUS CIB       APODACA       MEX                                            México                                            Compra54392402120
25   5439240212582003202107150946350000010500000000000000  162176276GV49TNQA2701000116258          VIVA AEROBUS CIB       APODACA       MEX                                            México                                            Compra54392402120
25   5439240220670006202107150949390000002360000000000000  792751731938868780701000116327          CLIP MX* 29  DELI SAZO CIUDAD DE MEX MEX                                            México                                            Compra54392402200
25   5439240207356009202107150958510000003000000000000000  792749605399290444201000116527          CLIP MX*MEDICA COLON   CIUDAD DE MEX MEX                                            México                                            Compra54392402070
25   5439240297320006202107151001490000000600000000000000  671079207151006251101000116576          BENAVIDES SUCHIATE     SN PEDRO GARZ MEX                                            México                                            Compra54392402970
25   5439240205975008202107151020330000041790000000000000000000000        326102000117098          SUC MATAMOROS          MATAMOROS     MEX                                            México                                        Retiro ATM54392402050
25   543924022417800620210715084127000000177000000000000050BS2HBLZ07150085572001051000000          RAPPI STARBUCKS XO 387 +525563305020 MEX                                            México                              Not sufficient funds54392402240
25   543924022417800620210715084127000000177000000000000050BS2HBLZ07150085572001051000000          RAPPI STARBUCKS XO 387 +525563305020 MEX                                            México                              Not sufficient funds54392402240
25   543924022623500220210715120500000002107470000000000087921000062879210420301000120450           H-E-B #263             BROWNSVILLE   TX                                    Estados Unidos                                            Compra54392402260
25   5439240220670006202107151218320000002740000000000000  827109600032134639001000120880          CARLS JR HIDALGO       TAMPICO TAMPS MEX                                            México                                            Compra54392402200
25   5439240220677001202107151225130000001590400000000000  792751715374838165101000121109          CLIP MX* 29  DELI SAZO CIUDAD DE MEX MEX                                            México                                            Compra54392402200
25   5439240219732007202107151226160000009289500000000000  836284121196026444101000121142          KARZO GASOL ES DIAGONA MATAMOROS TAM MEX                                            México                                            Compra54392402190
25   5439240220677001202107151227040000001910000000000000  792751752968313248501000121176          CLIP MX* 29  DELI SAZO CIUDAD DE MEX MEX                                            México                                            Compra54392402200
25   5439240212582003202107151244140000002560000000000000  443824801086507151201000121814          CINEPOLIS DULCERIA     MORELIA MICH  MEX                                            México                                            Compra54392402120
25   5439240220670006202107151248190000003985000000000000  904878600080596751601000121977          HOME DEPOT             TAMPICO TAMPS MEX                                            México                                            Compra54392402200
25   5439240220071007202107151253410000002070000000000000  541281262637162156001000122210          SEARS CE COMERCIO ELEC MEXICO CITY   MEX                                            México                                            Compra54392402200
25   5439240220705000202107151307470000000125000000000000  639642800123818796701000122816          OXXO PTO ALTAMIRA      ALTAMIRA TAMP MEX                                            México                                            Compra54392402200
25   5439240207207004202107151322550000000790000000000000  731646300000000015401000123445          PIZZA LIT CAES PZA M 2 OAXACA DE JUA MEX                                            México                                            Compra54392402070
25   543924021052200120210715203302000000787070000000000017514636400000002082101000123849          MYDEA                  VALENCIA      ESP                                            España                                            Compra54392402100
25   543924021206200620210715215448000000156810000000000052702100211961944617201000127246           Subway 21973           Brownsville   TX                                    Estados Unidos                                            Compra54392402120
25   5439240223883002202107151514240000002017000000000000  4186544q6f1gzbclNyM01000128074          F273 FRAICHE SAN COSME CIUDAD DE MEX MEX                                            México                                            Compra54392402230
25   543924022388300220210715153508000005017400000000000000000000000100017231102000128893          SANBORNS PLAZA GALERIA SDISTRITO FED MEX                                            México                                        Retiro ATM54392402230
25   5439240222935001202107151601440000002100000000000000  086403321196050956301000129976          VIPS MASARYK           MEXICO CITY   MEX                                            México                                            Compra54392402220
25   5439240223883002202107151603580000001170000000000000  493876762638303857001000130092          SANBORNS               MEXICO CITY   MEX                                            México                                            Compra54392402230
25   5439240222970008202107151630020000001150000000000000  788982491129373129701008000000          AME*SPOTIFY CR         MEXICO CITY   MEX                                            México                                 Tarjeta Bloqueada54392402220
25   5439240222970008202107151630020000001150000000000000  788982491129373129701008000000          AME*SPOTIFY CR         MEXICO CITY   MEX                                            México                                 Tarjeta Bloqueada54392402220
25   5439240223681000202107151630210000001630000000000000  647212000123880655001000131147          OXXO LIB CD VISTORIA   LINARES NL    MEX                                            México                                            Compra54392402230
25   5439240224881005202107151642550000001890000000000000  436017806070984243701000131528          CHEDRAUI 141 MEX COPIL MEXICO CITY   MEX                                            México                                            Compra54392402240
25   5439240207396005202107151708180000015674500000000000  7712385UWb00EHCesK401000132701          REST ARGENTINO POLANCO CIUDAD DE MEX MEX                                            México                                            Compra54392402070
25   5439240297320006202107151715270000020000000000000000  155830359684525243601000132984          DR ARECHAVALETA        SAN PEDRO GAR MEX                                            México                                            Compra54392402970
25   5439240224881005202107151719390000005311700000000000000000000      00322502000133265          H S B C                COYOACAN, CD  MEX                                            México                                        Retiro ATM54392402240
25   5439240207396005202107151737060000009664000000000000  624395000000002558801000133853          SUPERAMA PQUES POLANCO MEXICO CITY   MEX                                            México                                            Compra54392402070
25   543924022623500220210715180053000004476130000000000044459000007152301003001000134840           SAMS CLUB #8126        BROWNSVILLE   TX                                    Estados Unidos                                            Compra54392402260
25   5439240219618008202107151815570000001490000000000000  788982491129392094001000135445          AME*SPOTIFY CR         MEXICO CITY   MEX                                            México                                            Compra54392402190
25   5439240223681000202107151825270000007400000000000000  410966978020003687801000135868          CARLS JR SAN PEDRO     SAN PEDRO GAR MEX                                            México                                            Compra54392402230
25   5439240220846002202107151848310000002670000000000000  193405821196034135501008000000          OFFICE DEPOT TAMPICO   TAMPICO TAMPS MEX                                            México                                 Tarjeta Bloqueada54392402200
25   5439240220846002202107151848310000002670000000000000  193405821196034135501008000000          OFFICE DEPOT TAMPICO   TAMPICO TAMPS MEX                                            México                                 Tarjeta Bloqueada54392402200
25   5439240220846002202107151848590000002670000000000000  193405821196034147701008000000          OFFICE DEPOT TAMPICO   TAMPICO TAMPS MEX                                            México                                 Tarjeta Bloqueada54392402200
25   5439240220846002202107151848590000002670000000000000  193405821196034147701008000000          OFFICE DEPOT TAMPICO   TAMPICO TAMPS MEX                                            México                                 Tarjeta Bloqueada54392402200
25   5439240219618008202107151858220000001580000000000000  440038800123930228301000137438          OXXO LA CAPITAL MTY    MONTERREY NL  MEX                                            México                                            Compra54392402190
25   5439240220670006202107151904340000002390000000000000  806008200000000065501000137691          CHURCHS CHIKEN T1      TAMPICO TAMPS MEX                                            México                                            Compra54392402200
25   5439240220670006202107151917380000000800000000000000  639646900123937608301000138360          OXXO ROSALES           TAMPICO TAMPS MEX                                            México                                            Compra54392402200
25   543924021147100020210715203708000000754980000000000024266100011973434872201008000000           SQ *CARLO'S BAKERY TIM New York      NY                                    Estados Unidos                                 Tarjeta Bloqueada54392402110
25   543924021147100020210715203708000000754980000000000024266100011973434872201008000000           SQ *CARLO'S BAKERY TIM New York      NY                                    Estados Unidos                                 Tarjeta Bloqueada54392402110
25   543924021147100020210715203709000000754980000000000024266100011976767658801008000000           SQ *CARLO'S BAKERY TIM New York      NY                                    Estados Unidos                                 Tarjeta Bloqueada54392402110
25   543924021147100020210715203709000000754980000000000024266100011976767658801008000000           SQ *CARLO'S BAKERY TIM New York      NY                                    Estados Unidos                                 Tarjeta Bloqueada54392402110
25   5439240220677001202107152038180000005310000000000000  733139900000000034601000142238          REST WING DADDY TAMPIC TAMPICO TAMPS MEX                                            México                                            Compra54392402200
25   5439240224178006202107152109530000005020000000000000  440536100040749533401000143527          HOME DEPOT GARZA GARCI SN PEDRO GARZ MEX                                            México                                            Compra54392402240
25   543924021147100020210715221032000001928030000000000044450770007160211522601000143562           CVS/PHARMACY #07186    NEW YORK      NY                                    Estados Unidos                                            Compra54392402110
25   5439240219950005202107152123220000001560000000000000  679367300123983867601000144033          OXXO MONSERRAT         MEXICO CITY   MEX                                            México                                            Compra54392402190
25   5439240224178006202107152245060000004000000000000000  821006000000000022501000146579          TACOS ATARANTADOS      SN PEDRO GARZ MEX                                            México                                            Compra54392402240
25   5439240220870002202107152247110000006435000000000000  657917100124001349101008000000          OXXO VALLE DE GUADALAJ GUADALUPE NL  MEX                                            México                                 Tarjeta Bloqueada54392402200
25   5439240220870002202107152247110000006435000000000000  657917100124001349101008000000          OXXO VALLE DE GUADALAJ GUADALUPE NL  MEX                                            México                                 Tarjeta Bloqueada54392402200
25   543924021147100020210715235216000001738000000000000024266100011977070940801000146774           SQ *CLOUD SOCIAL       New York      NY                                    Estados Unidos                                            Compra54392402110
9900000067000000000000000000000000000000000000000000000000000000000000000000000000000000000000000000000000000000000000000000000000000000000000000000000000000000000000000000000000000000000000000000000000000000000000000000000000000000000000000000000000
