19LOG_ACT2021082900000000000000000000000000000000000000000000000000000000000000000000000000000000000000000000000000000000000000000000000000000000000000000000000000000000000000000000000000000000000000000000000000000000000000000000000000000000000000000
25   5439240211181005202108290001260000021000000000000000  782674008290001261601000624773          NETPAY*CASAGRANDE      SN PEDRO GARZ MEX                                            México                                            Compra54392402110
25   5439240207396005202108290034090000048980000000000000  843462200000000039701000625193          LA BUENA BARRA         CIUDAD DE MEX MEX                                            México                                            Compra54392402070
25   5439240220870002202108290053310000002179500000000000  814548151835963832601000625444          D LOCAL*DIDI MOBILITY  MEXICO CITY   MEX                                            México                                            Compra54392402200
25   543924021913000420210829022927000000100300000000000018192600012416969641101008000000          FACEBK *QJNRP6T7P2     fb.me/ads     IRL                                           Irlanda                                 Tarjeta Bloqueada54392402190
25   543924021913000420210829022927000000100300000000000018192600012416969641101008000000          FACEBK *QJNRP6T7P2     fb.me/ads     IRL                                           Irlanda                                 Tarjeta Bloqueada54392402190
25   543924021913000420210829022927000000100300000000000018192600012416969641101008000000          FACEBK *QJNRP6T7P2     fb.me/ads     IRL                                           Irlanda                                 Tarjeta Bloqueada54392402190
25   543924021548800020210829053058000000211600000000000023525100012414040822701000627120           AMZN Mktp US           Amzn.com/bill WA                                    Estados Unidos                                            Compra54392402150
25   5439240210522001202108290432270000002660000000000000  454963000000NFIG5KM01000627126          NETFLIX COM 1          MEXICO CITY   MEX                                            México                                            Compra54392402100
25   5439240222970008202108290538180000001763600000000000  814548167836423296501008000000          D LOCAL*DIDI MOBILITY  MEXICO CITY   MEX                                            México                                 Tarjeta Bloqueada54392402220
25   5439240222970008202108290538180000001763600000000000  814548167836423296501008000000          D LOCAL*DIDI MOBILITY  MEXICO CITY   MEX                                            México                                 Tarjeta Bloqueada54392402220
25   5439240222970008202108290538180000001763600000000000  814548167836423296501008000000          D LOCAL*DIDI MOBILITY  MEXICO CITY   MEX                                            México                                 Tarjeta Bloqueada54392402220
25   5439240222970008202108290538210000001763600000000000  4169659u89kp10wljff01008000000          OP*DIDIMX              QUERETARO QRO MEX                                            México                                 Tarjeta Bloqueada54392402220
25   5439240222970008202108290538210000001763600000000000  4169659u89kp10wljff01008000000          OP*DIDIMX              QUERETARO QRO MEX                                            México                                 Tarjeta Bloqueada54392402220
25   5439240222970008202108290538210000001763600000000000  4169659u89kp10wljff01008000000          OP*DIDIMX              QUERETARO QRO MEX                                            México                                 Tarjeta Bloqueada54392402220
25   5439240220870002202108290935240000008488500000000000  563356508290935247901000628973          OXXO GAS ACAPULCO      GUADALUPE NL  MEX                                            México                                            Compra54392402200
25   5439240220890000202108291031410000000280000000000000  633878400135025230901000630009          OXXO SOFYMAR           MONCLOVA COAH MEX                                            México                                            Compra54392402200
25   5439240220670006202108291059050000002540000000000000  228792863025274556301000630631          SANBORN S SAN MARCOS   CUAUTITLAN IZ MEX                                            México                                            Compra54392402200
25   543924022488100520210829180916000000080000000000000026995700012411631100301051000000          BEAT RIDE APP, S.A. DE CMX           MEX                                            México                              Not sufficient funds54392402240
25   543924022488100520210829180916000000080000000000000026995700012411631100301051000000          BEAT RIDE APP, S.A. DE CMX           MEX                                            México                              Not sufficient funds54392402240
25   543924022488100520210829180916000000080000000000000026995700012411631100301051000000          BEAT RIDE APP, S.A. DE CMX           MEX                                            México                              Not sufficient funds54392402240
25   5439240220670006202108291113540000000440000000000000  222971400000000864401000630995          WAL MART SAN MARCOS    CUAUTITLAN EM MEX                                            México                                            Compra54392402200
25   5439240220705000202108291244220000003729000000000000  418837021241095255701000633636          FIESTA INN CUAUTITLAN  CUAUTITLAN IZ MEX                                            México                                            Compra54392402200
25   5439240211181005202108291249120000000950000000000000  4146517XqwJNztAoU5201000633784          TH MAGMA TOWERS        SAN PEDRO GAR MEX                                            México                                            Compra54392402110
25   5439240222970008202108291321190000001763600000000000  814548193836458418901008000000          D LOCAL*DIDI MOBILITY  MEXICO CITY   MEX                                            México                                 Tarjeta Bloqueada54392402220
25   5439240222970008202108291321190000001763600000000000  814548193836458418901008000000          D LOCAL*DIDI MOBILITY  MEXICO CITY   MEX                                            México                                 Tarjeta Bloqueada54392402220
25   5439240222970008202108291321190000001763600000000000  814548193836458418901008000000          D LOCAL*DIDI MOBILITY  MEXICO CITY   MEX                                            México                                 Tarjeta Bloqueada54392402220
25   5439240222970008202108291321220000001763600000000000  4169659efoq3hfae1m501008000000          OP*DIDIMX              QUERETARO QRO MEX                                            México                                 Tarjeta Bloqueada54392402220
25   5439240222970008202108291321220000001763600000000000  4169659efoq3hfae1m501008000000          OP*DIDIMX              QUERETARO QRO MEX                                            México                                 Tarjeta Bloqueada54392402220
25   5439240222970008202108291321220000001763600000000000  4169659efoq3hfae1m501008000000          OP*DIDIMX              QUERETARO QRO MEX                                            México                                 Tarjeta Bloqueada54392402220
25   5439240222970008202108291323280000001763600000000000  814548151836009305801000635019          D LOCAL*DIDI MOBILITY  MEXICO CITY   MEX                                            México                                            Compra54392402220
25   5439240222970008202108291340520000000490100000000000  814548167836457917601000635688          D LOCAL*DIDI MOBILITY  MEXICO CITY   MEX                                            México                                            Compra54392402220
25   5439240223212004202108291319460000004797000000000000AGI4WHVTD08290088891001000639654          UBER* EATS PENDING     CIUDAD DE MEX MEX                                            México                                            Compra54392402230
25   5439240221066006202108291616430000030348000000000000000000000      46157702000641841          BANCO SANTANDER        GUADALUPE     MEX                                            México                                        Retiro ATM54392402210
25   543924021844400020210829175107000000000000000000000037370500012414040988801000643022           APPLE.COM/BILL         866-712-7753  CA                                    Estados Unidos                                            Compra54392402180
25   543924021844400020210829175210000000199000000000000000747700012416969252401000643066           APPLE.COM/BILL         866-712-7753  CA                                    Estados Unidos                                            Compra54392402180
25   5439240220870002202108291656560000036000000000000000  082572987833972625401000643241          MOTEL SAND S           CIUDAD DE MEX MEX                                            México                                            Compra54392402200
25   5439240218139006202108291700180000058028900000000000  173868100000002183601008000000          SAMS SAN JERONIMO      MEXICO CITY   MEX                                            México                                 Tarjeta Bloqueada54392402180
25   5439240218139006202108291700180000058028900000000000  173868100000002183601008000000          SAMS SAN JERONIMO      MEXICO CITY   MEX                                            México                                 Tarjeta Bloqueada54392402180
25   5439240218139006202108291700180000058028900000000000  173868100000002183601008000000          SAMS SAN JERONIMO      MEXICO CITY   MEX                                            México                                 Tarjeta Bloqueada54392402180
25   5439240218139006202108291702200000058028900000000000  173868100000002183701000643445          SAMS SAN JERONIMO      MEXICO CITY   MEX                                            México                                            Compra54392402180
25   5439240220071007202108291712270000002760000000000000  840027000000000009101000643805          KFC LA PASTORA         GUADALUPE NL  MEX                                            México                                            Compra54392402200
25   5439240220870002202108291727480000006015000000000000  648417400135140211501000644381          OXXO TAME              SAN LUIS POTO MEX                                            México                                            Compra54392402200
25   5439240212582003202108291738150000001160000000000000  443824800433908291701000644740          CINEPOLIS DULCERIA     MORELIA MICH  MEX                                            México                                            Compra54392402120
25   5439240207396005202108291745020000014250000000000000  779628758357430091301000644968          FISHER S POLANCO       CIUDAD DE MEX MEX                                            México                                            Compra54392402070
25   5439240220705000202108291842040000005060000000000000  418837021241096055601000646955          FIESTA INN CUAUTITLAN  CUAUTITLAN IZ MEX                                            México                                            Compra54392402200
25   5439240220870002202108291905310000003025000000000000  405271700135166340901000647771          OXXOBENEMERITO SLP     SN LUIS POTOS MEX                                            México                                            Compra54392402200
25   5439240220670006202108291921380000001990000000000000  754120600036634230601000648304          CARLS JR SAN MARCOS    CUAUTITLAN IZ MEX                                            México                                            Compra54392402200
25   543924021844400020210829203412000000075000000000000000747700012426868606001008000000           APPLE.COM/BILL         866-712-7753  CA                                    Estados Unidos                                 Tarjeta Bloqueada54392402180
25   543924021844400020210829203412000000075000000000000000747700012426868606001008000000           APPLE.COM/BILL         866-712-7753  CA                                    Estados Unidos                                 Tarjeta Bloqueada54392402180
25   543924021844400020210829203412000000075000000000000000747700012426868606001008000000           APPLE.COM/BILL         866-712-7753  CA                                    Estados Unidos                                 Tarjeta Bloqueada54392402180
25   5439240220705000202108292217040000001230000000000000  846540400000000053901000653312          REST MADERO SAN MARCOS CUAUTITLAN IZ MEX                                            México                                            Compra54392402200
25   5439240220071007202108292325180000003380000000000000  716753712420425291201000654560          MERCADO PAGO 1         CIUDAD DE MEX MEX                                            México                                            Compra54392402200
25   5439240219950005202108292335320000000932800000000000  4025633gpcnygreht1q01051000000          OP*OPENPAY             SANTIAGO DE Q MEX                                            México                              Not sufficient funds54392402190
25   5439240219950005202108292335320000000932800000000000  4025633gpcnygreht1q01051000000          OP*OPENPAY             SANTIAGO DE Q MEX                                            México                              Not sufficient funds54392402190
25   5439240219950005202108292335320000000932800000000000  4025633gpcnygreht1q01051000000          OP*OPENPAY             SANTIAGO DE Q MEX                                            México                              Not sufficient funds54392402190
25   543924021428900320210829214729000001078440000000000000098002000004611125001051000000          PAYPAL *EPOCH DARKMEDI 02070487706   GBR                                       Reino Unido                              Not sufficient funds54392402140
25   543924021428900320210829214729000001078440000000000000098002000004611125001051000000          PAYPAL *EPOCH DARKMEDI 02070487706   GBR                                       Reino Unido                              Not sufficient funds54392402140
25   543924021428900320210829214729000001078440000000000000098002000004611125001051000000          PAYPAL *EPOCH DARKMEDI 02070487706   GBR                                       Reino Unido                              Not sufficient funds54392402140
25   543924021428900320210829214731000001078440000000000000098002012420421609001051000000          PAYPAL *EPOCH DARKMEDI St. Peter Por GBR                                       Reino Unido                              Not sufficient funds54392402140
25   543924021428900320210829214731000001078440000000000000098002012420421609001051000000          PAYPAL *EPOCH DARKMEDI St. Peter Por GBR                                       Reino Unido                              Not sufficient funds54392402140
25   543924021428900320210829214731000001078440000000000000098002012420421609001051000000          PAYPAL *EPOCH DARKMEDI St. Peter Por GBR                                       Reino Unido                              Not sufficient funds54392402140
9900000061000000000000000000000000000000000000000000000000000000000000000000000000000000000000000000000000000000000000000000000000000000000000000000000000000000000000000000000000000000000000000000000000000000000000000000000000000000000000000000000000
