19LOG_ACT2021072400000000000000000000000000000000000000000000000000000000000000000000000000000000000000000000000000000000000000000000000000000000000000000000000000000000000000000000000000000000000000000000000000000000000000000000000000000000000000000
25   543924021541700920210724004614000000262150000000000000000000012050540344001000420405           WORKING LIVE           954-6837755   FL                                    Estados Unidos                                            Compra54392402150
25   543924021147100020210724124909000001843160000000000000000000000052811073302000422038          HAI BRANCH             KILIMANJARO   TZA                                          Tanzania                                        Retiro ATM54392402110
25   543924021147100020210724140955000002119030000000000082095210312051383134801000422327          ELISA SOLA             DSM           TZA                                             Kenia                                            Compra54392402110
25   543924021147100020210724144652000000303930000000000000025446212051614585201000422505          SAFARI SPA LTD         ARUSHA        TZA                                          Tanzania                                            Compra54392402110
25   543924021147100020210724145159000001009060000000000082095210312051439881201000422531          ELISA SOLA             DSM           TZA                                             Kenia                                            Compra54392402110
25   543924021147100020210724145718000001009060000000000082095210312051439985401000422554          ELISA SOLA             DSM           TZA                                             Kenia                                            Compra54392402110
25   5439240219950005202107240744580000000596400000000000  814548191130623500001000422893          D LOCAL*DIDI MOBILITY  MEXICO CITY   MEX                                            México                                            Compra54392402190
25   5439240223681000202107240758200000002900000000000000  4119218fC8R8mm1vyj001000423023          HOTELES ATM            CELAYA GTO    MEX                                            México                                            Compra54392402230
25   5439240222092001202107240921200000001100000000000000  855676477395168745201051000000          TORTILLERIA NO 1       MONTEMORELOS  MEX                                            México                              Not sufficient funds54392402220
25   5439240222092001202107240921200000001100000000000000  855676477395168745201051000000          TORTILLERIA NO 1       MONTEMORELOS  MEX                                            México                              Not sufficient funds54392402220
25   5439240219950005202107241000180000004156400000000000  716753712051531406701000424843          MERCADO PAGO 1         CIUDAD DE MEX MEX                                            México                                            Compra54392402190
25   5439240205975008202107241006550000001220000000000000  795525677395170133301000425007          FERRETERIA LUCERO      MATAMOROS TAM MEX                                            México                                            Compra54392402050
25   5439240211471000202107241818380000056887900000000000M0000000012051897503001000425251          AIRPORT TRADE CENTRE 1               KEN                                             Kenia                                            Compra54392402110
25   5439240220071007202107241032190000002980000000000000  109863512051572694101000425641          MERCADO PAGO 4         CIUDAD DE MEX MEX                                            México                                            Compra54392402200
25   5439240226235002202107241232050000005842500000000000  197239707241101709301000427580          BENAVIDES S3328 L VILL MATAMOROS TAM MEX                                            México                                            Compra54392402260
25   543924021995000520210724115743000001734220000000000000000000000000000913202000428221          BBVA NO/INFORMADO      CIUDAD DE MEX MEX                                            México                                        Retiro ATM54392402190
25   5439240219732007202107241201410000015450000000000000  932351000000000022501000428346          HEALTHY FEET CENTER    MATAMOROS TAM MEX                                            México                                            Compra54392402190
25   5439240223681000202107241207520000000820000000000000  454690900126088086901000428555          OXXO PROVIDENCIA       CELAYA GTO    MEX                                            México                                            Compra54392402230
25   5439240219732007202107241212230000003525400000000000  625151600143381621301000428713          FARM GUAD SUC 590      MATAMOROS TAM MEX                                            México                                            Compra54392402190
25   5439240218936005202107241221330000000125000000000000  404927800126091410301000429083          OXXOSAN JOSE CUE       PUENTE DE IXT MEX                                            México                                            Compra54392402180
25   5439240220890000202107241244290000008990000000000000  713972900000000068301000429917          HOTEL IBIS MX PERINTE  CUAUTITLAN IZ MEX                                            México                                            Compra54392402200
25   5439240223681000202107241323090000002760000000000000  4023897CfyLMiLvqCrr01000431394          SUBWAY                 QUERETARO QRO MEX                                            México                                            Compra54392402230
25   5439240220890000202107241418480000001360000000000000  713972900000000068501000433561          HOTEL IBIS MX PERINTE  CUAUTITLAN IZ MEX                                            México                                            Compra54392402200
25   5439240212572004202107241320540000042747500000000000  621955407241403513101000433567          BENAVIDES NICOLAS BRAV CULIACAN SIN  MEX                                            México                                            Compra54392402120
25   5439240223681000202107241424000000003640000000000000  808700300000000040101000433773          MAX STORE SHALON2      SANTIAGO DE Q MEX                                            México                                            Compra54392402230
25   5439240223681000202107241501020000004940600000000000  877484600000000037501000435244          ESTACION LUNA Y SOL    SN LUIS DE LA MEX                                            México                                            Compra54392402230
25   5439240219618008202107241557390000001930000000000000  440038800126165604601000437517          OXXO LA CAPITAL MTY    MONTERREY NL  MEX                                            México                                            Compra54392402190
25   5439240297320006202107241620070000029856500000000000  841971183168811349701000438384          HEB VALLE ORIENTE      SN PEDRO GARZ MEX                                            México                                            Compra54392402970
25   5439240297320006202107241623510000000854300000000000  841971177453130994501000438559          HEB VALLE ORIENTE      SN PEDRO GARZ MEX                                            México                                            Compra54392402970
25   5439240215417009202107241700560000018252000000000000  821573700000000003401000439937          RESTAURANT MEDITERRANE REYNOSA TAMPS MEX                                            México                                            Compra54392402150
25   5439240223883002202107241720310000001840000000000000  218077600000000004801000440382          MC DONALD S MARINA NAL CIUDAD DE MEX MEX                                            México                                            Compra54392402230
25   5439240223681000202107241732260000002679900000000000  736287677395191539701000441113          MAX STORE LA ESTANCIA  VILLA DE GUAD MEX                                            México                                            Compra54392402230
25   543924021206200620210724184253000002709020000000000044450117007242240926001000441536           OFFICE DEPOT #3257     BROWNSVILLE   TX                                    Estados Unidos                                            Compra54392402120
25   5439240219732007202107241757440000010244000000000000  100751703620676544401000442153          SORIANA362 LAUROVILLAR MATAMOROS     MEX                                            México                                            Compra54392402190
25   5439240219732007202107241843150000003505000000000000  842086055414157349101000443854          HEB MATAMOROS          MATAMOROS TAM MEX                                            México                                            Compra54392402190
25   5439240220890000202107241859440000001250000000000000  4198566ABq0MMgUDxzl01000444491          LA CASA DE TONO PERINO CUAUTITLAN IZ MEX                                            México                                            Compra54392402200
25   543924021995000520210725020123000000059000000000000052656700012060010449001000444555          GOOGLE  GARENA         London        GBR                                       Reino Unido                                            Compra54392402190
25   5439240219732007202107241906310000006350800000000000  836302321205084930701000444742          KARZO GASOL ES MORELOS MATAMOROS TAM MEX                                            México                                            Compra54392402190
25   543924021995000520210724202746000000025000000000000033719200012064545513801000445494           APPLE.COM/BILL         866-712-7753  CA                                    Estados Unidos                                            Compra54392402190
25   543924021995000520210724202920000000025000000000000031117905612063595387601000445558           APPLE.COM BILL         www.apple.com CA                                    Estados Unidos                                            Compra54392402190
25   543924021995000520210724203123000000025000000000000033719200012064040026701000445644           APPLE.COM/BILL         866-712-7753  CA                                    Estados Unidos                                            Compra54392402190
25   543924021961800820210725032315000000183250000000000026995700012060129592101000447490          RAPPI*RAPPI MEXICO     Mexico City   MEX                                            México                                            Compra54392402190
25   5439240223681000202107242041450000002105000000000000  412749300126262388001000448130          OXXOAUTOPISTA SALTILLO GARCIA NL     MEX                                            México                                            Compra54392402230
9900000043000000000000000000000000000000000000000000000000000000000000000000000000000000000000000000000000000000000000000000000000000000000000000000000000000000000000000000000000000000000000000000000000000000000000000000000000000000000000000000000000
