19LOG_ACT2021082400000000000000000000000000000000000000000000000000000000000000000000000000000000000000000000000000000000000000000000000000000000000000000000000000000000000000000000000000000000000000000000000000000000000000000000000000000000000000000
25   543924021541700920210824004630000000265020000000000000000000012360500070401000448437           WORKING LIVE           954-6837755   FL                                    Estados Unidos                                            Compra54392402150
25   5439240222970008202108240120300000000289400000000000  814548193835674743201000448693          D LOCAL*DIDI MOBILITY  MEXICO CITY   MEX                                            México                                            Compra54392402220
25   543924021136600220210824102418000000503220000000000029774117500000000246501000449246          PALS R S               PALS          ESP                                            España                                            Compra54392402110
25   543924021136600220210824110842000000244420000000000033293891900000001519201000449416          RESATAURANT LA VILA    PALS          ESP                                            España                                            Compra54392402110
25   543924021136600220210824120610000001964950000000000034705288800000000095601000449582          NALU HOME              PALS          ESP                                            España                                            Compra54392402110
25   543924021136600220210824122449000001196940000000000033661362500000000111101000449624          NALU SUMMER MOOD       PALS          ESP                                            España                                            Compra54392402110
25   5439240220670006202108240719280000001060000000000000  101522121236086519201000450135          STARBUCKS SN MARCOS    CUAUTITLAN IZ MEX                                            México                                            Compra54392402200
25   5439240220846002202108240747450000001500000000000000  418837021236082930201000450397          FIESTA INN CUAUTITLAN  CUAUTITLAN IZ MEX                                            México                                            Compra54392402200
25   543924021136600220210824150046000002552040000000000008300208900000001026501000450534          RESTAURANT EL PEDRO    PALS          ESP                                            España                                            Compra54392402110
25   543924020640800920210824165639000000000000000000000026995700012361432158701000452650          UBR PAGOS MEXICO SOCIE CMX           MEX                                            México                                            Compra54392402060
25   5439240220846002202108241003010000004917000000000000  418837021236083177401000452814          FIESTA INN CUAUTITLAN  CUAUTITLAN IZ MEX                                            México                                            Compra54392402200
25   5439240212582003202108241014160000000640000000000000  357206221236088028101000453099          STARBUCKS VASCONCELOS  SN PEDRO GARZ MEX                                            México                                            Compra54392402120
25   5439240225391004202108241022380000005300000000000000  067044893835701460401051000000          ENVIAFLORES COM        MONTERREY NL  MEX                                            México                              Not sufficient funds54392402250
25   5439240225391004202108241022380000005300000000000000  067044893835701460401051000000          ENVIAFLORES COM        MONTERREY NL  MEX                                            México                              Not sufficient funds54392402250
25   5439240225391004202108241022380000005300000000000000  067044893835701460401051000000          ENVIAFLORES COM        MONTERREY NL  MEX                                            México                              Not sufficient funds54392402250
25   5439240206408009202108240827560000001799600000000000MWU4ZT35U08240008613801000453466          UBER* PENDING          CIUDAD DE MEX MEX                                            México                                            Compra54392402060
25   5439240220846002202108241039480000001930000000000000  418837021236083259001000453811          FIESTA INN CUAUTITLAN  CUAUTITLAN IZ MEX                                            México                                            Compra54392402200
25   543924020720700420210824114201000000000000000000000000044538900002189615701000453874           MUNIMOBILE-SFMTA       AUSTIN        TX                                    Estados Unidos                                            Compra54392402070
25   543924020720700420210824114217000000000000000000000000044538900002205265701000453882           MUNIMOBILE-SFMTA       AUSTIN        TX                                    Estados Unidos                                            Compra54392402070
25   5439240206408009202108241042180000030345000000000000  733063987833781776501000453883          HOTEL SAFI VALLE C1    SN PEDRO GARZ MEX                                            México                                            Compra54392402060
25   543924021548800020210824114652000000154440000000000016014600012363535662601000454032           AMZN Digital           888-802-3080  WA                                    Estados Unidos                                            Compra54392402150
25   5439240222970008202108241048250000000632900000000000  814548167835698341801000454071          D LOCAL*DIDI MOBILITY  MEXICO CITY   MEX                                            México                                            Compra54392402220
25   5439240212636007202108241104080000007372600000000000  7574809ywYAUpnuFWnD01000454539          ORSAN DEL NORTE EST 36 MONTERREY NL  MEX                                            México                                            Compra54392402120
25   5439240220705000202108241118040000003982000000000000  418837021236083342401000454933          FIESTA INN CUAUTITLAN  CUAUTITLAN IZ MEX                                            México                                            Compra54392402200
25   5439240220890000202108241119490000000800000000000000  408845108241104224701000455223          BENAV330393VASCMIRAS   SN PEDRO GARZ MEX                                            México                                            Compra54392402200
25   5439240215417009202108241145520000003990000000000000  109863512361612366001000455803          MERCADO PAGO 4         CIUDAD DE MEX MEX                                            México                                            Compra54392402150
25   5439240212636007202108241214190000034098100000000000  841971154104053604501000456652          HEB VALLE ORIENTE      SN PEDRO GARZ MEX                                            México                                            Compra54392402120
25   5439240219950005202108241221540000000477200000000000  814548151835259996701000456881          D LOCAL*DIDI MOBILITY  MEXICO CITY   MEX                                            México                                            Compra54392402190
25   543924021428900320210824202235000010201000000000000012002747212360578199801000456912          CRD*SOCIALPANEL24.COM  Vilnius       LTU                                          Lituania                                            Compra54392402140
25   5439240219931005202108241226290000015301600000000000000000000      74019402000457047          BANCO SANTANDER        MEXICO        MEX                                            México                                        Retiro ATM54392402190
25   543924021428900320210824202756000010201000000000000012002747212360578232201000457098          CRD*SOCIALPANEL24.COM  Vilnius       LTU                                          Lituania                                            Compra54392402140
25   5439240205975008202108241231220000000857700000000000  819834377833323324101000457209          COMERCIALIZ PISOS Y AZ MATAMOROS TAM MEX                                            México                                            Compra54392402050
25   5439240220670006202108241235460000002175800000000000  222971400000001183301000457349          WAL MART SAN MARCOS    CUAUTITLAN EM MEX                                            México                                            Compra54392402200
25   5439240215488000202108241939480000002920000000000000  4143789 1130331411401000457477          PAYPAL3                MEXICO CITY   MEX                                            México                                            Compra54392402150
25   5439240222970008202108241247020000000565900000000000  814548193835718192701000457726          D LOCAL*DIDI MOBILITY  MEXICO CITY   MEX                                            México                                            Compra54392402220
25   5439240212636007202108241248190000002064000000000000  67089459B7Tt4g8aqOS01000457774          CASA ENRIQUE 2         SAN PEDRO NL  MEX                                            México                                            Compra54392402120
25   543924021428900320210824205125000010201000000000000012002747212360578356301000457890          CRD*SOCIALPANEL24.COM  Vilnius       LTU                                          Lituania                                            Compra54392402140
25   543924021428900320210824210611000010201000000000000012002747212360678439801000458435          CRD*SOCIALPANEL24.COM  Vilnius       LTU                                          Lituania                                            Compra54392402140
25   543924021428900320210824210822000010201000000000000012002747212360678452701000458517          CRD*SOCIALPANEL24.COM  Vilnius       LTU                                          Lituania                                            Compra54392402140
25   543924021995000520210824130932000000734220000000000000000000000000000917002000458566          BBVA NO/INFORMADO      CIUDAD DE MEX MEX                                            México                                        Retiro ATM54392402190
25   543924020720700420210824141106000000612060000000000072000060912360019500001000458625           IMPARK00270201A        SAN FRANCISCO CA                                    Estados Unidos                                            Compra54392402070
25   5439240218400002202108241321050000000490000000000000  748922808241321054201000459016          NETPAY*NATURAL         CIUDAD DE MEX MEX                                            México                                            Compra54392402180
25   5439240218099002202108241321400000004390000000000000  239923662982930083601000459054          SANBORNS PATRIOTISMO   MEXICO CITY   MEX                                            México                                            Compra54392402180
25   5439240218569004202108241326200000000540000000000000  648689800133829504201000459228          OXXO SANTIAGO          MONTERREY NL  MEX                                            México                                            Compra54392402180
25   5439240210559003202108241356550000000720000000000000  409792621236090098001008000000          STARBUCKS MIYANA       MEXICO CITY   MEX                                            México                                 Tarjeta Bloqueada54392402100
25   5439240210559003202108241356550000000720000000000000  409792621236090098001008000000          STARBUCKS MIYANA       MEXICO CITY   MEX                                            México                                 Tarjeta Bloqueada54392402100
25   5439240210559003202108241356550000000720000000000000  409792621236090098001008000000          STARBUCKS MIYANA       MEXICO CITY   MEX                                            México                                 Tarjeta Bloqueada54392402100
25   5439240210559003202108241357300000000720000000000000  409792621236090103601008000000          STARBUCKS MIYANA       MEXICO CITY   MEX                                            México                                 Tarjeta Bloqueada54392402100
25   5439240210559003202108241357300000000720000000000000  409792621236090103601008000000          STARBUCKS MIYANA       MEXICO CITY   MEX                                            México                                 Tarjeta Bloqueada54392402100
25   5439240210559003202108241357300000000720000000000000  409792621236090103601008000000          STARBUCKS MIYANA       MEXICO CITY   MEX                                            México                                 Tarjeta Bloqueada54392402100
25   543924021052200120210824210110000000478060000000000001506979200000002627401000460426          LA FARMACIA DELS MASOS PALS          ESP                                            España                                            Compra54392402100
25   5439240214289003202108242107360000000120000000000000  4143785 1130334655601000460663          PAYPAL1                MEXICO CITY   MEX                                            México                                            Compra54392402140
25   543924021136600220210824213510000000623810000000000033730876100000000165101000461737          BAR RESTAURANT CAMPING PALS          ESP                                            España                                            Compra54392402110
25   5439240210559003202108241448420000026991000000000000  170637308285808241401008000000          DEP MARTI EUREKA       CIUDAD DE MEX MEX                                            México                                 Tarjeta Bloqueada54392402100
25   5439240210559003202108241448420000026991000000000000  170637308285808241401008000000          DEP MARTI EUREKA       CIUDAD DE MEX MEX                                            México                                 Tarjeta Bloqueada54392402100
25   5439240210559003202108241448420000026991000000000000  170637308285808241401008000000          DEP MARTI EUREKA       CIUDAD DE MEX MEX                                            México                                 Tarjeta Bloqueada54392402100
25   5439240220705000202108241500090000000340000000000000  222971400000000510801000462753          WAL MART SAN MARCOS    CUAUTITLAN EM MEX                                            México                                            Compra54392402200
25   5439240207396005202108241531100000002084300000000000  624395000000002030201000463902          SUPERAMA PQUES POLANCO MEXICO CITY   MEX                                            México                                            Compra54392402070
25   5439240212636007202108241644110000005581400000000000  842073828886515827501000466472          HEB CHIPINQUE          SN PEDRO GARZ MEX                                            México                                            Compra54392402120
25   543924021548800020210824174651000000286490000000000016014600012363030556701000466561           AMZN Digital           888-802-3080  WA                                    Estados Unidos                                            Compra54392402150
25   5439240219618008202108241710530000001920000000000000  794675900207769403801000467373          7 ELEVEN WASHINGTON    MONTERREY NL  MEX                                            México                                            Compra54392402190
25   5439240215417009202108241711450000003440000000000000  109863512362240407501000467408          MERCADO PAGO 4         CIUDAD DE MEX MEX                                            México                                            Compra54392402150
25   5439240215417009202108241713130000002670000000000000  109863512362211370701000467459          MERCADO PAGO 4         CIUDAD DE MEX MEX                                            México                                            Compra54392402150
25   5439240215488000202108250018530000005820700000000000  4143789 2029809924201000467663          PAYPAL3                MEXICO CITY   MEX                                            México                                            Compra54392402150
25   5439240220670006202108241758550000000780000000000000  101522121236092334401000469174          STARBUCKS SN MARCOS    CUAUTITLAN IZ MEX                                            México                                            Compra54392402200
25   5439240219744002202108241813510000000200000000000000  797911251835308250001000469717          AMAZON MX              MEXICO CITY   MEX                                            México                                            Compra54392402190
25   5439240220705000202108241954120000001630000000000000  228792862985285288601000473511          SANBORN S SAN MARCOS   CUAUTITLAN IZ MEX                                            México                                            Compra54392402200
25   5439240220846002202108240837010000008608500000000000  223110800000003762601000475060          OFFICE MAX SN MARCOS   CUAUTITLAN IZ MEX                                            México                                            Compra54392402200
25   5439240218400002202108242048260000004708000000000000  973920287833804595501000475451          GASOL ORSAN DEL NORTE  MONTERREY NL  MEX                                            México                                            Compra54392402180
25   5439240218400002202108242110330000002100000000000000  814651432872789296301000476146          SHOPNET                MONTERREY NL  MEX                                            México                                            Compra54392402180
25   5439240219950005202108242129420000001667500000000000  809473067835784882001000476793          AME*DIDI FOOD E        CIUDAD DE MEX MEX                                            México                                            Compra54392402190
25   5439240215417009202108242136230000004950700000000000  716753712370267876801000476974          MERCADO PAGO 1         CIUDAD DE MEX MEX                                            México                                            Compra54392402150
25   5439240223212004202108241942430000000399400000000000MWU4ZT35U08250028798901000477160          UBER* PENDING          CIUDAD DE MEX MEX                                            México                                            Compra54392402230
25   5439240220846002202108242146420000009365000000000000  228792862985960217401000477282          SANBORN S SAN MARCOS   CUAUTITLAN IZ MEX                                            México                                            Compra54392402200
25   5439240220705000202108242147030000007805000000000000  228792862985962382101000477289          SANBORN S SAN MARCOS   CUAUTITLAN IZ MEX                                            México                                            Compra54392402200
25   5439240207396005202108242147570000057420000000000000  865786000000000000301000477299          REST STK MASARYK       CIUDAD DE MEX MEX                                            México                                            Compra54392402070
25   5439240219744002202108242213490000001700500000000000  797912893835795862401000477959          AMAZON MX MARKETPLACE  MEXICO CITY   MEX                                            México                                            Compra54392402190
25   5439240218569004202108242237220000000255000000000000  648659100133973448201000478508          OXXO PEDREGAL LA SILLA MONTERREY NL  MEX                                            México                                            Compra54392402180
25   543924021548800020210824234458000000272620000000000016014600012373939379201000478684           AMZN Digital           888-802-3080  WA                                    Estados Unidos                                            Compra54392402150
25   543924021548800020210825001458000000390960000000000023515800012374545486901000479263           AMZN Mktp US           Amzn.com/bill WA                                    Estados Unidos                                            Compra54392402150
9900000080000000000000000000000000000000000000000000000000000000000000000000000000000000000000000000000000000000000000000000000000000000000000000000000000000000000000000000000000000000000000000000000000000000000000000000000000000000000000000000000000
