19LOG_ACT2021071300000000000000000000000000000000000000000000000000000000000000000000000000000000000000000000000000000000000000000000000000000000000000000000000000000000000000000000000000000000000000000000000000000000000000000000000000000000000000000
25   5439240219931005202107130226070000002400900000000000  840743491129013035501000049318          D LOCAL*MAILCHIMP      CIUDAD DE MEX MEX                                            México                                            Compra54392402190
25   5439240218936005202107131012300000001190000000000000 2544822500000000196801008000000          WWW.F1.COM             ZZZZZZZZZZZZZ GBR                                       Reino Unido                                 Tarjeta Bloqueada54392402180
25   5439240218936005202107131012300000001190000000000000 2544822500000000196801008000000          WWW.F1.COM             ZZZZZZZZZZZZZ GBR                                       Reino Unido                                 Tarjeta Bloqueada54392402180
25   543924021548800020210713061905000000214900000000000016014600011944040139001000049840           Kindle Svcs            866-321-8851  WA                                    Estados Unidos                                            Compra54392402150
25   543924021136600220210713135955000001060550000000000025601217000000000147101000050222          FRUITES SILVIA I EVA   LA VALL D'UIX ESP                                            España                                            Compra54392402110
25   5439240220670006202107130749140000001080000000000000  131524121194028930801000050619          STARBUCKS TAMPICO HGO  TAMPICO TAMPS MEX                                            México                                            Compra54392402200
25   5439240220060000202107130835020000001960000000000000  404738600000MIK804K01008000000          NETFLIX COM CR         MEXICO CITY   MEX                                            México                                 Tarjeta Bloqueada54392402200
25   5439240220060000202107130835020000001960000000000000  404738600000MIK804K01008000000          NETFLIX COM CR         MEXICO CITY   MEX                                            México                                 Tarjeta Bloqueada54392402200
25   5439240205975008202107130835070000000995000000000000  100709503511213120801000051193          SORIANA351 CANALES     MATAMOROS TAM MEX                                            México                                            Compra54392402050
25   5439240223681000202107130852430000000385000000000000  644029100123313071001000051447          OXXO DEPORTIVO SUR     ALTAMIRA TAMP MEX                                            México                                            Compra54392402230
25   5439240205975008202107130949130000000973200000000000  819834387323708450001000052666          COMERCIALIZ PISOS Y AZ MATAMOROS TAM MEX                                            México                                            Compra54392402050
25   543924022625300520210713173654000000000000000000000026995700011941531724401008000000          UBR PAGOS MEXICO SOCIE CMX           MEX                                            México                                 Tarjeta Bloqueada54392402260
25   543924022625300520210713173654000000000000000000000026995700011941531724401008000000          UBR PAGOS MEXICO SOCIE CMX           MEX                                            México                                 Tarjeta Bloqueada54392402260
25   5439240205975008202107131121550000057290000000000000000000000        257602000054948          SUC MATAMOROS          MATAMOROS     MEX                                            México                                        Retiro ATM54392402050
25   5439240210846004202107131144310000001300000000000000  747497077394792614801000055496          AUTOLAVADO BOSQUES     SN PEDRO GARZ MEX                                            México                                            Compra54392402100
25   5439240210846004202107131144540000001500000000000000  747497087323712305901000055508          AUTOLAVADO BOSQUES     SN PEDRO GARZ MEX                                            México                                            Compra54392402100
25   5439240205975008202107131212050000000240000000000000  795525677394793666501000056170          FERRETERIA LUCERO      MATAMOROS TAM MEX                                            México                                            Compra54392402050
25   5439240205975008202107131218560000000620000000000000  795525687323713616901000056367          FERRETERIA LUCERO      MATAMOROS TAM MEX                                            México                                            Compra54392402050
25   5439240210846004202107131230270000021990000000000000  760742100000000001501000056706          NECK AND NECK          SN PEDRO GARZ MEX                                            México                                            Compra54392402100
25   5439240205975008202107131230500000000170000000000000  795525677394794400601000056719          FERRETERIA LUCERO      MATAMOROS TAM MEX                                            México                                            Compra54392402050
25   5439240226253005202107131317430000011730000000000000  845452400000000069601000058254          MARRIOTT QUERETARO     SANTIAGO DE Q MEX                                            México                                            Compra54392402260
25   5439240219732007202107131328080000006369000000000000  861416111941804735601000058590          REST MARISCOS DON GOYO MATAMOROS TAM MEX                                            México                                            Compra54392402190
25   543924022623500220210713143840000000669560000000000054292980611944982133101000058987           JASONS DELI #621       BROWNSVILLE   TX                                    Estados Unidos                                            Compra54392402260
25   543924022417800620210713114453000000167000000000000050BS2HBLZ07130079694301000059203          RAPPI PEACE  LOVE  GOM +525563305020 MEX                                            México                                            Compra54392402240
25   5439240220677001202107131402340000001360000000000000  792751776500842489301008000000          CLIP MX* 29  DELI SAZO CIUDAD DE MEX MEX                                            México                                 Tarjeta Bloqueada54392402200
25   5439240220677001202107131402340000001360000000000000  792751776500842489301008000000          CLIP MX* 29  DELI SAZO CIUDAD DE MEX MEX                                            México                                 Tarjeta Bloqueada54392402200
25   5439240220677001202107131403280000001360000000000000  792751707637044087401000059915          CLIP MX* 29  DELI SAZO CIUDAD DE MEX MEX                                            México                                            Compra54392402200
25   5439240211366002202107131214370000006225900000000000FUUOVH8HQ07130083059901000060308          LALPINO PEDIDO ONLINE  +34686390929  ESP                                            España                                            Compra54392402110
25   5439240219618008202107131428010000002600000000000000  827221500000000036901000060793          KRYPTON VAPE STORE     MONTERREY NL  MEX                                            México                                            Compra54392402190
25   5439240219618008202107131438280000004000000000000000  811455891129067476501000061187          OPLINEA*GULF ES DAFER  MONTERREY NL  MEX                                            México                                            Compra54392402190
25   5439240219618008202107131448300000002090000000000000  440038800123392145001000061549          OXXO LA CAPITAL MTY    MONTERREY NL  MEX                                            México                                            Compra54392402190
25   5439240220670006202107131453130000014285600000000000  904878600040020568601008000000          HOME DEPOT             TAMPICO TAMPS MEX                                            México                                 Tarjeta Bloqueada54392402200
25   5439240220670006202107131453130000014285600000000000  904878600040020568601008000000          HOME DEPOT             TAMPICO TAMPS MEX                                            México                                 Tarjeta Bloqueada54392402200
25   5439240220670006202107131453530000014285600000000000  904878600040020568801000061730          HOME DEPOT             TAMPICO TAMPS MEX                                            México                                            Compra54392402200
25   5439240215417009202107131514500000008320000000000000  792751782412886538701000062466          CLIP MX*CLAMA          CIUDAD DE MEX MEX                                            México                                            Compra54392402150
25   5439240218614008202107131519360000000990000000000000  797911251397864649201051000000          AMAZON MX              MEXICO CITY   MEX                                            México                              Not sufficient funds54392402180
25   5439240218614008202107131519360000000990000000000000  797911251397864649201051000000          AMAZON MX              MEXICO CITY   MEX                                            México                              Not sufficient funds54392402180
25   5439240220670006202107131624150000000785000000000000  639642800123416639901000064868          OXXO PTO ALTAMIRA      ALTAMIRA TAMP MEX                                            México                                            Compra54392402200
25   5439240220670006202107131801290000000340000000000000  639706100123440903701000068200          OXXO CHARRO            TAMPICO TAMPS MEX                                            México                                            Compra54392402200
25   5439240207396005202107131814190000026737500000000000  701618500000000006501000068609          MORTONS THE STEAKHOUSE MEXICO CITY   MEX                                            México                                            Compra54392402070
25   5439240223681000202107131837400000011396000000000000  113275359516659632201000069410          EL ASADOR TERRAZA      TAMPICO       MEX                                            México                                            Compra54392402230
25   5439240215488000202107140142210000000990000000000000  4143789 2527017544301000069558          PAYPAL3                MEXICO CITY   MEX                                            México                                            Compra54392402150
25   5439240220670006202107131912490000001250000000000000  839750777394810671901000070712          SUBWAY HERRADURA       TAMPICO TAMPS MEX                                            México                                            Compra54392402200
25   543924021206200620210713191333000000354660000000000000002144211950040912201000070736           LONGBOARD BAR & GRILL  SOUTH PADRE I TX                                    Estados Unidos                                            Compra54392402120
25   5439240223681000202107131917370000003435000000000000  639764000123463127501000070913          OXXO SAN PEDRO         TAMPICO TAMPS MEX                                            México                                            Compra54392402230
25   5439240224881005202107132007010000001790000000000000  788982491129109692001051000000          AME*SPOTIFY CR         MEXICO CITY   MEX                                            México                              Not sufficient funds54392402240
25   5439240224881005202107132007010000001790000000000000  788982491129109692001051000000          AME*SPOTIFY CR         MEXICO CITY   MEX                                            México                              Not sufficient funds54392402240
25   5439240297320006202107132255000000025500000000000000  855834311517800000201000077608          OTF VALLE ALFA CR      CIUDAD DE MEX MEX                                            México                                            Compra54392402970
9900000048000000000000000000000000000000000000000000000000000000000000000000000000000000000000000000000000000000000000000000000000000000000000000000000000000000000000000000000000000000000000000000000000000000000000000000000000000000000000000000000000
