19LOG_ACT2021071600000000000000000000000000000000000000000000000000000000000000000000000000000000000000000000000000000000000000000000000000000000000000000000000000000000000000000000000000000000000000000000000000000000000000000000000000000000000000000
25   543924021136600220210716103615000000635620000000000013315338700000001732301000150367          FARMACIA ALICIA SAERA  VALL D UIXO   ESP                                            España                                            Compra54392402110
25   543924021136600220210716105152000001415110000000000005372127000000000418701000150449          BENJAMIN ORTEGA        BURRIANA      ESP                                            España                                            Compra54392402110
25   543924021136600220210716111004000000165100000000000025500187700000000183901000150527          DENIS-TENA SIST DESCAN VALL D UIXO   ESP                                            España                                            Compra54392402110
25   5439240218936005202107161015070000001190000000000000 2544822500000000592101008000000          WWW.F1.COM             ZZZZZZZZZZZZZ GBR                                       Reino Unido                                 Tarjeta Bloqueada54392402180
25   5439240218936005202107161015070000001190000000000000 2544822500000000592101008000000          WWW.F1.COM             ZZZZZZZZZZZZZ GBR                                       Reino Unido                                 Tarjeta Bloqueada54392402180
25   543924021136600220210716112357000000471700000000000034835192500000000052901000150597          RAFAEL CABALLERO HERAS EL PUERTO     ESP                                            España                                            Compra54392402110
25   543924021136600220210716120236000001172190000000000003159197700000002928101000150738          BAZAR CHOLLO 2         VALL D UIXO   ESP                                            España                                            Compra54392402110
25   5439240220670006202107160638360000000425000000000000  639706100124014775701000151176          OXXO CHARRO            TAMPICO TAMPS MEX                                            México                                            Compra54392402200
25   5439240219950005202107160640540000008500000000000000  4233700qlcTDGIGpndx01000151188          FIT INTEGRA COAPA      CIUDAD DE MEX MEX                                            México                                            Compra54392402190
25   5439240220670006202107160726200000008307400000000000  760170057973557992501000151579          GASOLINERA LOMAS       TAMPICO       MEX                                            México                                            Compra54392402200
25   5439240207414006202107160739460000013564700000000000  805235091129474228601000151707          DUFRY YUC MTY TA 1910  APODACA NL    MEX                                            México                                            Compra54392402070
25   5439240220846002202107160745210000001825000000000000  639764000124020109101000151781          OXXO SAN PEDRO         TAMPICO TAMPS MEX                                            México                                            Compra54392402200
25   5439240224178006202107160826070000001770000000000000  810728351398272559901000152419          AME*RAPPI II           CIUDAD DE MEX MEX                                            México                                            Compra54392402240
25   543924021052200120210716092656000000245050000000000022140500011977373477301000152432          AMZN Mktp ES           800-279-6620  LUX                                        Luxemburgo                                            Compra54392402100
25   5439240219618008202107160901130000001390000000000000  821119691129480930501000153143          AME*RAPPI PRIME        CIUDAD DE MEX MEX                                            México                                            Compra54392402190
25   543924021052200120210716100122000003065850000000000037245207411977325929301000153147          AMAZON.ES AMAZON.ES    LUXEMBOURG    LUX                                        Luxemburgo                                            Compra54392402100
25   5439240215488000202107161629400000001690000000000000  4143789 1127696187001000153881          PAYPAL3                MEXICO CITY   MEX                                            México                                            Compra54392402150
25   5439240220677001202107160933570000002230000000000000  1315241SMVbAkbUSogI01000153998          STARBUCKS TAMPICO HGO  TAMPICO TAMPS MEX                                            México                                            Compra54392402200
25   5439240205975008202107160943120000027414000000000000  700697620982191124701000154266          SHERWIN WILLIAMS E071  MATAMOROS TAM MEX                                            México                                            Compra54392402050
25   5439240220677001202107161013450000001400000000000000  861116000000000014901000155087          FERRETERIA MIRAMAR     ALTAMIRA TAMP MEX                                            México                                            Compra54392402200
25   5439240221066006202107161016280000001520000000000000  4920971pzgvet5bwrin01008000000          GOB COAH RECAUDAC 8 MU SALTILLO COAH MEX                                            México                                 Tarjeta Bloqueada54392402210
25   5439240221066006202107161016280000001520000000000000  4920971pzgvet5bwrin01008000000          GOB COAH RECAUDAC 8 MU SALTILLO COAH MEX                                            México                                 Tarjeta Bloqueada54392402210
25   543924022417800620210716082328000000139000000000000050BS2HBLZ07160022787301000155358          RAPPI STARBUCKS XO 387 +525563305020 MEX                                            México                                            Compra54392402240
25   543924021147100020210716114600000001325490000000000047233500071472335638201000156084           MCDONALD'S F36312      JAMAICA       NY                                    Estados Unidos                                            Compra54392402110
25   5439240220870002202107161047190000001060000000000000  724194344616395876901008000000          CONCESIONARIA AUT MTY  SANTA CATARIN MEX                                            México                                 Tarjeta Bloqueada54392402200
25   5439240220870002202107161047190000001060000000000000  724194344616395876901008000000          CONCESIONARIA AUT MTY  SANTA CATARIN MEX                                            México                                 Tarjeta Bloqueada54392402200
25   5439240219732007202107161132100000016500000000000000  861416111971606017901000157676          REST MARISCOS DON GOYO MATAMOROS TAM MEX                                            México                                            Compra54392402190
25   5439240220705000202107161134150000002398000000000000  209144521197088506601000157743          FIESTA INN TAMPICO     TAMPICO TAMPS MEX                                            México                                            Compra54392402200
25   5439240220846002202107161139440000000615000000000000  647212000124069101301000157986          OXXO LIB CD VISTORIA   LINARES NL    MEX                                            México                                            Compra54392402200
25   543924022209200120210716184335000000039940000000000026995700011971630424601008000000          UBER * PENDING         CMX           MEX                                            México                                 Tarjeta Bloqueada54392402220
25   543924022209200120210716184335000000039940000000000026995700011971630424601008000000          UBER * PENDING         CMX           MEX                                            México                                 Tarjeta Bloqueada54392402220
25   5439240222092001202107160943380000000399400000000000MWU4ZT35U07160070083101008000000          UBER* PENDING          CIUDAD DE MEX MEX                                            México                                 Tarjeta Bloqueada54392402220
25   5439240222092001202107160943380000000399400000000000MWU4ZT35U07160070083101008000000          UBER* PENDING          CIUDAD DE MEX MEX                                            México                                 Tarjeta Bloqueada54392402220
25   5439240222092001202107161143400000000399400000000000  856290411971604598301008000000          ST*UBER                CIUDAD DE MEX MEX                                            México                                 Tarjeta Bloqueada54392402220
25   5439240222092001202107161143400000000399400000000000  856290411971604598301008000000          ST*UBER                CIUDAD DE MEX MEX                                            México                                 Tarjeta Bloqueada54392402220
25   5439240210846004202107161227050000004822100000000000  030004600000000132901000159725          SUPER MODE GM          SN PEDRO GARZ MEX                                            México                                            Compra54392402100
25   543924020521400220210716195027000000000000000000000026995700011971731529801000160604          UBR PAGOS MEXICO SOCIE CMX           MEX                                            México                                            Compra54392402050
25   543924020521400220210716135044000001208280000000000000044519700000187612501000160611           UBER   * PENDING       SAN FRANCISCO CA                                    Estados Unidos                                            Compra54392402050
25   543924021548800020210716140518000000128950000000000016014600011973131910901000161205           Kindle Svcs            866-321-8851  WA                                    Estados Unidos                                            Compra54392402150
25   5439240219618008202107161306540000001540500000000000  821120066811912730201000161274          AME*RAPPI V            CIUDAD DE MEX MEX                                            México                                            Compra54392402190
25   5439240220677001202107161313400000000490000000000000  792751797028141734501000161551          CLIP MX* 29  DELI SAZO CIUDAD DE MEX MEX                                            México                                            Compra54392402200
25   5439240220060000202107161321140000001960000000000000  758406651398307988301008000000          NETFLIX CR             CIUDAD DE MEX MEX                                            México                                 Tarjeta Bloqueada54392402200
25   5439240220060000202107161321140000001960000000000000  758406651398307988301008000000          NETFLIX CR             CIUDAD DE MEX MEX                                            México                                 Tarjeta Bloqueada54392402200
25   5439240211289006202107161325270000052890000000000000  631043700028594675801000162048          MERCADO PAGO           CIUDAD DE MEX MEX                                            México                                            Compra54392402110
25   543924021052200120210716202543000000561330000000000017514636400000002084601000162054          MYDEA                  VALENCIA      ESP                                            España                                            Compra54392402100
25   5439240212636007202107161334450000001868700000000000  841971140621783685901000162411          HEB VALLE ORIENTE      SN PEDRO GARZ MEX                                            México                                            Compra54392402120
25   5439240210791002202107161336210000006594000000000000  797911251398310244501000162472          AMAZON MX              MEXICO CITY   MEX                                            México                                            Compra54392402100
25   543924020521400220210716144122000001043710000000000000044519700007592325001000162676           UBER   * PENDING       SAN FRANCISCO CA                                    Estados Unidos                                            Compra54392402050
25   5439240220670006202107161408310000008000000000000000  7141510FiF01edBFT0y01000163878          GASOL CUMBRES ELITE    MONTERREY NL  MEX                                            México                                            Compra54392402200
25   5439240220670006202107161417330000001990000000000000  718100500000000148201000164291          POLLOS LINCOLN         MONTERREY NL  MEX                                            México                                            Compra54392402200
25   5439240220890000202107161432310000003860000000000000  137379421197047075001000164943          OFFICE DEPOT STA CATAR SANTA CATARIN MEX                                            México                                            Compra54392402200
25   5439240224881005202107161445070000008425300000000000  423011900028598894001000165529          MONTEPIOLUZ SAVINON MU CIUDAD DE MEX MEX                                            México                                            Compra54392402240
25   543924029732000620210716214759000000272200000000000026995700011971931264501000165666          UBER * EATS PENDING    CMX           MEX                                            México                                            Compra54392402970
25   5439240224881005202107161451340000007358400000000000000000000      00867702000165967          H S B C                COYOACAN, CD  MEX                                            México                                        Retiro ATM54392402240
25   5439240220890000202107161457540000007598000000000000  932629900000000014801000166136          CIA FERRETERA LA FAMA  SANTA CATARIN MEX                                            México                                            Compra54392402200
25   543924022089000020210716150700000004030740000000000000000000000001350039902000166573          BANAMEX                SANTA CATARIN MEX                                            México                                        Retiro ATM54392402200
25   5439240224881005202107161513460000004780000000000000  100721004191215074601000166858          SORIANA419 PZA CANTIL  CIUDAD DE MEX MEX                                            México                                            Compra54392402240
25   5439240212636007202107161519430000011040000000000000  415231507161504125101000166969          BEN330797TORRE LATITUD SN PEDRO GARZ MEX                                            México                                            Compra54392402120
25   543924022623500220210716151629000000513690000000000000048221300006273033201000166988           COCKTELERIA CEVI CHELA BROWNSVILLE   TX                                    Estados Unidos                                            Compra54392402260
25   5439240212636007202107161522010000001480000000000000  415231507161504125201000167090          BEN330797TORRE LATITUD SN PEDRO GARZ MEX                                            México                                            Compra54392402120
25   5439240220870002202107161533220000001060000000000000  724194333616301770101008000000          CONCESIONARIA AUT MTY  SANTA CATARIN MEX                                            México                                 Tarjeta Bloqueada54392402200
25   5439240220870002202107161533220000001060000000000000  724194333616301770101008000000          CONCESIONARIA AUT MTY  SANTA CATARIN MEX                                            México                                 Tarjeta Bloqueada54392402200
25   5439240212636007202107161533370000000320000000000000  738910807161533374901000167820          NETPAY*AGREGADOR       SN PEDRO GARZ MEX                                            México                                            Compra54392402120
25   543924021548800020210716163847000000150950000000000016014600011973636715701000168024           AMZN Digital           888-802-3080  WA                                    Estados Unidos                                            Compra54392402150
25   5439240212636007202107161539000000006909900000000000  948745587323827316301000168034          ORSAN D NTE            SN PEDRO GARZ MEX                                            México                                            Compra54392402120
25   5439240207207004202107161540040000001234800000000000  115733459765202313601000168086          AB LA SOLEDAD REFORMA  OAXACA DE JUA MEX                                            México                                            Compra54392402070
25   543924021548800020210716165052000000237300000000000016014600011974848073301000168576           AMZN Digital           888-802-3080  WA                                    Estados Unidos                                            Compra54392402150
25   543924029732000620210716230505000000013610000000000026995700011972132785801000169197          UBER *EATS HELP.UBER.C CMX           MEX                                            México                                            Compra54392402970
25   5439240210846004202107161607410000020470000000000000  792197600000000030901000169301          SILVANO S PASTA E B    SN PEDRO GARZ MEX                                            México                                            Compra54392402100
25   5439240212636007202107161609570000003000000000000000  652003500124156542901000169438          OXXO SN LORENZO II     SN PEDRO GARZ MEX                                            México                                            Compra54392402120
25   5439240221785001202107161630400000009412800000000000  838014287323829926001000170372          SULTANA SANTA CATARINA GUADALUPE NL  MEX                                            México                                            Compra54392402210
25   5439240221785001202107160443240000010710200000000000  419148807160443243501000170952          OXXOSANTA 6            SANTA CATARIN MEX                                            México                                            Compra54392402210
25   5439240220670006202107160447060000002000000000000000  457306907160447067601000171117          OXXO GAS 15 DE MAYO    MONTERREY NL  MEX                                            México                                            Compra54392402200
25   5439240218118000202107161722360000059400000000000000  797912851398346004501008000000          AMAZON MX MARKETPLACE  MEXICO CITY   MEX                                            México                                 Tarjeta Bloqueada54392402180
25   5439240218118000202107161722360000059400000000000000  797912851398346004501008000000          AMAZON MX MARKETPLACE  MEXICO CITY   MEX                                            México                                 Tarjeta Bloqueada54392402180
25   543924021548800020210716183155000000215560000000000016014600011973535230001000173146           AMZN Digital           888-802-3080  WA                                    Estados Unidos                                            Compra54392402150
25   543924021548800020210716183701000000215560000000000016014600011973737641801000173373           AMZN Digital           888-802-3080  WA                                    Estados Unidos                                            Compra54392402150
25   5439240220705000202107161742040000006150000000000000  7608788zBWqIF8IZ7HU01000173605          CHINA FOOD             ALTAMIRA TAMP MEX                                            México                                            Compra54392402200
25   5439240220705000202107161836390000006048100000000000  749255887323836192401000176131          SERV LIB MIRAMAR 3 I   GONZALEZ TAMP MEX                                            México                                            Compra54392402200
25   5439240220705000202107161839130000000940000000000000  418672700124210061101000176288          OXXOGAS MANUEL TMP     GONZALEZ TAMP MEX                                            México                                            Compra54392402200
25   5439240220071007202107161848420000000520000000000000  464020700124213782701000176744          OXXO PILON MTA         MONTEMORELOS  MEX                                            México                                            Compra54392402200
25   5439240207396005202107161923420000017760000000000000  792818300000000016901000178354          EL PUNTAL DEL NORTE    MEXICO CITY   MEX                                            México                                            Compra54392402070
25   543924021206200620210716192400000000166510000000000087921000062879210724401000178378           H-E-B #263             BROWNSVILLE   TX                                    Estados Unidos                                            Compra54392402120
25   543924020521400220210716204236000000273190000000000000044519700002523478801000179308           UBER   * PENDING       SAN FRANCISCO CA                                    Estados Unidos                                            Compra54392402050
25   5439240219618008202107161953050000001580000000000000  440038800124241781901000179845          OXXO LA CAPITAL MTY    MONTERREY NL  MEX                                            México                                            Compra54392402190
25   5439240224881005202107162007020000001790000000000000  788982491129575834701000180459          AME*SPOTIFY CR         MEXICO CITY   MEX                                            México                                            Compra54392402240
25   5439240224881005202107162013040000001540000000000000  413032021197010809301000180731          CINEMEX PORTAL CENTRO  MEXICO CITY   MEX                                            México                                            Compra54392402240
25   5439240224881005202107162016360000002030000000000000  413032021197010837101000180893          CINEMEX PORTAL CENTRO  MEXICO CITY   MEX                                            México                                            Compra54392402240
25   543924020521400220210716222307000001235960000000000000044551500006958418801000183798           UBER   * EATS PENDING  SAN FRANCISCO CA                                    Estados Unidos                                            Compra54392402050
25   5439240220870002202107162221110000017285000000000000  206103400000012773801008000000          WAL MART LA FE         SAN NICOLAS D MEX                                            México                                 Tarjeta Bloqueada54392402200
25   5439240220870002202107162221110000017285000000000000  206103400000012773801008000000          WAL MART LA FE         SAN NICOLAS D MEX                                            México                                 Tarjeta Bloqueada54392402200
25   5439240207207004202107162254110000002900000000000000  745269011980305714001000186768          IZETTLE*REFACCI Y ACCC CIUDAD DE MEX MEX                                            México                                            Compra54392402070
25   543924020521400220210716222307000000185250000000000000044551500002978258201000187027           UBER   *EATS           SAN FRANCISCO CA                                    Estados Unidos                                            Compra54392402050
25   5439240226253005202107170609530000000120000000000000  4143785 2527251101901000187157          PAYPAL1                MEXICO CITY   MEX                                            México                                            Compra54392402260
25   5439240226253005202107170610000000041990000000000000  4143789 1127733741101000187161          PAYPAL3                MEXICO CITY   MEX                                            México                                            Compra54392402260
25   5439240224881005202107162313290000008235000000000000  412778700000000091701000187236          SUPERCENTER P CENTRO   MEXICO CITY   MEX                                            México                                            Compra54392402240
25   5439240297320006202107162343000000071808000000000000  844300707162343005001000187845          NETPAY *CARA DE VACA   SAN PEDRO GAR MEX                                            México                                            Compra54392402970
9900000097000000000000000000000000000000000000000000000000000000000000000000000000000000000000000000000000000000000000000000000000000000000000000000000000000000000000000000000000000000000000000000000000000000000000000000000000000000000000000000000000
