19LOG_ACT2021070900000000000000000000000000000000000000000000000000000000000000000000000000000000000000000000000000000000000000000000000000000000000000000000000000000000000000000000000000000000000000000000000000000000000000000000000000000000000000000
25   5439240218395004202107090842440000000124700000000000000000000      00182000000924593          H S B C                MONTERREY, NU MEX                                            México                                                  54392402180
25   5439240218395004202107090845020000070358400000000000000000000      00182302000924628          H S B C                MONTERREY, NU MEX                                            México                                        Retiro ATM54392402180
25   543924029732000620210709104645000000216110000000000037210100011903030621901000925793           ADOBE  *800-833-6687   ADOBE.LY/ENUS CA                                    Estados Unidos                                            Compra54392402970
25   5439240218682005202107090955110000049174000000000000000000000        958302000925968          SUC REVOLUCION         MONTERREY     MEX                                            México                                        Retiro ATM54392402180
25   5439240218682005202107090956410000000674000000000000000000000        958702000926003          SUC REVOLUCION         MONTERREY     MEX                                            México                                        Retiro ATM54392402180
25   543924021848800720210709102656000001034800000000000000000000028901000606502000926735          BANCA AFIRME, S.A.     MONTERREY, N. MEX                                            México                                        Retiro ATM54392402180
25   5439240219756006202107091111140000025335100000000000  733694300000000076101000928005          ELEC SAN MIGUEL ERMITA MEXICO CITY   MEX                                            México                                            Compra54392402190
25   543924022625300520210709124509000000000000000000000005992100011907474793301000929087           AIRBNB INC             415-800-5959  CA                                    Estados Unidos                                            Compra54392402260
25   543924021928700220210709131310000000000000000000000022218000011906262573501000929970          FACEBK *ADS            fb.me/ads     IRL                                           Irlanda                                            Compra54392402190
25   5439240207356009202107091251120000002530000000000000  780167900000000091201000931259          FARM SIMILARES MTY 3   MONTERREY NL  MEX                                            México                                            Compra54392402070
25   5439240221785001202107091334100000011575000000000000  137379421190031143201000932919          OFFICE DEPOT STA CATAR SANTA CATARIN MEX                                            México                                            Compra54392402210
25   543924022388300220210709134743000005017400000000000000000000040390090657602000933463          SUC. INBURSA ANZURES    MEXICO DF ME MEX                                            México                                        Retiro ATM54392402230
25   543924029732000620210709145452000000443810000000000080000089411900063557301000933743           WHATABURGER 504        HARLINGEN     TX                                    Estados Unidos                                            Compra54392402970
25   5439240220890000202107091400330000003550000000000000  625032821190038290601000933980          VIPS PERIF CUAUTITLAN  CUAUTITLAN IZ MEX                                            México                                            Compra54392402200
25   5439240220846002202107091400510000013980000000000000  747656000000000077001000933986          BIOANAL SERV HEMATOL I MONTERREY NL  MEX                                            México                                            Compra54392402200
25   5439240212572004202107091311110000006000000000000000  212900500000000753101000934414          WAL MART MEXICO 68     CULIACAN SIN  MEX                                            México                                            Compra54392402120
25   543924021975600620210709141333000005017400000000000000000000031610031487702000934525          SUC. PLAZA INBURSA      DISTRITO FED MEX                                            México                                        Retiro ATM54392402190
25   5439240218488007202107090216570000000300000000000000  401249607090216576801000934687          OXXO GAS BOULEVARD ACA MONTERREY NL  MEX                                            México                                            Compra54392402180
25   5439240220705000202107091445530000008500000000000000  703529418D0XNI84Vdj01000935939          MOREIRA DOMICILIO 3    SN P GARZA GA MEX                                            México                                            Compra54392402200
25   5439240219732007202107091446000000004519500000000000  861416111901905374601000935946          REST MARISCOS DON GOYO MATAMOROS TAM MEX                                            México                                            Compra54392402190
25   5439240220088001202107091516370000000350000000000000  775090300000000055701000937201          GELOW HELADOS          MONTERREY NL  MEX                                            México                                            Compra54392402200
25   5439240219618008202107091530120000003480000000000000  440038800122428125201000937787          OXXO LA CAPITAL MTY    MONTERREY NL  MEX                                            México                                            Compra54392402190
25   5439240218548008202107091530400000025358400000000000000000000      00133702000937898          H S B C                MONTERREY, NU MEX                                            México                                        Retiro ATM54392402180
25   5439240218548008202107091531250000002358400000000000000000000      00133802000937933          H S B C                MONTERREY, NU MEX                                            México                                        Retiro ATM54392402180
25   5439240218548008202107091539290000000800000000000000  822598251397311892001000938172          PAYU LA*TELCEL FONYOU  CIUDAD DE MEX MEX                                            México                                            Compra54392402180
25   5439240221747001202107091554260000000200000000000000  797911266810923322001000938821          AMAZON MX              MEXICO CITY   MEX                                            México                                            Compra54392402210
25   5439240220890000202107091619040000000840000000000000  716889500031579648601000939836          SUPERVOY 1             MEXICO CITY   MEX                                            México                                            Compra54392402200
25   5439240220890000202107091714240000001880000000000000  716889500031585665201000942113          SUPERVOY 1             MEXICO CITY   MEX                                            México                                            Compra54392402200
25   543924021052200120210709182417000000000000000000000037245207411903346666901000942547          AMAZON.ES AMAZON.ES    LUXEMBOURG    LUX                                        Luxemburgo                                            Compra54392402100
25   543924021052200120210709182639000000329800000000000022140500011907373897601000942635          AMZN Mktp ES           800-279-6620  LUX                                        Luxemburgo                                            Compra54392402100
25   5439240221747001202107091726560000006890000000000000  797912866810936812101000942648          AMAZON MX MARKETPLACE  MEXICO CITY   MEX                                            México                                            Compra54392402210
25   5439240218936005202107091743580000001184000000000000  814548166810939617501000943317          D LOCAL*DIDI MOBILITY  MEXICO CITY   MEX                                            México                                            Compra54392402180
25   5439240223681000202107091831340000024990000000000000  702697500000000020101000945291          SERV HEMATOLOGICOS MTY MONTERREY NL  MEX                                            México                                            Compra54392402230
25   5439240207396005202107091851450000015111000000000000  833340487323596247101000946165          REST LA DOCENA POLANCO CIUDAD DE MEX MEX                                            México                                            Compra54392402070
25   5439240219618008202107092015180000001740000000000000  794675900203802974301000949784          7 ELEVEN WASHINGTON    MONTERREY NL  MEX                                            México                                            Compra54392402190
25   5439240219618008202107092113510000003000000000000000  760075666810971855901000952061          VS TELCEL 018001200006 MEXICO CITY   MEX                                            México                                            Compra54392402190
25   5439240207356009202107092148050000003820600000000000  416124200209896792001000953272          FAR GUAD 1975          MONTERREY NL  MEX                                            México                                            Compra54392402070
25   543924021820700120210709123006000000049900000000000026995700011901029131301000922980          UBER * PENDING         CMX           MEX                                            México                                            Compra54392402180
25   5439240297320006202107090808010000000810000000000000  414651797QISSYBOEE701000924009          TH MAGMA TOWERS        SAN PEDRO GAR MEX                                            México                                            Compra54392402970
25   5439240222935001202107092258250000001490000000000000  4017680Mgcnny17XLbe01000955241          HOLIDAY INN EXPRESS    SN ANDRES CHO MEX                                            México                                            Compra54392402220
25   5439240220060000202107090408550000001960000000000000  404738600000MIK804K01051000000          NETFLIX COM CR         MEXICO CITY   MEX                                            México                              Not sufficient funds54392402200
25   5439240220060000202107090408550000001960000000000000  404738600000MIK804K01051000000          NETFLIX COM CR         MEXICO CITY   MEX                                            México                              Not sufficient funds54392402200
25   5439240218444000202107090519230000000283000000000000  4025633ecqgvynhlb2201051000000          OP*OPENPAY             SANTIAGO DE Q MEX                                            México                              Not sufficient funds54392402180
25   5439240218444000202107090519230000000283000000000000  4025633ecqgvynhlb2201051000000          OP*OPENPAY             SANTIAGO DE Q MEX                                            México                              Not sufficient funds54392402180
25   5439240220194007202107090840440000005880100000000000  5306238Kilmr1yvoF1K01051000000          MAT SANTA BARBARA      SN PEDRO GARZ MEX                                            México                              Not sufficient funds54392402200
25   5439240220194007202107090840440000005880100000000000  5306238Kilmr1yvoF1K01051000000          MAT SANTA BARBARA      SN PEDRO GARZ MEX                                            México                              Not sufficient funds54392402200
25   5439240220194007202107090844510000001380100000000000  5306238PNsMu6jF9Nit01051000000          MAT SANTA BARBARA      SN PEDRO GARZ MEX                                            México                              Not sufficient funds54392402200
25   5439240220194007202107090844510000001380100000000000  5306238PNsMu6jF9Nit01051000000          MAT SANTA BARBARA      SN PEDRO GARZ MEX                                            México                              Not sufficient funds54392402200
25   5439240222970008202107091630020000001150000000000000  788982451397319190701051000000          AME*SPOTIFY CR         MEXICO CITY   MEX                                            México                              Not sufficient funds54392402220
25   5439240222970008202107091630020000001150000000000000  788982451397319190701051000000          AME*SPOTIFY CR         MEXICO CITY   MEX                                            México                              Not sufficient funds54392402220
25   5439240218936005202107092207340000001878000000000000  814548166810979389801008000000          D LOCAL*DIDI MOBILITY  MEXICO CITY   MEX                                            México                                 Tarjeta Bloqueada54392402180
25   5439240218936005202107092207340000001878000000000000  814548166810979389801008000000          D LOCAL*DIDI MOBILITY  MEXICO CITY   MEX                                            México                                 Tarjeta Bloqueada54392402180
25   5439240218936005202107092207380000001878000000000000  4169659uzdnatw9ylil01008000000          OP*DIDIMX              QUERETARO QRO MEX                                            México                                 Tarjeta Bloqueada54392402180
25   5439240218936005202107092207380000001878000000000000  4169659uzdnatw9ylil01008000000          OP*DIDIMX              QUERETARO QRO MEX                                            México                                 Tarjeta Bloqueada54392402180
25   5439240220870002202107092213320000003900000000000000  606927200203814155101008000000          7 ELEVEN PALACIO FED   GUADALUPE NL  MEX                                            México                                 Tarjeta Bloqueada54392402200
25   5439240220870002202107092213320000003900000000000000  606927200203814155101008000000          7 ELEVEN PALACIO FED   GUADALUPE NL  MEX                                            México                                 Tarjeta Bloqueada54392402200
25   5439240220870002202107092213580000003900000000000000  606927200203814189001008000000          7 ELEVEN PALACIO FED   GUADALUPE NL  MEX                                            México                                 Tarjeta Bloqueada54392402200
25   5439240220870002202107092213580000003900000000000000  606927200203814189001008000000          7 ELEVEN PALACIO FED   GUADALUPE NL  MEX                                            México                                 Tarjeta Bloqueada54392402200
9900000058000000000000000000000000000000000000000000000000000000000000000000000000000000000000000000000000000000000000000000000000000000000000000000000000000000000000000000000000000000000000000000000000000000000000000000000000000000000000000000000000
