19LOG_ACT2021071000000000000000000000000000000000000000000000000000000000000000000000000000000000000000000000000000000000000000000000000000000000000000000000000000000000000000000000000000000000000000000000000000000000000000000000000000000000000000000
25   5439240226253005202107100012160000058240000000000000  755224166810995730501000956638          AEROMEXI CALL CENTER C CIUDAD DE MEX MEX                                            México                                            Compra54392402260
25   543924021136600220210710124814000002218800000000000025601020800000008412601000958893          COOP AGRIC SAN ISIDRO  VALL D UIXO   ESP                                            España                                            Compra54392402110
25   543924021052200120210710134040000000540320000000000027211065100000000109401000959134          FAMILY CASH LA VALL D' LA VALL D'UIX ESP                                            España                                            Compra54392402100
25   543924021548800020210710084256000000238080000000000016014600011913737590301000959552           Kindle Svcs            866-321-8851  WA                                    Estados Unidos                                            Compra54392402150
25   5439240205975008202107100947170000036290000000000000000000000        145302000961494          SUC MATAMOROS          MATAMOROS     MEX                                            México                                        Retiro ATM54392402050
25   5439240226253005202107101227250000020123600000000000  105979879815204481801000962445          EXPEDIA MEXICO         CIUDAD DE MEX MEX                                            México                                            Compra54392402260
25   5439240220670006202107101109230000008500000000000000  74499584zcwnDiHCf9u01008000000          LABORATORIOS DR MOREIR MONTERREY NL  MEX                                            México                                 Tarjeta Bloqueada54392402200
25   5439240220670006202107101109230000008500000000000000  74499584zcwnDiHCf9u01008000000          LABORATORIOS DR MOREIR MONTERREY NL  MEX                                            México                                 Tarjeta Bloqueada54392402200
25   5439240207207004202107101112060000001580000000000000  760548300000000023701000963692          PIZZA LITTLE CAESAR    OAXACA DE JUA MEX                                            México                                            Compra54392402070
25   543924021844400020210710181809000000600010000000000015580827621071010399601008000000          FVAHFY.COM             8665290613    ESP                                            España                                 Tarjeta Bloqueada54392402180
25   543924021844400020210710181809000000600010000000000015580827621071010399601008000000          FVAHFY.COM             8665290613    ESP                                            España                                 Tarjeta Bloqueada54392402180
25   5439240215417009202107101127500000002139000000000000  855344622521442935201000964160          EBANX SHOPEE MX        CIUDAD DE MEX MEX                                            México                                            Compra54392402150
25   5439240212701009202107101224220000005550000000000000  745332111911704568101000966045          IZETTLE*SALON BELLEZA  MEXICO CITY   MEX                                            México                                            Compra54392402120
25   5439240210669000202107101235200000006290000000000000  789065400031643356101000966439          SANJERONIMO35 JUGUETRO MEXICO CITY   MEX                                            México                                            Compra54392402100
25   5439240210669000202107101239250000001345000000000000  4074887RU0RaPibDGGf01000966606          LOS BISQUES OBREGON1   MEXICO CITY   MEX                                            México                                            Compra54392402100
25   543924021548800020210710144255000000194670000000000016014600011914545982301000968998           Kindle Svcs            866-321-8851  WA                                    Estados Unidos                                            Compra54392402150
25   5439240220940003202107101354370000022760500000000000  623071800060157549101000969471          HOME DEPOT SENDERO     GRAL ESCOBEDO MEX                                            México                                            Compra54392402200
25   5439240224178006202107101355310000001880000000000000  842001240929085818901000969507          HEB MONCLOVA PAPE      MONCLOVA COAH MEX                                            México                                            Compra54392402240
25   5439240222935001202107101427310000006400900000000000  827129500000000216601000970832          GASOL GPO EMP TORRES   SN ANDRES CHO MEX                                            México                                            Compra54392402220
25   5439240219756006202107101600200000009004500000000000  736584700000000057201000974716          CASA DE LA YEYA TERRAN MEXICO CITY   MEX                                            México                                            Compra54392402190
25   5439240223883002202107101622230000002960000000000000  40682962Ag1zrBEbxPG01000975704          DP 11089 MELCHOR OCAMP MEXICO CITY   MEX                                            México                                            Compra54392402230
25   5439240218118000202107101653200000010980000000000000  797912866811080464501008000000          AMAZON MX MARKETPLACE  MEXICO CITY   MEX                                            México                                 Tarjeta Bloqueada54392402180
25   5439240218118000202107101653200000010980000000000000  797912866811080464501008000000          AMAZON MX MARKETPLACE  MEXICO CITY   MEX                                            México                                 Tarjeta Bloqueada54392402180
25   5439240218118000202107101717320000017525800000000000  797912866811083912301008000000          AMAZON MX MARKETPLACE  MEXICO CITY   MEX                                            México                                 Tarjeta Bloqueada54392402180
25   5439240218118000202107101717320000017525800000000000  797912866811083912301008000000          AMAZON MX MARKETPLACE  MEXICO CITY   MEX                                            México                                 Tarjeta Bloqueada54392402180
25   543924021975600620210710173131000005017400000000000000000000031610050378002000978352          SUC. INBURSA LORETO     MEXICO DF ME MEX                                            México                                        Retiro ATM54392402190
25   5439240207356009202107101928480000014590000000000000  107362857926052721301051000000          BENETTON FASHION DRIVE SAN PEDRO GAR MEX                                            México                              Not sufficient funds54392402070
25   5439240207356009202107101928480000014590000000000000  107362857926052721301051000000          BENETTON FASHION DRIVE SAN PEDRO GAR MEX                                            México                              Not sufficient funds54392402070
25   5439240220677001202107101937070000009990000000000000  4724571wHy0K4MKvpit01008000000          BONITTO INN HOTELES    TAMPICO TAMPS MEX                                            México                                 Tarjeta Bloqueada54392402200
25   5439240220677001202107101937070000009990000000000000  4724571wHy0K4MKvpit01008000000          BONITTO INN HOTELES    TAMPICO TAMPS MEX                                            México                                 Tarjeta Bloqueada54392402200
25   5439240220677001202107101939410000009990000000000000  47245714JFNR0VI6i0401008000000          BONITTO INN HOTELES    TAMPICO TAMPS MEX                                            México                                 Tarjeta Bloqueada54392402200
25   5439240220677001202107101939410000009990000000000000  47245714JFNR0VI6i0401008000000          BONITTO INN HOTELES    TAMPICO TAMPS MEX                                            México                                 Tarjeta Bloqueada54392402200
25   5439240207396005202107101943080000015590000000000000  779628759261386112801000983146          FISHER S POLANCO       CIUDAD DE MEX MEX                                            México                                            Compra54392402070
25   5439240207396005202107101953290000003970000000000000  452763607101905146601000983592          BENAVIDES TAINE        MEXICO CITY   MEX                                            México                                            Compra54392402070
25   5439240207356009202107101958290000001368000000000000  714527500000078818601000983679          GANDHI FASHION DRIVE   SN PEDRO GARZ MEX                                            México                                            Compra54392402070
25   5439240224881005202107102007010000001790000000000000  788982466811107792601051000000          AME*SPOTIFY CR         MEXICO CITY   MEX                                            México                              Not sufficient funds54392402240
25   5439240224881005202107102007010000001790000000000000  788982466811107792601051000000          AME*SPOTIFY CR         MEXICO CITY   MEX                                            México                              Not sufficient funds54392402240
25   5439240218118000202107102055230000001350000000000000  797911266811114524301008000000          AMAZON MX              MEXICO CITY   MEX                                            México                                 Tarjeta Bloqueada54392402180
25   5439240218118000202107102055230000001350000000000000  797911266811114524301008000000          AMAZON MX              MEXICO CITY   MEX                                            México                                 Tarjeta Bloqueada54392402180
25   5439240220677001202107102240120000002350000000000000  832456600000000001401000988408          TAQUERIA EL PARIENTE   TAMPICO TAMPS MEX                                            México                                            Compra54392402200
25   5439240210669000202107102256160000011140000000000000  107212711006860101801000988717          F AHORRO MXQU TARASQUI CIUDAD DE MEX MEX                                            México                                            Compra54392402100
25   5439240220677001202107102256130000000435000000000000  639646900122842503501000988753          OXXO ROSALES           TAMPICO TAMPS MEX                                            México                                            Compra54392402200
9900000042000000000000000000000000000000000000000000000000000000000000000000000000000000000000000000000000000000000000000000000000000000000000000000000000000000000000000000000000000000000000000000000000000000000000000000000000000000000000000000000000
