19LOG_ACT2021072300000000000000000000000000000000000000000000000000000000000000000000000000000000000000000000000000000000000000000000000000000000000000000000000000000000000000000000000000000000000000000000000000000000000000000000000000000000000000000
25   543924021136600220210723115418000002581560000000000035344438300000000017801000387012          PESCADERIA EMILIO ALEM MONCOFAR      ESP                                            España                                            Compra54392402110
25   5439240219950005202107230637070000004300000000000000  718937200000000030901000387366          GASOL ES 04709         CIUDAD DE MEX MEX                                            México                                            Compra54392402190
25   5439240219950005202107230646100000006640000000000000  791528000032892597101000387417          IZZI APP PAGO          CIUDAD DE MEX MEX                                            México                                            Compra54392402190
25   5439240205975008202107230728570000001850000000000000  710170800000000001301000387770          FRUT RIGO              MATAMOROS TAM MEX                                            México                                            Compra54392402050
25   543924022488100520210723084300000000530740000000000000000000000001170038902000388775          BANAMEX                CIUDAD DE MEX MEX                                            México                                        Retiro ATM54392402240
25   5439240205975008202107230851310000016290000000000000000000000        527502000388903          SUC MATAMOROS          MATAMOROS     MEX                                            México                                        Retiro ATM54392402050
25   5439240222092001202107230852040000000775000000000000  188527621204055583601000388916          OFFICE DEPOT MANUEL B  MONTERREY NL  MEX                                            México                                            Compra54392402220
25   5439240212582003202107230950520000000630000000000000  416214821204017745901000390218          STARBUCKS P F AGUSTIN  SN PEDRO GARZ MEX                                            México                                            Compra54392402120
25   5439240221785001202107231110430000002065000000000000  400256500000001441501000392325          BODEGA HDA LA HUASTECA SANTA CATARIN MEX                                            México                                            Compra54392402210
25   5439240205975008202107231128460000001599000000000000  100709503510767214701000392900          SORIANA351 CANALES     MATAMOROS TAM MEX                                            México                                            Compra54392402050
25   5439240220705000202107231133150000006389000000000000  438219800020009160501000393028          HOME DEPOT MONCLOVA    MONCLOVA COAH MEX                                            México                                            Compra54392402200
25   543924022388300220210723113937000005017400000000000000000000040390090814802000393220          SUC. INBURSA ANZURES    MEXICO DF ME MEX                                            México                                        Retiro ATM54392402230
25   5439240220705000202107231145150000012045600000000000  8641086sMhy68GyWlrG01000393372          COEL DEL NTE ELECTRIC  MONCLOVA COAH MEX                                            México                                            Compra54392402200
25   5439240220705000202107231200180000000890000000000000  767975000000000096001000393836          HERRAMIENTAS VERSATILE MONCLOVA COAH MEX                                            México                                            Compra54392402200
25   5439240220705000202107231204310000000730000000000000  410665500125818172501000394020          OXXOPAREDES LOV        MONCLOVA COAH MEX                                            México                                            Compra54392402200
25   5439240220705000202107231205350000000730000000000000  410665500125818541401000394067          OXXOPAREDES LOV        MONCLOVA COAH MEX                                            México                                            Compra54392402200
25   5439240212636007202107231227300000004290000000000000  491860307231205679201000394645          BENAVIDES 330298 PZA L SN PEDRO GARZ MEX                                            México                                            Compra54392402120
25   5439240219950005202107231224160000001530000000000000  745269012041705458301000394655          IZETTLE*REFACCI Y ACCC CIUDAD DE MEX MEX                                            México                                            Compra54392402190
25   5439240219950005202107231224430000001530000000000000  745269012041706427701000394679          IZETTLE*REFACCI Y ACCC CIUDAD DE MEX MEX                                            México                                            Compra54392402190
25   5439240221066006202107231229020000000200000000000000  797911266812910478801008000000          AMAZON MX              MEXICO CITY   MEX                                            México                                 Tarjeta Bloqueada54392402210
25   5439240221066006202107231229020000000200000000000000  797911266812910478801008000000          AMAZON MX              MEXICO CITY   MEX                                            México                                 Tarjeta Bloqueada54392402210
25   5439240211226008202107231328340000000010000000000000  737696110406593750301051000000          CONEKTA*DRIVE APP      AZCAPOTZALCO  MEX                                            México                              Not sufficient funds54392402110
25   5439240211226008202107231328340000000010000000000000  737696110406593750301051000000          CONEKTA*DRIVE APP      AZCAPOTZALCO  MEX                                            México                              Not sufficient funds54392402110
25   5439240212636007202107231350100000000700000000000000  855449600000000033301000397861          REFACCIONES BM G MORIN SN PEDRO GARZ MEX                                            México                                            Compra54392402120
25   5439240220890000202107231358020000007953000000000000  835434300032924085101000398158          REST LOS JAROCHOS      CUAUTITLAN IZ MEX                                            México                                            Compra54392402200
25   5439240212636007202107231412460000002913200000000000  111286500000100146501000398679          CITY MARKET MTY 419    SAN PEDRO GAR MEX                                            México                                            Compra54392402120
25   5439240219618008202107231423310000010880000000000000  827221500000000007601000399203          KRYPTON VAPE STORE     MONTERREY NL  MEX                                            México                                            Compra54392402190
25   5439240210846004202107231436190000015600000000000000  810271807231436195401000399715          NETPAY*EST PONTE GUAP  SN PEDRO GARZ MEX                                            México                                            Compra54392402100
25   5439240210846004202107231439580000004000000000000000  810271807231439583401000399852          NETPAY*EST PONTE GUAP  SN PEDRO GARZ MEX                                            México                                            Compra54392402100
25   5439240297320006202107231448260000015880000000000000  520038112041906587601000400197          VINOTECA SUC FUNDADORE SN PEDRO GARZ MEX                                            México                                            Compra54392402970
25   5439240219618008202107231503480000001580000000000000  440038800125869352801000400838          OXXO LA CAPITAL MTY    MONTERREY NL  MEX                                            México                                            Compra54392402190
25   5439240223681000202107231535050000001400000000000000  833893500000000042301000402024          ALIM DEGUSTAM MABE CEL SALVATIERRA G MEX                                            México                                            Compra54392402230
25   5439240207207004202107231538160000002500000000000000  830272500062741047401000402139          SUSHI MIKU FUSION      OAXACA DE JUA MEX                                            México                                            Compra54392402070
25   5439240212636007202107231540520000001060000000000000  738910807231540527701000402257          NETPAY *COMET TINTORER SAN PEDRO GAR MEX                                            México                                            Compra54392402120
25   543924022623500220210723161510000001200580000000000044450118707232111137901000403672           BIG LOTS STORES - #174 BROWNSVILLE   TX                                    Estados Unidos                                            Compra54392402260
25   5439240223681000202107231615460000000170000000000000  833893500000000088601000403689          ALIM DEGUSTAM MABE CEL SALVATIERRA G MEX                                            México                                            Compra54392402230
25   5439240222092001202107231626160000003000000000000000  849583400000000235501000404094          FULLOK VILLA           SANTIAGO NL   MEX                                            México                                            Compra54392402220
25   5439240221066006202107231642340000001520000000000000  4920971xl8afmbj6biw01008000000          GOB COAH RECAUDAC 8 MU SALTILLO COAH MEX                                            México                                 Tarjeta Bloqueada54392402210
25   5439240221066006202107231642340000001520000000000000  4920971xl8afmbj6biw01008000000          GOB COAH RECAUDAC 8 MU SALTILLO COAH MEX                                            México                                 Tarjeta Bloqueada54392402210
25   5439240205975008202107231647060000032290000000000000000000000        548502000404960          SUC MATAMOROS          MATAMOROS     MEX                                            México                                        Retiro ATM54392402050
25   5439240212582003202107231702240000000650000000000000  746022400000000037601000405532          DUL CHARAMUSCA AERO    APODACA NL    MEX                                            México                                            Compra54392402120
25   5439240212636007202107231710500000002450000000000000  805084712042204962001000405850          KK MONTERREY 2         SN PEDRO GARZ MEX                                            México                                            Compra54392402120
25   5439240220705000202107231712300000015323000000000000  860789612042206997001000405918          REST LA PATRONA        CASTANOS COAH MEX                                            México                                            Compra54392402200
25   5439240213809009202107231851310000006160000000000000  805288500000000014101000409980          REMEDIO Y MEDIO        HUIXQUILUCAN  MEX                                            México                                            Compra54392402130
25   5439240220705000202107231907500000000950000000000000  410665500125949190001000410655          OXXOPAREDES LOV        MONCLOVA COAH MEX                                            México                                            Compra54392402200
25   543924020739600520210723193626000000484350000000000000002175612050045032501000411860           THE SNACK SHACK AT THE San Antonio   TX                                    Estados Unidos                                            Compra54392402070
25   5439240220890000202107231947060000003165000000000000  713972900000000064901000412312          HOTEL IBIS MX PERINTE  CUAUTITLAN IZ MEX                                            México                                            Compra54392402200
25   5439240207207004202107231949230000001543500000000000  115762900000000006201000412345          AB LA SOLEDAD REFORMA  OAXACA DE JUA MEX                                            México                                            Compra54392402070
25   543924021995000520210724031025000000161100000000000026995700012050130506601000413243          UBER * EATS PENDING    CMX           MEX                                            México                                            Compra54392402190
25   5439240220890000202107232023440000002000000000000000  713972900000000006301000413752          HOTEL IBIS MX PERINTE  CUAUTITLAN IZ MEX                                            México                                            Compra54392402200
25   5439240219950005202107232204230000002050000000000000  48192986CVuv0FW032K01000417410          GOMART RODASA          MEXICO CITY   MEX                                            México                                            Compra54392402190
25   5439240223681000202107232225190000011510000000000000  776518000000000014301000417960          REST BURGUES URBAN GRI CELAYA GTO    MEX                                            México                                            Compra54392402230
9900000052000000000000000000000000000000000000000000000000000000000000000000000000000000000000000000000000000000000000000000000000000000000000000000000000000000000000000000000000000000000000000000000000000000000000000000000000000000000000000000000000
