19LOG_ACT2021071700000000000000000000000000000000000000000000000000000000000000000000000000000000000000000000000000000000000000000000000000000000000000000000000000000000000000000000000000000000000000000000000000000000000000000000000000000000000000000
25   5439240220677001202107170016070000000229000000000000  483253100124308517801000188542          OXXO BOSQDEHUASTECAII  SANTA CATARIN MEX                                            México                                            Compra54392402200
25   5439240220677001202107170017110000000229000000000000  483253100124308335701000188560          OXXO BOSQDEHUASTECAII  SANTA CATARIN MEX                                            México                                            Compra54392402200
25   543924021052200120210717090341000001207170000000000034835889600000002808101000189878          COMPA IA VALENCIANA DE PUERTO DE SAG ESP                                            España                                            Compra54392402100
25   5439240218936005202107171015360000001190000000000000 2544822500000000902001008000000          WWW.F1.COM             ZZZZZZZZZZZZZ GBR                                       Reino Unido                                 Tarjeta Bloqueada54392402180
25   5439240218936005202107171015360000001190000000000000 2544822500000000902001008000000          WWW.F1.COM             ZZZZZZZZZZZZZ GBR                                       Reino Unido                                 Tarjeta Bloqueada54392402180
25   543924020521400220210716204236000000018550000000000000044519700005714781201000191302           UBER   *TRIP           SAN FRANCISCO CA                                    Estados Unidos                                            Compra54392402050
25   543924021136600220210717134843000001133380000000000025601020800000008523001000191328          COOP AGRIC SAN ISIDRO  VALL D UIXO   ESP                                            España                                            Compra54392402110
25   543924021136600220210717135443000001272720000000000025601020800000004395901000191368          COOP AGRIC SAN ISIDRO  VALL D UIXO   ESP                                            España                                            Compra54392402110
25   5439240220890000202107170910270000003432000000000000  41087923TO4wgr7Bus901000193054          URBAN MTY              APODACA NL    MEX                                            México                                            Compra54392402200
25   543924021147100020210717182339000016618890000000000015000000007170000030101000193344          CJ S  WATERFRONT  REST NAIROBI       KEN                                             Kenia                                            Compra54392402110
25   543924021147100020210717185641000001682180000000000015000000007170000022601000194128          CJ S  WATERFRONT  REST NAIROBI       KEN                                             Kenia                                            Compra54392402110
25   5439240211289006202107171003330000007620000000000000  716753711981592733001000194281          MERCADO PAGO 1         CIUDAD DE MEX MEX                                            México                                            Compra54392402110
25   5439240205975008202107171108560000002826100000000000  764215900032351343101000196176          NAL REXM FEDEX MATAMOR MEXICO CITY   MEX                                            México                                            Compra54392402050
25   543924022417800620210717093121000000174000000000000050BS2HBLZ07170076629301000196930          RAPPI STARBUCKS XO 387 +525563305020 MEX                                            México                                            Compra54392402240
25   543924020741400620210717141108000004673220000000000030000011311980099958601000200920           SHORELINE GALAXY       CHICAGO       IL                                    Estados Unidos                                            Compra54392402070
25   5439240220677001202107171336250000001450000000000000  813717000000000142901000201990          SYMA AUTOSHAMPOO       SANTA CATARIN MEX                                            México                                            Compra54392402200
25   543924021548800020210717143941000000215560000000000016014600011983333860501000202147           Kindle Svcs            866-321-8851  WA                                    Estados Unidos                                            Compra54392402150
25   543924021074600620210717150850000000475500000000000044450407507171900934601051000000           TST* LOS TACOS NO.1 -  NEW YORK      NY                                    Estados Unidos                              Not sufficient funds54392402100
25   543924021074600620210717150850000000475500000000000044450407507171900934601051000000           TST* LOS TACOS NO.1 -  NEW YORK      NY                                    Estados Unidos                              Not sufficient funds54392402100
25   543924020741400620210717151314000000913270000000000030000011311980070218401000203567           SHORELINE GALAXY       CHICAGO       IL                                    Estados Unidos                                            Compra54392402070
25   543924022067700120210717142244000001634220000000000000000000000000000190002000203988          BBVA NO/INFORMADO      GUAD          MEX                                            México                                        Retiro ATM54392402200
25   5439240219732007202107171428450000007906200000000000  100709503510734024601000204275          SORIANA351 CANALES     MATAMOROS TAM MEX                                            México                                            Compra54392402190
25   5439240224881005202107171441330000000576400000000000  716753711981989158801000204810          MERCADO PAGO 1         CIUDAD DE MEX MEX                                            México                                            Compra54392402240
25   543924020741400620210717160425000000238240000000000030000011311980086142401000205793           SHORELINE GALAXY       CHICAGO       IL                                    Estados Unidos                                            Compra54392402070
25   5439240219950005202107171509240000000790000000000000  797911266812089807001000206050          AMAZON MX              MEXICO CITY   MEX                                            México                                            Compra54392402190
25   543924020741400620210717163612000000595610000000000000084621200001384333601000207200           SHORELINE SIGHTSEEING  CHICAGO       IL                                    Estados Unidos                                            Compra54392402070
25   5439240220846002202107170347350000011100000000000000  402851207170347355601000207694          OXXO GAS LAS TORRES    SN PEDRO GARZ MEX                                            México                                            Compra54392402200
25   543924021206200620210717160400000000275170000000000094487500034944875727901000208383           PANDA EXPRESS          BROWNSVILLE   TX                                    Estados Unidos                                            Compra54392402120
25   5439240219950005202107171611000000005990000000000000  5547161L0810701288801000208692          LIVERPOOL PARQUE DELTA MEXICO CITY   MEX                                            México                                            Compra54392402190
25   5439240207207004202107171616330000004109000000000000  412523306071102840601000208881          CHEDRAUI 099 OAXACA RE OAXACA DE JUA MEX                                            México                                            Compra54392402070
25   543924021206200620210717161940000000358560000000000044450385207172116148701000209057           TST* JUICEUS           BROWNSVILLE   TX                                    Estados Unidos                                            Compra54392402120
25   5439240224881005202107171638310000002950000000000000  106009100000000001901000209773          SEPHORA DELTA IC       CIUDAD DE MEX MEX                                            México                                            Compra54392402240
25   5439240219618008202107171700030000003015000000000000  447492000204480713601000210797          7 ELEVEN T 1887        SN NICOLAS DE MEX                                            México                                            Compra54392402190
25   5439240219950005202107171707400000000120000000000000  742149565771540372201000211137          BANWIRE*PARCOAPP       ZAPOPAN       MEX                                            México                                            Compra54392402190
25   5439240224881005202107171731010000003100000000000000  4116671zaQYI9P1HIly01000212104          GASOMAC                MEXICO CITY   MEX                                            México                                            Compra54392402240
25   543924022417800620210717153454000000197000000000000050BS2HBLZ07170039885301000212249          RAPPI TAQUERIA JUAREZ  +525563305020 MEX                                            México                                            Compra54392402240
25   543924022125900720210718003759000000119930000000000026995700011982229224801008000000          UBER * PENDING         CMX           MEX                                            México                                 Tarjeta Bloqueada54392402210
25   543924022125900720210718003759000000119930000000000026995700011982229224801008000000          UBER * PENDING         CMX           MEX                                            México                                 Tarjeta Bloqueada54392402210
25   5439240221259007202107171538010000001199300000000000MWU4ZT35U07170059052701008000000          UBER* PENDING          CIUDAD DE MEX MEX                                            México                                 Tarjeta Bloqueada54392402210
25   5439240221259007202107171538010000001199300000000000MWU4ZT35U07170059052701008000000          UBER* PENDING          CIUDAD DE MEX MEX                                            México                                 Tarjeta Bloqueada54392402210
25   5439240221259007202107171538010000001199300000000000MWU4ZT35U07170030196201008000000          UBER* PENDING          CIUDAD DE MEX MEX                                            México                                 Tarjeta Bloqueada54392402210
25   5439240221259007202107171538010000001199300000000000MWU4ZT35U07170030196201008000000          UBER* PENDING          CIUDAD DE MEX MEX                                            México                                 Tarjeta Bloqueada54392402210
25   5439240221259007202107171738040000001199300000000000  856290411982204041701008000000          ST*UBER                CIUDAD DE MEX MEX                                            México                                 Tarjeta Bloqueada54392402210
25   5439240221259007202107171738040000001199300000000000  856290411982204041701008000000          ST*UBER                CIUDAD DE MEX MEX                                            México                                 Tarjeta Bloqueada54392402210
25   543924020741400620210717174037000006079200000000000000000001011983632349301000212501           THE PURPLE PIG         CHICAGO       IL                                    Estados Unidos                                            Compra54392402070
25   543924021136600220210718005141000000704230000000000025500120800000001201301000212946          JOSSMI                 LA VALL D'UIX ESP                                            España                                            Compra54392402110
25   5439240215417009202107171803130000002990000000000000  109863511982321920701000213411          MERCADO PAGO 4         CIUDAD DE MEX MEX                                            México                                            Compra54392402150
25   543924020741400620210717193058000002775700000000000000082504400006452333201000214536           UNDERARMOUR JEFFERSONV CHICAGO       IL                                    Estados Unidos                                            Compra54392402070
25   5439240220890000202107171853470000004000000000000000  713972900000000095401000215443          HOTEL IBIS MX PERINTE  CUAUTITLAN IZ MEX                                            México                                            Compra54392402200
25   543924020741400620210717190103000006249350000000000000037204800001146637301051000000           LEVIS STORE 108        CHICAGO       IL                                    Estados Unidos                              Not sufficient funds54392402070
25   543924020741400620210717190103000006249350000000000000037204800001146637301051000000           LEVIS STORE 108        CHICAGO       IL                                    Estados Unidos                              Not sufficient funds54392402070
25   543924020741400620210717190136000006249350000000000000037204800008962231801051000000           LEVIS STORE 108        CHICAGO       IL                                    Estados Unidos                              Not sufficient funds54392402070
25   543924020741400620210717190136000006249350000000000000037204800008962231801051000000           LEVIS STORE 108        CHICAGO       IL                                    Estados Unidos                              Not sufficient funds54392402070
25   543924020741400620210717190209000006249350000000000000037204800001213417301051000000           LEVIS STORE 108        CHICAGO       IL                                    Estados Unidos                              Not sufficient funds54392402070
25   543924020741400620210717190209000006249350000000000000037204800001213417301051000000           LEVIS STORE 108        CHICAGO       IL                                    Estados Unidos                              Not sufficient funds54392402070
25   543924020521400220210717204010000004276490000000000000045104400008828032701000217334           ZARA USA 3697          CHICAGO       IL                                    Estados Unidos                                            Compra54392402050
25   543924020521400220210717204315000001052840000000000000044519700005808081101000217472           UBER   * PENDING       SAN FRANCISCO CA                                    Estados Unidos                                            Compra54392402050
25   5439240224881005202107171943530000002480000000000000  793174300000000974501000217502          LITTLE CAESARS PZA COP MEXICO CITY   MEX                                            México                                            Compra54392402240
25   543924021206200620210717212355000000163200000000000000033461200004374673801000218982           CHILI'S BROWNSVILLE    BROWNSVILLE   TX                                    Estados Unidos                                            Compra54392402120
25   5439240220890000202107172036500000002250000000000000  41985663RQXnTrWBLdw01000219487          LA CASA DE TONO PERINO CUAUTITLAN IZ MEX                                            México                                            Compra54392402200
25   5439240207396005202107172255040000021655000000000000  739513900000000013201000223800          RINCON DEL BIFE CAJA 3 CUERNAVACA MO MEX                                            México                                            Compra54392402070
9900000061000000000000000000000000000000000000000000000000000000000000000000000000000000000000000000000000000000000000000000000000000000000000000000000000000000000000000000000000000000000000000000000000000000000000000000000000000000000000000000000000
