19LOG_ACT2021081400000000000000000000000000000000000000000000000000000000000000000000000000000000000000000000000000000000000000000000000000000000000000000000000000000000000000000000000000000000000000000000000000000000000000000000000000000000000000000
25   5439240220705000202108140040150000000629000000000000  639646900131255100501000111975          OXXO ROSALES           TAMPICO TAMPS MEX                                            México                                            Compra54392402200
25   543924021961800820210814080430000000178820000000000026995700012260629925101000112290          Delivery Technologies  CMX           MEX                                            México                                            Compra54392402190
25   5439240220670006202108140755250000001160000000000000  131524121226002646501000115004          STARBUCKS TAMPICO HGO  TAMPICO TAMPS MEX                                            México                                            Compra54392402200
25   543924021839700020210814153306000000746480000000000026995700012261331910201008000000          RAPPI*RAPPI MEXICO     Mexico City   MEX                                            México                                 Tarjeta Bloqueada54392402180
25   543924021839700020210814153306000000746480000000000026995700012261331910201008000000          RAPPI*RAPPI MEXICO     Mexico City   MEX                                            México                                 Tarjeta Bloqueada54392402180
25   543924021839700020210814153306000000746480000000000026995700012261331910201008000000          RAPPI*RAPPI MEXICO     Mexico City   MEX                                            México                                 Tarjeta Bloqueada54392402180
25   5439240220677001202108140855140000001160000000000000  4059621f1w3N1T8DU8o01000115918          ZUMBA JUGOS Y SMOOTHIE TAMPICO TAMPS MEX                                            México                                            Compra54392402200
25   543924022006000020210814090225000004534220000000000000000000000000000580102051000000          BBVA NO/INFORMADO      MONTERREY     MEX                                            México                              Not sufficient funds54392402200
25   543924022006000020210814090225000004534220000000000000000000000000000580102051000000          BBVA NO/INFORMADO      MONTERREY     MEX                                            México                              Not sufficient funds54392402200
25   543924022006000020210814090225000004534220000000000000000000000000000580102051000000          BBVA NO/INFORMADO      MONTERREY     MEX                                            México                              Not sufficient funds54392402200
25   543924022006000020210814090306000004434220000000000000000000000000000580202000116065          BBVA NO/INFORMADO      MONTERREY     MEX                                            México                                        Retiro ATM54392402200
25   5439240220060000202108141105390000000950000000000000  459821500000000443101000119460          SUP CHAPULTEPEC        MONTERREY NL  MEX                                            México                                            Compra54392402200
25   543924022623500220210814111800000001430340000000000087921000012879210223501000119856           H-E-B #263             BROWNSVILLE   TX                                    Estados Unidos                                            Compra54392402260
25   543924022623500220210814112800000002354860000000000087921000038879210546401000120214           H-E-B #263             BROWNSVILLE   TX                                    Estados Unidos                                            Compra54392402260
25   5439240223287006202108141128540000001000000000000000  604152900206860110301000120222          7 ELEVEN P DE CUMBRES  MONTERREY NL  MEX                                            México                                            Compra54392402230
25   5439240223287006202108141129460000001455000000000000  604152900206860188001000120263          7 ELEVEN P DE CUMBRES  MONTERREY NL  MEX                                            México                                            Compra54392402230
25   5439240224178006202108141133200000002010000000000000  810728367834235711901000120400          AME*RAPPI II           CIUDAD DE MEX MEX                                            México                                            Compra54392402240
25   5439240207207004202108141137130000005600000000000000  4153155ZQoQnh01pPOA01000120545          LACTEOS ARCE           OAXACA DE JUA MEX                                            México                                            Compra54392402070
25   543924021084600420210814115300000002530740000000000000000000000002860113002000121144          BANAMEX                SAN PEDRO GAR MEX                                            México                                        Retiro ATM54392402100
25   5439240219732007202108141207330000002650000000000000  135065100000000001101000121712          MI PUEBLITO REST BAR   MATAMOROS TAM MEX                                            México                                            Compra54392402190
25   5439240207207004202108141210440000002710000000000000  412523306072541164601000121797          CHEDRAUI 099 OAXACA RE OAXACA DE JUA MEX                                            México                                            Compra54392402070
25   5439240220088001202108141219300000018000000000000000  628711400000004760501000122184          BGA AURRERA VILLA JUAR JUAREZ NL     MEX                                            México                                            Compra54392402200
25   5439240212582003202108141234310000001580000000000000  414506921226005212301000122791          STARBUCKS CARR SLT MTY SALTILLO COAH MEX                                            México                                            Compra54392402120
25   543924021251400620210814123551000004934220000000000000000000000000000051202000122848          BBVA NO/INFORMADO      GARZA GARCIA  MEX                                            México                                        Retiro ATM54392402120
25   543924021548800020210814141846000000193540000000000016014600012263434614501000124708           Kindle Svcs            866-321-8851  WA                                    Estados Unidos                                            Compra54392402150
25   5439240220705000202108141319010000010920000000000000  830982600000000024201000124723          IHOP CAJA 7            TAMPICO TAMPS MEX                                            México                                            Compra54392402200
25   5439240223287006202108141401230000000900000000000000  792751794415334120901000126720          CLIP MX*MAS SUSHI      CIUDAD DE MEX MEX                                            México                                            Compra54392402230
25   5439240218569004202108141446160000056405600000000000  737696132750170993801000128807          CONEKTA*EDUMART        MONTERREY     MEX                                            México                                            Compra54392402180
25   5439240219732007202108141454410000008600000000000000  798315200000000012501000129214          DISTRIBUIDORA DEL NTE  MATAMOROS TAM MEX                                            México                                            Compra54392402190
25   5439240218569004202108141455080000063708100000000000  737696198966874161101000129236          CONEKTA*EDUMART        MONTERREY     MEX                                            México                                            Compra54392402180
25   5439240224178006202108140304150000006910100000000000  502385808140304159401000129704          OXXO GAS ALFAREROS     MONTERREY NL  MEX                                            México                                            Compra54392402240
25   5439240220670006202108141529400000000530000000000000  639620400131391900601000130955          OXXO EST CUAUHTEMOC    ALTAMIRA TAMP MEX                                            México                                            Compra54392402200
25   543924021206200620210814154147000000186690000000000000033463100003266467901000131500           RAISING CANE'S #267    BROWNSVILLE   TX                                    Estados Unidos                                            Compra54392402120
25   5439240210846004202108141549220000018460000000000000  782674008141549222501000131804          NETPAY*CASAGRANDE      SN PEDRO GARZ MEX                                            México                                            Compra54392402100
25   5439240213809009202108141649530000003000000000000000  766867397612461967701000134557          CLIP MX*ZONA 21 INTERL CIUDAD DE MEX MEX                                            México                                            Compra54392402130
25   5439240220670006202108141704310000007168100000000000  702292877833005765001000135216          GASOL ECG              CD VICTORIA T MEX                                            México                                            Compra54392402200
25   5439240219618008202108141704400000002100000000000000  440038800131428235201000135243          OXXO LA CAPITAL MTY    MONTERREY NL  MEX                                            México                                            Compra54392402190
25   5439240223287006202108141712130000002150000000000000  745269012262206383601000135574          IZETTLE*RESTS          CIUDAD DE MEX MEX                                            México                                            Compra54392402230
25   5439240222970008202108141714100000001768000000000000  842000648850833530801000135672          HEB TEC                MONTERREY NL  MEX                                            México                                            Compra54392402220
25   5439240224178006202108141723130000000650000000000000  745269012262201762901000136060          IZETTLE*RESTS          CIUDAD DE MEX MEX                                            México                                            Compra54392402240
25   5439240211471000202108141835470000005040000000000000  165287411007204402901000139212          F AHORRO MXTE SANTA T  CIUDAD DE MEX MEX                                            México                                            Compra54392402110
25   5439240212582003202108141907370000001160000000000000  443824800370808141901000140561          CINEPOLIS DULCERIA     MORELIA MICH  MEX                                            México                                            Compra54392402120
25   5439240224178006202108141911390000008834500000000000  841971163506257358401000140740          HEB VALLE ORIENTE      SN PEDRO GARZ MEX                                            México                                            Compra54392402240
25   5439240223212004202108141924340000001780000000000000  485032700206914089001000141293          7 ELEVEN T2137         MONTERREY NL  MEX                                            México                                            Compra54392402230
25   5439240218444000202108141955000000005000000000000000  419061500206917451201000142468          PETROMAX 6308 REV      MONTERREY NL  MEX                                            México                                            Compra54392402180
25   5439240218207001202108142041180000001125000000000000  817136000000000021201000144247          PAN PASTELERIA SN JOSE SANTA CATARIN MEX                                            México                                            Compra54392402180
25   5439240222970008202108142047390000004050000000000000  745269012270101302201000144515          IZETTLE*RESTS          CIUDAD DE MEX MEX                                            México                                            Compra54392402220
25   5439240222970008202108142111260000001690000000000000  648005700131515867601000145414          OXXO ALEJANDRO MAGNO   MONTERREY NL  MEX                                            México                                            Compra54392402220
25   543924021961800820210815033151000000287970000000000010000000012272005927301000147869          OF                     London        GBR                                       Reino Unido                                            Compra54392402190
25   543924021854800820210815055112000000159000000000000026995700012270329152601000148339          Disney PLUS            CMX           MEX                                            México                                            Compra54392402180
25   5439240215417009202108142313530000031464000000000000  821573700000000044701000148859          RESTAURANT MEDITERRANE REYNOSA TAMPS MEX                                            México                                            Compra54392402150
9900000051000000000000000000000000000000000000000000000000000000000000000000000000000000000000000000000000000000000000000000000000000000000000000000000000000000000000000000000000000000000000000000000000000000000000000000000000000000000000000000000000
