19LOG_ACT2021072100000000000000000000000000000000000000000000000000000000000000000000000000000000000000000000000000000000000000000000000000000000000000000000000000000000000000000000000000000000000000000000000000000000000000000000000000000000000000000
25   543924020521400220210721024123000001309000000000000000044519700004204256101051000000           UBER   *TRIP           SAN FRANCISCO CA                                    Estados Unidos                              Not sufficient funds54392402050
25   543924020521400220210721024123000001309000000000000000044519700004204256101051000000           UBER   *TRIP           SAN FRANCISCO CA                                    Estados Unidos                              Not sufficient funds54392402050
25   543924021136600220210721103010000000413290000000000013315338700000001744801000322496          FARMACIA ALICIA SAERA  VALL D UIXO   ESP                                            España                                            Compra54392402110
25   543924021136600220210721103100000000413290000000000013315338700000001744901000322498          FARMACIA ALICIA SAERA  VALL D UIXO   ESP                                            España                                            Compra54392402110
25   5439240211471000202107211215390000006179800000000000 6101631012020927417001000322637          FLAMINGOZ JOINT Equato NAIROBI       KEN                                             Kenia                                            Compra54392402110
25   5439240211471000202107211216480000000561800000000000 6101631012020957189601000322641          FLAMINGOZ JOINT Equato NAIROBI       KEN                                             Kenia                                            Compra54392402110
25   543924021136600220210721123155000000214910000000000034971007900000001526901000322830          GRANELL ROIG SL        LA VALL D'UIX ESP                                            España                                            Compra54392402110
25   543924021136600220210721131909000002432510000000000026681698200000000723801000322988          LA SONRISA DE CAROL    VALL D UIXO   ESP                                            España                                            Compra54392402110
25   543924021136600220210721132805000000145010000000000003650252400000000067101000323033          BLAT                   MURCIA        ESP                                            España                                            Compra54392402110
25   5439240220677001202107210618070000001099000000000000MWU4ZT35U07210015282401051000000          UBER* TRIP             CIUDAD DE MEX MEX                                            México                              Not sufficient funds54392402200
25   5439240220677001202107210618070000001099000000000000MWU4ZT35U07210015282401051000000          UBER* TRIP             CIUDAD DE MEX MEX                                            México                              Not sufficient funds54392402200
25   5439240215417009202107210927080000009200000000000000  789314900032675418801000325134          IZZI WEB PAGO          CIUDAD DE MEX MEX                                            México                                            Compra54392402150
25   5439240223681000202107210927320000001000000000000000  408833100125327004301000325147          OXXOMEGAGAS QRF        CELAYA GTO    MEX                                            México                                            Compra54392402230
25   543924021844400020210721161207000000259800000000000045567270807211706084601008000000          mrfgfy.com             (888) 276-803 GBR                                       Reino Unido                                 Tarjeta Bloqueada54392402180
25   543924021844400020210721161207000000259800000000000045567270807211706084601008000000          mrfgfy.com             (888) 276-803 GBR                                       Reino Unido                                 Tarjeta Bloqueada54392402180
25   5439240207207004202107211030020000000800000000000000  4171320mRIPL0kqCbbt01000326617          REST BOULENC           OAXACA DE JUA MEX                                            México                                            Compra54392402070
25   5439240220870002202107211057310000010726200000000000  404426900204779785501000327454          PETROMAX A BLVD 2      MONTERREY NL  MEX                                            México                                            Compra54392402200
25   543924020514800220210721121119000002353150000000000044450120212021472820801000329640           BLOOMINGDALES OUTLET   ROSEMONT      IL                                    Estados Unidos                                            Compra54392402050
25   5439240210846004202107211222520000009535000000000000  5287859L0450502619701000329998          LIVERPOOL VALLE OTE    MONTERREY NL  MEX                                            México                                            Compra54392402100
25   5439240210846004202107211232380000004241500000000000  5287859L0450504715901000330325          LIVERPOOL VALLE OTE    MONTERREY NL  MEX                                            México                                            Compra54392402100
25   5439240220071007202107211239070000003290000000000000  109863512021750712401000330532          MERCADO PAGO 4         CIUDAD DE MEX MEX                                            México                                            Compra54392402200
25   543924021052200120210721194302000000425100000000000017553057500000000010801000330658          EL CERAMISTA           VILA-REAL     ESP                                            España                                            Compra54392402100
25   543924020514800220210721125524000000126600000000000000042116500002235293901000331086           AUNTIE ANNES PRETZELS  ROSEMONT      IL                                    Estados Unidos                                            Compra54392402050
25   5439240223883002202107211304320000003355000000000000  109227750187871602701000331452          MULTI BONETERA         CIUDAD DE MEX MEX                                            México                                            Compra54392402230
25   5439240223883002202107211318370000003990000000000000  856811900001861393301000331986          BP*RETAIL VENTAS       GUADALAJARA J MEX                                            México                                            Compra54392402230
25   5439240220846002202107211318560000020970000000000000  821869000000000154301008000000          BIOANALISIS Y SERV HEM GUADALUPE NL  MEX                                            México                                 Tarjeta Bloqueada54392402200
25   5439240220846002202107211318560000020970000000000000  821869000000000154301008000000          BIOANALISIS Y SERV HEM GUADALUPE NL  MEX                                            México                                 Tarjeta Bloqueada54392402200
25   5439240220846002202107211319360000020970000000000000  747656000000000126801008000000          BIOANAL SERV HEMATOL I MONTERREY NL  MEX                                            México                                 Tarjeta Bloqueada54392402200
25   5439240220846002202107211319360000020970000000000000  747656000000000126801008000000          BIOANAL SERV HEMATOL I MONTERREY NL  MEX                                            México                                 Tarjeta Bloqueada54392402200
25   5439240220846002202107211321070000020970000000000000  821869000000000154401000332067          BIOANALISIS Y SERV HEM GUADALUPE NL  MEX                                            México                                            Compra54392402200
25   5439240212636007202107211325370000012956300000000000  841971117069199776801000332257          HEB VALLE ORIENTE      SN PEDRO GARZ MEX                                            México                                            Compra54392402120
25   5439240226235002202107211415130000008130000000000000  135065100000000103601000334090          MI PUEBLITO REST BAR   MATAMOROS TAM MEX                                            México                                            Compra54392402260
25   5439240215417009202107211415580000021000000000000000  421042700028745622401000334122          MERCADOPAGO 2 MU       CIUDAD DE MEX MEX                                            México                                            Compra54392402150
25   543924021961800820210721211646000003443210000000000026995700012021932579701000334160          Delivery Technologies  CMX           MEX                                            México                                            Compra54392402190
25   5439240220705000202107211437370000008500000000000000  7717937Tavzh4GBKcU101000334955          BIOANALISIS            MONTERREY NL  MEX                                            México                                            Compra54392402200
25   5439240226235002202107211531080000024148600000000000  206843507211502378301000337067          BENAVIDES14406 CONSUL  MATAMOROS TAM MEX                                            México                                            Compra54392402260
25   543924021961800820210721211646000003390170000000000026995700012021932579701000337907          Delivery Technologies  CMX           MEX                                            México                                            Compra54392402190
25   5439240222970008202107211630030000001150000000000000  788982491130250197501008000000          AME*SPOTIFY CR         MEXICO CITY   MEX                                            México                                 Tarjeta Bloqueada54392402220
25   5439240222970008202107211630030000001150000000000000  788982491130250197501008000000          AME*SPOTIFY CR         MEXICO CITY   MEX                                            México                                 Tarjeta Bloqueada54392402220
25   5439240223681000202107211704530000003200000000000000  115805158020229059401000340451          BARBACOA LOS MARTINEZ4 CELAYA GTO    MEX                                            México                                            Compra54392402230
25   543924022016900920210721153215000000034050000000000000098002000009379852201051000000          PAYPAL *UBER BV        35314369001   NLD                                      Países Bajos                              Not sufficient funds54392402200
25   543924022016900920210721153215000000034050000000000000098002000009379852201051000000          PAYPAL *UBER BV        35314369001   NLD                                      Países Bajos                              Not sufficient funds54392402200
25   5439240220705000202107211757120000019046100000000000  239681022689023265101000342292          DHL DEL VALLE MTY      SAN PEDRO GAR MEX                                            México                                            Compra54392402200
25   5439240219732007202107211812180000042032500000000000  850144200000000020101000342839          TABOO CDMX             CIUDAD DE MEX MEX                                            México                                            Compra54392402190
25   5439240220890000202107211851450000003350000000000000  713972900000000001801000344260          HOTEL IBIS MX PERINTE  CUAUTITLAN IZ MEX                                            México                                            Compra54392402200
25   5439240210846004202107211858220000000300000000000000  769414800000000270201000344512          F PRIV ARBOLEDA F1974  SN PEDRO GARZ MEX                                            México                                            Compra54392402100
25   5439240207396005202107211955300000044919000000000000  4120930Yi7ulVdsvycP01000346538          BURRO E SALVIA         CIUDAD DE MEX MEX                                            México                                            Compra54392402070
25   543924022007100720210721213248000000000000000000000005992100012037474549001000347881           AIRBNB INC             415-800-5959  CA                                    Estados Unidos                                            Compra54392402200
25   543924022007100720210721213310000000648650000000000025883800012036464199701000347895          AIRBNB * HMZJNBBN5B    554-170-4333  GBR                                       Reino Unido                                            Compra54392402200
25   5439240219950005202107212034340000000590000000000000  679367300125497190801000347959          OXXO MONSERRAT         MEXICO CITY   MEX                                            México                                            Compra54392402190
25   5439240223681000202107212035570000001225000000000000  678977000210078015701000348096          FARM GUADALAJARA 843   CELAYA GTO    MEX                                            México                                            Compra54392402230
25   5439240215417009202107212045200000003030000000000000  109863512030133845501000348351          MERCADO PAGO 4         CIUDAD DE MEX MEX                                            México                                            Compra54392402150
25   5439240212514006202107212144300000011501000000000000  419061500204833287301000350226          PETROMAX 6308 REV      MONTERREY NL  MEX                                            México                                            Compra54392402120
25   5439240220870002202107212205020000070301600000000000000000000      93799702000350853          BANCO SANTANDER        GUADALUPE     MEX                                            México                                        Retiro ATM54392402200
25   543924021961800820210722051158000000169510000000000026995700012030331014701000351029          Delivery Technologies  CMX           MEX                                            México                                            Compra54392402190
25   5439240220705000202107212214090000012890000000000000  833822403141066216001000351091          REST PAPPAS GRILL MVA  MONCLOVA COAH MEX                                            México                                            Compra54392402200
25   5439240223681000202107212225260000007480000000000000  776518000000000010801000351349          REST BURGUES URBAN GRI CELAYA GTO    MEX                                            México                                            Compra54392402230
25   5439240220705000202107212230390000000420000000000000  417143600143339086701000351478          FAR GUAD 2042          MONCLOVA COAH MEX                                            México                                            Compra54392402200
9900000058000000000000000000000000000000000000000000000000000000000000000000000000000000000000000000000000000000000000000000000000000000000000000000000000000000000000000000000000000000000000000000000000000000000000000000000000000000000000000000000000
