19LOG_ACT2021070800000000000000000000000000000000000000000000000000000000000000000000000000000000000000000000000000000000000000000000000000000000000000000000000000000000000000000000000000000000000000000000000000000000000000000000000000000000000000000
25   543924021052200120210708122136000001300090000000000015672491600000000051701000890555          CAMBIO DENTAL,S L      ONDA          ESP                                            España                                            Compra54392402100
25   543924021820700120210708123305000000049900000000000026995700011891031174801000890594          UBER * PENDING         CMX           MEX                                            México                                            Compra54392402180
25   543924021820700120210708123305000000015000000000000026995700011891031174801000890668          UBER * PENDING         CMX           MEX                                            México                                            Compra54392402180
25   543924021052200120210708133905000047276030000000000013322644900000000708701000890858          ALBANI MOBILIARIO, S L VILA-REAL     ESP                                            España                                            Compra54392402100
25   543924021052200120210708133943000009998880000000000013322644900000000708801000890866          ALBANI MOBILIARIO, S L VILA-REAL     ESP                                            España                                            Compra54392402100
25   5439240220890000202107080743240000001520000000000000  713972900000000082901000891336          HOTEL IBIS MX PERINTE  CUAUTITLAN IZ MEX                                            México                                            Compra54392402200
25   5439240220670006202107080836530000000700000000000000  420009900122093371901000891988          OXXO15 DE OCTUBRE      ACTOPAN HGO   MEX                                            México                                            Compra54392402200
25   5439240220670006202107080844220000000320000000000000  787989200031448305001000892105          MUNDO TOOL ACTOPAN     ACTOPAN HGO   MEX                                            México                                            Compra54392402200
25   5439240218936005202107080923430000000402000000000000  814548191128331309901000892823          D LOCAL*DIDI MOBILITY  MEXICO CITY   MEX                                            México                                            Compra54392402180
25   5439240207356009202107080958520000003000000000000000  792749606561863299901000893528          CLIP MX*MEDICA COLON   CIUDAD DE MEX MEX                                            México                                            Compra54392402070
25   543924021548800020210708111425000000026950000000000016014600011894141045901000893923           Newsstand              866-321-8851  WA                                    Estados Unidos                                            Compra54392402150
25   5439240212636007202107081017150000005787700000000000  700967266810733050101000893985          CF SAN JUAN VALLE      SN PEDRO GARZ MEX                                            México                                            Compra54392402120
25   543924021136600220210708173928000014337870000000000032293316900000000646801000894537          PAGO TRIBUTOS          BARCELONA     ESP                                            España                                            Compra54392402110
25   5439240212636007202107081102380000005245200000000000  111286500000100142001051000000          CITY MARKET MTY 419    SAN PEDRO GAR MEX                                            México                              Not sufficient funds54392402120
25   5439240212636007202107081102380000005245200000000000  111286500000100142001051000000          CITY MARKET MTY 419    SAN PEDRO GAR MEX                                            México                              Not sufficient funds54392402120
25   5439240212636007202107081103240000005245200000000000  111286500000100142101051000000          CITY MARKET MTY 419    SAN PEDRO GAR MEX                                            México                              Not sufficient funds54392402120
25   5439240212636007202107081103240000005245200000000000  111286500000100142101051000000          CITY MARKET MTY 419    SAN PEDRO GAR MEX                                            México                              Not sufficient funds54392402120
25   5439240212636007202107081110270000004786200000000000  111286500000100152701000895399          CITY MARKET MTY 419    SAN PEDRO GAR MEX                                            México                                            Compra54392402120
25   5439240220705000202107081114550000012047600000000000  760170059058093520401000895575          GASOLINERA LOMAS       TAMPICO       MEX                                            México                                            Compra54392402200
25   5439240220705000202107081119510000001290000000000000  193905762576119145301000895722          SANBORNS TAMPICO       TAMPICO TAMPS MEX                                            México                                            Compra54392402200
25   5439240220705000202107081234310000004653000000000000  830982400000000062601000897987          IHOP CAJA 6            TAMPICO TAMPS MEX                                            México                                            Compra54392402200
25   5439240210846004202107081246590000001890000000000000  841971192041658314901000898395          HEB VALLE ORIENTE      SN PEDRO GARZ MEX                                            México                                            Compra54392402100
25   543924021084600420210708124800000001030740000000000000000000000000520019102000898431          BANAMEX                SAN PEDRO GAR MEX                                            México                                        Retiro ATM54392402100
25   5439240219931005202107081056110000004991500000000000VZXSECQO607080008339401000898702          LATER.COM INSTAGRAM    +18444552837  CAN                                            Canadá                                            Compra54392402190
25   5439240218207001202107081331060000000469500000000000  814548191128358749401000899901          D LOCAL*DIDI MOBILITY  MEXICO CITY   MEX                                            México                                            Compra54392402180
25   5439240222935001202107081340530000001786400000000000  4240889An59wFNsApDS01000900287          FESTER TICOMAN         CIUDAD DE MEX MEX                                            México                                            Compra54392402220
25   5439240220705000202107081357590000010679900000000000  209144521189068580801000900920          FIESTA INN TAMPICO     TAMPICO TAMPS MEX                                            México                                            Compra54392402200
25   5439240220670006202107081412360000002490000000000000  444206794343502590001000901434          SUBWAY AICM T2         MEXICO CITY   MEX                                            México                                            Compra54392402200
25   5439240218118000202107081415510000000200000000000000  797911266810761963401000901580          AMAZON MX              MEXICO CITY   MEX                                            México                                            Compra54392402180
25   5439240218118000202107081421010000005490000000000000  797912891128365758401000901765          AMAZON MX MARKETPLACE  MEXICO CITY   MEX                                            México                                            Compra54392402180
25   5439240219756006202107081453020000103325000000000000  844833707081453022001000902943          NETPAY*NATURAL         SN PEDRO GARZ MEX                                            México                                            Compra54392402190
25   5439240218207001202107081545160000000464400000000000  814548151397164249701000904821          D LOCAL*DIDI MOBILITY  MEXICO CITY   MEX                                            México                                            Compra54392402180
25   543924029732000620210708164522000000020000000000000026507200011896969544701000904825           GOOGLE *TEMPORARY HOLD cc@google.com CA                                    Estados Unidos                                            Compra54392402970
25   5439240297320006202107081545250000005000000000000000  782313051397164277501000904828          PAYU LA*GOOGLE MX CR   CIUDAD DE MEX MEX                                            México                                            Compra54392402970
25   5439240224178006202107081555530000001348000000000000000000000        998102000905220          *SCOTIABANK            MONTERREY     MEX                                            México                                        Retiro ATM54392402240
25   5439240220705000202107081557290000000100000000000000  657927000122191652501000905284          OXXO LLERA             MARIANO ESCOB MEX                                            México                                            Compra54392402200
25   5439240210791002202107080405190000014180000000000000  797109600000009314701000905594          OFFICEMAX SAN AGUSTIN  SAN PEDRO GAR MEX                                            México                                            Compra54392402100
25   543924022417800620210708233008000000167000000000000026995700011892130429501000906516          RAPPI*RAPPI MEXICO     Mexico City   MEX                                            México                                            Compra54392402240
25   5439240205664008202107081647560000004640000000000000  701696450780741049201000907129          FARM SAN JUDAS TADEO   HEROICA MATAM MEX                                            México                                            Compra54392402050
25   5439240297320006202107081656540000015000000000000000  782313091128386695701000907481          PAYU LA*GOOGLE MX CR   CIUDAD DE MEX MEX                                            México                                            Compra54392402970
25   543924022067000620210708174316000000634800000000000000000000028891700359102000909112          BANCA AFIRME,S.A.      APODACA       MEX                                            México                                        Retiro ATM54392402200
25   5439240207356009202107081755030000002240000000000000  115151925766903319501000909544          CAFE Y CACAO           SANTA CRUZ XO MEX                                            México                                            Compra54392402070
25   543924022209200120210709011722000000239930000000000026995700011892331357001000910281          UBER * PENDING         CMX           MEX                                            México                                            Compra54392402220
25   5439240220705000202107080631160000003000000000000000  770348107080631165601000910761          OXXO GAS LINARES       LINARES NL    MEX                                            México                                            Compra54392402200
25   5439240220705000202107081841080000000105000000000000  647212000122236641801000911152          OXXO LIB CD VISTORIA   LINARES NL    MEX                                            México                                            Compra54392402200
25   5439240212582003202107081852000000002100000000000000  742651887323559730901000911527          BUONISSIMO GELATO ITAL BAHIA DE BAND MEX                                            México                                            Compra54392402120
25   5439240207207004202107082006010000003945000000000000  4892279L2oOkvbMmgkh01000914398          FARMACIA 2002 2        OAXACA DE JUA MEX                                            México                                            Compra54392402070
25   5439240219756006202107082012410000009029100000000000  798829800060410365901000914678          HOME DEPOT SN JERONIMO MEXICO CITY   MEX                                            México                                            Compra54392402190
25   5439240222092001202107080818410000007720300000000000  441169007080818412601000914894          OXXO GAS NACIONAL      MONTERREY NL  MEX                                            México                                            Compra54392402220
25   5439240220890000202107082054280000001500000000000000  713972900000000083901000916282          HOTEL IBIS MX PERINTE  CUAUTITLAN IZ MEX                                            México                                            Compra54392402200
25   5439240215417009202107082113110000023000000000000000  792751721656568523601000916916          CLIP MX*COMIDA CORRIDA CIUDAD DE MEX MEX                                            México                                            Compra54392402150
25   5439240224178006202107082244000000000010000000000000  810996400003836001501000919493          1PAYLU*CANVA           CIUDAD DE MEX MEX                                            México                                            Compra54392402240
25   5439240220870002202107082314440000009420000000000000  834031700000000007401000920233          CHILIS SANTA CATARINA  SANTA CATARIN MEX                                            México                                            Compra54392402200
9900000053000000000000000000000000000000000000000000000000000000000000000000000000000000000000000000000000000000000000000000000000000000000000000000000000000000000000000000000000000000000000000000000000000000000000000000000000000000000000000000000000
