19LOG_ACT2021072800000000000000000000000000000000000000000000000000000000000000000000000000000000000000000000000000000000000000000000000000000000000000000000000000000000000000000000000000000000000000000000000000000000000000000000000000000000000000000
25   543924021052200120210728043252000000460360000000000022140500012096060074901000543058          AMZN Mktp ES           800-279-6620  LUX                                        Luxemburgo                                            Compra54392402100
25   5439240218936005202107280447260000002990000000000000  41908334rnsktbszgxg01051000000          PR ADOBE CR            NAUCALPAN DE  MEX                                            México                              Not sufficient funds54392402180
25   5439240218936005202107280447260000002990000000000000  41908334rnsktbszgxg01051000000          PR ADOBE CR            NAUCALPAN DE  MEX                                            México                              Not sufficient funds54392402180
25   5439240218936005202107280447300000002990000000000000  4190833uc9ahdbemmme01051000000          PR ADOBE CR            NAUCALPAN DE  MEX                                            México                              Not sufficient funds54392402180
25   5439240218936005202107280447300000002990000000000000  4190833uc9ahdbemmme01051000000          PR ADOBE CR            NAUCALPAN DE  MEX                                            México                              Not sufficient funds54392402180
25   5439240220890000202107280542150000001550000000000000  404368421209057065001000543449          STARBUCKS APTO MTY PB  APODACA NL    MEX                                            México                                            Compra54392402200
25   5439240219950005202107280627230000000574600000000000  814548151735568734401000543606          D LOCAL*DIDI MOBILITY  MEXICO CITY   MEX                                            México                                            Compra54392402190
25   5439240220677001202107280739040000000445000000000000  633817200126987420201000544097          OXXO 57                CASTANOS COAH MEX                                            México                                            Compra54392402200
25   5439240220629002202107280838350000001715000000000000  483741500126993674001000544783          OXXO CARACOL MID       PROGRESO YUC  MEX                                            México                                            Compra54392402200
25   5439240219950005202107280852460000000472600000000000  814548191736175255101000545030          D LOCAL*DIDI MOBILITY  MEXICO CITY   MEX                                            México                                            Compra54392402190
25   543924022070500020210728085513000000784800000000000000000000029090800011002000545086          BANCA AFIRME,S.A.      CASTA#OS      MEX                                            México                                        Retiro ATM54392402200
25   543924021147100020210728155515000005127910000000000000000000012091333880202000545088          BM ALQORANAH BR1       LUXOR         EGY                                            Egipto                                        Retiro ATM54392402110
25   543924022488100520210728112301000000059000000000000018882600012093737234601051000000          GOOGLE *Google Play    g.co/helppay# GBR                                       Reino Unido                              Not sufficient funds54392402240
25   543924022488100520210728112301000000059000000000000018882600012093737234601051000000          GOOGLE *Google Play    g.co/helppay# GBR                                       Reino Unido                              Not sufficient funds54392402240
25   5439240210846004202107281111070000005800000000000000  745269012091605319801000548263          IZETTLE*REFACCI Y ACCC CIUDAD DE MEX MEX                                            México                                            Compra54392402100
25   5439240212636007202107281157020000001500000000000000  7724649rp0LVwT1IIf001000549677          PETINA CATINA          SN PEDRO GARZ MEX                                            México                                            Compra54392402120
25   5439240222935001202107281353100000006230000000000000  023418700000005435101000553664          SUPERAMA LINDAVISTA    MEXICO CITY   MEX                                            México                                            Compra54392402220
25   5439240220870002202107281414450000003960200000000000  404296100000003672801000554206          IMPULSORA IND MTY NET  APODACA NL    MEX                                            México                                            Compra54392402200
25   5439240220705000202107281433210000009273000000000000  860789612091902149101000555135          REST LA PATRONA        CASTANOS COAH MEX                                            México                                            Compra54392402200
25   5439240212636007202107281435240000007501500000000000  757480977735293016601000555213          ORSAN DEL NORTE EST 36 MONTERREY NL  MEX                                            México                                            Compra54392402120
25   5439240220629002202107281450000000005390000000000000  4253634JQMjxqHtPQ1I01000555750          ZINC COMFORT FOOD      MERIDA YUC    MEX                                            México                                            Compra54392402200
25   5439240212636007202107281450200000003000000000000000  481177400127074206701000555772          OXXO REAL DE SAN JOSE  MONTERREY NL  MEX                                            México                                            Compra54392402120
25   5439240212636007202107281534520000000670000000000000  415231507281504174701000557317          BEN330797TORRE LATITUD SN PEDRO GARZ MEX                                            México                                            Compra54392402120
25   5439240211471000202107282312570000009988500000000000 3536891907282305836201000558781          GREAT PYRAMID INN HOTE GIZA     -12E EGY                                            Egipto                                            Compra54392402110
25   5439240220705000202107281647130000015143100000000000  231845958080603034101000560012          DHL MONCLOVA           MONCLOVA COAH MEX                                            México                                            Compra54392402200
25   5439240297320006202107281713170000000200000000000000  42001888vna9vyfyxr001000560873          OP*PKMOVIL             SANTIAGO DE Q MEX                                            México                                            Compra54392402970
25   543924021147100020210729001651000000994850000000000045400590012102800049201000561039          GREAT PYRAMIDS AN        ELHARAM     EGY                                            Egipto                                            Compra54392402110
25   5439240220705000202107281834200000003075500000000000  024045707281801111201000563311          BENAVIDES 10013 MONCL  MONCLOVA COAH MEX                                            México                                            Compra54392402200
25   5439240220629002202107282033480000004080000000000000  768685200000000009901000567737          LA EXQUINA             MERIDA YUC    MEX                                            México                                            Compra54392402200
25   5439240219950005202107282202090000001940000000000000  679367300127188076801000570536          OXXO MONSERRAT         MEXICO CITY   MEX                                            México                                            Compra54392402190
25   543924022488100520210729052306000000059000000000000052656700012100310592501051000000          GOOGLE  Google Play    London        GBR                                       Reino Unido                              Not sufficient funds54392402240
25   543924022488100520210729052306000000059000000000000052656700012100310592501051000000          GOOGLE  Google Play    London        GBR                                       Reino Unido                              Not sufficient funds54392402240
25   5439240219950005202107282224220000000386500000000000  814548151735685033001008000000          D LOCAL*DIDI MOBILITY  MEXICO CITY   MEX                                            México                                 Tarjeta Bloqueada54392402190
25   5439240219950005202107282224220000000386500000000000  814548151735685033001008000000          D LOCAL*DIDI MOBILITY  MEXICO CITY   MEX                                            México                                 Tarjeta Bloqueada54392402190
25   5439240219950005202107282224240000000386500000000000  4169659gvuit8pl5kxz01008000000          OP*DIDIMX              QUERETARO QRO MEX                                            México                                 Tarjeta Bloqueada54392402190
25   5439240219950005202107282224240000000386500000000000  4169659gvuit8pl5kxz01008000000          OP*DIDIMX              QUERETARO QRO MEX                                            México                                 Tarjeta Bloqueada54392402190
25   5439240220870002202107282239150000003035000000000000  647906700127192751501000571348          OXXO PED LINDA VISTA   GUADALUPE NL  MEX                                            México                                            Compra54392402200
25   5439240219950005202107282252560000000859100000000000  814548166735810330901008000000          D LOCAL*DIDI MOBILITY  MEXICO CITY   MEX                                            México                                 Tarjeta Bloqueada54392402190
25   5439240219950005202107282252560000000859100000000000  814548166735810330901008000000          D LOCAL*DIDI MOBILITY  MEXICO CITY   MEX                                            México                                 Tarjeta Bloqueada54392402190
25   5439240219950005202107282252590000000859100000000000  41696599awue4zlle5o01008000000          OP*DIDIMX              QUERETARO QRO MEX                                            México                                 Tarjeta Bloqueada54392402190
25   5439240219950005202107282252590000000859100000000000  41696599awue4zlle5o01008000000          OP*DIDIMX              QUERETARO QRO MEX                                            México                                 Tarjeta Bloqueada54392402190
25   5439240219950005202107282254480000000918700000000000  814548151735690153701008000000          D LOCAL*DIDI MOBILITY  MEXICO CITY   MEX                                            México                                 Tarjeta Bloqueada54392402190
25   5439240219950005202107282254480000000918700000000000  814548151735690153701008000000          D LOCAL*DIDI MOBILITY  MEXICO CITY   MEX                                            México                                 Tarjeta Bloqueada54392402190
25   5439240219950005202107282254500000000918700000000000  4169659fsapb5fq2okn01008000000          OP*DIDIMX              QUERETARO QRO MEX                                            México                                 Tarjeta Bloqueada54392402190
25   5439240219950005202107282254500000000918700000000000  4169659fsapb5fq2okn01008000000          OP*DIDIMX              QUERETARO QRO MEX                                            México                                 Tarjeta Bloqueada54392402190
25   543924021995000520210729055728000000104710000000000026995700012100332794501008000000          UBER * PENDING         CMX           MEX                                            México                                 Tarjeta Bloqueada54392402190
25   543924021995000520210729055728000000104710000000000026995700012100332794501008000000          UBER * PENDING         CMX           MEX                                            México                                 Tarjeta Bloqueada54392402190
25   5439240219950005202107282057300000001047100000000000MWU4ZT35U07290052404101008000000          UBER* PENDING          CIUDAD DE MEX MEX                                            México                                 Tarjeta Bloqueada54392402190
25   5439240219950005202107282057300000001047100000000000MWU4ZT35U07290052404101008000000          UBER* PENDING          CIUDAD DE MEX MEX                                            México                                 Tarjeta Bloqueada54392402190
25   5439240219950005202107282257320000001047100000000000  856290412100301476401008000000          ST*UBER                CIUDAD DE MEX MEX                                            México                                 Tarjeta Bloqueada54392402190
25   5439240219950005202107282257320000001047100000000000  856290412100301476401008000000          ST*UBER                CIUDAD DE MEX MEX                                            México                                 Tarjeta Bloqueada54392402190
25   5439240219950005202107282257520000000386500000000000  814548191736286940201000571711          D LOCAL*DIDI MOBILITY  MEXICO CITY   MEX                                            México                                            Compra54392402190
25   5439240219950005202107282322090000000906100000000000  814548166735813495501000572098          D LOCAL*DIDI MOBILITY  MEXICO CITY   MEX                                            México                                            Compra54392402190
9900000053000000000000000000000000000000000000000000000000000000000000000000000000000000000000000000000000000000000000000000000000000000000000000000000000000000000000000000000000000000000000000000000000000000000000000000000000000000000000000000000000
