19LOG_ACT2021073000000000000000000000000000000000000000000000000000000000000000000000000000000000000000000000000000000000000000000000000000000000000000000000000000000000000000000000000000000000000000000000000000000000000000000000000000000000000000000
25   5439240226253005202107300149590000050910500000000000  843245506502000032101000606854          REST CAPRICHO MIO ALIM CIUDAD DE MEX MEX                                            México                                            Compra54392402260
25   543924021052200120210730100224000001186380000000000032327142900000000295301000607264          FLORISTERIA LA ROSA NE VALL D UIXO   ESP                                            España                                            Compra54392402100
25   5439240205975008202107300923530000008290000000000000000000000        760502000610553          SUC MATAMOROS          MATAMOROS     MEX                                            México                                        Retiro ATM54392402050
25   5439240220629002202107300951550000004310000000000000  209591762765671564301000611218          SANBORN S MERIDA       MERIDA YUC    MEX                                            México                                            Compra54392402200
25   543924022488100520210730172341000000059000000000000052656700012111523989601000612090          GOOGLE  Google Play    London        GBR                                       Reino Unido                                            Compra54392402240
25   5439240220705000202107301055450000001300000000000000  850481100001751247901000612967          MUNCHIN DONUTS MONCLOV MONCLOVA COAH MEX                                            México                                            Compra54392402200
25   5439240220705000202107301057120000000400000000000000  745269012111501236401000613014          IZETTLE*REFACCI Y ACCC CIUDAD DE MEX MEX                                            México                                            Compra54392402200
25   5439240218936005202107301113290000000080000000000000  406836700127488338701000613503          OXXO P CAMPANARIO CUE  CUERNAVACA MO MEX                                            México                                            Compra54392402180
25   543924021995000520210730123455000000017000000000000033719500012114444068401000614231           APPLE.COM/BILL         866-712-7753  CA                                    Estados Unidos                                            Compra54392402190
25   5439240212582003202107301207480000000630000000000000  370301421211077242401000615320          STARBUCKS GOMEZ MORIN  SAN PEDRO GAR MEX                                            México                                            Compra54392402120
25   5439240220870002202107301244270000004267000000000000  842073885970235408801000616573          HEB CHIPINQUE          SN PEDRO GARZ MEX                                            México                                            Compra54392402200
25   5439240222935001202107301256290000002310000000000000  023418700000000877101000617025          SUPERAMA LINDAVISTA    MEXICO CITY   MEX                                            México                                            Compra54392402220
25   5439240222935001202107301308050000005220000000000000  784718600033562590501000617444          MEATME                 HUIXQUILUCAN  MEX                                            México                                            Compra54392402220
25   5439240212572004202107301221190000020077500000000000  104267334499007301301000617974          COSTCO CULIACAN        CULIACAN SIN  MEX                                            México                                            Compra54392402120
25   543924021147100020210730202423000000598600000000000010127060012113000003001000618074          EGYPTAIR CAIRO TERM 3  O CAIRO AIRPO EGY                                            Egipto                                            Compra54392402110
25   5439240220629002202107301324340000000760000000000000  639178300127527132901000618146          OXXO TECNOLOGICO       MERIDA YUC    MEX                                            México                                            Compra54392402200
25   5439240211471000202107302114040000007181100000000000   50085012111918761001000620056          SSP EGYPT              CAIRO E. -07C EGY                                            Egipto                                            Compra54392402110
25   5439240211471000202107302116300000000480500000000000   50085012111919016301000620183          SSP EGYPT              CAIRO E. -07C EGY                                            Egipto                                            Compra54392402110
25   543924021548800020210730152621000000322280000000000016014600012113535856801000620615           AMZN Digital           888-802-3080  WA                                    Estados Unidos                                            Compra54392402150
25   5439240224881005202107301429270000000800000000000000  413731800029009863301000620769          CFE CONTIGO MU         MEXICO CITY   MEX                                            México                                            Compra54392402240
25   5439240220705000202107301539030000008151000000000000  860789612112003415401000623679          REST LA PATRONA        CASTANOS COAH MEX                                            México                                            Compra54392402200
25   5439240220870002202107301616080000010600300000000000  948745577735368158901000625155          ORSAN D NTE            SN PEDRO GARZ MEX                                            México                                            Compra54392402200
25   5439240218936005202107301629220000002990000000000000  4190833ikmqyggthfuw01051000000          PR ADOBE CR            NAUCALPAN DE  MEX                                            México                              Not sufficient funds54392402180
25   5439240218936005202107301629220000002990000000000000  4190833ikmqyggthfuw01051000000          PR ADOBE CR            NAUCALPAN DE  MEX                                            México                              Not sufficient funds54392402180
25   5439240218936005202107301629260000002990000000000000  4190833jnycgr3oaucs01051000000          PR ADOBE CR            NAUCALPAN DE  MEX                                            México                              Not sufficient funds54392402180
25   5439240218936005202107301629260000002990000000000000  4190833jnycgr3oaucs01051000000          PR ADOBE CR            NAUCALPAN DE  MEX                                            México                              Not sufficient funds54392402180
25   5439240221785001202107301638540000004752500000000000  4164870BPexJIEbnufN01000626056          CHEMICO ESPECIALIDADES MONTERREY NL  MEX                                            México                                            Compra54392402210
25   5439240220890000202107301730530000008590000000000000  713972900000000099201000628086          HOTEL IBIS MX PERINTE  CUAUTITLAN IZ MEX                                            México                                            Compra54392402200
25   5439240212636007202107301735150000008069500000000000  841971150624966821701000628229          HEB VALLE ORIENTE      SN PEDRO GARZ MEX                                            México                                            Compra54392402120
25   5439240219732007202107301804280000007318300000000000  836302321211078757401000629353          KARZO GASOL ES MORELOS MATAMOROS TAM MEX                                            México                                            Compra54392402190
25   5439240212636007202107301816440000002684000000000000  0300046a8v7uYnCZIGi01000629854          SUPER MODE GM          SN PEDRO GARZ MEX                                            México                                            Compra54392402120
25   5439240219950005202107301834160000000990000000000000  797911266736079774501000630598          AMAZON MX              MEXICO CITY   MEX                                            México                                            Compra54392402190
25   5439240223883002202107301918230000002101000000000000  100776403420443312401000632419          SORIANA342 VALLE       GARZA GARCIA  MEX                                            México                                            Compra54392402230
25   5439240219615004202107301919090000000990000000000000  797911251735968562101008000000          AMAZON MX              MEXICO CITY   MEX                                            México                                 Tarjeta Bloqueada54392402190
25   5439240219615004202107301919090000000990000000000000  797911251735968562101008000000          AMAZON MX              MEXICO CITY   MEX                                            México                                 Tarjeta Bloqueada54392402190
25   5439240223883002202107301918490000002101000000000000  100776403420443314901000632450          SORIANA342 VALLE       GARZA GARCIA  MEX                                            México                                            Compra54392402230
25   5439240219615004202107301919180000000990000000000000  797911291736562393201008000000          AMAZON MX              MEXICO CITY   MEX                                            México                                 Tarjeta Bloqueada54392402190
25   5439240219615004202107301919180000000990000000000000  797911291736562393201008000000          AMAZON MX              MEXICO CITY   MEX                                            México                                 Tarjeta Bloqueada54392402190
25   5439240223883002202107301921370000070313200000000000000000000        788902000632572          SUC. MISSISSIPPI       S P GARZA G   MEX                                            México                                        Retiro ATM54392402230
25   5439240213809009202107301928070000005770000000000000  110994727673286727601000632843          FISHER S INTERLOMAS    HUIXQUILUCAN  MEX                                            México                                            Compra54392402130
25   5439240220890000202107301937510000001220000000000000  4198566l6fL704UG76001000633213          LA CASA DE TONO PERINO CUAUTITLAN IZ MEX                                            México                                            Compra54392402200
25   5439240220890000202107301954480000002590000000000000  713972900000000000101000633911          HOTEL IBIS MX PERINTE  CUAUTITLAN IZ MEX                                            México                                            Compra54392402200
25   5439240219618008202107302103140000001100000000000000  447492000205601152901000636683          7 ELEVEN T 1887        SN NICOLAS DE MEX                                            México                                            Compra54392402190
25   5439240220629002202107302105240000007866200000000000  707446600006510669401000636769          GAS COMBUSTIBLES CHUBU MERIDA YUC    MEX                                            México                                            Compra54392402200
25   5439240220629002202107302108410000001040000000000000  639178300127704193401000637083          OXXO TECNOLOGICO       MERIDA YUC    MEX                                            México                                            Compra54392402200
25   5439240220870002202107302224280000004835000000000000  647906700127726202201000639471          OXXO PED LINDA VISTA   GUADALUPE NL  MEX                                            México                                            Compra54392402200
9900000046000000000000000000000000000000000000000000000000000000000000000000000000000000000000000000000000000000000000000000000000000000000000000000000000000000000000000000000000000000000000000000000000000000000000000000000000000000000000000000000000
