19LOG_ACT2021071400000000000000000000000000000000000000000000000000000000000000000000000000000000000000000000000000000000000000000000000000000000000000000000000000000000000000000000000000000000000000000000000000000000000000000000000000000000000000000
25   543924021548800020210714012214000000301840000000000016014600011953232588301000078869           AMZN Digital           888-802-3080  WA                                    Estados Unidos                                            Compra54392402150
25   543924021548800020210714023839000000336390000000000037217639211957251525201000079452           AMZN DIGITAL 888-802-3 SEATTLE       WA                                    Estados Unidos                                            Compra54392402150
25   543924021136600220210714103956000002924270000000000025600182700000000162301000079952          SUPER DECOR            VALL D UIXO   ESP                                            España                                            Compra54392402110
25   5439240297320006202107140351260000002660000000000000  739389951397942560501000079989          NETFLIX                MEXICO CITY   MEX                                            México                                            Compra54392402970
25   5439240218936005202107141013510000001190000000000000 2544822500000000280001008000000          WWW.F1.COM             ZZZZZZZZZZZZZ GBR                                       Reino Unido                                 Tarjeta Bloqueada54392402180
25   5439240218936005202107141013510000001190000000000000 2544822500000000280001008000000          WWW.F1.COM             ZZZZZZZZZZZZZ GBR                                       Reino Unido                                 Tarjeta Bloqueada54392402180
25   543924021136600220210714124947000001510950000000000035344438300000000016701000080369          PESCADERIA EMILIO ALEM MONCOFAR      ESP                                            España                                            Compra54392402110
25   5439240220670006202107140733310000001733200000000000  182145300000010200301000080934          WAL MART TAMPICO       TAMPICO TAMPS MEX                                            México                                            Compra54392402200
25   5439240220670006202107140741460000001080000000000000  131524121195037033201000081015          STARBUCKS TAMPICO HGO  TAMPICO TAMPS MEX                                            México                                            Compra54392402200
25   5439240220677001202107140953360000001210000000000000  792751726765839320401000083156          CLIP MX* 29  DELI SAZO CIUDAD DE MEX MEX                                            México                                            Compra54392402200
25   5439240207207004202107141033430000004120000000000000  4149887hVRH39vpehUZ01000084117          FIX FERRETERIAS        SN PEDRO MIXT MEX                                            México                                            Compra54392402070
25   5439240205975008202107141109450000005574000000000000  764215900032009334501000085145          NAL REXM FEDEX MATAMOR MEXICO CITY   MEX                                            México                                            Compra54392402050
25   5439240218207001202107141114400000002290000000000000  816459607141114404201008000000          NETPAY*PLANET FITNESS  MONTERREY NL  MEX                                            México                                 Tarjeta Bloqueada54392402180
25   5439240218207001202107141114400000002290000000000000  816459607141114404201008000000          NETPAY*PLANET FITNESS  MONTERREY NL  MEX                                            México                                 Tarjeta Bloqueada54392402180
25   5439240210791002202107141201070000012000000000000000  738726387323745100501000086665          DR HUGO ALFREDO RANGEL SN PEDRO GARZ MEX                                            México                                            Compra54392402100
25   5439240212582003202107141214010000007912000000000000  4212559EOaVVmC91gZY01000087031          FARMACIA REIVIERA      BAHIA DE BAND MEX                                            México                                            Compra54392402120
25   5439240221066006202107141223110000001520000000000000  4920971vuwo2vs2gzbu01000087326          GOB COAH RECAUDAC 8 MU SALTILLO COAH MEX                                            México                                            Compra54392402210
25   5439240220677001202107141223330000009136700000000000  792751742505435372301000087344          CLIP MX* 29  DELI SAZO CIUDAD DE MEX MEX                                            México                                            Compra54392402200
25   5439240210791002202107141237080000009790900000000000  841971190839834135101000087788          HEB VALLE ORIENTE      SN PEDRO GARZ MEX                                            México                                            Compra54392402100
25   5439240221066006202107141239430000001520000000000000  4920971nc9syejj3z4a01000087871          GOB COAH RECAUDAC 8 MU SALTILLO COAH MEX                                            México                                            Compra54392402210
25   5439240221785001202107141348240000005090000000000000  650052400030316351701000090269          HOME DEPOT STACATARINA SANTA CATARIN MEX                                            México                                            Compra54392402210
25   5439240224881005202107141355280000016311700000000000000000000      00307302000090646          H S B C                COYOACAN, CD  MEX                                            México                                        Retiro ATM54392402240
25   5439240219950005202107141428050000000541400000000000  814548166811606858301000091781          D LOCAL*DIDI MOBILITY  MEXICO CITY   MEX                                            México                                            Compra54392402190
25   543924021052200120210714153018000000489470000000000037279124011953445620301000091876          AMZN MKTP ES AMAZON.ES LUXEMBOURG    LUX                                        Luxemburgo                                            Compra54392402100
25   5439240223681000202107141431010000003520000000000000  830982400000000102701000091909          IHOP CAJA 6            TAMPICO TAMPS MEX                                            México                                            Compra54392402230
25   5439240220870002202107140313220000010333300000000000  563356507140313228401000093493          OXXO GAS ACAPULCO      GUADALUPE NL  MEX                                            México                                            Compra54392402200
25   5439240219618008202107142214220000002103600000000000  4143789 2027017400201000093523          PAYPAL3                MEXICO CITY   MEX                                            México                                            Compra54392402190
25   5439240219732007202107141528190000007180000000000000  107068426276498274301000094069          GARCIAS RESTAURANTE 2  MATAMOROS     MEX                                            México                                            Compra54392402190
25   5439240220705000202107141544290000000560000000000000  417300700123626112701000094723          OXXODE LOS RIOS TAM    ALTAMIRA TAMP MEX                                            México                                            Compra54392402200
25   5439240215417009202107141549530000003490000000000000  109863511952096417001000094907          MERCADO PAGO 4         CIUDAD DE MEX MEX                                            México                                            Compra54392402150
25   5439240215417009202107141557090000003990000000000000  109863511952096468001000095221          MERCADO PAGO 4         CIUDAD DE MEX MEX                                            México                                            Compra54392402150
25   543924021206200620210714160051000000403580000000000044450407507142100152301000095344           TST* DADDY'S SEAFOOD C PORT ISABEL   TX                                    Estados Unidos                                            Compra54392402120
25   5439240220677001202107141625000000002020000000000000  819155100034258751301000096245          RASPADOS KRIS          CD MADERO TAM MEX                                            México                                            Compra54392402200
25   5439240207396005202107141659110000008636500000000000  7712385fVcyVFhoEc9001000097432          REST ARGENTINO POLANCO CIUDAD DE MEX MEX                                            México                                            Compra54392402070
25   5439240220705000202107141701590000005845300000000000  755755521195015053101000097536          GASOL TRACTO CENTER MA TAMPICO TAMPS MEX                                            México                                            Compra54392402200
25   5439240220705000202107141746470000054980000000000000  716223920838407378001000099177          HP STORE               TAMPICO       MEX                                            México                                            Compra54392402200
25   5439240215417009202107141811450000013850400000000000  674322300000016951601000100055          FARM LOPEZ1            REYNOSA TAMPS MEX                                            México                                            Compra54392402150
25   5439240220705000202107141837020000001144000000000000  193405821195016819401000101009          OFFICE DEPOT TAMPICO   TAMPICO TAMPS MEX                                            México                                            Compra54392402200
25   5439240211289006202107141854260000014960000000000000  631043700028535808701000101702          MERCADO PAGO           CIUDAD DE MEX MEX                                            México                                            Compra54392402110
25   5439240220705000202107141907280000000640000000000000  722113300032084058601000102211          TONY TDAS ALTAMIRA     ALTAMIRA TAMP MEX                                            México                                            Compra54392402200
25   5439240218444000202107141944020000000283000000000000  4025633x81k9iqiuny401008000000          OP*OPENPAY             SANTIAGO DE Q MEX                                            México                                 Tarjeta Bloqueada54392402180
25   5439240218444000202107141944020000000283000000000000  4025633x81k9iqiuny401008000000          OP*OPENPAY             SANTIAGO DE Q MEX                                            México                                 Tarjeta Bloqueada54392402180
25   543924022067000620210714202836000000334800000000000000000000028952000578902000105332          BANCA AFIRME,S.A.      TAMPICO       MEX                                            México                                        Retiro ATM54392402200
25   543924021961800820210715032847000000217000000000000026995700011960132231301000105337          UBER * EATS PENDING    CMX           MEX                                            México                                            Compra54392402190
25   5439240212636007202107142035500000027903500000000000  185624412853407142001000105601          COSTCO MONTERREY       SAN P GARZA G MEX                                            México                                            Compra54392402120
25   5439240220670006202107142104160000001370000000000000  775286700000000069301000106618          TAQUERIA CABRERA       TAMPICO TAMPS MEX                                            México                                            Compra54392402200
25   5439240212636007202107142111160000014580100000000000  0300046gl0usKNj9vGl01000106862          SUPER MODE GM          SN PEDRO GARZ MEX                                            México                                            Compra54392402120
25   5439240220670006202107142113590000000018000000000000  193405821195019746601000106948          OFFICE DEPOT TAMPICO   TAMPICO TAMPS MEX                                            México                                            Compra54392402200
25   5439240219950005202107142129420000005000000000000000  4116671cg6oeW7nKAL001000107446          GASOMAC                MEXICO CITY   MEX                                            México                                            Compra54392402190
25   5439240219618008202107142005130000000108500000000000AGI4WHVTD07150009156701000108512          UBER* EATS             CIUDAD DE MEX MEX                                            México                                            Compra54392402190
25   543924021961800820210715032238000000289980000000000010000000011962287581701000108939          OF                     London        GBR                                       Reino Unido                                            Compra54392402190
25   5439240212514006202107142259370000035949000000000000  847084200000000180701000109736          SR TANAKA              SN PEDRO GARZ MEX                                            México                                            Compra54392402120
9900000052000000000000000000000000000000000000000000000000000000000000000000000000000000000000000000000000000000000000000000000000000000000000000000000000000000000000000000000000000000000000000000000000000000000000000000000000000000000000000000000000
