19LOG_ACT2021081300000000000000000000000000000000000000000000000000000000000000000000000000000000000000000000000000000000000000000000000000000000000000000000000000000000000000000000000000000000000000000000000000000000000000000000000000000000000000000
25   5439240219950005202108130939080000100000000000000000  423011900029407932701000077279          MONTEPIOLUZ SAVINON MU CIUDAD DE MEX MEX                                            México                                            Compra54392402190
25   5439240220677001202108130957000000002150000000000000  700887000000000015101000077754          REST BAR EL LINDERO    TAMPICO TAMPS MEX                                            México                                            Compra54392402200
25   543924021541700920210813173449000004456240000000000034360601800000003243601000078842          POPULAR LIBROS S L     ALBACETE      ESP                                            España                                            Compra54392402150
25   5439240205975008202108131212210000003790000000000000000000000        258102000082019          SUC MATAMOROS          MATAMOROS     MEX                                            México                                        Retiro ATM54392402050
25   5439240212636007202108131216180000020709200000000000  841971188335436858801000082156          HEB VALLE ORIENTE      SN PEDRO GARZ MEX                                            México                                            Compra54392402120
25   5439240219485002202108131227090000070358400000000000000000000      00802402000082577          H S B C                PUEBLA, PUEBL MEX                                            México                                        Retiro ATM54392402190
25   5439240212636007202108131243500000003486200000000000  030004600000000121601000083179          SUPER MODE GM          SN PEDRO GARZ MEX                                            México                                            Compra54392402120
25   5439240212636007202108131414230000010330000000000000  677590200000000236701000084347          SAM S GOMEZ MORIN      SN PEDRO GARZ MEX                                            México                                            Compra54392402120
25   5439240223681000202108131320270000005714500000000000  358669013132000560401000084685          TOKS RC IRAPUATO CIBEL IRAPUATO GTO  MEX                                            México                                            Compra54392402230
25   5439240220870002202108131323040000001060000000000000  724194333831506639301000084755          CONCESIONARIA AUT MTY  SANTA CATARIN MEX                                            México                                            Compra54392402200
25   5439240220870002202108131342080000003640000000000000  412749200131061355801000085588          OXXOAUTOPISTA MONTERRE GARCIA NL     MEX                                            México                                            Compra54392402200
25   5439240223681000202108131345260000009348000000000000000000000      97889002000085718          BANCO SANTANDER, S.A.  Irapuato      MEX                                            México                                        Retiro ATM54392402230
25   543924021052200120210813135529000000454570000000000000186936700000000104201000086132          GLOBAL BAG STAR SAS    1100100 BOGOT COL                                          Colombia                                            Compra54392402100
25   5439240226235002202108131435520000004347000000000000  861429712251902055801000087954          REST MARISCOS DON GOYO MATAMOROS TAM MEX                                            México                                            Compra54392402260
25   5439240219931005202108131447340000002400900000000000  840743451833647034401000088503          D LOCAL*MAILCHIMP      CIUDAD DE MEX MEX                                            México                                            Compra54392402190
25   543924021052200120210813145052000000404250000000000000157769900000000045501000088651          HUDSON MUELLE NORTE DP 1100100 BOGOT COL                                          Colombia                                            Compra54392402100
25   5439240224178006202108131452200000003100000000000000  798693300000000003801000088707          REST LOS GYROS         SN PEDRO GARZ MEX                                            México                                            Compra54392402240
25   5439240226235002202108131450270000008987600000000000  410330900210463086401000088719          FAR GUAD 1671          MATAMOROS TAM MEX                                            México                                            Compra54392402260
25   5439240220071007202108131454090000003550000000000000  111542500000020708801000088798          NATURGY MONTERREY      CIUDAD DE MEX MEX                                            México                                            Compra54392402200
25   5439240207207004202108131455380000002400000000000000  830272500193789758501000088857          SUSHI MIKU FUSION      OAXACA DE JUA MEX                                            México                                            Compra54392402070
25   5439240220870002202108131510510000001060000000000000  724194344832045385601000089552          CONCESIONARIA AUT MTY  SANTA CATARIN MEX                                            México                                            Compra54392402200
25   543924021961800820210813223755000003755630000000000026995700012252029572701000090782          Delivery Technologies  CMX           MEX                                            México                                            Compra54392402190
25   5439240212636007202108131539410000003105000000000000  403664000131099895001000090855          OXXOKALAH MTY          SN PEDRO GARZ MEX                                            México                                            Compra54392402120
25   5439240220705000202108131549490000006325000000000000  5366992trqHB1Yd3eUW01000091309          GAS VIDAL RGUEZ GTZ CO ALTAMIRA TAMP MEX                                            México                                            Compra54392402200
25   5439240212636007202108131613170000000700000000000000  648855500131110180801000092302          OXXO STA ENGRACIA      SAN PEDRO GAR MEX                                            México                                            Compra54392402120
25   5439240222935001202108131620000000003150000000000000  794413000000000010601000092643          REST AMIGO MIGUEL II   ACAPULCO DE J MEX                                            México                                            Compra54392402220
25   5439240222935001202108131633500000006690000000000000  757595012252105407401000093272          AUT ACAPULCO EDO CDP 2 MEXICO CITY   MEX                                            México                                            Compra54392402220
25   5439240220870002202108131634100000001976400000000000  814548151833664070501000093282          D LOCAL*DIDI MOBILITY  MEXICO CITY   MEX                                            México                                            Compra54392402200
25   5439240215417009202108131637080000003110000000000000  737696151833664543801000093422          PAGOCON*DISTRIBUIDORA  DISTRITO FEDE MEX                                            México                                            Compra54392402150
25   5439240220705000202108131650070000007100000000000000  700887000000000016801000094006          REST BAR EL LINDERO    TAMPICO TAMPS MEX                                            México                                            Compra54392402200
25   5439240220705000202108131703220000000510000000000000  639646900131127069101000094565          OXXO ROSALES           TAMPICO TAMPS MEX                                            México                                            Compra54392402200
25   5439240218444000202108131805590000006750400000000000  591164900000001910601000097550          SUPERAMA PUNTA COUNTRY MONTERREY NL  MEX                                            México                                            Compra54392402180
25   5439240218509000202108131815580000004880000000000000  558510400206800286101000098014          7 ELEVEN LAS FLORES    GARZA GARCIA  MEX                                            México                                            Compra54392402180
25   5439240218509000202108131827020000000870000000000000  816500700000000055101000098556          ABARROTES UNION        SN NICOLAS DE MEX                                            México                                            Compra54392402180
25   543924021961800820210813223755000003635390000000000026995700012252029572701000099313          Delivery Technologies  CMX           MEX                                            México                                            Compra54392402190
25   5439240226253005202108131658220000000899000000000000MWU4ZT35U08130029325701000100100          UBER* PENDING          CIUDAD DE MEX MEX                                            México                                            Compra54392402260
25   5439240207396005202108131920360000012650000000000000  844181977832970079201000101141          REST BAROCCO           DURANGO DGO   MEX                                            México                                            Compra54392402070
25   5439240226253005202108131723190000000951800000000000MWU4ZT35U08140008376801000101285          UBER* TRIP             CIUDAD DE MEX MEX                                            México                                            Compra54392402260
25   5439240224881005202108131953210000005490000000000000  716162500005441821801000102830          VS TELCEL 018001200006 CIUDAD DE MEX MEX                                            México                                            Compra54392402240
25   5439240224881005202108132007000000001790000000000000  788982493834166494201000103532          AME*SPOTIFY CR         MEXICO CITY   MEX                                            México                                            Compra54392402240
25   5439240224178006202108132013560000002475000000000000  103490400000003877001000103888          PETCO VASCONCELOS      SN PEDRO GARZ MEX                                            México                                            Compra54392402240
25   5439240220670006202108132120540000001780000000000000  843848200000000261601000106864          COPIZZA                TAMPICO TAMPS MEX                                            México                                            Compra54392402200
25   5439240220670006202108132126140000000680000000000000  639706100131225059301000107106          OXXO CHARRO            TAMPICO TAMPS MEX                                            México                                            Compra54392402200
25   5439240224178006202108132215590000001135000000000000  410423300131238371101000108852          OXXOCAMINO AL MIRADOR  MONTERREY NL  MEX                                            México                                            Compra54392402240
25   5439240220705000202108132248340000006776000000000000  866089500006795805501000109790          FRIDAYS TAMPICO        TAMPICO TAMPS MEX                                            México                                            Compra54392402200
25   5439240205664008202108132255370000076532500000000000  844555000000000026401000109995          FUNKY GEISHA TULUM     TULUM QROO    MEX                                            México                                            Compra54392402050
25   5439240220705000202108132319440000000230000000000000  639646900131248544001000110556          OXXO ROSALES           TAMPICO TAMPS MEX                                            México                                            Compra54392402200
25   5439240220677001202108132353510000003280000000000000  832456600000000017401000111223          TAQUERIA EL PARIENTE   TAMPICO TAMPS MEX                                            México                                            Compra54392402200
25   5439240223681000202108130804180000000860000000000000  404784900130982958201000075462          OXXOECHEGARAY BJX      ABASOLO GTO   MEX                                            México                                            Compra54392402230
25   5439240223681000202108130805000000000540000000000000  404784900130983139801000075475          OXXOECHEGARAY BJX      ABASOLO GTO   MEX                                            México                                            Compra54392402230
25   543924021136600220210813155214000003388620000000000017552332300000000176001000076295          HOSTAL CHISPA SL       PLAYA DE CANE ESP                                            España                                            Compra54392402110
25   5439240219931005202108130222580000002400900000000000         51833574330401999                                                                                                                                                            54392402190
25   543924021844400020210813085314000000129000000000000035829000012256060189801051000000           GAIA,INC               866-284-8058  CO                                    Estados Unidos                              Not sufficient funds54392402180
25   543924021844400020210813085314000000129000000000000035829000012256060189801051000000           GAIA,INC               866-284-8058  CO                                    Estados Unidos                              Not sufficient funds54392402180
25   543924021844400020210813085314000000129000000000000035829000012256060189801051000000           GAIA,INC               866-284-8058  CO                                    Estados Unidos                              Not sufficient funds54392402180
25   5439240218657007202108130906090000002660000000000000  454963000000N5URXBI01051000000          NETFLIX COM 1          MEXICO CITY   MEX                                            México                              Not sufficient funds54392402180
25   5439240218657007202108130906090000002660000000000000  454963000000N5URXBI01051000000          NETFLIX COM 1          MEXICO CITY   MEX                                            México                              Not sufficient funds54392402180
25   5439240218657007202108130906090000002660000000000000  454963000000N5URXBI01051000000          NETFLIX COM 1          MEXICO CITY   MEX                                            México                              Not sufficient funds54392402180
25   5439240224881005202108131944490000005490000000000000  716162500003311044301051000000          VS TELCEL 018001200006 CIUDAD DE MEX MEX                                            México                              Not sufficient funds54392402240
25   5439240224881005202108131944490000005490000000000000  716162500003311044301051000000          VS TELCEL 018001200006 CIUDAD DE MEX MEX                                            México                              Not sufficient funds54392402240
25   5439240224881005202108131944490000005490000000000000  716162500003311044301051000000          VS TELCEL 018001200006 CIUDAD DE MEX MEX                                            México                              Not sufficient funds54392402240
25   5439240219931005202108131341000000004972700000000000VZXSECQO608130094116801051000000          LATER.COM INSTAGRAM    +18444552837  CAN                                            Canadá                              Not sufficient funds54392402190
25   5439240219931005202108131341000000004972700000000000VZXSECQO608130094116801051000000          LATER.COM INSTAGRAM    +18444552837  CAN                                            Canadá                              Not sufficient funds54392402190
25   5439240219931005202108131341000000004972700000000000VZXSECQO608130094116801051000000          LATER.COM INSTAGRAM    +18444552837  CAN                                            Canadá                              Not sufficient funds54392402190
25   5439240223681000202108131344400000011348000000000000000000000      97509502051000000          BANCO SANTANDER, S.A.  Irapuato      MEX                                            México                              Not sufficient funds54392402230
25   5439240223681000202108131344400000011348000000000000000000000      97509502051000000          BANCO SANTANDER, S.A.  Irapuato      MEX                                            México                              Not sufficient funds54392402230
25   5439240223681000202108131344400000011348000000000000000000000      97509502051000000          BANCO SANTANDER, S.A.  Irapuato      MEX                                            México                              Not sufficient funds54392402230
25   5439240220182002202108130409350000001790000000000000  788982467834032883001008000000          AME*SPOTIFY CR         MEXICO CITY   MEX                                            México                                 Tarjeta Bloqueada54392402200
25   5439240220182002202108130409350000001790000000000000  788982467834032883001008000000          AME*SPOTIFY CR         MEXICO CITY   MEX                                            México                                 Tarjeta Bloqueada54392402200
25   5439240220182002202108130409350000001790000000000000  788982467834032883001008000000          AME*SPOTIFY CR         MEXICO CITY   MEX                                            México                                 Tarjeta Bloqueada54392402200
9900000070000000000000000000000000000000000000000000000000000000000000000000000000000000000000000000000000000000000000000000000000000000000000000000000000000000000000000000000000000000000000000000000000000000000000000000000000000000000000000000000000
