19LOG_ACT2021070700000000000000000000000000000000000000000000000000000000000000000000000000000000000000000000000000000000000000000000000000000000000000000000000000000000000000000000000000000000000000000000000000000000000000000000000000000000000000000
25   5439240218936005202107070440460000000328300000000000  814548191128180886201000858780          D LOCAL*DIDI MOBILITY  MEXICO CITY   MEX                                            México                                            Compra54392402180
25   543924021052200120210707132141000013792460000000000002518436700000000554401000859047          COLCHON PLUS           VILLARREAL DE ESP                                            España                                            Compra54392402100
25   5439240220670006202107070652270000000690000000000000  646746800121860331701000859207          OXXO ACTOPAN           ACTOPAN HGO   MEX                                            México                                            Compra54392402200
25   5439240207207004202107070652380000000490000000000000  465616100121860338301000859208          OXXO COYOTEPEC OAX     SN BARTOLO CO MEX                                            México                                            Compra54392402070
25   543924021975600620210707080047000000006960000000000000000000040390024549600000859776          SUC. INBURSA MIGUEL A.  MEXICO DF ME MEX                                            México                                                  54392402190
25   543924021975600620210707080316000005017400000000000000000000040390024549702000859808          SUC. INBURSA MIGUEL A.  MEXICO DF ME MEX                                            México                                        Retiro ATM54392402190
25   5439240220670006202107070829000000000990000000000000  4234379K9ZF7z8Sz78t01000860168          RESTAURANT OTOMI       ACTOPAN HGO   MEX                                            México                                            Compra54392402200
25   5439240220705000202107070853370000005698000000000000  209144521188064958801000860541          FIESTA INN TAMPICO     TAMPICO TAMPS MEX                                            México                                            Compra54392402200
25   5439240219756006202107070929100000024065500000000000  213849300000100186501000861217          LA COMER COYOACAN      CIUDAD DE MEX MEX                                            México                                            Compra54392402190
25   5439240219756006202107070930460000006240000000000000  213849300000100186601000861262          LA COMER COYOACAN      CIUDAD DE MEX MEX                                            México                                            Compra54392402190
25   5439240220890000202107071008330000001200000000000000  410879292347702090001000862133          URBAN MTY              APODACA NL    MEX                                            México                                            Compra54392402200
25   5439240220677001202107071032090000005000000000000000  794088021188096121301000862733          GASOL SCALA 1          TAMPICO TAMPS MEX                                            México                                            Compra54392402200
25   5439240226253005202107071038110000000990000000000000  797911266810598739701008000000          AMAZON MX              MEXICO CITY   MEX                                            México                                 Tarjeta Bloqueada54392402260
25   5439240226253005202107071038110000000990000000000000  797911266810598739701008000000          AMAZON MX              MEXICO CITY   MEX                                            México                                 Tarjeta Bloqueada54392402260
25   5439240200488007202107070901260000000000000000000000MLV4UIGUB07070064397201000863516           MONGABAY.ORG 45-371470 +16502604018  CA                                    Estados Unidos                                            Compra54392402000
25   5439240200488007202107070901300000000992700000000000MLV4UIGUB07070064404301000863519           MONGABAY.ORG           +16502604018  CA                                    Estados Unidos                                            Compra54392402000
25   5439240220705000202107071121520000000150000000000000  792751709422659451301000864181          CLIP MX* 29  DELI SAZO CIUDAD DE MEX MEX                                            México                                            Compra54392402200
25   5439240212572004202107071150100000017300000000000000  708623200000000071101000865032          PESCADERIA TIERRA BLAN CULIACAN SIN  MEX                                            México                                            Compra54392402120
25   5439240218936005202107071153050000001346500000000000  814548151396997555401000865129          D LOCAL*DIDI MOBILITY  MEXICO CITY   MEX                                            México                                            Compra54392402180
25   5439240219618008202107071203490000001800000000000000  821120051396998856301000865493          AME*RAPPI V            CIUDAD DE MEX MEX                                            México                                            Compra54392402190
25   5439240220705000202107071206530000005800100000000000  792751799148291070001000865573          CLIP MX* 29  DELI SAZO CIUDAD DE MEX MEX                                            México                                            Compra54392402200
25   5439240220169009202107071912220000001150000000000000  4143789 2526561380501000865747          PAYPAL3                MEXICO CITY   MEX                                            México                                            Compra54392402200
25   543924021052200120210707131627000000020000000000000018882600011883030423401000865878          GOOGLE *TEMPORARY HOLD g.co/helppay# GBR                                       Reino Unido                                            Compra54392402100
25   543924021136600220210707131741000000020000000000000018882600011886060498701008000000          GOOGLE *TEMPORARY HOLD g.co/helppay# GBR                                       Reino Unido                                 Tarjeta Bloqueada54392402110
25   543924021136600220210707131741000000020000000000000018882600011886060498701008000000          GOOGLE *TEMPORARY HOLD g.co/helppay# GBR                                       Reino Unido                                 Tarjeta Bloqueada54392402110
25   543924021136600220210707131804000000020000000000000018882600011883232811401008000000          GOOGLE *TEMPORARY HOLD g.co/helppay# GBR                                       Reino Unido                                 Tarjeta Bloqueada54392402110
25   543924021136600220210707131804000000020000000000000018882600011883232811401008000000          GOOGLE *TEMPORARY HOLD g.co/helppay# GBR                                       Reino Unido                                 Tarjeta Bloqueada54392402110
25   543924021136600220210707131844000000020000000000000018882600011886767307501008000000          GOOGLE *TEMPORARY HOLD g.co/helppay# GBR                                       Reino Unido                                 Tarjeta Bloqueada54392402110
25   543924021136600220210707131844000000020000000000000018882600011886767307501008000000          GOOGLE *TEMPORARY HOLD g.co/helppay# GBR                                       Reino Unido                                 Tarjeta Bloqueada54392402110
25   543924021136600220210707132021000000020000000000000018882600011886969747801008000000          GOOGLE *TEMPORARY HOLD g.co/helppay# GBR                                       Reino Unido                                 Tarjeta Bloqueada54392402110
25   543924021136600220210707132021000000020000000000000018882600011886969747801008000000          GOOGLE *TEMPORARY HOLD g.co/helppay# GBR                                       Reino Unido                                 Tarjeta Bloqueada54392402110
25   543924021136600220210707132117000000020000000000000018882600011886868689501000866023          GOOGLE *TEMPORARY HOLD g.co/helppay# GBR                                       Reino Unido                                            Compra54392402110
25   5439240218444000202107071222490000001290000000000000  797910691128214495701051000000          AMAZON MX DIGITAL      MEXICO CITY   MEX                                            México                              Not sufficient funds54392402180
25   5439240218444000202107071222490000001290000000000000  797910691128214495701051000000          AMAZON MX DIGITAL      MEXICO CITY   MEX                                            México                              Not sufficient funds54392402180
25   5439240221785001202107071250100000008394000000000000  716753711881740579301000867010          MERCADO PAGO 1         CIUDAD DE MEX MEX                                            México                                            Compra54392402210
25   5439240212636007202107071254520000008890500000000000  841971171449839628301000867174          HEB VALLE ORIENTE      SN PEDRO GARZ MEX                                            México                                            Compra54392402120
25   5439240219618008202107071339340000005998800000000000  790373391128223822701000868701          PAYPAL *GODADDY COM    CIUDAD DE MEX MEX                                            México                                            Compra54392402190
25   5439240297320006202107071343270000002450000000000000  4119289sgsv0fxgoatd01000868848          DOMINO S OLO CR        MEXICO CITY   MEX                                            México                                            Compra54392402970
25   5439240218207001202107071348270000000491800000000000  814548151397011855901000869029          D LOCAL*DIDI MOBILITY  MEXICO CITY   MEX                                            México                                            Compra54392402180
25   5439240220677001202107071409370000000690000000000000  792751737127634770701000869773          CLIP MX* 29  DELI SAZO CIUDAD DE MEX MEX                                            México                                            Compra54392402200
25   5439240224178006202107071519320000004600000000000000  4266694K40k2UlOWmC601000872332          BURGERSMX              MONTERREY NL  MEX                                            México                                            Compra54392402240
25   5439240215417009202107071544310000003206300000000000  797912866810637662501000873276          AMAZON MX MARKETPLACE  MEXICO CITY   MEX                                            México                                            Compra54392402150
25   543924021854800820210707230542000000159000000000000026995700011882132668201000874052          Disney PLUS            CMX           MEX                                            México                                            Compra54392402180
25   5439240220705000202107071614280000002179000000000000  656061900000001401201000874352          SUPERCENTER AEROPUERTO TAMPICO TAMPS MEX                                            México                                            Compra54392402200
25   5439240212636007202107070418030000006581800000000000  402851207070418038101000874513          OXXO GAS LAS TORRES    SN PEDRO GARZ MEX                                            México                                            Compra54392402120
25   5439240218548008202107071627460000004250000000000000  792747975763137188201000874842          CLIP MX*MINT DAY SPA   CIUDAD DE MEX MEX                                            México                                            Compra54392402180
25   5439240220677001202107071650390000001400000000000000  762893387323521692301000875667          DAYTONA LOMAS          TAMPICO TAMPS MEX                                            México                                            Compra54392402200
25   5439240205664008202107071657000000001770000000000000  843318921570143617001000875902          CLIN JUVELUXE          MATAMOROS TAM MEX                                            México                                            Compra54392402050
25   5439240223883002202107071659550000002080000000000000  413405900000100164601000876029          SUBURBIA BUENAVISTA 65 MEXICO CITY   MEX                                            México                                            Compra54392402230
25   5439240212701009202107071724480000004348000000000000000000000        566902000876912          AEROPUERTO MTY TERM B  APODACA       MEX                                            México                                        Retiro ATM54392402120
25   5439240223883002202107071739580000002440000000000000  023315500000017801101000877459          WAL MART BUENAVISTA    MEXICO CITY   MEX                                            México                                            Compra54392402230
25   5439240220677001202107071812280000004562800000000000  841961926444593404801000878580          HEB TAMPICO HIDALGO    TAMPICO TAMPS MEX                                            México                                            Compra54392402200
25   5439240220670006202107071819270000001914000000000000  4234379RrFR50EFTq3001000878905          RESTAURANT OTOMI       ACTOPAN HGO   MEX                                            México                                            Compra54392402200
25   5439240200488007202107071641380000000000000000000000MLV4UIGUB07070021649201000879728           MONGABAY.ORG 45-371470 +16502604018  CA                                    Estados Unidos                                            Compra54392402000
25   5439240200488007202107071641410000000998300000000000MLV4UIGUB07070002093701000879734           MONGABAY.ORG           +16502604018  CA                                    Estados Unidos                                            Compra54392402000
25   5439240200488007202107071842360000025697300000000000  147926011882324058501000879770          TERRAMAR BRANDS CIB    CIUDAD DE MEX MEX                                            México                                            Compra54392402000
25   543924029732000620210707164742000000132120000000000000098002000000671207001000879985           PAYPAL *EBAY US        4029357733    CA                                    Estados Unidos                                            Compra54392402970
25   5439240218548008202107071848410000000400000000000000  648696300122014644601000880036          OXXO LAGOS DEL BOSQUE  MONTERREY NL  MEX                                            México                                            Compra54392402180
25   5439240207396005202107071852090000060150000000000000  752092300000000089501000880179          CASA MONTERREY 116     CIUDAD DE MEX MEX                                            México                                            Compra54392402070
25   5439240220670006202107071857300000032358400000000000000000000      00558502000880459          H S B C                ACTOPAN, HIDA MEX                                            México                                        Retiro ATM54392402200
25   5439240218444000202107071902430000000525000000000000  610409500203621557201000880541          7 ELEVEN DR COSS       MONTERREY NL  MEX                                            México                                            Compra54392402180
25   5439240220670006202107071909150000001365000000000000  420009900122020560001000880793          OXXO15 DE OCTUBRE      ACTOPAN HGO   MEX                                            México                                            Compra54392402200
25   543924021548800020210707205747000000064690000000000016014600011893232810901000882517           Kindle Svcs            866-321-8851  WA                                    Estados Unidos                                            Compra54392402150
25   5439240220890000202107072027320000003036000000000000  863972211890103606401008000000          REST C BARRIO PERINTE  TLALNEPANTLA  MEX                                            México                                 Tarjeta Bloqueada54392402200
25   5439240220890000202107072027320000003036000000000000  863972211890103606401008000000          REST C BARRIO PERINTE  TLALNEPANTLA  MEX                                            México                                 Tarjeta Bloqueada54392402200
25   5439240220890000202107072028300000003036000000000000  863972211890105626601000883633          REST C BARRIO PERINTE  TLALNEPANTLA  MEX                                            México                                            Compra54392402200
25   543924021961800820210708032912000000246000000000000026995700011890132015401000883659          UBER * EATS PENDING    CMX           MEX                                            México                                            Compra54392402190
25   5439240220706008202107072058500000010370600000000000R6105000000000005463101000884675          BAE MISION LINCOLN     MONTERREY NL  MEX                                            México                               Compra con CashBack54392402200
25   5439240219732007202107072104270000014016000000000000  100709503510773832801000884885          SORIANA351 CANALES     MATAMOROS TAM MEX                                            México                                            Compra54392402190
25   543924021541700920210707222620000000298490000000000091788000011893333322301000885617           Audible                Amzn.com/bill NJ                                    Estados Unidos                                            Compra54392402150
25   543924021995000520210707224800000000179000000000000018882600011896565202501000886325          GOOGLE *YouTubePremium g.co/helppay# GBR                                       Reino Unido                                            Compra54392402190
25   5439240220705000202107072149460000002651000000000000  209144521188067077401000886372          FIESTA INN TAMPICO     TAMPICO TAMPS MEX                                            México                                            Compra54392402200
25   5439240220870002202107072151180000004415000000000000  647906700122065674001000886426          OXXO PED LINDA VISTA   GUADALUPE NL  MEX                                            México                                            Compra54392402200
25   5439240219615004202107072155290000000370000000000000  812616000000000020601051000000          ABARROTES LAS GEMELAS  VILLA DE ALVA MEX                                            México                              Not sufficient funds54392402190
25   5439240219615004202107072155290000000370000000000000  812616000000000020601051000000          ABARROTES LAS GEMELAS  VILLA DE ALVA MEX                                            México                              Not sufficient funds54392402190
25   5439240219615004202107072155520000000365000000000000  812616000000000020701000886563          ABARROTES LAS GEMELAS  VILLA DE ALVA MEX                                            México                                            Compra54392402190
25   5439240206343008202107072201470000001720000000000000  202513800000005325301000886698          WAL MART INTERLOMAS    HUIXQUILUCAN  MEX                                            México                                            Compra54392402060
25   543924021961800820210708052657000000024600000000000026995700011890332566101000887292          UBER *EATS HELP.UBER.C CMX           MEX                                            México                                            Compra54392402190
25   5439240226253005202107072324040000108860000000000000  787999511890406871601000888412          AEROMEXICO COM H2H 2   MEXICO CITY   MEX                                            México                                            Compra54392402260
9900000079000000000000000000000000000000000000000000000000000000000000000000000000000000000000000000000000000000000000000000000000000000000000000000000000000000000000000000000000000000000000000000000000000000000000000000000000000000000000000000000000
