19LOG_ACT2021080800000000000000000000000000000000000000000000000000000000000000000000000000000000000000000000000000000000000000000000000000000000000000000000000000000000000000000000000000000000000000000000000000000000000000000000000000000000000000000
25   543924021975600620210808145240000001326650000000000015208198221080810414601000919114          Alte Mainmuehle        Wuerzburg     DEU                                                                                              Compra54392402190
25   5439240218657007202108080807040000002660000000000000  454963000000N5URXBI01051000000          NETFLIX COM 1          MEXICO CITY   MEX                                            México                              Not sufficient funds54392402180
25   5439240218657007202108080807040000002660000000000000  454963000000N5URXBI01051000000          NETFLIX COM 1          MEXICO CITY   MEX                                            México                              Not sufficient funds54392402180
25   5439240218657007202108080807040000002660000000000000  454963000000N5URXBI01051000000          NETFLIX COM 1          MEXICO CITY   MEX                                            México                              Not sufficient funds54392402180
25   543924021975600620210808152354000005922530000000000000000000008080012654402000919315          SPK MAINFRANKEN WUERZB HOFSTRASSE    DEU                                                                                          Retiro ATM54392402190
25   5439240219950005202108080928430000000470000000000000  814548193833358445101000920081          D LOCAL*DIDI MOBILITY  MEXICO CITY   MEX                                            México                                            Compra54392402190
25   543924021548800020210808105421000000027000000000000016014600012204848469001000920476           Newsstand              866-321-8851  WA                                    Estados Unidos                                            Compra54392402150
25   5439240219756006202108081710090000024637700000000000 8453692308081708027501000920758          HAMPTON BY HILTON FRAN FRANKFURT AM  DEU                                                                                              Compra54392402190
25   5439240224178006202108081144300000008950000000000000  720506400000000133201000922947          IPARK                  APODACA NL    MEX                                            México                                            Compra54392402240
25   5439240207207004202108081058130000000700000000000000  158456411590706529101000923338          EXTRA CONSULADO        JUAREZ CHIH   MEX                                            México                                            Compra54392402070
25   5439240211471000202108081226270000070348000000000000000000000        179002000924147          *SCOTIABANK            CDMX          MEX                                            México                                        Retiro ATM54392402110
25   5439240215488000202108081954010000013480000000000000  4143789 1529254203101000925025          PAYPAL3                MEXICO CITY   MEX                                            México                                            Compra54392402150
25   5439240219931005202108081057070000005000900000000000VZXSECQO608080046057201051000000          LATER.COM INSTAGRAM    +18444552837  CAN                                            Canadá                              Not sufficient funds54392402190
25   5439240219931005202108081057070000005000900000000000VZXSECQO608080046057201051000000          LATER.COM INSTAGRAM    +18444552837  CAN                                            Canadá                              Not sufficient funds54392402190
25   5439240219931005202108081057070000005000900000000000VZXSECQO608080046057201051000000          LATER.COM INSTAGRAM    +18444552837  CAN                                            Canadá                              Not sufficient funds54392402190
25   543924021975600620210808203624000001800450000000000045569545708082001978901000926484          Zum Storch am Dom      Frankfurt am  DEU                                                                                              Compra54392402190
25   5439240218657007202108081406260000002660000000000000  739389993833386981301051000000          NETFLIX                MEXICO CITY   MEX                                            México                              Not sufficient funds54392402180
25   5439240218657007202108081406260000002660000000000000  739389993833386981301051000000          NETFLIX                MEXICO CITY   MEX                                            México                              Not sufficient funds54392402180
25   5439240218657007202108081406260000002660000000000000  739389993833386981301051000000          NETFLIX                MEXICO CITY   MEX                                            México                              Not sufficient funds54392402180
25   5439240223883002202108081431380000001873000000000000  100776403420521613901000928613          SORIANA342 VALLE       GARZA GARCIA  MEX                                            México                                            Compra54392402230
25   5439240219931005202108081332220000005000900000000000VZXSECQO608080058641501051000000          LATER.COM INSTAGRAM    +18444552837  CAN                                            Canadá                              Not sufficient funds54392402190
25   5439240219931005202108081332220000005000900000000000VZXSECQO608080058641501051000000          LATER.COM INSTAGRAM    +18444552837  CAN                                            Canadá                              Not sufficient funds54392402190
25   5439240219931005202108081332220000005000900000000000VZXSECQO608080058641501051000000          LATER.COM INSTAGRAM    +18444552837  CAN                                            Canadá                              Not sufficient funds54392402190
25   5439240220846002202108081605580000003800000000000000  803396000000000018401000932033          STEREN                 MONTERREY NL  MEX                                            México                                            Compra54392402200
25   5439240219618008202108081431230000003915000000000000AGI4WHVTD08080081014001000933035          UBER* EATS PENDING     CIUDAD DE MEX MEX                                            México                                            Compra54392402190
25   5439240219618008202108081608090000000290800000000000AGI4WHVTD08080092787801000936427          UBER* EATS             CIUDAD DE MEX MEX                                            México                                            Compra54392402190
25   5439240219950005202108081844420000000469100000000000  814548151832952987501000937702          D LOCAL*DIDI MOBILITY  MEXICO CITY   MEX                                            México                                            Compra54392402190
25   5439240219950005202108081909500000000559700000000000  814548193833428298801000938486          D LOCAL*DIDI MOBILITY  MEXICO CITY   MEX                                            México                                            Compra54392402190
25   5439240223681000202108082018240000000435000000000000  663830800206387418101000940694          7 ELEVEN VILLA CORONA  GARCIA NL     MEX                                            México                                            Compra54392402230
25   5439240219756006202108090328440000007343900000000000 8453692308090308161101000941045          HAMPTON BY HILTON FRAN FRANKFURT AM  DEU                                                                                              Compra54392402190
9900000030000000000000000000000000000000000000000000000000000000000000000000000000000000000000000000000000000000000000000000000000000000000000000000000000000000000000000000000000000000000000000000000000000000000000000000000000000000000000000000000000
