19LOG_ACT2021072900000000000000000000000000000000000000000000000000000000000000000000000000000000000000000000000000000000000000000000000000000000000000000000000000000000000000000000000000000000000000000000000000000000000000000000000000000000000000000
25   5439240219950005202107290348150000000858000000000000  814548191736304292901000574059          D LOCAL*DIDI MOBILITY  MEXICO CITY   MEX                                            México                                            Compra54392402190
25   5439240210522001202107290648200000002660000000000000  454963000000N101ISB01000574716          NETFLIX COM 1          MEXICO CITY   MEX                                            México                                            Compra54392402100
25   5439240220677001202107290618280000001099000000000000MWU4ZT35U07290035726301051000000          UBER* TRIP             CIUDAD DE MEX MEX                                            México                              Not sufficient funds54392402200
25   5439240220677001202107290618280000001099000000000000MWU4ZT35U07290035726301051000000          UBER* TRIP             CIUDAD DE MEX MEX                                            México                              Not sufficient funds54392402200
25   5439240220629002202107290909130000003050000000000000  792748481837646852901000576358          CLIP MX*HOTEL          CIUDAD DE MEX MEX                                            México                                            Compra54392402200
25   5439240205975008202107291002460000016290000000000000000000000        736002000577516          SUC MATAMOROS          MATAMOROS     MEX                                            México                                        Retiro ATM54392402050
25   5439240220705000202107291011110000000860000000000000  850481100005443183901000577709          MUNCHIN DONUTS MONCLOV MONCLOVA COAH MEX                                            México                                            Compra54392402200
25   5439240220705000202107291012400000000860000000000000  850481100000419068501000577741          MUNCHIN DONUTS MONCLOV MONCLOVA COAH MEX                                            México                                            Compra54392402200
25   543924022488100520210729172314000000059000000000000052656700012101538642701051000000          GOOGLE  Google Play    London        GBR                                       Reino Unido                              Not sufficient funds54392402240
25   543924022488100520210729172314000000059000000000000052656700012101538642701051000000          GOOGLE  Google Play    London        GBR                                       Reino Unido                              Not sufficient funds54392402240
25   5439240220705000202107291030270000001340000000000000  400051000127232478801000578221          OXXO SANTA MARIA LOV   CASTANOS COAH MEX                                            México                                            Compra54392402200
25   5439240220870002202107291109310000001800000000000000  713533300000000007901000579279          FERRECAZA              SANTA CATARIN MEX                                            México                                            Compra54392402200
25   5439240220870002202107291128110000001080200000000000  4244538Uv9JvTUiNze101000579844          H BIRLOS Y TORNILLOS   SANTA CATARIN MEX                                            México                                            Compra54392402200
25   5439240211471000202107291851070000106023900000000000   25935312101600071901000580527          COTTON FLOWER          GIZA     -12A EGY                                            Egipto                                            Compra54392402110
25   5439240210846004202107291207310000000890000000000000  411050100127253139401000581040          OXXOCORREDOR URBANO    CD MADERO TAM MEX                                            México                                            Compra54392402100
25   5439240212582003202107291216110000000740000000000000  417324621210068330801000581328          STARBUCKS BUCERIAS     BAHIA DE BAND MEX                                            México                                            Compra54392402120
25   5439240219732007202107291306270000006769200000000000  100709503510768052701000583091          SORIANA351 CANALES     MATAMOROS TAM MEX                                            México                                            Compra54392402190
25   5439240211366002202107291126570000009533900000000000FUUOVH8HQ07290031912901008000000          LALPINO PEDIDO ONLINE  +34686390929  ESP                                            España                                 Tarjeta Bloqueada54392402110
25   5439240211366002202107291126570000009533900000000000FUUOVH8HQ07290031912901008000000          LALPINO PEDIDO ONLINE  +34686390929  ESP                                            España                                 Tarjeta Bloqueada54392402110
25   5439240211366002202107291126570000009533900000000000FUUOVH8HQ07290061634701008000000          LALPINO PEDIDO ONLINE  +34686390929  ESP                                            España                                 Tarjeta Bloqueada54392402110
25   5439240211366002202107291126570000009533900000000000FUUOVH8HQ07290061634701008000000          LALPINO PEDIDO ONLINE  +34686390929  ESP                                            España                                 Tarjeta Bloqueada54392402110
25   5439240211366002202107291127340000009533900000000000FUUOVH8HQ07290031987801000583811          LALPINO PEDIDO ONLINE  +34686390929  ESP                                            España                                            Compra54392402110
25   5439240223681000202107291327300000000405000000000000  647803600127273020301000583823          OXXO HUINALA           APODACA NL    MEX                                            México                                            Compra54392402230
25   5439240211471000202107292048310000059854300000000000 3536791107292003454601000584542          GREAT PYRAMID INN HOTE GIZA     -12E EGY                                            Egipto                                            Compra54392402110
25   5439240221785001202107291432470000005762800000000000  557367000205459674101000586261          PETROMAX               SANTA CATARIN MEX                                            México                                            Compra54392402210
25   5439240220705000202107291433410000002990000000000000  7330830UGhENYUyEodR01000586341          SURT ELECT DE SALTILLO MONCLOVA COAH MEX                                            México                                            Compra54392402200
25   5439240220705000202107290316390000005002600000000000  410216207290316392701000588041          OXXO GAS ASTURIAS      CASTANOS COAH MEX                                            México                                            Compra54392402200
25   5439240205975008202107291530560000001970000000000000  795525677735328525201000588594          FERRETERIA LUCERO      MATAMOROS TAM MEX                                            México                                            Compra54392402050
25   5439240219618008202107291534070000000200000000000000  797911266735890902701000588699          AMAZON MX              MEXICO CITY   MEX                                            México                                            Compra54392402190
25   5439240219618008202107291539270000002080000000000000  440038800127308963701000588895          OXXO LA CAPITAL MTY    MONTERREY NL  MEX                                            México                                            Compra54392402190
25   5439240218936005202107291611200000002990000000000000  41908331ebzqfvtwgz501051000000          PR ADOBE CR            NAUCALPAN DE  MEX                                            México                              Not sufficient funds54392402180
25   5439240218936005202107291611200000002990000000000000  41908331ebzqfvtwgz501051000000          PR ADOBE CR            NAUCALPAN DE  MEX                                            México                              Not sufficient funds54392402180
25   5439240218936005202107291611240000002990000000000000  4190833qk9ikqbqq7gq01051000000          PR ADOBE CR            NAUCALPAN DE  MEX                                            México                              Not sufficient funds54392402180
25   5439240218936005202107291611240000002990000000000000  4190833qk9ikqbqq7gq01051000000          PR ADOBE CR            NAUCALPAN DE  MEX                                            México                              Not sufficient funds54392402180
25   5439240221785001202107291621540000005000000000000000  417679500205469882401000590641          PETROMAX 6292 SAN ANGE SANTA CATARIN MEX                                            México                                            Compra54392402210
25   5439240299909004202107291653130000020044000000000000  568544100000004273101000591597          SAMS MATAMOROS         MATAMOROS TAM MEX                                            México                                            Compra54392402990
25   5439240220705000202107291707130000012859000000000000  4259770TB7fkUbphbCf01000592124          EL TACO DEL SIRLON     MONCLOVA COAH MEX                                            México                                            Compra54392402200
25   5439240220705000202107291749490000008780100000000000  438219800020166710201000593694          HOME DEPOT MONCLOVA    MONCLOVA COAH MEX                                            México                                            Compra54392402200
25   5439240219618008202107291755410000011222500000000000  797911266735910597301000593924          AMAZON MX              MEXICO CITY   MEX                                            México                                            Compra54392402190
25   5439240212636007202107291756450000001600000000000000  738910807291756454201000593974          NETPAY*AGREGADOR       SN PEDRO GARZ MEX                                            México                                            Compra54392402120
25   5439240220705000202107291801330000003660000000000000  083537177735335007601000594139          AUTELES KALIONCHIZ     MONCLOVA COAH MEX                                            México                                            Compra54392402200
25   5439240220890000202107291834550000004290000000000000  713972900000000017601000595420          HOTEL IBIS MX PERINTE  CUAUTITLAN IZ MEX                                            México                                            Compra54392402200
25   5439240220629002202107291857460000008283000000000000  416991100000000060001000596301          TEYA PASEO 60          MERIDA YUC    MEX                                            México                                            Compra54392402200
25   543924022623500220210729192452000003455150000000000044450911607300020001901000597448           ANTHROPOLOGIE #471     SAN ANTONIO   TX                                    Estados Unidos                                            Compra54392402260
25   5439240219618008202107291939270000006371200000000000  797911251735805193001000598056          AMAZON MX              MEXICO CITY   MEX                                            México                                            Compra54392402190
25   543924021961800820210730032725000000328000000000000026995700012110132519801000600040          RAPPI*SAFE MEXICO      Mexico City   MEX                                            México                                            Compra54392402190
25   5439240297320006202107292126070000038460000000000000  858511602260746540001000602284          REST VELAS 10 VELAMAR  ALTAMIRA TAMP MEX                                            México                                            Compra54392402970
25   543924022488100520210730052321000000059000000000000052656700012110310934601051000000          GOOGLE  Google Play    London        GBR                                       Reino Unido                              Not sufficient funds54392402240
25   543924022488100520210730052321000000059000000000000052656700012110310934601051000000          GOOGLE  Google Play    London        GBR                                       Reino Unido                              Not sufficient funds54392402240
25   5439240220870002202107292252450000007876000000000000  863343700000000002401000604579          LA ANACUA SANTA CATARI SANTA CATARIN MEX                                            México                                            Compra54392402200
9900000050000000000000000000000000000000000000000000000000000000000000000000000000000000000000000000000000000000000000000000000000000000000000000000000000000000000000000000000000000000000000000000000000000000000000000000000000000000000000000000000000
